{
  "address": "0xF5Ae41f9cf1f267D6c7e652a57Bcf8935791f739",
  "abi": [
    {
      "inputs": [],
      "name": "ActionMayCauseInsolvency",
      "type": "error"
    },
    {
      "inputs": [],
      "name": "CalldataMustHaveValidPayload",
      "type": "error"
    },
    {
      "inputs": [],
      "name": "CalldataOverOrUnderFlow",
      "type": "error"
    },
    {
      "inputs": [],
      "name": "DataPackageTimestampMustNotBeZero",
      "type": "error"
    },
    {
      "inputs": [],
      "name": "DataPackageTimestampsMustBeEqual",
      "type": "error"
    },
    {
      "inputs": [],
      "name": "EachSignerMustProvideTheSameValue",
      "type": "error"
    },
    {
      "inputs": [],
      "name": "EmptyCalldataPointersArr",
      "type": "error"
    },
    {
      "inputs": [],
      "name": "GmxMarketTokensNotFound",
      "type": "error"
    },
    {
      "inputs": [],
      "name": "GmxPlusMarketTokenNotFound",
      "type": "error"
    },
    {
      "inputs": [],
      "name": "IncorrectUnsignedMetadataSize",
      "type": "error"
    },
    {
      "inputs": [],
      "name": "InsufficientBalance",
      "type": "error"
    },
    {
      "inputs": [],
      "name": "InsufficientBalanceAfterFees",
      "type": "error"
    },
    {
      "inputs": [
        {
          "internalType": "uint256",
          "name": "receivedSignersCount",
          "type": "uint256"
        },
        {
          "internalType": "uint256",
          "name": "requiredSignersCount",
          "type": "uint256"
        }
      ],
      "name": "InsufficientNumberOfUniqueSigners",
      "type": "error"
    },
    {
      "inputs": [],
      "name": "InvalidCalldataPointer",
      "type": "error"
    },
    {
      "inputs": [],
      "name": "InvalidExecutionFee",
      "type": "error"
    },
    {
      "inputs": [],
      "name": "InvalidMinOutputValue",
      "type": "error"
    },
    {
      "inputs": [],
      "name": "MarketNotWhitelisted",
      "type": "error"
    },
    {
      "inputs": [],
      "name": "NotGMXMarket",
      "type": "error"
    },
    {
      "inputs": [],
      "name": "OnlyWhitelistedLiquidators",
      "type": "error"
    },
    {
      "inputs": [
        {
          "internalType": "bytes",
          "name": "result",
          "type": "bytes"
        }
      ],
      "name": "ProxyCalldataFailedWithCustomError",
      "type": "error"
    },
    {
      "inputs": [
        {
          "internalType": "string",
          "name": "message",
          "type": "string"
        }
      ],
      "name": "ProxyCalldataFailedWithStringMessage",
      "type": "error"
    },
    {
      "inputs": [],
      "name": "ProxyCalldataFailedWithoutErrMsg",
      "type": "error"
    },
    {
      "inputs": [],
      "name": "RedstonePayloadMustHaveAtLeastOneDataPackage",
      "type": "error"
    },
    {
      "inputs": [
        {
          "internalType": "address",
          "name": "receivedSigner",
          "type": "address"
        }
      ],
      "name": "SignerNotAuthorised",
      "type": "error"
    },
    {
      "inputs": [],
      "name": "SymbolNotFoundInArray",
      "type": "error"
    },
    {
      "anonymous": false,
      "inputs": [
        {
          "indexed": true,
          "internalType": "address",
          "name": "gmMarket",
          "type": "address"
        },
        {
          "indexed": true,
          "internalType": "uint256",
          "name": "benchmarkValueUsd",
          "type": "uint256"
        },
        {
          "indexed": false,
          "internalType": "uint256",
          "name": "longTokenAmount",
          "type": "uint256"
        },
        {
          "indexed": false,
          "internalType": "uint256",
          "name": "shortTokenAmount",
          "type": "uint256"
        },
        {
          "indexed": false,
          "internalType": "address",
          "name": "longTokenAddress",
          "type": "address"
        },
        {
          "indexed": false,
          "internalType": "address",
          "name": "shortTokenAddress",
          "type": "address"
        },
        {
          "indexed": false,
          "internalType": "uint256",
          "name": "gmTokenPriceUsd",
          "type": "uint256"
        },
        {
          "indexed": false,
          "internalType": "uint256",
          "name": "longTokenPriceUsd",
          "type": "uint256"
        },
        {
          "indexed": false,
          "internalType": "uint256",
          "name": "shortTokenPriceUsd",
          "type": "uint256"
        },
        {
          "indexed": false,
          "internalType": "uint256",
          "name": "timestamp",
          "type": "uint256"
        }
      ],
      "name": "BenchmarkCreated",
      "type": "event"
    },
    {
      "anonymous": false,
      "inputs": [
        {
          "indexed": true,
          "internalType": "address",
          "name": "gmMarket",
          "type": "address"
        },
        {
          "indexed": true,
          "internalType": "address",
          "name": "initiator",
          "type": "address"
        },
        {
          "indexed": false,
          "internalType": "bool",
          "name": "isPlusMarket",
          "type": "bool"
        },
        {
          "indexed": false,
          "internalType": "uint256",
          "name": "timestamp",
          "type": "uint256"
        }
      ],
      "name": "BenchmarkInitiated",
      "type": "event"
    },
    {
      "anonymous": false,
      "inputs": [
        {
          "indexed": true,
          "internalType": "address",
          "name": "gmMarket",
          "type": "address"
        },
        {
          "indexed": true,
          "internalType": "uint256",
          "name": "newBenchmarkValueUsd",
          "type": "uint256"
        },
        {
          "indexed": false,
          "internalType": "uint256",
          "name": "newLongTokenAmount",
          "type": "uint256"
        },
        {
          "indexed": false,
          "internalType": "uint256",
          "name": "newShortTokenAmount",
          "type": "uint256"
        },
        {
          "indexed": false,
          "internalType": "uint256",
          "name": "gmTokenPriceUsd",
          "type": "uint256"
        },
        {
          "indexed": false,
          "internalType": "uint256",
          "name": "longTokenPriceUsd",
          "type": "uint256"
        },
        {
          "indexed": false,
          "internalType": "uint256",
          "name": "shortTokenPriceUsd",
          "type": "uint256"
        },
        {
          "indexed": false,
          "internalType": "uint256",
          "name": "timestamp",
          "type": "uint256"
        }
      ],
      "name": "BenchmarkUpdated",
      "type": "event"
    },
    {
      "anonymous": false,
      "inputs": [
        {
          "indexed": true,
          "internalType": "address",
          "name": "gmMarket",
          "type": "address"
        },
        {
          "indexed": true,
          "internalType": "uint256",
          "name": "feeInGmTokens",
          "type": "uint256"
        },
        {
          "indexed": false,
          "internalType": "uint256",
          "name": "performanceUsd",
          "type": "uint256"
        },
        {
          "indexed": false,
          "internalType": "uint256",
          "name": "currentBalance",
          "type": "uint256"
        },
        {
          "indexed": false,
          "internalType": "uint256",
          "name": "timestamp",
          "type": "uint256"
        }
      ],
      "name": "FeesCollected",
      "type": "event"
    },
    {
      "inputs": [],
      "name": "FEE_PERCENTAGE",
      "outputs": [
        {
          "internalType": "uint256",
          "name": "",
          "type": "uint256"
        }
      ],
      "stateMutability": "view",
      "type": "function"
    },
    {
      "inputs": [
        {
          "internalType": "bytes32[]",
          "name": "assetsToRepay",
          "type": "bytes32[]"
        }
      ],
      "name": "_getAllPricesForLiquidation",
      "outputs": [
        {
          "components": [
            {
              "components": [
                {
                  "internalType": "bytes32",
                  "name": "asset",
                  "type": "bytes32"
                },
                {
                  "internalType": "uint256",
                  "name": "price",
                  "type": "uint256"
                }
              ],
              "internalType": "struct SolvencyFacetProd.AssetPrice[]",
              "name": "ownedAssetsPrices",
              "type": "tuple[]"
            },
            {
              "components": [
                {
                  "internalType": "bytes32",
                  "name": "asset",
                  "type": "bytes32"
                },
                {
                  "internalType": "uint256",
                  "name": "price",
                  "type": "uint256"
                }
              ],
              "internalType": "struct SolvencyFacetProd.AssetPrice[]",
              "name": "debtAssetsPrices",
              "type": "tuple[]"
            },
            {
              "components": [
                {
                  "internalType": "bytes32",
                  "name": "asset",
                  "type": "bytes32"
                },
                {
                  "internalType": "uint256",
                  "name": "price",
                  "type": "uint256"
                }
              ],
              "internalType": "struct SolvencyFacetProd.AssetPrice[]",
              "name": "stakedPositionsPrices",
              "type": "tuple[]"
            },
            {
              "components": [
                {
                  "internalType": "bytes32",
                  "name": "asset",
                  "type": "bytes32"
                },
                {
                  "internalType": "uint256",
                  "name": "price",
                  "type": "uint256"
                }
              ],
              "internalType": "struct SolvencyFacetProd.AssetPrice[]",
              "name": "assetsToRepayPrices",
              "type": "tuple[]"
            }
          ],
          "internalType": "struct SolvencyFacetProd.CachedPrices",
          "name": "result",
          "type": "tuple"
        }
      ],
      "stateMutability": "nonpayable",
      "type": "function"
    },
    {
      "inputs": [],
      "name": "_getHealthRatio",
      "outputs": [
        {
          "internalType": "uint256",
          "name": "health",
          "type": "uint256"
        }
      ],
      "stateMutability": "nonpayable",
      "type": "function"
    },
    {
      "inputs": [
        {
          "components": [
            {
              "components": [
                {
                  "internalType": "bytes32",
                  "name": "asset",
                  "type": "bytes32"
                },
                {
                  "internalType": "uint256",
                  "name": "price",
                  "type": "uint256"
                }
              ],
              "internalType": "struct SolvencyFacetProd.AssetPrice[]",
              "name": "ownedAssetsPrices",
              "type": "tuple[]"
            },
            {
              "components": [
                {
                  "internalType": "bytes32",
                  "name": "asset",
                  "type": "bytes32"
                },
                {
                  "internalType": "uint256",
                  "name": "price",
                  "type": "uint256"
                }
              ],
              "internalType": "struct SolvencyFacetProd.AssetPrice[]",
              "name": "debtAssetsPrices",
              "type": "tuple[]"
            },
            {
              "components": [
                {
                  "internalType": "bytes32",
                  "name": "asset",
                  "type": "bytes32"
                },
                {
                  "internalType": "uint256",
                  "name": "price",
                  "type": "uint256"
                }
              ],
              "internalType": "struct SolvencyFacetProd.AssetPrice[]",
              "name": "stakedPositionsPrices",
              "type": "tuple[]"
            },
            {
              "components": [
                {
                  "internalType": "bytes32",
                  "name": "asset",
                  "type": "bytes32"
                },
                {
                  "internalType": "uint256",
                  "name": "price",
                  "type": "uint256"
                }
              ],
              "internalType": "struct SolvencyFacetProd.AssetPrice[]",
              "name": "assetsToRepayPrices",
              "type": "tuple[]"
            }
          ],
          "internalType": "struct SolvencyFacetProd.CachedPrices",
          "name": "cachedPrices",
          "type": "tuple"
        }
      ],
      "name": "_getHealthRatioWithPrices",
      "outputs": [
        {
          "internalType": "uint256",
          "name": "health",
          "type": "uint256"
        }
      ],
      "stateMutability": "nonpayable",
      "type": "function"
    },
    {
      "inputs": [],
      "name": "_getThresholdWeightedValue",
      "outputs": [
        {
          "internalType": "uint256",
          "name": "twv",
          "type": "uint256"
        }
      ],
      "stateMutability": "nonpayable",
      "type": "function"
    },
    {
      "inputs": [],
      "name": "_getThresholdWeightedValuePayable",
      "outputs": [
        {
          "internalType": "uint256",
          "name": "twv",
          "type": "uint256"
        }
      ],
      "stateMutability": "nonpayable",
      "type": "function"
    },
    {
      "inputs": [],
      "name": "extractTimestampsAndAssertAllAreEqual",
      "outputs": [
        {
          "internalType": "uint256",
          "name": "extractedTimestamp",
          "type": "uint256"
        }
      ],
      "stateMutability": "pure",
      "type": "function"
    },
    {
      "inputs": [],
      "name": "getAccountFrozenSince",
      "outputs": [
        {
          "internalType": "uint256",
          "name": "",
          "type": "uint256"
        }
      ],
      "stateMutability": "view",
      "type": "function"
    },
    {
      "inputs": [],
      "name": "getAllAssetsBalances",
      "outputs": [
        {
          "components": [
            {
              "internalType": "bytes32",
              "name": "name",
              "type": "bytes32"
            },
            {
              "internalType": "uint256",
              "name": "balance",
              "type": "uint256"
            }
          ],
          "internalType": "struct SmartLoanViewFacet.AssetNameBalance[]",
          "name": "",
          "type": "tuple[]"
        }
      ],
      "stateMutability": "view",
      "type": "function"
    },
    {
      "inputs": [],
      "name": "getAllAssetsBalancesDebtCoverages",
      "outputs": [
        {
          "components": [
            {
              "internalType": "bytes32",
              "name": "name",
              "type": "bytes32"
            },
            {
              "internalType": "uint256",
              "name": "balance",
              "type": "uint256"
            },
            {
              "internalType": "uint256",
              "name": "debtCoverage",
              "type": "uint256"
            }
          ],
          "internalType": "struct SmartLoanViewFacet.AssetNameBalanceDebtCoverage[]",
          "name": "",
          "type": "tuple[]"
        }
      ],
      "stateMutability": "view",
      "type": "function"
    },
    {
      "inputs": [],
      "name": "getAllAssetsPrices",
      "outputs": [
        {
          "components": [
            {
              "internalType": "bytes32",
              "name": "name",
              "type": "bytes32"
            },
            {
              "internalType": "uint256",
              "name": "price",
              "type": "uint256"
            }
          ],
          "internalType": "struct SmartLoanViewFacet.AssetNamePrice[]",
          "name": "",
          "type": "tuple[]"
        }
      ],
      "stateMutability": "nonpayable",
      "type": "function"
    },
    {
      "inputs": [],
      "name": "getAllOwnedAssets",
      "outputs": [
        {
          "internalType": "bytes32[]",
          "name": "result",
          "type": "bytes32[]"
        }
      ],
      "stateMutability": "view",
      "type": "function"
    },
    {
      "inputs": [
        {
          "internalType": "bytes32",
          "name": "_asset",
          "type": "bytes32"
        }
      ],
      "name": "getBalance",
      "outputs": [
        {
          "internalType": "uint256",
          "name": "",
          "type": "uint256"
        }
      ],
      "stateMutability": "view",
      "type": "function"
    },
    {
      "inputs": [],
      "name": "getContractOwner",
      "outputs": [
        {
          "internalType": "address",
          "name": "_owner",
          "type": "address"
        }
      ],
      "stateMutability": "view",
      "type": "function"
    },
    {
      "inputs": [],
      "name": "getDebts",
      "outputs": [
        {
          "components": [
            {
              "internalType": "bytes32",
              "name": "name",
              "type": "bytes32"
            },
            {
              "internalType": "uint256",
              "name": "debt",
              "type": "uint256"
            }
          ],
          "internalType": "struct SmartLoanViewFacet.AssetNameDebt[]",
          "name": "",
          "type": "tuple[]"
        }
      ],
      "stateMutability": "view",
      "type": "function"
    },
    {
      "inputs": [
        {
          "internalType": "address",
          "name": "gmToken",
          "type": "address"
        }
      ],
      "name": "getGmTokenBalanceAfterFees",
      "outputs": [
        {
          "internalType": "uint256",
          "name": "",
          "type": "uint256"
        }
      ],
      "stateMutability": "view",
      "type": "function"
    },
    {
      "inputs": [
        {
          "internalType": "address",
          "name": "market",
          "type": "address"
        }
      ],
      "name": "getGmxPositionBenchmark",
      "outputs": [
        {
          "components": [
            {
              "internalType": "uint256",
              "name": "benchmarkValueUsd",
              "type": "uint256"
            },
            {
              "internalType": "uint256",
              "name": "underlyingLongTokenAmount",
              "type": "uint256"
            },
            {
              "internalType": "uint256",
              "name": "underlyingShortTokenAmount",
              "type": "uint256"
            },
            {
              "internalType": "uint256",
              "name": "benchmarkTimeStamp",
              "type": "uint256"
            },
            {
              "internalType": "address",
              "name": "longTokenAddress",
              "type": "address"
            },
            {
              "internalType": "address",
              "name": "shortTokenAddress",
              "type": "address"
            },
            {
              "internalType": "bool",
              "name": "exists",
              "type": "bool"
            },
            {
              "internalType": "uint256",
              "name": "gmTokenPriceUsd",
              "type": "uint256"
            },
            {
              "internalType": "uint256",
              "name": "longTokenPriceUsd",
              "type": "uint256"
            },
            {
              "internalType": "uint256",
              "name": "shortTokenPriceUsd",
              "type": "uint256"
            }
          ],
          "internalType": "struct DiamondStorageLib.GmxPositionBenchmark",
          "name": "benchmark",
          "type": "tuple"
        }
      ],
      "stateMutability": "view",
      "type": "function"
    },
    {
      "inputs": [],
      "name": "getPercentagePrecision",
      "outputs": [
        {
          "internalType": "uint256",
          "name": "",
          "type": "uint256"
        }
      ],
      "stateMutability": "view",
      "type": "function"
    },
    {
      "inputs": [
        {
          "internalType": "bytes32",
          "name": "symbol",
          "type": "bytes32"
        }
      ],
      "name": "getPrice",
      "outputs": [
        {
          "internalType": "uint256",
          "name": "price",
          "type": "uint256"
        }
      ],
      "stateMutability": "view",
      "type": "function"
    },
    {
      "inputs": [],
      "name": "getProposedOwner",
      "outputs": [
        {
          "internalType": "address",
          "name": "_proposed",
          "type": "address"
        }
      ],
      "stateMutability": "view",
      "type": "function"
    },
    {
      "inputs": [],
      "name": "getStakedPositions",
      "outputs": [
        {
          "components": [
            {
              "internalType": "address",
              "name": "asset",
              "type": "address"
            },
            {
              "internalType": "bytes32",
              "name": "symbol",
              "type": "bytes32"
            },
            {
              "internalType": "bytes32",
              "name": "identifier",
              "type": "bytes32"
            },
            {
              "internalType": "bytes4",
              "name": "balanceSelector",
              "type": "bytes4"
            },
            {
              "internalType": "bytes4",
              "name": "unstakeSelector",
              "type": "bytes4"
            }
          ],
          "internalType": "struct IStakingPositions.StakedPosition[]",
          "name": "_positions",
          "type": "tuple[]"
        }
      ],
      "stateMutability": "view",
      "type": "function"
    },
    {
      "inputs": [],
      "name": "getSupportedTokensAddresses",
      "outputs": [
        {
          "internalType": "address[]",
          "name": "",
          "type": "address[]"
        }
      ],
      "stateMutability": "view",
      "type": "function"
    },
    {
      "inputs": [
        {
          "internalType": "address",
          "name": "owner",
          "type": "address"
        }
      ],
      "name": "initialize",
      "outputs": [],
      "stateMutability": "nonpayable",
      "type": "function"
    }
  ],
  "transactionHash": "0x7ca0017ff928a68ea61ce889f604bdbad5172931a9b60587c1e2da59d7561c55",
  "args": [],
  "numDeployments": 7,
  "solcInputHash": "49d6a0f70a4a9dc30a7c5684b71432b2",
  "bytecode": "0x608060405234801561001057600080fd5b506138e0806100206000396000f3fe608060405234801561001057600080fd5b506004361061011c5760003560e01c80620b46f814610121578063132e1d39146101435780631fc8b6ee1461014b57806321f880971461015e5780632df4c1061461017357806331d98b3f1461018857806339e2719e1461019b578063442890d5146101a357806348066332146101b8578063530b3977146101d857806355a547d5146101e0578063624763d2146101e85780636b6c92d9146101fd5780636e3bfe9f146102125780637088e379146102255780638e7394611461022d578063a935310f14610240578063b2d40e7314610255578063b643813914610275578063b98a268c1461028a578063c4d66de814610292578063c836ef2e146102a7578063eae5a62d146102bc575b600080fd5b61013067016345785d8a000081565b6040519081526020015b60405180910390f35b6103e8610130565b610130610159366004612c52565b6102c9565b6101666107ae565b60405161013a9190612c7c565b61017b610828565b60405161013a9190612cc9565b610130610196366004612d50565b6108d9565b610130610955565b6101ab6109ab565b60405161013a9190612d69565b6101cb6101c6366004612c52565b6109b5565b60405161013a9190612d7d565b6101306109c6565b610130610a09565b6101f0610b21565b60405161013a9190612e0a565b610205610de9565b60405161013a9190612e65565b610130610220366004612fe7565b610f5b565b610130610fc1565b61013061023b366004612d50565b611004565b6102486110f5565b60405161013a91906130bf565b6102686102633660046130ff565b61125b565b60405161013a91906131d4565b61027d6112c6565b60405161013a9190613249565b6101306112d0565b6102a56102a0366004612c52565b6112e5565b005b6102af611477565b60405161013a9190613281565b6101ab6116b5565b905090565b60008060006102d7846116bf565b9150915060006102e56117a9565b905060606000826001600160a01b031663f4764149886040518263ffffffff1660e01b81526004016103179190612d69565b602060405180830381865afa158015610334573d6000803e3d6000fd5b505050506040513d601f19601f8201168201806040525081019061035891906132c1565b61058e57604080516003808252608082019092526000916020820160608036833750506040516307c11f8f60e51b8152919250506001600160a01b0385169063f823f1e0906103ab908b90600401612d69565b602060405180830381865afa1580156103c8573d6000803e3d6000fd5b505050506040513d601f19601f820116820180604052508101906103ec91906132e3565b816000815181106103ff576103ff6132fc565b60209081029190910101526040516307c11f8f60e51b81526001600160a01b0385169063f823f1e090610436908990600401612d69565b602060405180830381865afa158015610453573d6000803e3d6000fd5b505050506040513d601f19601f8201168201806040525081019061047791906132e3565b8160018151811061048a5761048a6132fc565b60209081029190910101526040516307c11f8f60e51b81526001600160a01b0385169063f823f1e0906104c1908890600401612d69565b602060405180830381865afa1580156104de573d6000803e3d6000fd5b505050506040513d601f19601f8201168201806040525081019061050291906132e3565b81600281518110610515576105156132fc565b60200260200101818152505061052a816117c1565b92506105868884600081518110610543576105436132fc565b60200260200101518560018151811061055e5761055e6132fc565b602002602001015186600281518110610579576105796132fc565b6020026020010151611803565b915050610716565b60408051600280825260608201835260009260208301908036833750506040516307c11f8f60e51b8152919250506001600160a01b0385169063f823f1e0906105db908b90600401612d69565b602060405180830381865afa1580156105f8573d6000803e3d6000fd5b505050506040513d601f19601f8201168201806040525081019061061c91906132e3565b8160008151811061062f5761062f6132fc565b60209081029190910101526040516307c11f8f60e51b81526001600160a01b0385169063f823f1e090610666908990600401612d69565b602060405180830381865afa158015610683573d6000803e3d6000fd5b505050506040513d601f19601f820116820180604052508101906106a791906132e3565b816001815181106106ba576106ba6132fc565b6020026020010181815250506106cf816117c1565b925061071288846000815181106106e8576106e86132fc565b602002602001015185600181518110610703576107036132fc565b60200260200101516000611803565b9150505b6040516370a0823160e01b81526000906001600160a01b038916906370a0823190610745903090600401612d69565b602060405180830381865afa158015610762573d6000803e3d6000fd5b505050506040513d601f19601f8201168201806040525081019061078691906132e3565b90508082101561079f5761079a8282613328565b6107a2565b60005b98975050505050505050565b606060006107ba6117a9565b9050806001600160a01b03166321f880976040518163ffffffff1660e01b8152600401600060405180830381865afa1580156107fa573d6000803e3d6000fd5b505050506040513d6000823e601f3d908101601f19168201604052610822919081019061333b565b91505090565b606061083261197a565b805480602002602001604051908101604052809291908181526020016000905b828210156108d05760008481526020908190206040805160a0810182526004860290920180546001600160a01b0316835260018082015484860152600282015492840192909252600301546001600160e01b031960e082811b82166060860152600160201b90920490911b1660808301529083529092019101610852565b50505050905090565b600061093c6108ee6331d98b3f60e01b61198c565b604051602481018590526331d98b3f60e01b906044015b60408051601f198184030181529190526020810180516001600160e01b03166001600160e01b031990931692909217909152611a0a565b80602001905181019061094f91906132e3565b92915050565b600061099861096a637914334f60e01b61198c565b6040805160048152602481019091526020810180516001600160e01b0316637914334f60e01b179052611a8d565b8060200190518101906102c491906132e3565b60006102c4611af2565b6109bd612bbc565b61094f82611b0e565b60006109986109db63fd4344cd60e01b61198c565b6040805160048152602481019091526020810180516001600160e01b031663fd4344cd60e01b179052611a8d565b600080610a14611bcf565b90506000610a2182611c76565b61ffff16905080600003610a4857604051632154bfcf60e21b815260040160405180910390fd5b610a536002836133c9565b915060005b81811015610b1b576000610a6b84611cb0565b9050600080610a7b6068876133c9565b90506000610a898236613328565b9050803592508265ffffffffffff16600003610ab857604051630336dc9d60e41b815260040160405180910390fd5b87600003610ad0578265ffffffffffff169750610af8565b878365ffffffffffff1614610af85760405163d9d1f46560e01b815260040160405180910390fd5b610b0284886133c9565b9650505050508080610b13906133dc565b915050610a58565b50505090565b60606000610b2d6117a9565b90506000816001600160a01b031663869c490d6040518163ffffffff1660e01b8152600401600060405180830381865afa158015610b6f573d6000803e3d6000fd5b505050506040513d6000823e601f3d908101601f19168201604052610b9791908101906133f5565b9050600081516001600160401b03811115610bb457610bb4612ea5565b604051908082528060200260200182016040528015610bff57816020015b6040805160608101825260008082526020808301829052928201528252600019909201910181610bd25790505b50905060005b8251811015610de1576000846001600160a01b03166325eb876f858481518110610c3157610c316132fc565b602002602001015160016040518363ffffffff1660e01b8152600401610c5892919061347a565b602060405180830381865afa158015610c75573d6000803e3d6000fd5b505050506040513d601f19601f82011682018060405250810190610c99919061348a565b90506040518060600160405280858481518110610cb857610cb86132fc565b60200260200101518152602001826001600160a01b03166370a08231306040518263ffffffff1660e01b8152600401610cf19190612d69565b602060405180830381865afa158015610d0e573d6000803e3d6000fd5b505050506040513d601f19601f82011682018060405250810190610d3291906132e3565b8152602001866001600160a01b0316632c1fac25610d4e611ce4565b856040518363ffffffff1660e01b8152600401610d6c9291906134bd565b602060405180830381865afa158015610d89573d6000803e3d6000fd5b505050506040513d601f19601f82011682018060405250810190610dad91906132e3565b815250838381518110610dc257610dc26132fc565b6020026020010181905250508080610dd9906133dc565b915050610c05565b509392505050565b60606000610df56117a9565b90506000816001600160a01b031663869c490d6040518163ffffffff1660e01b8152600401600060405180830381865afa158015610e37573d6000803e3d6000fd5b505050506040513d6000823e601f3d908101601f19168201604052610e5f91908101906133f5565b9050600081516001600160401b03811115610e7c57610e7c612ea5565b604051908082528060200260200182016040528015610eb557816020015b610ea2612c23565b815260200190600190039081610e9a5790505b5090506000610ec48385611cf7565b9050600080825111610ee457604080516000815260208101909152610eed565b610eed826117c1565b905060005b8451811015610f5057610f20858281518110610f1057610f106132fc565b6020026020010151848489611f1c565b848281518110610f3257610f326132fc565b60200260200101819052508080610f48906133dc565b915050610ef2565b509195945050505050565b600061093c610f7063360398a360e01b61198c565b60405163360398a360e01b90610f8a9086906024016131d4565b60408051601f198184030181529190526020810180516001600160e01b03166001600160e01b031990931692909217909152611a8d565b6000610998610fd663caacc76160e01b61198c565b6040805160048152602481019091526020810180516001600160e01b031663caacc76160e01b179052611a8d565b60008061100f6117a9565b6001600160a01b03166325eb876f8460016040518363ffffffff1660e01b815260040161103d92919061347a565b602060405180830381865afa15801561105a573d6000803e3d6000fd5b505050506040513d601f19601f8201168201806040525081019061107e919061348a565b6040516370a0823160e01b81529091506001600160a01b038216906370a08231906110ad903090600401612d69565b602060405180830381865afa1580156110ca573d6000803e3d6000fd5b505050506040513d601f19601f820116820180604052508101906110ee91906132e3565b9392505050565b606060006111016117a9565b6001600160a01b031663869c490d6040518163ffffffff1660e01b8152600401600060405180830381865afa15801561113e573d6000803e3d6000fd5b505050506040513d6000823e601f3d908101601f1916820160405261116691908101906133f5565b90506000611173826117c1565b9050600082516001600160401b0381111561119057611190612ea5565b6040519080825280602002602001820160405280156111d557816020015b60408051808201909152600080825260208201528152602001906001900390816111ae5790505b50905060005b8351811015610de1576040518060400160405280858381518110611201576112016132fc565b60200260200101518152602001848381518110611220576112206132fc565b602002602001015181525082828151811061123d5761123d6132fc565b60200260200101819052508080611253906133dc565b9150506111db565b6112866040518060800160405280606081526020016060815260200160608152602001606081525090565b6112b36112996351d5468f60e11b61198c565b6040516351d5468f60e11b90610f8a908690602401613249565b80602001905181019061094f9190613576565b60606102c46120b0565b6000806112db612112565b6008015492915050565b6001600160a01b03811661135b5760405162461bcd60e51b815260206004820152603260248201527f496e697469616c697a653a2043616e6e6f742073657420746865206f776e657260448201527120746f2061207a65726f206164647265737360701b60648201526084015b60405180910390fd5b611363612136565b6001600160a01b031630036113cf5760405162461bcd60e51b815260206004820152602c60248201527f4469616d6f6e64496e69743a2043616e6e6f7420696e697469616c697a65204460448201526b34b0b6b7b7322132b0b1b7b760a11b6064820152608401611352565b60006113d9612112565b6003810154909150600160a01b900460ff161561144d5760405162461bcd60e51b815260206004820152602c60248201527f4469616d6f6e64496e69743a20636f6e747261637420697320616c726561647960448201526b081a5b9a5d1a585b1a5e995960a21b6064820152608401611352565b6114568261214e565b61146060006121f4565b600301805460ff60a01b1916600160a01b17905550565b606060006114836117a9565b90506000816001600160a01b03166366273c196040518163ffffffff1660e01b8152600401600060405180830381865afa1580156114c5573d6000803e3d6000fd5b505050506040513d6000823e601f3d908101601f191682016040526114ed91908101906133f5565b9050600081516001600160401b0381111561150a5761150a612ea5565b60405190808252806020026020018201604052801561154f57816020015b60408051808201909152600080825260208201528152602001906001900390816115285790505b50905060005b8251811015610de1576000846001600160a01b0316630edc25b6858481518110611581576115816132fc565b60200260200101516040518263ffffffff1660e01b81526004016115a791815260200190565b602060405180830381865afa1580156115c4573d6000803e3d6000fd5b505050506040513d601f19601f820116820180604052508101906115e8919061348a565b90506040518060400160405280858481518110611607576116076132fc565b60200260200101518152602001826001600160a01b0316636011163e306040518263ffffffff1660e01b81526004016116409190612d69565b602060405180830381865afa15801561165d573d6000803e3d6000fd5b505050506040513d601f19601f8201168201806040525081019061168191906132e3565b815250838381518110611696576116966132fc565b60200260200101819052505080806116ad906133dc565b915050611555565b60006102c461221f565b60008080731ec018d2b6acca20a0bedb86450b7e27d1d8355b90506000732f0b22339414aded7d5f06f9d604c7ff5b2fe3f660405163714af34b60e01b81526001600160a01b038083166004830152878116602483015291925060009184169063714af34b90604401608060405180830381865afa158015611745573d6000803e3d6000fd5b505050506040513d601f19601f82011682018060405250810190611769919061363f565b60408101516060820151909650945090506001600160a01b0385166117a15760405163fd842a2360e01b815260040160405180910390fd5b505050915091565b73f3978209b7cff2b90100c6f87cec77de928ed58e90565b60606117f06117d6631377241b60e11b61198c565b604051631377241b60e11b90610905908690602401613249565b80602001905181019061094f91906133f5565b60008061180f86611b0e565b90508060c001511580611820575084155b1561182f576000915050611972565b6040516370a0823160e01b81526000906001600160a01b038816906370a082319061185e903090600401612d69565b602060405180830381865afa15801561187b573d6000803e3d6000fd5b505050506040513d601f19601f8201168201806040525081019061189f91906132e3565b905060006305f5e1006118b288846136c3565b6118bc91906136da565b905060006118d3846020015188866080015161223b565b905060006118ea8560400151888760a0015161223b565b905060006118f882846133c9565b90508084116119105760009650505050505050611972565b600061191c8286613328565b9050801561196a576000670de0b6b3a764000061194167016345785d8a0000846136c3565b61194b91906136da565b90508b61195c826305f5e1006136c3565b61196691906136da565b9850505b505050505050505b949350505050565b6000611984612112565b600701905090565b6000611996612136565b604051630d74157760e01b81526001600160e01b0319841660048201526001600160a01b039190911690630d74157790602401602060405180830381865afa1580156119e6573d6000803e3d6000fd5b505050506040513d601f19601f8201168201806040525081019061094f919061348a565b60606000611a178361233e565b9050600080856001600160a01b031683604051611a349190613720565b600060405180830381855afa9150503d8060008114611a6f576040519150601f19603f3d011682016040523d82523d6000602084013e611a74565b606091505b5091509150611a8382826123cd565b9695505050505050565b60606000611a9a8361233e565b9050600080856001600160a01b031683604051611ab79190613720565b600060405180830381855af49150503d8060008114611a6f576040519150601f19603f3d011682016040523d82523d6000602084013e611a74565b6000611afc612112565b600101546001600160a01b0316919050565b611b16612bbc565b506001600160a01b0390811660009081527f283b2a4d03bccb225a863e20e7f333d968b6323af87aaab8eb8bdbf05de84ca360209081526040918290208251610140810184528154815260018201549281019290925260028101549282019290925260038201546060820152600482015483166080820152600582015492831660a0820152600160a01b90920460ff16151560c0830152600681015460e083015260078101546101008301526008015461012082015290565b60006602ed57011e0000601f1936013581161480611c00576040516373bb264f60e11b815260040160405180910390fd5b60003660291115611c2457604051632bcb7bc560e11b815260040160405180910390fd5b5060281936013560006009611c3f600362ffffff85166133c9565b611c4991906133c9565b905036611c576002836133c9565b11156110ee5760405163c30a7bd760e01b815260040160405180910390fd5b600080611c846020846133c9565b905036811115611ca757604051632bcb7bc560e11b815260040160405180910390fd5b36033592915050565b6000806000611cbe8461244a565b9092509050604e611cd08260206133c9565b611cda90846136c3565b61197291906133c9565b6000611cee6124a1565b5460ff16919050565b6060600083516003611d0991906136c3565b6001600160401b03811115611d2057611d20612ea5565b604051908082528060200260200182016040528015611d49578160200160208202803683370190505b5090506000805b8551811015611e7a576000856001600160a01b03166325eb876f888481518110611d7c57611d7c6132fc565b602002602001015160016040518363ffffffff1660e01b8152600401611da392919061347a565b602060405180830381865afa158015611dc0573d6000803e3d6000fd5b505050506040513d601f19601f82011682018060405250810190611de4919061348a565b60405162f7fbdf60e61b81529091506001600160a01b03871690633dfef7c090611e12908490600401612d69565b602060405180830381865afa158015611e2f573d6000803e3d6000fd5b505050506040513d601f19601f82011682018060405250810190611e5391906132c1565b15611e6757611e64818585896124c5565b92505b5080611e72816133dc565b915050611d50565b50806001600160401b03811115611e9357611e93612ea5565b604051908082528060200260200182016040528015611ebc578160200160208202803683370190505b50925060005b81811015611f1357828181518110611edc57611edc6132fc565b6020026020010151848281518110611ef657611ef66132fc565b602090810291909101015280611f0b816133dc565b915050611ec2565b50505092915050565b611f24612c23565b6040516325eb876f60e01b81526000906001600160a01b038416906325eb876f90611f5690899060019060040161347a565b602060405180830381865afa158015611f73573d6000803e3d6000fd5b505050506040513d601f19601f82011682018060405250810190611f97919061348a565b60405162f7fbdf60e61b81529091506001600160a01b03841690633dfef7c090611fc5908490600401612d69565b602060405180830381865afa158015611fe2573d6000803e3d6000fd5b505050506040513d601f19601f8201168201806040525081019061200691906132c1565b1561203257604051806040016040528087815260200161202783888861275e565b815250915050611972565b6040518060400160405280878152602001826001600160a01b03166370a08231306040518263ffffffff1660e01b815260040161206f9190612d69565b602060405180830381865afa15801561208c573d6000803e3d6000fd5b505050506040513d601f19601f8201168201806040525081019061202791906132e3565b606060006120bc612112565b6004810180546040805160208084028201810190925282815293945083018282801561210757602002820191906000526020600020905b8154815260200190600101908083116120f3575b505050505091505090565b7f8d5bb42e0ac1496a2c326edc9c00758985246e6c2bb146d6c2f4a0d509e0960a90565b732916b3bf7c35bd21e63d01c93c62fb0d4994e56d90565b6000612158612112565b6001810180546001600160a01b038581166001600160a01b03198316179092556003830154929350169060ff600160a01b909104166121a85761219e6201518042613328565b60098301556121af565b4260098301555b826001600160a01b0316816001600160a01b03167f8be0079c531659141344cd1fd0a4f28419497f9722a3daafe3b4186f6b6457e060405160405180910390a3505050565b806121fd6124a1565b805460ff19166001836002811115612217576122176134a7565b021790555050565b6000612229612112565b600201546001600160a01b0316919050565b6000831580612248575082155b15612255575060006110ee565b6000826001600160a01b031663313ce5676040518163ffffffff1660e01b8152600401602060405180830381865afa158015612295573d6000803e3d6000fd5b505050506040513d601f19601f820116820180604052508101906122b9919061373c565b90508060ff1660121461231c5760128160ff1610156122f9576122dd81601261375f565b6122e890600a61385c565b6122f290866136c3565b945061231c565b61230460128261375f565b61230f90600a61385c565b61231990866136da565b94505b6305f5e10061232b85876136c3565b61233591906136da565b95945050505050565b8051606090600061234d612840565b9050600061235b82846133c9565b90503682111561237e57604051632bcb7bc560e11b815260040160405180910390fd5b6060604051905081815285602001848101826020015b818310156123ac578251815260209283019201612394565b50505082833603856020018301379190920181016020016040529392505050565b6060826124445781516000036123f657604051632b3ff13d60e11b815260040160405180910390fd5b602082015162461bcd60e51b148015612429576040516301efd04f60e31b81526044840190611352908290600401613897565b8260405163fd36fde360e01b81526004016113529190613897565b50919050565b60008080808061245b6041876133c9565b9050600061247461246d6020846133c9565b36906128ab565b8035945090506124858160036128ab565b62ffffff9490941697933563ffffffff16965092945050505050565b7f7a9adddebd88baae7e40094aa6b60b0511f0580f415e30c08b59fe6fb7548dad90565b60008060006124d3876116bf565b915091506000846001600160a01b031663f823f1e0896040518263ffffffff1660e01b81526004016125059190612d69565b602060405180830381865afa158015612522573d6000803e3d6000fd5b505050506040513d601f19601f8201168201806040525081019061254691906132e3565b90506000856001600160a01b031663f823f1e0856040518263ffffffff1660e01b81526004016125769190612d69565b602060405180830381865afa158015612593573d6000803e3d6000fd5b505050506040513d601f19601f820116820180604052508101906125b791906132e3565b90508694506125c78886846128b7565b6125f757818886815181106125de576125de6132fc565b6020908102919091010152846125f3816133dc565b9550505b6126028886836128b7565b6126325780888681518110612619576126196132fc565b60209081029190910101528461262e816133dc565b9550505b60405163f476414960e01b81526001600160a01b0387169063f47641499061265e908c90600401612d69565b602060405180830381865afa15801561267b573d6000803e3d6000fd5b505050506040513d601f19601f8201168201806040525081019061269f91906132c1565b612752576040516307c11f8f60e51b81526000906001600160a01b0388169063f823f1e0906126d2908790600401612d69565b602060405180830381865afa1580156126ef573d6000803e3d6000fd5b505050506040513d601f19601f8201168201806040525081019061271391906132e3565b90506127208987836128b7565b6127505780898781518110612737576127376132fc565b60209081029190910101528561274c816133dc565b9650505b505b50505050949350505050565b600080600061276c866116bf565b91509150600061277a6117a9565b9050600080600061278f8a87878c8c8961290a565b92509250925060006127a38b858585611803565b905060008b6001600160a01b03166370a08231306040518263ffffffff1660e01b81526004016127d39190612d69565b602060405180830381865afa1580156127f0573d6000803e3d6000fd5b505050506040513d601f19601f8201168201806040525081019061281491906132e3565b90508082101561282d576128288282613328565b612830565b60005b9c9b505050505050505050505050565b60008061284b611bcf565b9050600061285882611c76565b61ffff1690506128696002836133c9565b915060005b818110156128a357600061288184611cb0565b905061288d81856133c9565b935050808061289b906133dc565b91505061286e565b509092915050565b60006110ee8284613328565b6000805b838110156128ff57828582815181106128d6576128d66132fc565b6020026020010151036128ed5760019150506110ee565b806128f7816133dc565b9150506128bb565b506000949350505050565b600080600080846001600160a01b031663f823f1e08b6040518263ffffffff1660e01b815260040161293c9190612d69565b602060405180830381865afa158015612959573d6000803e3d6000fd5b505050506040513d601f19601f8201168201806040525081019061297d91906132e3565b90506000856001600160a01b031663f823f1e08b6040518263ffffffff1660e01b81526004016129ad9190612d69565b602060405180830381865afa1580156129ca573d6000803e3d6000fd5b505050506040513d601f19601f820116820180604052508101906129ee91906132e3565b9050866129fb8984612b5c565b81518110612a0b57612a0b6132fc565b6020026020010151945086612a208983612b5c565b81518110612a3057612a306132fc565b60200260200101519350856001600160a01b031663f47641498c6040518263ffffffff1660e01b8152600401612a669190612d69565b602060405180830381865afa158015612a83573d6000803e3d6000fd5b505050506040513d601f19601f82011682018060405250810190612aa791906132c1565b15612ab55760009250612b4e565b6040516307c11f8f60e51b81526000906001600160a01b0388169063f823f1e090612ae4908d90600401612d69565b602060405180830381865afa158015612b01573d6000803e3d6000fd5b505050506040513d601f19601f82011682018060405250810190612b2591906132e3565b905087612b328a83612b5c565b81518110612b4257612b426132fc565b60200260200101519350505b505096509650969350505050565b6000805b8351811015612ba25782848281518110612b7c57612b7c6132fc565b602002602001015103612b9057905061094f565b80612b9a816133dc565b915050612b60565b5060405163498a4e5b60e11b815260040160405180910390fd5b6040518061014001604052806000815260200160008152602001600081526020016000815260200160006001600160a01b0316815260200160006001600160a01b031681526020016000151581526020016000815260200160008152602001600081525090565b604080518082019091526000808252602082015290565b6001600160a01b0381168114612c4f57600080fd5b50565b600060208284031215612c6457600080fd5b81356110ee81612c3a565b6001600160a01b03169052565b6020808252825182820181905260009190848201906040850190845b81811015612cbd5783516001600160a01b031683529284019291840191600101612c98565b50909695505050505050565b602080825282518282018190526000919060409081850190868401855b82811015612d4357815180516001600160a01b03168552868101518786015285810151868601526060808201516001600160e01b031990811691870191909152608091820151169085015260a09093019290850190600101612ce6565b5091979650505050505050565b600060208284031215612d6257600080fd5b5035919050565b6001600160a01b0391909116815260200190565b600061014082019050825182526020830151602083015260408301516040830152606083015160608301526080830151612dba6080840182612c6f565b5060a0830151612dcd60a0840182612c6f565b5060c0830151612de160c084018215159052565b5060e083015160e083015261010080840151818401525061012080840151818401525092915050565b602080825282518282018190526000919060409081850190868401855b82811015612d435781518051855286810151878601528501518585015260609093019290850190600101612e27565b80518252602090810151910152565b602080825282518282018190526000919060409081850190868401855b82811015612d4357612e95848351612e56565b9284019290850190600101612e82565b634e487b7160e01b600052604160045260246000fd5b604080519081016001600160401b0381118282101715612edd57612edd612ea5565b60405290565b604051608081016001600160401b0381118282101715612edd57612edd612ea5565b604051601f8201601f191681016001600160401b0381118282101715612f2d57612f2d612ea5565b604052919050565b60006001600160401b03821115612f4e57612f4e612ea5565b5060051b60200190565b600082601f830112612f6957600080fd5b81356020612f7e612f7983612f35565b612f05565b82815260069290921b84018101918181019086841115612f9d57600080fd5b8286015b84811015612fdc5760408189031215612fba5760008081fd5b612fc2612ebb565b813581528482013585820152835291830191604001612fa1565b509695505050505050565b600060208284031215612ff957600080fd5b81356001600160401b038082111561301057600080fd5b908301906080828603121561302457600080fd5b61302c612ee3565b82358281111561303b57600080fd5b61304787828601612f58565b82525060208301358281111561305c57600080fd5b61306887828601612f58565b60208301525060408301358281111561308057600080fd5b61308c87828601612f58565b6040830152506060830135828111156130a457600080fd5b6130b087828601612f58565b60608301525095945050505050565b602080825282518282018190526000919060409081850190868401855b82811015612d43576130ef848351612e56565b92840192908501906001016130dc565b6000602080838503121561311257600080fd5b82356001600160401b0381111561312857600080fd5b8301601f8101851361313957600080fd5b8035613147612f7982612f35565b81815260059190911b8201830190838101908783111561316657600080fd5b928401925b828410156131845783358252928401929084019061316b565b979650505050505050565b600081518084526020808501945080840160005b838110156131c9576131b6878351612e56565b60409690960195908201906001016131a3565b509495945050505050565b6020815260008251608060208401526131f060a084018261318f565b90506020840151601f198085840301604086015261320e838361318f565b9250604086015191508085840301606086015261322b838361318f565b9250606086015191508085840301608086015250612335828261318f565b6020808252825182820181905260009190848201906040850190845b81811015612cbd57835183529284019291840191600101613265565b602080825282518282018190526000919060409081850190868401855b82811015612d43576132b1848351612e56565b928401929085019060010161329e565b6000602082840312156132d357600080fd5b815180151581146110ee57600080fd5b6000602082840312156132f557600080fd5b5051919050565b634e487b7160e01b600052603260045260246000fd5b634e487b7160e01b600052601160045260246000fd5b8181038181111561094f5761094f613312565b6000602080838503121561334e57600080fd5b82516001600160401b0381111561336457600080fd5b8301601f8101851361337557600080fd5b8051613383612f7982612f35565b81815260059190911b820183019083810190878311156133a257600080fd5b928401925b828410156131845783516133ba81612c3a565b825292840192908401906133a7565b8082018082111561094f5761094f613312565b6000600182016133ee576133ee613312565b5060010190565b6000602080838503121561340857600080fd5b82516001600160401b0381111561341e57600080fd5b8301601f8101851361342f57600080fd5b805161343d612f7982612f35565b81815260059190911b8201830190838101908783111561345c57600080fd5b928401925b8284101561318457835182529284019290840190613461565b9182521515602082015260400190565b60006020828403121561349c57600080fd5b81516110ee81612c3a565b634e487b7160e01b600052602160045260246000fd5b60408101600384106134df57634e487b7160e01b600052602160045260246000fd5b9281526001600160a01b039190911660209091015290565b600082601f83011261350857600080fd5b81516020613518612f7983612f35565b82815260069290921b8401810191818101908684111561353757600080fd5b8286015b84811015612fdc57604081890312156135545760008081fd5b61355c612ebb565b81518152848201518582015283529183019160400161353b565b60006020828403121561358857600080fd5b81516001600160401b038082111561359f57600080fd5b90830190608082860312156135b357600080fd5b6135bb612ee3565b8251828111156135ca57600080fd5b6135d6878286016134f7565b8252506020830151828111156135eb57600080fd5b6135f7878286016134f7565b60208301525060408301518281111561360f57600080fd5b61361b878286016134f7565b60408301525060608301518281111561363357600080fd5b6130b0878286016134f7565b60006080828403121561365157600080fd5b604051608081016001600160401b038111828210171561367357613673612ea5565b604052825161368181612c3a565b8152602083015161369181612c3a565b602082015260408301516136a481612c3a565b604082015260608301516136b781612c3a565b60608201529392505050565b808202811582820484141761094f5761094f613312565b6000826136f757634e487b7160e01b600052601260045260246000fd5b500490565b60005b838110156137175781810151838201526020016136ff565b50506000910152565b600082516137328184602087016136fc565b9190910192915050565b60006020828403121561374e57600080fd5b815160ff811681146110ee57600080fd5b60ff828116828216039081111561094f5761094f613312565b600181815b808511156137b357816000190482111561379957613799613312565b808516156137a657918102915b93841c939080029061377d565b509250929050565b6000826137ca5750600161094f565b816137d75750600061094f565b81600181146137ed57600281146137f757613813565b600191505061094f565b60ff84111561380857613808613312565b50506001821b61094f565b5060208310610133831016604e8410600b8410161715613836575081810a61094f565b6138408383613778565b806000190482111561385457613854613312565b029392505050565b60006110ee60ff8416836137bb565b600081518084526138838160208601602086016136fc565b601f01601f19169290920160200192915050565b6020815260006110ee602083018461386b56fea26469706673582212206225ff86e5d6800d0bd9ec727d7a67ba9498b3945dd914053d2051494ae90cfe64736f6c63430008110033",
  "devdoc": {
    "kind": "dev",
    "methods": {
      "getAllAssetsPrices()": {
        "details": "This function uses the redstone-evm-connector*"
      },
      "getBalance(bytes32)": {
        "params": {
          "_asset": "the code of an asset*"
        }
      },
      "getGmxPositionBenchmark(address)": {
        "params": {
          "market": "The GMX market address to get benchmark data for"
        },
        "returns": {
          "benchmark": "The benchmark data including value, token amounts, timestamps, and addresses"
        }
      }
    },
    "version": 1
  },
  "userdoc": {
    "kind": "user",
    "methods": {
      "getAllAssetsPrices()": {
        "notice": "Returns the prices of all assets supported by the TokenManager It could be used as a helper method for UI"
      },
      "getBalance(bytes32)": {
        "notice": "Returns a current balance of the asset held by the smart loan"
      },
      "getGmxPositionBenchmark(address)": {
        "notice": "Returns the saved GMX position benchmark for a given market"
      }
    },
    "version": 1
  },
  "storageLayout": {
    "storage": [],
    "types": null
  }
}