{
  "address": "0x1b9BcAC5Ea697f9c3d32F87A98f7520f8Dc3B06E",
  "abi": [
    {
      "inputs": [],
      "name": "BorrowersRegistryNotConfigured",
      "type": "error"
    },
    {
      "inputs": [],
      "name": "BurnAmountExceedsAvailableForUser",
      "type": "error"
    },
    {
      "inputs": [],
      "name": "BurnAmountExceedsBalance",
      "type": "error"
    },
    {
      "inputs": [],
      "name": "CalldataMustHaveValidPayload",
      "type": "error"
    },
    {
      "inputs": [],
      "name": "CalldataOverOrUnderFlow",
      "type": "error"
    },
    {
      "inputs": [],
      "name": "DataPackageTimestampMustNotBeZero",
      "type": "error"
    },
    {
      "inputs": [],
      "name": "DataPackageTimestampsMustBeEqual",
      "type": "error"
    },
    {
      "inputs": [],
      "name": "EachSignerMustProvideTheSameValue",
      "type": "error"
    },
    {
      "inputs": [],
      "name": "EmptyCalldataPointersArr",
      "type": "error"
    },
    {
      "inputs": [],
      "name": "IncorrectUnsignedMetadataSize",
      "type": "error"
    },
    {
      "inputs": [
        {
          "internalType": "uint256",
          "name": "requested",
          "type": "uint256"
        },
        {
          "internalType": "uint256",
          "name": "allowance",
          "type": "uint256"
        }
      ],
      "name": "InsufficientAllowance",
      "type": "error"
    },
    {
      "inputs": [
        {
          "internalType": "uint256",
          "name": "amount",
          "type": "uint256"
        },
        {
          "internalType": "uint256",
          "name": "availableBalance",
          "type": "uint256"
        }
      ],
      "name": "InsufficientAvailableBalance",
      "type": "error"
    },
    {
      "inputs": [
        {
          "internalType": "uint256",
          "name": "receivedSignersCount",
          "type": "uint256"
        },
        {
          "internalType": "uint256",
          "name": "requiredSignersCount",
          "type": "uint256"
        }
      ],
      "name": "InsufficientNumberOfUniqueSigners",
      "type": "error"
    },
    {
      "inputs": [],
      "name": "InsufficientPoolFunds",
      "type": "error"
    },
    {
      "inputs": [],
      "name": "InsufficientSurplus",
      "type": "error"
    },
    {
      "inputs": [],
      "name": "InvalidCalldataPointer",
      "type": "error"
    },
    {
      "inputs": [],
      "name": "MaxPoolUtilisationBreached",
      "type": "error"
    },
    {
      "inputs": [],
      "name": "MintToAddressZero",
      "type": "error"
    },
    {
      "inputs": [
        {
          "internalType": "address",
          "name": "target",
          "type": "address"
        }
      ],
      "name": "NotAContract",
      "type": "error"
    },
    {
      "inputs": [],
      "name": "NotAuthorizedToBorrow",
      "type": "error"
    },
    {
      "inputs": [],
      "name": "PoolFrozen",
      "type": "error"
    },
    {
      "inputs": [
        {
          "internalType": "bytes",
          "name": "result",
          "type": "bytes"
        }
      ],
      "name": "ProxyCalldataFailedWithCustomError",
      "type": "error"
    },
    {
      "inputs": [
        {
          "internalType": "string",
          "name": "message",
          "type": "string"
        }
      ],
      "name": "ProxyCalldataFailedWithStringMessage",
      "type": "error"
    },
    {
      "inputs": [],
      "name": "ProxyCalldataFailedWithoutErrMsg",
      "type": "error"
    },
    {
      "inputs": [],
      "name": "RedstonePayloadMustHaveAtLeastOneDataPackage",
      "type": "error"
    },
    {
      "inputs": [],
      "name": "RepayingMoreThanWasBorrowed",
      "type": "error"
    },
    {
      "inputs": [
        {
          "internalType": "address",
          "name": "receivedSigner",
          "type": "address"
        }
      ],
      "name": "SignerNotAuthorised",
      "type": "error"
    },
    {
      "inputs": [],
      "name": "SpenderZeroAddress",
      "type": "error"
    },
    {
      "inputs": [],
      "name": "TotalSupplyCapBreached",
      "type": "error"
    },
    {
      "inputs": [
        {
          "internalType": "uint256",
          "name": "amount",
          "type": "uint256"
        },
        {
          "internalType": "uint256",
          "name": "balance",
          "type": "uint256"
        }
      ],
      "name": "TransferAmountExceedsBalance",
      "type": "error"
    },
    {
      "inputs": [],
      "name": "TransferToPoolAddress",
      "type": "error"
    },
    {
      "inputs": [],
      "name": "TransferToZeroAddress",
      "type": "error"
    },
    {
      "inputs": [],
      "name": "ZeroDepositAmount",
      "type": "error"
    },
    {
      "anonymous": false,
      "inputs": [
        {
          "indexed": true,
          "internalType": "address",
          "name": "owner",
          "type": "address"
        },
        {
          "indexed": true,
          "internalType": "address",
          "name": "spender",
          "type": "address"
        },
        {
          "indexed": false,
          "internalType": "uint256",
          "name": "value",
          "type": "uint256"
        }
      ],
      "name": "Approval",
      "type": "event"
    },
    {
      "anonymous": false,
      "inputs": [
        {
          "indexed": true,
          "internalType": "address",
          "name": "registry",
          "type": "address"
        },
        {
          "indexed": false,
          "internalType": "uint256",
          "name": "timestamp",
          "type": "uint256"
        }
      ],
      "name": "BorrowersRegistryChanged",
      "type": "event"
    },
    {
      "anonymous": false,
      "inputs": [
        {
          "indexed": true,
          "internalType": "address",
          "name": "user",
          "type": "address"
        },
        {
          "indexed": false,
          "internalType": "uint256",
          "name": "value",
          "type": "uint256"
        },
        {
          "indexed": false,
          "internalType": "uint256",
          "name": "timestamp",
          "type": "uint256"
        }
      ],
      "name": "Borrowing",
      "type": "event"
    },
    {
      "anonymous": false,
      "inputs": [
        {
          "indexed": true,
          "internalType": "address",
          "name": "user",
          "type": "address"
        },
        {
          "indexed": false,
          "internalType": "uint256",
          "name": "value",
          "type": "uint256"
        },
        {
          "indexed": false,
          "internalType": "uint256",
          "name": "timestamp",
          "type": "uint256"
        }
      ],
      "name": "Deposit",
      "type": "event"
    },
    {
      "anonymous": false,
      "inputs": [
        {
          "indexed": true,
          "internalType": "address",
          "name": "user",
          "type": "address"
        },
        {
          "indexed": false,
          "internalType": "uint256",
          "name": "amount",
          "type": "uint256"
        },
        {
          "indexed": false,
          "internalType": "uint256",
          "name": "lockTime",
          "type": "uint256"
        },
        {
          "indexed": false,
          "internalType": "uint256",
          "name": "unlockTime",
          "type": "uint256"
        }
      ],
      "name": "DepositLocked",
      "type": "event"
    },
    {
      "anonymous": false,
      "inputs": [
        {
          "indexed": true,
          "internalType": "address",
          "name": "user",
          "type": "address"
        },
        {
          "indexed": true,
          "internalType": "address",
          "name": "_of",
          "type": "address"
        },
        {
          "indexed": false,
          "internalType": "uint256",
          "name": "value",
          "type": "uint256"
        },
        {
          "indexed": false,
          "internalType": "uint256",
          "name": "timestamp",
          "type": "uint256"
        }
      ],
      "name": "DepositOnBehalfOf",
      "type": "event"
    },
    {
      "anonymous": false,
      "inputs": [
        {
          "indexed": true,
          "internalType": "address",
          "name": "user",
          "type": "address"
        },
        {
          "indexed": false,
          "internalType": "uint256",
          "name": "count",
          "type": "uint256"
        }
      ],
      "name": "ExpiredLocksRemoved",
      "type": "event"
    },
    {
      "anonymous": false,
      "inputs": [
        {
          "indexed": false,
          "internalType": "uint8",
          "name": "version",
          "type": "uint8"
        }
      ],
      "name": "Initialized",
      "type": "event"
    },
    {
      "anonymous": false,
      "inputs": [
        {
          "indexed": true,
          "internalType": "address",
          "name": "user",
          "type": "address"
        },
        {
          "indexed": false,
          "internalType": "uint256",
          "name": "value",
          "type": "uint256"
        },
        {
          "indexed": false,
          "internalType": "uint256",
          "name": "timestamp",
          "type": "uint256"
        }
      ],
      "name": "InterestCollected",
      "type": "event"
    },
    {
      "anonymous": false,
      "inputs": [
        {
          "indexed": true,
          "internalType": "address",
          "name": "from",
          "type": "address"
        },
        {
          "indexed": true,
          "internalType": "address",
          "name": "to",
          "type": "address"
        }
      ],
      "name": "OwnershipTransferRequested",
      "type": "event"
    },
    {
      "anonymous": false,
      "inputs": [
        {
          "indexed": true,
          "internalType": "address",
          "name": "previousOwner",
          "type": "address"
        },
        {
          "indexed": true,
          "internalType": "address",
          "name": "newOwner",
          "type": "address"
        }
      ],
      "name": "OwnershipTransferred",
      "type": "event"
    },
    {
      "anonymous": false,
      "inputs": [
        {
          "indexed": true,
          "internalType": "address",
          "name": "poolRewarder",
          "type": "address"
        },
        {
          "indexed": false,
          "internalType": "uint256",
          "name": "timestamp",
          "type": "uint256"
        }
      ],
      "name": "PoolRewarderChanged",
      "type": "event"
    },
    {
      "anonymous": false,
      "inputs": [
        {
          "indexed": true,
          "internalType": "address",
          "name": "calculator",
          "type": "address"
        },
        {
          "indexed": false,
          "internalType": "uint256",
          "name": "timestamp",
          "type": "uint256"
        }
      ],
      "name": "RatesCalculatorChanged",
      "type": "event"
    },
    {
      "anonymous": false,
      "inputs": [
        {
          "indexed": true,
          "internalType": "address",
          "name": "user",
          "type": "address"
        },
        {
          "indexed": false,
          "internalType": "uint256",
          "name": "value",
          "type": "uint256"
        },
        {
          "indexed": false,
          "internalType": "uint256",
          "name": "timestamp",
          "type": "uint256"
        }
      ],
      "name": "Repayment",
      "type": "event"
    },
    {
      "anonymous": false,
      "inputs": [
        {
          "indexed": true,
          "internalType": "address",
          "name": "from",
          "type": "address"
        },
        {
          "indexed": true,
          "internalType": "address",
          "name": "to",
          "type": "address"
        },
        {
          "indexed": false,
          "internalType": "uint256",
          "name": "value",
          "type": "uint256"
        }
      ],
      "name": "Transfer",
      "type": "event"
    },
    {
      "anonymous": false,
      "inputs": [
        {
          "indexed": true,
          "internalType": "address",
          "name": "user",
          "type": "address"
        },
        {
          "indexed": false,
          "internalType": "uint256",
          "name": "value",
          "type": "uint256"
        },
        {
          "indexed": false,
          "internalType": "uint256",
          "name": "timestamp",
          "type": "uint256"
        }
      ],
      "name": "Withdrawal",
      "type": "event"
    },
    {
      "anonymous": false,
      "inputs": [
        {
          "indexed": true,
          "internalType": "address",
          "name": "user",
          "type": "address"
        },
        {
          "indexed": false,
          "internalType": "uint256",
          "name": "amount",
          "type": "uint256"
        },
        {
          "indexed": false,
          "internalType": "uint256",
          "name": "timestamp",
          "type": "uint256"
        }
      ],
      "name": "WithdrawalIntentCancelled",
      "type": "event"
    },
    {
      "anonymous": false,
      "inputs": [
        {
          "indexed": true,
          "internalType": "address",
          "name": "user",
          "type": "address"
        },
        {
          "indexed": false,
          "internalType": "uint256",
          "name": "amount",
          "type": "uint256"
        },
        {
          "indexed": false,
          "internalType": "uint256",
          "name": "actionableAt",
          "type": "uint256"
        },
        {
          "indexed": false,
          "internalType": "uint256",
          "name": "expiresAt",
          "type": "uint256"
        }
      ],
      "name": "WithdrawalIntentCreated",
      "type": "event"
    },
    {
      "inputs": [],
      "name": "MAX_LOCK_TIME",
      "outputs": [
        {
          "internalType": "uint256",
          "name": "",
          "type": "uint256"
        }
      ],
      "stateMutability": "view",
      "type": "function"
    },
    {
      "inputs": [],
      "name": "acceptOwnership",
      "outputs": [],
      "stateMutability": "nonpayable",
      "type": "function"
    },
    {
      "inputs": [
        {
          "internalType": "address",
          "name": "owner",
          "type": "address"
        },
        {
          "internalType": "address",
          "name": "spender",
          "type": "address"
        }
      ],
      "name": "allowance",
      "outputs": [
        {
          "internalType": "uint256",
          "name": "",
          "type": "uint256"
        }
      ],
      "stateMutability": "view",
      "type": "function"
    },
    {
      "inputs": [
        {
          "internalType": "address",
          "name": "spender",
          "type": "address"
        },
        {
          "internalType": "uint256",
          "name": "amount",
          "type": "uint256"
        }
      ],
      "name": "approve",
      "outputs": [
        {
          "internalType": "bool",
          "name": "",
          "type": "bool"
        }
      ],
      "stateMutability": "nonpayable",
      "type": "function"
    },
    {
      "inputs": [
        {
          "internalType": "address",
          "name": "user",
          "type": "address"
        }
      ],
      "name": "balanceOf",
      "outputs": [
        {
          "internalType": "uint256",
          "name": "",
          "type": "uint256"
        }
      ],
      "stateMutability": "view",
      "type": "function"
    },
    {
      "inputs": [
        {
          "internalType": "uint256",
          "name": "_amount",
          "type": "uint256"
        }
      ],
      "name": "borrow",
      "outputs": [],
      "stateMutability": "nonpayable",
      "type": "function"
    },
    {
      "inputs": [],
      "name": "borrowIndex",
      "outputs": [
        {
          "internalType": "contract IIndex",
          "name": "",
          "type": "address"
        }
      ],
      "stateMutability": "view",
      "type": "function"
    },
    {
      "inputs": [
        {
          "internalType": "address",
          "name": "",
          "type": "address"
        }
      ],
      "name": "borrowed",
      "outputs": [
        {
          "internalType": "uint256",
          "name": "",
          "type": "uint256"
        }
      ],
      "stateMutability": "view",
      "type": "function"
    },
    {
      "inputs": [],
      "name": "borrowersRegistry",
      "outputs": [
        {
          "internalType": "contract IBorrowersRegistry",
          "name": "",
          "type": "address"
        }
      ],
      "stateMutability": "view",
      "type": "function"
    },
    {
      "inputs": [
        {
          "internalType": "uint256",
          "name": "intentIndex",
          "type": "uint256"
        }
      ],
      "name": "cancelWithdrawalIntent",
      "outputs": [],
      "stateMutability": "nonpayable",
      "type": "function"
    },
    {
      "inputs": [],
      "name": "checkRewards",
      "outputs": [
        {
          "internalType": "uint256",
          "name": "",
          "type": "uint256"
        }
      ],
      "stateMutability": "view",
      "type": "function"
    },
    {
      "inputs": [],
      "name": "cleanExpiredLocks",
      "outputs": [
        {
          "internalType": "uint256",
          "name": "count",
          "type": "uint256"
        }
      ],
      "stateMutability": "nonpayable",
      "type": "function"
    },
    {
      "inputs": [],
      "name": "clearExpiredIntents",
      "outputs": [],
      "stateMutability": "nonpayable",
      "type": "function"
    },
    {
      "inputs": [],
      "name": "containsOracleCalldata",
      "outputs": [
        {
          "internalType": "bool",
          "name": "",
          "type": "bool"
        }
      ],
      "stateMutability": "view",
      "type": "function"
    },
    {
      "inputs": [
        {
          "internalType": "uint256",
          "name": "amount",
          "type": "uint256"
        }
      ],
      "name": "createWithdrawalIntent",
      "outputs": [],
      "stateMutability": "nonpayable",
      "type": "function"
    },
    {
      "inputs": [],
      "name": "decimals",
      "outputs": [
        {
          "internalType": "uint8",
          "name": "decimals",
          "type": "uint8"
        }
      ],
      "stateMutability": "pure",
      "type": "function"
    },
    {
      "inputs": [
        {
          "internalType": "address",
          "name": "spender",
          "type": "address"
        },
        {
          "internalType": "uint256",
          "name": "subtractedValue",
          "type": "uint256"
        }
      ],
      "name": "decreaseAllowance",
      "outputs": [
        {
          "internalType": "bool",
          "name": "",
          "type": "bool"
        }
      ],
      "stateMutability": "nonpayable",
      "type": "function"
    },
    {
      "inputs": [
        {
          "internalType": "uint256",
          "name": "_amount",
          "type": "uint256"
        }
      ],
      "name": "deposit",
      "outputs": [],
      "stateMutability": "nonpayable",
      "type": "function"
    },
    {
      "inputs": [],
      "name": "depositIndex",
      "outputs": [
        {
          "internalType": "contract IIndex",
          "name": "",
          "type": "address"
        }
      ],
      "stateMutability": "view",
      "type": "function"
    },
    {
      "inputs": [],
      "name": "depositNativeToken",
      "outputs": [],
      "stateMutability": "payable",
      "type": "function"
    },
    {
      "inputs": [
        {
          "internalType": "uint256",
          "name": "_amount",
          "type": "uint256"
        },
        {
          "internalType": "address",
          "name": "_of",
          "type": "address"
        }
      ],
      "name": "depositOnBehalf",
      "outputs": [],
      "stateMutability": "nonpayable",
      "type": "function"
    },
    {
      "inputs": [],
      "name": "extractTimestampsAndAssertAllAreEqual",
      "outputs": [
        {
          "internalType": "uint256",
          "name": "extractedTimestamp",
          "type": "uint256"
        }
      ],
      "stateMutability": "pure",
      "type": "function"
    },
    {
      "inputs": [
        {
          "internalType": "address",
          "name": "_user",
          "type": "address"
        }
      ],
      "name": "getBorrowed",
      "outputs": [
        {
          "internalType": "uint256",
          "name": "",
          "type": "uint256"
        }
      ],
      "stateMutability": "view",
      "type": "function"
    },
    {
      "inputs": [],
      "name": "getBorrowingRate",
      "outputs": [
        {
          "internalType": "uint256",
          "name": "",
          "type": "uint256"
        }
      ],
      "stateMutability": "view",
      "type": "function"
    },
    {
      "inputs": [],
      "name": "getDepositRate",
      "outputs": [
        {
          "internalType": "uint256",
          "name": "",
          "type": "uint256"
        }
      ],
      "stateMutability": "view",
      "type": "function"
    },
    {
      "inputs": [],
      "name": "getFullPoolStatus",
      "outputs": [
        {
          "internalType": "uint256[5]",
          "name": "",
          "type": "uint256[5]"
        }
      ],
      "stateMutability": "view",
      "type": "function"
    },
    {
      "inputs": [
        {
          "internalType": "address",
          "name": "account",
          "type": "address"
        }
      ],
      "name": "getFullyVestedLockedBalance",
      "outputs": [
        {
          "internalType": "uint256",
          "name": "fullyVestedBalance",
          "type": "uint256"
        }
      ],
      "stateMutability": "view",
      "type": "function"
    },
    {
      "inputs": [
        {
          "internalType": "address",
          "name": "account",
          "type": "address"
        }
      ],
      "name": "getLockedBalance",
      "outputs": [
        {
          "internalType": "uint256",
          "name": "",
          "type": "uint256"
        }
      ],
      "stateMutability": "view",
      "type": "function"
    },
    {
      "inputs": [],
      "name": "getMaxPoolUtilisationForBorrowing",
      "outputs": [
        {
          "internalType": "uint256",
          "name": "",
          "type": "uint256"
        }
      ],
      "stateMutability": "view",
      "type": "function"
    },
    {
      "inputs": [
        {
          "internalType": "address",
          "name": "account",
          "type": "address"
        },
        {
          "internalType": "uint256",
          "name": "excludedIntentAmount",
          "type": "uint256"
        }
      ],
      "name": "getNotLockedBalance",
      "outputs": [
        {
          "internalType": "uint256",
          "name": "notLockedBalance",
          "type": "uint256"
        }
      ],
      "stateMutability": "view",
      "type": "function"
    },
    {
      "inputs": [],
      "name": "getRewards",
      "outputs": [],
      "stateMutability": "nonpayable",
      "type": "function"
    },
    {
      "inputs": [
        {
          "internalType": "address",
          "name": "user",
          "type": "address"
        }
      ],
      "name": "getTotalIntentAmount",
      "outputs": [
        {
          "internalType": "uint256",
          "name": "totalIntentAmount",
          "type": "uint256"
        }
      ],
      "stateMutability": "view",
      "type": "function"
    },
    {
      "inputs": [
        {
          "internalType": "address",
          "name": "user",
          "type": "address"
        }
      ],
      "name": "getUserIntents",
      "outputs": [
        {
          "components": [
            {
              "internalType": "uint256",
              "name": "amount",
              "type": "uint256"
            },
            {
              "internalType": "uint256",
              "name": "actionableAt",
              "type": "uint256"
            },
            {
              "internalType": "uint256",
              "name": "expiresAt",
              "type": "uint256"
            },
            {
              "internalType": "bool",
              "name": "isPending",
              "type": "bool"
            },
            {
              "internalType": "bool",
              "name": "isActionable",
              "type": "bool"
            },
            {
              "internalType": "bool",
              "name": "isExpired",
              "type": "bool"
            }
          ],
          "internalType": "struct Pool.IntentInfo[]",
          "name": "",
          "type": "tuple[]"
        }
      ],
      "stateMutability": "view",
      "type": "function"
    },
    {
      "inputs": [],
      "name": "getVPrimeControllerAddress",
      "outputs": [
        {
          "internalType": "address",
          "name": "",
          "type": "address"
        }
      ],
      "stateMutability": "view",
      "type": "function"
    },
    {
      "inputs": [
        {
          "internalType": "address",
          "name": "spender",
          "type": "address"
        },
        {
          "internalType": "uint256",
          "name": "addedValue",
          "type": "uint256"
        }
      ],
      "name": "increaseAllowance",
      "outputs": [
        {
          "internalType": "bool",
          "name": "",
          "type": "bool"
        }
      ],
      "stateMutability": "nonpayable",
      "type": "function"
    },
    {
      "inputs": [
        {
          "internalType": "contract IRatesCalculator",
          "name": "ratesCalculator_",
          "type": "address"
        },
        {
          "internalType": "contract IBorrowersRegistry",
          "name": "borrowersRegistry_",
          "type": "address"
        },
        {
          "internalType": "contract IIndex",
          "name": "depositIndex_",
          "type": "address"
        },
        {
          "internalType": "contract IIndex",
          "name": "borrowIndex_",
          "type": "address"
        },
        {
          "internalType": "address payable",
          "name": "tokenAddress_",
          "type": "address"
        },
        {
          "internalType": "contract IPoolRewarder",
          "name": "poolRewarder_",
          "type": "address"
        },
        {
          "internalType": "uint256",
          "name": "_totalSupplyCap",
          "type": "uint256"
        }
      ],
      "name": "initialize",
      "outputs": [],
      "stateMutability": "nonpayable",
      "type": "function"
    },
    {
      "inputs": [
        {
          "internalType": "address",
          "name": "account",
          "type": "address"
        },
        {
          "internalType": "uint256",
          "name": "amount",
          "type": "uint256"
        },
        {
          "internalType": "uint256",
          "name": "excludedIntentAmount",
          "type": "uint256"
        }
      ],
      "name": "isWithdrawalAmountAvailable",
      "outputs": [
        {
          "internalType": "bool",
          "name": "",
          "type": "bool"
        }
      ],
      "stateMutability": "view",
      "type": "function"
    },
    {
      "inputs": [
        {
          "internalType": "uint256",
          "name": "amount",
          "type": "uint256"
        },
        {
          "internalType": "uint256",
          "name": "lockTime",
          "type": "uint256"
        }
      ],
      "name": "lockDeposit",
      "outputs": [],
      "stateMutability": "nonpayable",
      "type": "function"
    },
    {
      "inputs": [
        {
          "internalType": "address",
          "name": "",
          "type": "address"
        },
        {
          "internalType": "uint256",
          "name": "",
          "type": "uint256"
        }
      ],
      "name": "locks",
      "outputs": [
        {
          "internalType": "uint256",
          "name": "lockTime",
          "type": "uint256"
        },
        {
          "internalType": "uint256",
          "name": "amount",
          "type": "uint256"
        },
        {
          "internalType": "uint256",
          "name": "unlockTime",
          "type": "uint256"
        }
      ],
      "stateMutability": "view",
      "type": "function"
    },
    {
      "inputs": [],
      "name": "name",
      "outputs": [
        {
          "internalType": "string",
          "name": "_name",
          "type": "string"
        }
      ],
      "stateMutability": "pure",
      "type": "function"
    },
    {
      "inputs": [],
      "name": "owner",
      "outputs": [
        {
          "internalType": "address",
          "name": "",
          "type": "address"
        }
      ],
      "stateMutability": "view",
      "type": "function"
    },
    {
      "inputs": [],
      "name": "pendingOwner",
      "outputs": [
        {
          "internalType": "address",
          "name": "",
          "type": "address"
        }
      ],
      "stateMutability": "view",
      "type": "function"
    },
    {
      "inputs": [],
      "name": "poolRewarder",
      "outputs": [
        {
          "internalType": "contract IPoolRewarder",
          "name": "",
          "type": "address"
        }
      ],
      "stateMutability": "view",
      "type": "function"
    },
    {
      "inputs": [],
      "name": "ratesCalculator",
      "outputs": [
        {
          "internalType": "contract IRatesCalculator",
          "name": "",
          "type": "address"
        }
      ],
      "stateMutability": "view",
      "type": "function"
    },
    {
      "inputs": [
        {
          "internalType": "uint256",
          "name": "amount",
          "type": "uint256"
        },
        {
          "internalType": "address",
          "name": "account",
          "type": "address"
        }
      ],
      "name": "recoverSurplus",
      "outputs": [],
      "stateMutability": "nonpayable",
      "type": "function"
    },
    {
      "inputs": [],
      "name": "renounceOwnership",
      "outputs": [],
      "stateMutability": "nonpayable",
      "type": "function"
    },
    {
      "inputs": [
        {
          "internalType": "uint256",
          "name": "amount",
          "type": "uint256"
        }
      ],
      "name": "repay",
      "outputs": [],
      "stateMutability": "nonpayable",
      "type": "function"
    },
    {
      "inputs": [
        {
          "internalType": "contract IBorrowersRegistry",
          "name": "borrowersRegistry_",
          "type": "address"
        }
      ],
      "name": "setBorrowersRegistry",
      "outputs": [],
      "stateMutability": "nonpayable",
      "type": "function"
    },
    {
      "inputs": [
        {
          "internalType": "contract IPoolRewarder",
          "name": "_poolRewarder",
          "type": "address"
        }
      ],
      "name": "setPoolRewarder",
      "outputs": [],
      "stateMutability": "nonpayable",
      "type": "function"
    },
    {
      "inputs": [
        {
          "internalType": "contract IRatesCalculator",
          "name": "ratesCalculator_",
          "type": "address"
        }
      ],
      "name": "setRatesCalculator",
      "outputs": [],
      "stateMutability": "nonpayable",
      "type": "function"
    },
    {
      "inputs": [
        {
          "internalType": "contract ITokenManager",
          "name": "_tokenManager",
          "type": "address"
        }
      ],
      "name": "setTokenManager",
      "outputs": [],
      "stateMutability": "nonpayable",
      "type": "function"
    },
    {
      "inputs": [
        {
          "internalType": "uint256",
          "name": "_newTotalSupplyCap",
          "type": "uint256"
        }
      ],
      "name": "setTotalSupplyCap",
      "outputs": [],
      "stateMutability": "nonpayable",
      "type": "function"
    },
    {
      "inputs": [],
      "name": "symbol",
      "outputs": [
        {
          "internalType": "string",
          "name": "_symbol",
          "type": "string"
        }
      ],
      "stateMutability": "pure",
      "type": "function"
    },
    {
      "inputs": [],
      "name": "tokenAddress",
      "outputs": [
        {
          "internalType": "address payable",
          "name": "",
          "type": "address"
        }
      ],
      "stateMutability": "view",
      "type": "function"
    },
    {
      "inputs": [],
      "name": "tokenManager",
      "outputs": [
        {
          "internalType": "contract ITokenManager",
          "name": "",
          "type": "address"
        }
      ],
      "stateMutability": "view",
      "type": "function"
    },
    {
      "inputs": [],
      "name": "totalBorrowed",
      "outputs": [
        {
          "internalType": "uint256",
          "name": "",
          "type": "uint256"
        }
      ],
      "stateMutability": "view",
      "type": "function"
    },
    {
      "inputs": [],
      "name": "totalSupply",
      "outputs": [
        {
          "internalType": "uint256",
          "name": "",
          "type": "uint256"
        }
      ],
      "stateMutability": "view",
      "type": "function"
    },
    {
      "inputs": [],
      "name": "totalSupplyCap",
      "outputs": [
        {
          "internalType": "uint256",
          "name": "",
          "type": "uint256"
        }
      ],
      "stateMutability": "view",
      "type": "function"
    },
    {
      "inputs": [
        {
          "internalType": "address",
          "name": "recipient",
          "type": "address"
        },
        {
          "internalType": "uint256",
          "name": "amount",
          "type": "uint256"
        }
      ],
      "name": "transfer",
      "outputs": [
        {
          "internalType": "bool",
          "name": "",
          "type": "bool"
        }
      ],
      "stateMutability": "nonpayable",
      "type": "function"
    },
    {
      "inputs": [
        {
          "internalType": "address",
          "name": "sender",
          "type": "address"
        },
        {
          "internalType": "address",
          "name": "recipient",
          "type": "address"
        },
        {
          "internalType": "uint256",
          "name": "amount",
          "type": "uint256"
        }
      ],
      "name": "transferFrom",
      "outputs": [
        {
          "internalType": "bool",
          "name": "",
          "type": "bool"
        }
      ],
      "stateMutability": "nonpayable",
      "type": "function"
    },
    {
      "inputs": [
        {
          "internalType": "address",
          "name": "newOwner",
          "type": "address"
        }
      ],
      "name": "transferOwnership",
      "outputs": [],
      "stateMutability": "nonpayable",
      "type": "function"
    },
    {
      "inputs": [],
      "name": "vestingDistributor",
      "outputs": [
        {
          "internalType": "contract VestingDistributor",
          "name": "",
          "type": "address"
        }
      ],
      "stateMutability": "view",
      "type": "function"
    },
    {
      "inputs": [
        {
          "internalType": "uint256",
          "name": "_amount",
          "type": "uint256"
        },
        {
          "internalType": "uint256[]",
          "name": "intentIndices",
          "type": "uint256[]"
        }
      ],
      "name": "withdraw",
      "outputs": [],
      "stateMutability": "nonpayable",
      "type": "function"
    },
    {
      "inputs": [
        {
          "internalType": "uint256",
          "name": "_amount",
          "type": "uint256"
        }
      ],
      "name": "withdrawInstant",
      "outputs": [],
      "stateMutability": "nonpayable",
      "type": "function"
    },
    {
      "inputs": [
        {
          "internalType": "uint256",
          "name": "_amount",
          "type": "uint256"
        },
        {
          "internalType": "uint256[]",
          "name": "intentIndices",
          "type": "uint256[]"
        }
      ],
      "name": "withdrawNativeToken",
      "outputs": [],
      "stateMutability": "nonpayable",
      "type": "function"
    },
    {
      "inputs": [
        {
          "internalType": "address",
          "name": "",
          "type": "address"
        },
        {
          "internalType": "uint256",
          "name": "",
          "type": "uint256"
        }
      ],
      "name": "withdrawalIntents",
      "outputs": [
        {
          "internalType": "uint256",
          "name": "amount",
          "type": "uint256"
        },
        {
          "internalType": "uint256",
          "name": "actionableAt",
          "type": "uint256"
        },
        {
          "internalType": "uint256",
          "name": "expiresAt",
          "type": "uint256"
        }
      ],
      "stateMutability": "view",
      "type": "function"
    },
    {
      "stateMutability": "payable",
      "type": "receive"
    }
  ],
  "transactionHash": "0x4079034afc411bd62700d2be3e4a22c1f19a72bd10df656f32a4bf79a5c79e73",
  "args": [],
  "numDeployments": 5,
  "solcInputHash": "75ee8ea24ad3aae409d335c397029c07",
  "bytecode": "0x608060405234801561001057600080fd5b50615212806100206000396000f3fe6080604052600436106102fd5760003560e01c8063715018a61161018d578063715018a61461074c578063726cd4151461075857806379433d8b1461076d57806379ba5097146107755780637b8989391461078a5780637cb2b79c146107aa57806389e8adb4146107ca5780638da5cb5b146107ea57806395d89b41146107ff5780639d76ea581461082f578063a457c2d71461084f578063a9059cbb1461086f578063aa5af0fd1461088f578063b425f802146108af578063b6b55f25146108cf578063b75c42bd146108ef578063b790634e14610911578063bb102aea14610926578063c40868931461093c578063c4ce63581461095c578063c5ebeaec1461097c578063d06dca891461099c578063dd62ed3e146109bc578063e2b9442e14610a02578063e30c397814610a22578063e84d13c814610a37578063ee61bd6e14610a57578063ef5fd2d114610a77578063f2fde38b14610a8c578063f36b242514610aac578063fa3209b214610ac1578063fa78668f14610aee578063fc68f66114610b0657600080fd5b80630572b0cc1461030957806306fdde03146103205780630790ef9a1461037057806307bbebdd146103905780630941cb3d146103bd578063095ea7b3146103f85780630d1870df146104285780631457db341461043d5780631460e3901461045d57806318160ddd1461047d57806323b872dd1461049257806326935e39146104b25780632742f253146104d25780632a709b14146105015780632aeaa29114610521578063313ce5671461053657806331d05b1114610552578063371fd8e61461057257806337b764fe146105925780633866ecf7146105b257806339509351146105d25780634c19386c146105f25780635107b5a01461060757806355a547d51461061c578063562b11681461063157806356c33f43146106515780635915d806146106715780636011163e1461069157806361215aa8146106b15780636ca6d5d0146106cc5780636cf55ea2146106ec57806370a082311461070c57806370d4cea01461072c57600080fd5b3661030457005b600080fd5b34801561031557600080fd5b5061031e610b26565b005b34801561032c57600080fd5b50604080518082019091526015815274088cad8e8c2a0e4d2dacaaee4c2e0e0cac882ac82b605b1b60208201525b6040516103679190614bb1565b60405180910390f35b34801561037c57600080fd5b5061031e61038b366004614bd9565b610b8a565b34801561039c57600080fd5b5060a1546103b0906001600160a01b031681565b6040516103679190614c09565b3480156103c957600080fd5b506103ea6103d8366004614c1d565b609a6020526000908152604090205481565b604051908152602001610367565b34801561040457600080fd5b50610418610413366004614c3a565b610c92565b6040519015158152602001610367565b34801561043457600080fd5b50610418610d0e565b34801561044957600080fd5b5061031e610458366004614c1d565b610d22565b34801561046957600080fd5b5061031e610478366004614c66565b610dd1565b34801561048957600080fd5b506103ea61107d565b34801561049e57600080fd5b506104186104ad366004614cf3565b61108d565b3480156104be57600080fd5b5061031e6104cd366004614d34565b611389565b3480156104de57600080fd5b506104f26104ed366004614c3a565b6115c3565b60405161036793929190614d4d565b34801561050d57600080fd5b5060a3546103b0906001600160a01b031681565b34801561052d57600080fd5b506103ea611605565b34801561054257600080fd5b5060405160128152602001610367565b34801561055e57600080fd5b5061031e61056d366004614d34565b611675565b34801561057e57600080fd5b5061031e61058d366004614d34565b611682565b34801561059e57600080fd5b5061031e6105ad366004614d34565b61176b565b3480156105be57600080fd5b506104186105cd366004614d63565b6118dc565b3480156105de57600080fd5b506104186105ed366004614c3a565b6118f5565b3480156105fe57600080fd5b506103ea6119a2565b34801561061357600080fd5b506103ea6119ad565b34801561062857600080fd5b506103ea611b28565b34801561063d57600080fd5b5061031e61064c366004614d34565b611c40565b34801561065d57600080fd5b5061031e61066c366004614d98565b611d98565b34801561067d57600080fd5b5061031e61068c366004614d98565b612115565b34801561069d57600080fd5b506103ea6106ac366004614c1d565b6123ef565b3480156106bd57600080fd5b50670cd64299613c80006103ea565b3480156106d857600080fd5b50609d546103b0906001600160a01b031681565b3480156106f857600080fd5b5061031e610707366004614bd9565b612476565b34801561071857600080fd5b506103ea610727366004614c1d565b612716565b34801561073857600080fd5b5061031e610747366004614c1d565b61275c565b34801561031e57600080fd5b34801561076457600080fd5b506103b061280a565b61031e61289b565b34801561078157600080fd5b5061031e612a6e565b34801561079657600080fd5b50609e546103b0906001600160a01b031681565b3480156107b657600080fd5b5061031e6107c5366004614c1d565b612afd565b3480156107d657600080fd5b506103ea6107e5366004614c3a565b612b27565b3480156107f657600080fd5b506103b0612b9f565b34801561080b57600080fd5b50604080518082019091526007815266088a0ae82ac82b60cb1b602082015261035a565b34801561083b57600080fd5b5060a0546103b0906001600160a01b031681565b34801561085b57600080fd5b5061041861086a366004614c3a565b612bae565b34801561087b57600080fd5b5061041861088a366004614c3a565b612c82565b34801561089b57600080fd5b50609f546103b0906001600160a01b031681565b3480156108bb57600080fd5b506104f26108ca366004614c3a565b612ead565b3480156108db57600080fd5b5061031e6108ea366004614d34565b612ec9565b3480156108fb57600080fd5b50610904612ed3565b6040516103679190614e16565b34801561091d57600080fd5b506103ea612f2a565b34801561093257600080fd5b506103ea60975481565b34801561094857600080fd5b506103ea610957366004614c1d565b612f6b565b34801561096857600080fd5b506103ea610977366004614c1d565b613038565b34801561098857600080fd5b5061031e610997366004614d34565b613158565b3480156109a857600080fd5b50609c546103b0906001600160a01b031681565b3480156109c857600080fd5b506103ea6109d7366004614e47565b6001600160a01b03918216600090815260986020908152604080832093909416825291909152205490565b348015610a0e57600080fd5b5061031e610a1d366004614e75565b6133d5565b348015610a2e57600080fd5b506103b0613541565b348015610a4357600080fd5b506103ea610a52366004614c1d565b61354b565b348015610a6357600080fd5b50609b546103b0906001600160a01b031681565b348015610a8357600080fd5b5061031e6135e3565b348015610a9857600080fd5b5061031e610aa7366004614c1d565b6135ec565b348015610ab857600080fd5b506103ea6136b3565b348015610acd57600080fd5b50610ae1610adc366004614c1d565b6136cf565b6040516103679190614e97565b348015610afa57600080fd5b506103ea6305a39a8081565b348015610b1257600080fd5b5061031e610b21366004614c1d565b613832565b609d546040516311305c1f60e11b81526001600160a01b0390911690632260b83e90610b56903390600401614c09565b600060405180830381600087803b158015610b7057600080fd5b505af1158015610b84573d6000803e3d6000fd5b50505050565b610b926138b0565b610b9a61390f565b60a0546040516370a0823160e01b81526000916001600160a01b0316906370a0823190610bcb903090600401614c09565b602060405180830381865afa158015610be8573d6000803e3d6000fd5b505050506040513d601f19601f82011682018060405250810190610c0c9190614f15565b90506000610c1861107d565b610c206119a2565b610c2a9084614f44565b610c349190614f57565b905081841115610c57576040516316d5c93f60e21b815260040160405180910390fd5b83811015610c78576040516394290ab960e01b815260040160405180910390fd5b610c828385613968565b5050610c8e6001606555565b5050565b60006001600160a01b038316610cbb57604051633d6601c760e11b815260040160405180910390fd5b3360008181526098602090815260408083206001600160a01b038816808552908352928190208690555185815291929160008051602061519d833981519152910160405180910390a35060015b92915050565b6602ed57011e0000601f1936013581161490565b610d2a6138b0565b610d3381613986565b158015610d4857506001600160a01b03811615155b15610d7c57609d546040516322a2d07b60e21b8152610d73916001600160a01b031690600401614c09565b60405180910390fd5b609d80546001600160a01b0319166001600160a01b0383169081179091556040514281527f85796821ee1d670b0fdb986f256b5c1a29b9019038831c7f09df2061879cf9e5906020015b60405180910390a250565b600054610100900460ff1615808015610df15750600054600160ff909116105b80610e125750610e0030613986565b158015610e12575060005460ff166001145b610e755760405162461bcd60e51b815260206004820152602e60248201527f496e697469616c697a61626c653a20636f6e747261637420697320616c72656160448201526d191e481a5b9a5d1a585b1a5e995960921b6064820152608401610d73565b6000805460ff191660011790558015610e98576000805461ff0019166101001790555b610ea188613986565b8015610eb15750610eb187613986565b8015610ec15750610ec186613986565b8015610ed15750610ed185613986565b8015610ef35750610ee183613986565b80610ef357506001600160a01b038316155b610f365760405162461bcd60e51b815260206004820152601460248201527357726f6e6720696e697420617267756d656e747360601b6044820152606401610d73565b609c80546001600160a01b03199081166001600160a01b038a811691909117909255609b805482168b8416179055609e80548216898416179055609f80548216888416179055609d8054821686841617905560a08054909116918616918217905560978390556040805163313ce56760e01b8152905163313ce567916004818101926020929091908290030181865afa158015610fd7573d6000803e3d6000fd5b505050506040513d601f19601f82011682018060405250810190610ffb9190614f6a565b60a160146101000a81548160ff021916908360ff16021790555061101d613995565b6110256139c4565b61102d6139f3565b8015611073576000805461ff0019169055604051600181527f7f26b83ff96e1f2b6a682f133852f6798a09c465da95921460cefb38474024989060200160405180910390a15b5050505050505050565b600061108830612716565b905090565b600061109761390f565b6001600160a01b0384166000908152609860209081526040808320338452909152902054821115611102576001600160a01b03841660009081526098602090815260408083203384529091529081902054905163054365bb60e31b8152610d73918491600401614f8d565b6001600160a01b03831661112957604051633a954ecd60e21b815260040160405180910390fd5b306001600160a01b038416036111525760405163ed728e5760e01b815260040160405180910390fd5b61115e848360006118dc565b611189578161116e856000612b27565b60405163adb9e04360e01b8152600401610d73929190614f8d565b61119284613bd6565b6001600160a01b038416600090815260996020526040812080548492906111ba908490614f57565b90915550506001600160a01b0384166000908152609860209081526040808320338452909152812080548492906111f2908490614f57565b90915550611201905083613bd6565b6001600160a01b03831660009081526099602052604081208054849290611229908490614f44565b9091555050609d546001600160a01b03161580159061124757508115155b1561133157609d54604051630d5dbdb360e21b81526000916001600160a01b031690633576f6cc9061127f9086908990600401614f9b565b6020604051808303816000875af115801561129e573d6000803e3d6000fd5b505050506040513d601f19601f820116820180604052508101906112c29190614f15565b9050801561132f57609d546040516328ba35d960e11b81526001600160a01b03909116906351746bb2906112fc9084908890600401614f9b565b600060405180830381600087803b15801561131657600080fd5b505af115801561132a573d6000803e3d6000fd5b505050505b505b826001600160a01b0316846001600160a01b031660008051602061517d8339815191528460405161136491815260200190565b60405180910390a361137584613d01565b5060016113826001606555565b9392505050565b61139161390f565b731162c93fe4b4c10fa94144730c6b921dee40b9423381146113b257600080fd5b6113bb33613bd6565b336000908152609960205260409020546113d6908390613d9b565b91506113e4338360006118dc565b6114005760405162461bcd60e51b8152600401610d7390614fb2565b60a0546040516370a0823160e01b81526001600160a01b03909116906370a0823190611430903090600401614c09565b602060405180830381865afa15801561144d573d6000803e3d6000fd5b505050506040513d601f19601f820116820180604052508101906114719190614f15565b821115611491576040516316d5c93f60e21b815260040160405180910390fd5b306000908152609960205260409020548211156114c157604051630bba337f60e11b815260040160405180910390fd5b306000908152609960205260409020805483900390556114e13383613db1565b6114e96139f3565b6114f233613d01565b6114fc3383613968565b609d546001600160a01b03161561158457609d54604051630d5dbdb360e21b81526001600160a01b0390911690633576f6cc9061153f9085903390600401614f9b565b6020604051808303816000875af115801561155e573d6000803e3d6000fd5b505050506040513d601f19601f820116820180604052508101906115829190614f15565b505b336001600160a01b03166000805160206151bd83398151915283426040516115ad929190614f8d565b60405180910390a2506115c06001606555565b50565b60a460205281600052604060002081815481106115df57600080fd5b600091825260209091206003909102018054600182015460029092015490935090915083565b609d546040516246613160e11b81526000916001600160a01b031690628cc26290611634903390600401614c09565b602060405180830381865afa158015611651573d6000803e3d6000fd5b505050506040513d601f19601f820116820180604052508101906110889190614f15565b61167d6138b0565b609755565b61168a61390f565b61169333613e31565b336000908152609a60205260409020548111156116c357604051630dcad43360e11b815260040160405180910390fd5b6116cd3382613f37565b336000908152609a6020526040812080548392906116ec908490614f57565b9091555050306000908152609a602052604081208054839290611710908490614f57565b9091555061171e90506139f3565b336001600160a01b03167f24fcca58a997b1b2eff6db8107e860458544c09ddd3693b3b779e1df6c0d6c5d8242604051611759929190614f8d565b60405180910390a26115c06001606555565b61177361390f565b33600090815260a460205260409020805482106117a25760405162461bcd60e51b8152600401610d7390614fdd565b60008183815481106117b6576117b661500b565b600091825260208083206040805160608101825260039094029091018054845260018082015493850193909352600201549083015284549193506117f991614f57565b905080841461185d578281815481106118145761181461500b565b90600052602060002090600302018385815481106118345761183461500b565b600091825260209091208254600390920201908155600180830154908201556002918201549101555b8280548061186d5761186d615021565b60008281526020812060036000199093019283020181815560018101829055600201559055815160405133917fd33d8fdc6783acd0812c254bbb11863beb43e98ae9bb139867d674bb2a32336e916118c791904290614f8d565b60405180910390a25050506115c06001606555565b6000806118e98584612b27565b90931115949350505050565b60006001600160a01b03831661191e57604051633d6601c760e11b815260040160405180910390fd5b3360009081526098602090815260408083206001600160a01b038716845290915281205461194d908490614f44565b3360008181526098602090815260408083206001600160a01b038a168085529083529281902085905551848152939450909260008051602061519d833981519152910160405180910390a35060019392505050565b6000611088306123ef565b33600090815260a26020526040812081805b8254811015611a8757428382815481106119db576119db61500b565b9060005260206000209060030201600201541115611a6757818114611a5557828181548110611a0c57611a0c61500b565b9060005260206000209060030201838381548110611a2c57611a2c61500b565b600091825260209091208254600390920201908155600180830154908201556002918201549101555b81611a5f81615037565b925050611a75565b83611a7181615037565b9450505b80611a7f81615037565b9150506119bf565b508154600090611a98908390614f57565b905060005b81811015611aec5783805480611ab557611ab5615021565b6000828152602081206003600019909301928302018181556001810182905560020155905580611ae481615037565b915050611a9d565b5060405184815233907fe90005560cd386bf9d168cec08a675ec21753c51f9b52ead8f5c995ea5412f1b9060200160405180910390a250505090565b600080611b33613f4f565b90506000611b4082613ff6565b61ffff16905080600003611b6757604051632154bfcf60e21b815260040160405180910390fd5b611b72600283614f44565b915060005b81811015611c3a576000611b8a84614030565b9050600080611b9a606887614f44565b90506000611ba88236614f57565b9050803592508265ffffffffffff16600003611bd757604051630336dc9d60e41b815260040160405180910390fd5b87600003611bef578265ffffffffffff169750611c17565b878365ffffffffffff1614611c175760405163d9d1f46560e01b815260040160405180910390fd5b611c218488614f44565b9650505050508080611c3290615037565b915050611b77565b50505090565b611c4861390f565b60008111611c985760405162461bcd60e51b815260206004820181905260248201527f416d6f756e74206d7573742062652067726561746572207468616e207a65726f6044820152606401610d73565b611ca13361406c565b6000611cae336000612b27565b905080821115611cd557818160405163adb9e04360e01b8152600401610d73929190614f8d565b6000611ce44262015180614f44565b90506000611cf5826202a300614f44565b60408051606081018252868152602080820186815282840185815233600081815260a48552868120805460018181018355918352959091208651600390960201948555925192840192909255516002909201919091559151929350917ff7e664c0da2f587b77873cf0f2c343841d19557b27f07a4fadf367fcabb15e6790611d8290889087908790614d4d565b60405180910390a2505050506115c06001606555565b611da061390f565b33600090815260a46020526040812090611dbc8285858861417c565b9050611dc93382836118dc565b611de55760405162461bcd60e51b8152600401610d7390614fb2565b825b8015611ed55760008585611dfc600185614f57565b818110611e0b57611e0b61500b565b905060200201359050600060018580549050611e279190614f57565b9050808214611e8b57848181548110611e4257611e4261500b565b9060005260206000209060030201858381548110611e6257611e6261500b565b600091825260209091208254600390920201908155600180830154908201556002918201549101555b84805480611e9b57611e9b615021565b6000828152602081206003600019909301928302018181556001810182905560020155905550819050611ecd81615050565b915050611de7565b50611edf33613bd6565b60a0546040516370a0823160e01b81526001600160a01b03909116906370a0823190611f0f903090600401614c09565b602060405180830381865afa158015611f2c573d6000803e3d6000fd5b505050506040513d601f19601f82011682018060405250810190611f509190614f15565b811115611f70576040516316d5c93f60e21b815260040160405180910390fd5b30600090815260996020526040902054811115611fa057604051630bba337f60e11b815260040160405180910390fd5b3060009081526099602052604081208054839290611fbf908490614f57565b90915550611fcf90503382613db1565b611fd76139f3565b609d546001600160a01b03161561205f57609d54604051630d5dbdb360e21b81526001600160a01b0390911690633576f6cc9061201a9084903390600401614f9b565b6020604051808303816000875af1158015612039573d6000803e3d6000fd5b505050506040513d601f19601f8201168201806040525081019061205d9190614f15565b505b61206833613d01565b60a054604051632e1a7d4d60e01b8152600481018390526001600160a01b0390911690632e1a7d4d90602401600060405180830381600087803b1580156120ae57600080fd5b505af11580156120c2573d6000803e3d6000fd5b506120d3925033915083905061445e565b336001600160a01b03166000805160206151bd83398151915282426040516120fc929190614f8d565b60405180910390a250506121106001606555565b505050565b61211d61390f565b33600090815260a460205260408120906121398285858861417c565b90506121463382836118dc565b6121625760405162461bcd60e51b8152600401610d7390614fb2565b825b80156122525760008585612179600185614f57565b8181106121885761218861500b565b9050602002013590506000600185805490506121a49190614f57565b9050808214612208578481815481106121bf576121bf61500b565b90600052602060002090600302018583815481106121df576121df61500b565b600091825260209091208254600390920201908155600180830154908201556002918201549101555b8480548061221857612218615021565b600082815260208120600360001990930192830201818155600181018290556002015590555081905061224a81615050565b915050612164565b5061225c33613bd6565b60a0546040516370a0823160e01b81526001600160a01b03909116906370a082319061228c903090600401614c09565b602060405180830381865afa1580156122a9573d6000803e3d6000fd5b505050506040513d601f19601f820116820180604052508101906122cd9190614f15565b8111156122ed576040516316d5c93f60e21b815260040160405180910390fd5b3060009081526099602052604090205481111561231d57604051630bba337f60e11b815260040160405180910390fd5b306000908152609960205260408120805483929061233c908490614f57565b9091555061234c90503382613db1565b6123546139f3565b61235d33613d01565b609d546001600160a01b0316156123e557609d54604051630d5dbdb360e21b81526001600160a01b0390911690633576f6cc906123a09084903390600401614f9b565b6020604051808303816000875af11580156123bf573d6000803e3d6000fd5b505050506040513d601f19601f820116820180604052508101906123e39190614f15565b505b6120d33382613968565b609f546001600160a01b038281166000908152609a602052604080822054905163966da88960e01b81529193929092169163966da8899161243591908690600401614f9b565b602060405180830381865afa158015612452573d6000803e3d6000fd5b505050506040513d601f19601f82011682018060405250810190610d089190614f15565b61247e61390f565b8160000361249f5760405163078e1d8560e01b815260040160405180910390fd5b6001600160a01b0381166124e45760405162461bcd60e51b815260206004820152600c60248201526b41646472657373207a65726f60a01b6044820152606401610d73565b306001600160a01b0382160361253c5760405162461bcd60e51b815260206004820181905260248201527f43616e6e6f74206465706f736974206f6e20626568616c66206f6620706f6f6c6044820152606401610d73565b60a0546040516370a0823160e01b81526125b89184916001600160a01b03909116906370a0823190612572903390600401614c09565b602060405180830381865afa15801561258f573d6000803e3d6000fd5b505050506040513d601f19601f820116820180604052508101906125b39190614f15565b613d9b565b91506125c381613bd6565b6097541561260857609754306000908152609960205260409020546125e9908490614f44565b111561260857604051633f27d61760e01b815260040160405180910390fd5b6126123383613f37565b61261c8183614538565b306000908152609960205260408120805484929061263b908490614f44565b9091555061264990506139f3565b609d546001600160a01b0316156126bf57609d546040516328ba35d960e11b81526001600160a01b03909116906351746bb29061268c9085908590600401614f9b565b600060405180830381600087803b1580156126a657600080fd5b505af11580156126ba573d6000803e3d6000fd5b505050505b806001600160a01b0316336001600160a01b03167fef0ada5ca19bede6a40b575865a6ce451938d26835b7215e6a5e03bb2c4392128442604051612704929190614f8d565b60405180910390a3610c8e6001606555565b609e546001600160a01b0382811660009081526099602052604080822054905163966da88960e01b81529193929092169163966da8899161243591908690600401614f9b565b6127646138b0565b61276d81613986565b15801561278257506001600160a01b03811615155b156127a257806040516322a2d07b60e21b8152600401610d739190614c09565b609b80546001600160a01b0319166001600160a01b038316908117909155156127cd576127cd6139f3565b806001600160a01b03167fef1b7e9216e08b283cc613824ccb26ea505227777839a4f3c6810d64594e018242604051610dc691815260200190565b565b60a3546000906001600160a01b0316156128955760a360009054906101000a90046001600160a01b03166001600160a01b031663726cd4156040518163ffffffff1660e01b8152600401602060405180830381865afa158015612871573d6000803e3d6000fd5b505050506040513d601f19601f820116820180604052508101906110889190615067565b50600090565b346000036128bc5760405163078e1d8560e01b815260040160405180910390fd5b6128c533613bd6565b6097541561290a57609754306000908152609960205260409020546128eb903490614f44565b111561290a57604051633f27d61760e01b815260040160405180910390fd5b60a060009054906101000a90046001600160a01b03166001600160a01b031663d0e30db0346040518263ffffffff1660e01b81526004016000604051808303818588803b15801561295a57600080fd5b505af115801561296e573d6000803e3d6000fd5b505050505061297d3334614538565b306000908152609960205260408120805434929061299c908490614f44565b909155506129aa90506139f3565b609d546001600160a01b031615612a2057609d546040516328ba35d960e11b81526001600160a01b03909116906351746bb2906129ed9034903390600401614f9b565b600060405180830381600087803b158015612a0757600080fd5b505af1158015612a1b573d6000803e3d6000fd5b505050505b612a2933613d01565b336001600160a01b03167f90890809c654f11d6e72a28fa60149770a0d11ec6c92319d6ceb2bb0a4ea1a153442604051612a64929190614f8d565b60405180910390a2565b6000612a786145b8565b9050336001600160a01b03821614612aea5760405162461bcd60e51b815260206004820152602f60248201527f50656e64696e674f776e61626c653a2063616c6c6572206973206e6f7420746860448201526e32903832b73234b7339037bbb732b960891b6064820152608401610d73565b612af3816145cb565b6115c0600061461d565b612b056138b0565b60a380546001600160a01b0319166001600160a01b0392909216919091179055565b600080612b3384612f6b565b90506000612b408561354b565b9050838111612b50576000612b5a565b612b5a8482614f57565b90506000612b6786612716565b90506000612b758385614f44565b905080821015612b885760009450612b95565b612b928183614f57565b94505b5050505092915050565b6033546001600160a01b031690565b60006001600160a01b038316612bd757604051633d6601c760e11b815260040160405180910390fd5b3360009081526098602090815260408083206001600160a01b038716845290915290205482811015612c2057828160405163054365bb60e31b8152600401610d73929190614f8d565b6000612c2c8483614f57565b3360008181526098602090815260408083206001600160a01b038b168085529083529281902085905551848152939450909260008051602061519d833981519152910160405180910390a3506001949350505050565b6000612c8c61390f565b6001600160a01b038316612cb357604051633a954ecd60e21b815260040160405180910390fd5b306001600160a01b03841603612cdc5760405163ed728e5760e01b815260040160405180910390fd5b612ce8338360006118dc565b612cf8578161116e336000612b27565b33612d0281613bd6565b6001600160a01b038116600090815260996020526040902080548490039055612d2a84613bd6565b6001600160a01b03841660009081526099602052604081208054859290612d52908490614f44565b9091555050609d546001600160a01b031615801590612d7057508215155b15612e5a57609d54604051630d5dbdb360e21b81526000916001600160a01b031690633576f6cc90612da89087908690600401614f9b565b6020604051808303816000875af1158015612dc7573d6000803e3d6000fd5b505050506040513d601f19601f82011682018060405250810190612deb9190614f15565b90508015612e5857609d546040516328ba35d960e11b81526001600160a01b03909116906351746bb290612e259084908990600401614f9b565b600060405180830381600087803b158015612e3f57600080fd5b505af1158015612e53573d6000803e3d6000fd5b505050505b505b836001600160a01b0316816001600160a01b031660008051602061517d83398151915285604051612e8d91815260200190565b60405180910390a3612e9e33613d01565b6001915050610d086001606555565b60a260205281600052604060002081815481106115df57600080fd5b6115c08133612476565b612edb614b43565b6040518060a00160405280612eee61107d565b8152602001612efb612f2a565b8152602001612f086136b3565b8152602001612f156119a2565b8152602001670cd64299613c80009052919050565b609b546000906001600160a01b0316637cd08331612f466119a2565b612f4e61107d565b6040518363ffffffff1660e01b8152600401611634929190614f8d565b600080805b6001600160a01b038416600090815260a26020526040902054811015613031576001600160a01b038416600090815260a260205260409020805442919083908110612fbd57612fbd61500b565b906000526020600020906003020160020154111561301f576001600160a01b038416600090815260a260205260409020805482908110612fff57612fff61500b565b9060005260206000209060030201600101548261301c9190614f44565b91505b8061302981615037565b915050612f70565b5092915050565b6000805b6001600160a01b038316600090815260a26020526040902054811015613152576001600160a01b038316600090815260a2602052604090208054429190839081106130895761308961500b565b9060005260206000209060030201600201541115613140576001600160a01b038316600090815260a26020526040902080546305a39a809190839081106130d2576130d261500b565b600091825260208083206003909202909101546001600160a01b038716835260a2909152604090912080548490811061310d5761310d61500b565b9060005260206000209060030201600101546131299190615084565b613133919061509b565b61313d9083614f44565b91505b8061314a81615037565b91505061303c565b50919050565b609c546001600160a01b031661318157604051631c038dab60e21b815260040160405180910390fd5b609c5460405163039ff21960e21b81526001600160a01b0390911690630e7fc864906131b1903390600401614c09565b602060405180830381865afa1580156131ce573d6000803e3d6000fd5b505050506040513d601f19601f820116820180604052508101906131f291906150bd565b61320f57604051637582fa9b60e11b815260040160405180910390fd5b61321761107d565b600003613237576040516316d5c93f60e21b815260040160405180910390fd5b61323f61390f565b60a0546040516370a0823160e01b81526001600160a01b03909116906370a082319061326f903090600401614c09565b602060405180830381865afa15801561328c573d6000803e3d6000fd5b505050506040513d601f19601f820116820180604052508101906132b09190614f15565b8111156132d0576040516316d5c93f60e21b815260040160405180910390fd5b6132d933613e31565b336000908152609a6020526040812080548392906132f8908490614f44565b9091555050306000908152609a60205260408120805483929061331c908490614f44565b9091555061332c90503382613968565b6133346139f3565b336001600160a01b03167fd6b37be10b58108f696d9ed067fedad0bff7cb417ef4c28d2f8a25d6d83c98d5824260405161336f929190614f8d565b60405180910390a26133816001606555565b670cd64299613c800061339261107d565b61339a6119a2565b6133ac90670de0b6b3a7640000615084565b6133b6919061509b565b11156115c0576040516372b9ce3f60e11b815260040160405180910390fd5b816133e1336000612b27565b101561342e5760405162461bcd60e51b815260206004820152601c60248201527b496e73756666696369656e742062616c616e636520746f206c6f636b60201b6044820152606401610d73565b6305a39a8081111561348c5760405162461bcd60e51b815260206004820152602160248201527f43616e6e6f74206c6f636b20666f72206d6f7265207468616e203320796561726044820152607360f81b6064820152608401610d73565b33600090815260a2602090815260409182902082516060810184528481529182018590529181016134bd8442614f44565b905281546001818101845560009384526020938490208351600390930201918255928201519281019290925560400151600290910155337fada80de846c2fa6289ae8db8bd0145346851ca76d49946df18240ebbf97200a783836135218142614f44565b60405161353093929190614d4d565b60405180910390a2610c8e33613d01565b60006110886145b8565b6001600160a01b038116600090815260a460205260408120815b81548110156135dc578181815481106135805761358061500b565b90600052602060002090600302016002015442116135ca578181815481106135aa576135aa61500b565b906000526020600020906003020160000154836135c79190614f44565b92505b806135d481615037565b915050613565565b5050919050565b6128083361406c565b6135f46138b0565b6001600160a01b0381166136605760405162461bcd60e51b815260206004820152602d60248201527f50656e64696e674f776e61626c653a206e6577206f776e65722069732074686560448201526c207a65726f206164647265737360981b6064820152608401610d73565b6136698161461d565b806001600160a01b031661367b612b9f565b6001600160a01b03167fed8889f560326eb138920d842192f0eb3dd22b4f139c87a2c57538e05bae127860405160405180910390a350565b609b546000906001600160a01b031663df841eec612f466119a2565b6001600160a01b038116600090815260a4602052604081208054606092906001600160401b03811115613704576137046150df565b60405190808252806020026020018201604052801561376457816020015b6040805160c08101825260008082526020808301829052928201819052606082018190526080820181905260a082015282526000199092019101816137225790505b50905060005b825481101561382a5760008382815481106137875761378761500b565b906000526020600020906003020190506040518060c001604052808260000154815260200182600101548152602001826002015481526020018260010154421015158152602001826001015442101580156137e6575082600201544211155b1515815260200182600201544211151581525083838151811061380b5761380b61500b565b602002602001018190525050808061382290615037565b91505061376a565b509392505050565b61383a6138b0565b61384381613986565b61386257806040516322a2d07b60e21b8152600401610d739190614c09565b609c80546001600160a01b0319166001600160a01b0383169081179091556040514281527f04dce7d074f7e287a2e6e3516c802271d58d5c14e0dede83a49719eb6b92046990602001610dc6565b336138b9612b9f565b6001600160a01b0316146128085760405162461bcd60e51b815260206004820181905260248201527f4f776e61626c653a2063616c6c6572206973206e6f7420746865206f776e65726044820152606401610d73565b6002606554036139615760405162461bcd60e51b815260206004820152601f60248201527f5265656e7472616e637947756172643a207265656e7472616e742063616c6c006044820152606401610d73565b6002606555565b60a054610c8e906001600160a01b0316838361462f565b6001606555565b6001600160a01b03163b151590565b600054610100900460ff166139bc5760405162461bcd60e51b8152600401610d73906150f5565b612808614759565b600054610100900460ff166139eb5760405162461bcd60e51b8152600401610d73906150f5565b612808614789565b60006139fd6119a2565b90506000613a0961107d565b609b549091506001600160a01b0316613a355760405163fd4851e960e01b815260040160405180910390fd5b609e54609b54604051637cd0833160e01b81526001600160a01b03928316926334fcf437921690637cd0833190613a729087908790600401614f8d565b602060405180830381865afa158015613a8f573d6000803e3d6000fd5b505050506040513d601f19601f82011682018060405250810190613ab39190614f15565b6040518263ffffffff1660e01b8152600401613ad191815260200190565b600060405180830381600087803b158015613aeb57600080fd5b505af1158015613aff573d6000803e3d6000fd5b5050609f54609b546040516337e107bb60e21b81526001600160a01b0392831694506334fcf437935091169063df841eec90613b419087908790600401614f8d565b602060405180830381865afa158015613b5e573d6000803e3d6000fd5b505050506040513d601f19601f82011682018060405250810190613b829190614f15565b6040518263ffffffff1660e01b8152600401613ba091815260200190565b600060405180830381600087803b158015613bba57600080fd5b505af1158015613bce573d6000803e3d6000fd5b505050505050565b6001600160a01b038116600090815260996020526040812054613bf883612716565b613c029190614f57565b9050613c0e8282614538565b613c1730612716565b306000908152609960205260409081902091909155516001600160a01b038316907f9bbd517758fbae61197f1c1c04c8614064e89512dbaf4350dcdf76fcaa5e216190613c679084904290614f8d565b60405180910390a2609e54604051637681d99b60e11b81526001600160a01b039091169063ed03b33690613c9f908590600401614c09565b600060405180830381600087803b158015613cb957600080fd5b505af1158015613ccd573d6000803e3d6000fd5b5050609e54604051637681d99b60e11b81526001600160a01b03909116925063ed03b3369150613ba0903090600401614c09565b6000613d0b61280a565b90506001600160a01b03811615610c8e57613d24610d0e565b15613d6f576121108183604051602401613d3e9190614c09565b60408051601f198184030181529190526020810180516001600160e01b0316636cec346160e01b17905260006147b0565b6040516328e98e7360e01b81526001600160a01b038216906328e98e7390613ba0908590600401614c09565b6000818310613daa5781611382565b5090919050565b6001600160a01b038216600090815260996020526040902054811115613dea57604051630bba337f60e11b815260040160405180910390fd5b6001600160a01b0382166000818152609960209081526040808320805486900390555184815291929160008051602061517d83398151915291015b60405180910390a35050565b613e3a816123ef565b6001600160a01b0382166000908152609a6020526040902055613e5c306123ef565b306000908152609a60205260409081902091909155609f549051637681d99b60e11b81526001600160a01b039091169063ed03b33690613ea0908490600401614c09565b600060405180830381600087803b158015613eba57600080fd5b505af1158015613ece573d6000803e3d6000fd5b5050609f54604051637681d99b60e11b81526001600160a01b03909116925063ed03b3369150613f02903090600401614c09565b600060405180830381600087803b158015613f1c57600080fd5b505af1158015613f30573d6000803e3d6000fd5b5050505050565b60a054610c8e906001600160a01b0316833084614839565b60006602ed57011e0000601f1936013581161480613f80576040516373bb264f60e11b815260040160405180910390fd5b60003660291115613fa457604051632bcb7bc560e11b815260040160405180910390fd5b5060281936013560006009613fbf600362ffffff8516614f44565b613fc99190614f44565b905036613fd7600283614f44565b11156113825760405163c30a7bd760e01b815260040160405180910390fd5b600080614004602084614f44565b90503681111561402757604051632bcb7bc560e11b815260040160405180910390fd5b36033592915050565b600080600061403e8461496f565b9092509050604e614050826020614f44565b61405a9084615084565b6140649190614f44565b949350505050565b6001600160a01b038116600090815260a460205260408120905b8154811015612110578181815481106140a1576140a161500b565b90600052602060002090600302016002015442111561416a5781546000906140cb90600190614f57565b905080821461412f578281815481106140e6576140e661500b565b90600052602060002090600302018383815481106141065761410661500b565b600091825260209091208254600390920201908155600180830154908201556002918201549101555b8280548061413f5761413f615021565b6000828152602081206003600019909301928302018181556001810182905560020155905550614086565b8061417481615037565b915050614086565b6000826141cb5760405162461bcd60e51b815260206004820181905260248201527f4d7573742070726f76696465206174206c65617374206f6e6520696e74656e746044820152606401610d73565b60015b838110156142845784846141e3600184614f57565b8181106141f2576141f261500b565b9050602002013585858381811061420b5761420b61500b565b90506020020135116142725760405162461bcd60e51b815260206004820152602a60248201527f496e74656e7420696e6469636573206d757374206265207374726963746c7920604482015269696e6372656173696e6760b01b6064820152608401610d73565b8061427c81615037565b9150506141ce565b506000805b848110156143bc5760008686838181106142a5576142a561500b565b905060200201359050878054905081106142d15760405162461bcd60e51b8152600401610d7390614fdd565b60008882815481106142e5576142e561500b565b9060005260206000209060030201905080600101544210156143495760405162461bcd60e51b815260206004820152601d60248201527f5769746864726177616c20696e74656e74206e6f74206d6174757265640000006044820152606401610d73565b80600201544211156143995760405162461bcd60e51b815260206004820152601960248201527815da5d1a191c985dd85b081a5b9d195b9d08195e1c1a5c9959603a1b6044820152606401610d73565b80546143a59085614f44565b9350505080806143b490615037565b915050614289565b5060006143ca60648361509b565b6143d49083614f44565b9050808411156144455760405162461bcd60e51b815260206004820152603660248201527f52657175657374656420616d6f756e74206578636565647320696e74656e7420604482015275616d6f756e74206279206d6f7265207468616e20312560501b6064820152608401610d73565b614453846125b33385612b27565b979650505050505050565b604080516000808252602082019092526001600160a01b0384169083906040516144889190615140565b60006040518083038185875af1925050503d80600081146144c5576040519150601f19603f3d011682016040523d82523d6000602084013e6144ca565b606091505b50509050806121105760405162461bcd60e51b815260206004820152603460248201527f5472616e7366657248656c7065723a3a736166655472616e736665724554483a60448201527308115512081d1c985b9cd9995c8819985a5b195960621b6064820152608401610d73565b6001600160a01b03821661455f576040516346dbfb6d60e11b815260040160405180910390fd5b6001600160a01b03821660009081526099602052604081208054839290614587908490614f44565b90915550506040518181526001600160a01b0383169060009060008051602061517d83398151915290602001613e25565b60008051602061515d8339815191525490565b603380546001600160a01b038381166001600160a01b0319831681179093556040519116919082907f8be0079c531659141344cd1fd0a4f28419497f9722a3daafe3b4186f6b6457e090600090a35050565b60008051602061515d83398151915255565b604080516001600160a01b038481166024830152604480830185905283518084039091018152606490920183526020820180516001600160e01b031663a9059cbb60e01b179052915160009283929087169161468b9190615140565b6000604051808303816000865af19150503d80600081146146c8576040519150601f19603f3d011682016040523d82523d6000602084013e6146cd565b606091505b50915091508180156146f75750805115806146f75750808060200190518101906146f791906150bd565b613f305760405162461bcd60e51b815260206004820152602d60248201527f5472616e7366657248656c7065723a3a736166655472616e736665723a20747260448201526c185b9cd9995c8819985a5b1959609a1b6064820152608401610d73565b600054610100900460ff166147805760405162461bcd60e51b8152600401610d73906150f5565b612808336145cb565b600054610100900460ff1661397f5760405162461bcd60e51b8152600401610d73906150f5565b606060006147bd846149c6565b9050600080866001600160a01b0316856147d85760006147da565b345b846040516147e89190615140565b60006040518083038185875af1925050503d8060008114614825576040519150601f19603f3d011682016040523d82523d6000602084013e61482a565b606091505b50915091506144538282614a55565b604080516001600160a01b0385811660248301528481166044830152606480830185905283518084039091018152608490920183526020820180516001600160e01b03166323b872dd60e01b179052915160009283929088169161489d9190615140565b6000604051808303816000865af19150503d80600081146148da576040519150601f19603f3d011682016040523d82523d6000602084013e6148df565b606091505b509150915081801561490957508051158061490957508080602001905181019061490991906150bd565b613bce5760405162461bcd60e51b815260206004820152603160248201527f5472616e7366657248656c7065723a3a7472616e7366657246726f6d3a207472604482015270185b9cd9995c919c9bdb4819985a5b1959607a1b6064820152608401610d73565b600080808080614980604187614f44565b90506000614999614992602084614f44565b3690614acc565b8035945090506149aa816003614acc565b62ffffff9490941697933563ffffffff16965092945050505050565b805160609060006149d5614ad8565b905060006149e38284614f44565b905036821115614a0657604051632bcb7bc560e11b815260040160405180910390fd5b6060604051905081815285602001848101826020015b81831015614a34578251815260209283019201614a1c565b50505082833603856020018301379190920181016020016040529392505050565b606082613152578151600003614a7e57604051632b3ff13d60e11b815260040160405180910390fd5b602082015162461bcd60e51b148015614ab1576040516301efd04f60e31b81526044840190610d73908290600401614bb1565b8260405163fd36fde360e01b8152600401610d739190614bb1565b60006113828284614f57565b600080614ae3613f4f565b90506000614af082613ff6565b61ffff169050614b01600283614f44565b915060005b81811015614b3b576000614b1984614030565b9050614b258185614f44565b9350508080614b3390615037565b915050614b06565b509092915050565b6040518060a001604052806005906020820280368337509192915050565b60005b83811015614b7c578181015183820152602001614b64565b50506000910152565b60008151808452614b9d816020860160208601614b61565b601f01601f19169290920160200192915050565b6020815260006113826020830184614b85565b6001600160a01b03811681146115c057600080fd5b60008060408385031215614bec57600080fd5b823591506020830135614bfe81614bc4565b809150509250929050565b6001600160a01b0391909116815260200190565b600060208284031215614c2f57600080fd5b813561138281614bc4565b60008060408385031215614c4d57600080fd5b8235614c5881614bc4565b946020939093013593505050565b600080600080600080600060e0888a031215614c8157600080fd5b8735614c8c81614bc4565b96506020880135614c9c81614bc4565b95506040880135614cac81614bc4565b94506060880135614cbc81614bc4565b93506080880135614ccc81614bc4565b925060a0880135614cdc81614bc4565b8092505060c0880135905092959891949750929550565b600080600060608486031215614d0857600080fd5b8335614d1381614bc4565b92506020840135614d2381614bc4565b929592945050506040919091013590565b600060208284031215614d4657600080fd5b5035919050565b9283526020830191909152604082015260600190565b600080600060608486031215614d7857600080fd5b8335614d8381614bc4565b95602085013595506040909401359392505050565b600080600060408486031215614dad57600080fd5b8335925060208401356001600160401b0380821115614dcb57600080fd5b818601915086601f830112614ddf57600080fd5b813581811115614dee57600080fd5b8760208260051b8501011115614e0357600080fd5b6020830194508093505050509250925092565b60a08101818360005b6005811015614e3e578151835260209283019290910190600101614e1f565b50505092915050565b60008060408385031215614e5a57600080fd5b8235614e6581614bc4565b91506020830135614bfe81614bc4565b60008060408385031215614e8857600080fd5b50508035926020909101359150565b602080825282518282018190526000919060409081850190868401855b82811015614f08578151805185528681015187860152858101518686015260608082015115159086015260808082015115159086015260a09081015115159085015260c09093019290850190600101614eb4565b5091979650505050505050565b600060208284031215614f2757600080fd5b5051919050565b634e487b7160e01b600052601160045260246000fd5b80820180821115610d0857610d08614f2e565b81810381811115610d0857610d08614f2e565b600060208284031215614f7c57600080fd5b815160ff8116811461138257600080fd5b918252602082015260400190565b9182526001600160a01b0316602082015260400190565b60208082526011908201527010985b185b98d9481a5cc81b1bd8dad959607a1b604082015260600190565b602080825260149082015273092dcecc2d8d2c840d2dce8cadce840d2dcc8caf60631b604082015260600190565b634e487b7160e01b600052603260045260246000fd5b634e487b7160e01b600052603160045260246000fd5b60006001820161504957615049614f2e565b5060010190565b60008161505f5761505f614f2e565b506000190190565b60006020828403121561507957600080fd5b815161138281614bc4565b8082028115828204841417610d0857610d08614f2e565b6000826150b857634e487b7160e01b600052601260045260246000fd5b500490565b6000602082840312156150cf57600080fd5b8151801515811461138257600080fd5b634e487b7160e01b600052604160045260246000fd5b6020808252602b908201527f496e697469616c697a61626c653a20636f6e7472616374206973206e6f74206960408201526a6e697469616c697a696e6760a81b606082015260800190565b60008251615152818460208701614b61565b919091019291505056fe63a0d9df49fae3f1b9d24f8dc819a568c429a1b11d0d8e9de63df53a0194acb2ddf252ad1be2c89b69c2b068fc378daa952ba7f163c4a11628f55a4df523b3ef8c5be1e5ebec7d5bd14f71427d1e84f3dd0314c0f7b2291e5b200ac8c7c3b925df273cb619d95419a9cd0ec88123a0538c85064229baa6363788f743fff90deba2646970667358221220c99bf6f287772b650896b3e883b8f00132d5dff4c45ca16cb482bf424873b3fd64736f6c63430008110033",
  "devdoc": {
    "details": "Contract allowing user to deposit to and borrow WAVAX from a dedicated user account",
    "errors": {
      "InsufficientAllowance(uint256,uint256)": [
        {
          "params": {
            "allowance": "current allowance",
            "requested": "requested transfer amount"
          }
        }
      ],
      "TransferAmountExceedsBalance(uint256,uint256)": [
        {
          "params": {
            "amount": "transfer amount",
            "balance": "available balance"
          }
        }
      ]
    },
    "kind": "dev",
    "methods": {
      "allowance(address,address)": {
        "details": "Returns the remaining number of tokens that `spender` will be allowed to spend on behalf of `owner` through {transferFrom}. This is zero by default. This value changes when {approve} or {transferFrom} are called."
      },
      "approve(address,uint256)": {
        "details": "Sets `amount` as the allowance of `spender` over the caller's tokens. Returns a boolean value indicating whether the operation succeeded. IMPORTANT: Beware that changing an allowance with this method brings the risk that someone may use both the old and the new allowance by unfortunate transaction ordering. One possible solution to mitigate this race condition is to first reduce the spender's allowance to 0 and set the desired value afterwards: https://github.com/ethereum/EIPs/issues/20#issuecomment-263524729 Emits an {Approval} event."
      },
      "balanceOf(address)": {
        "details": "_user the address of queried depositor*"
      },
      "borrow(uint256)": {
        "details": "_amount the amount to be borrowedIt is only meant to be used by a SmartLoanDiamondProxy*"
      },
      "cleanExpiredLocks()": {
        "details": "This function should be called periodically to prevent array growth",
        "returns": {
          "count": "Number of locks removed"
        }
      },
      "getBorrowed(address)": {
        "details": "_user the address of queried borrower*"
      },
      "getFullyVestedLockedBalance(address)": {
        "details": "The fully vested locked balance is used in the governance mechanism of the system, specifically for the allocation of vPrime tokens. The method calculates the fully vested locked balance by iterating over all the locks of the account and summing up the amounts of those locks that are still active (i.e., their `unlockTime` is greater than the current block timestamp). However, the amount of each lock is scaled by the ratio of its `lockTime` to the `MAX_LOCK_TIME` (3 years). This means that the longer the lock time, the larger the contribution of the lock to the fully vested locked balance. The fully vested locked balance is used to calculate the maximum vPrime allocation for a user. Users accrue vPrime over a period of 3 years, from 0 to the maximum vPrime based on their 10-1 pairs of pool-deposit and sPrime. Locking pool deposits and sPrime immediately vests the vPrime.",
        "params": {
          "account": "The address of the account for which to calculate the fully vested locked balance."
        },
        "returns": {
          "fullyVestedBalance": "The fully vested locked balance of the provided account."
        }
      },
      "getTotalIntentAmount(address)": {
        "details": "user the address of the queried user*"
      },
      "getUserIntents(address)": {
        "details": "Returns array of all intents with their current status for a given user",
        "params": {
          "user": "Address of the user to check intents for"
        },
        "returns": {
          "_0": "Array of IntentInfo structs containing all intent details and status*"
        }
      },
      "owner()": {
        "details": "Returns the address of the current owner."
      },
      "renounceOwnership()": {
        "details": "Leaves the contract without owner. It will not be possible to call `onlyOwner` functions. Can only be called by the current owner. NOTE: Renouncing ownership will leave the contract without an owner, thereby disabling any functionality that is only available to the owner."
      },
      "repay(uint256)": {
        "details": "It is only meant to be used by a SmartLoanDiamondProxy*"
      },
      "setBorrowersRegistry(address)": {
        "details": "borrowersRegistry the address of borrowers registry*"
      },
      "setPoolRewarder(address)": {
        "details": "_poolRewarder the address of PoolRewarder*"
      },
      "setRatesCalculator(address)": {
        "details": "ratesCalculator the address of rates calculator*"
      },
      "setTotalSupplyCap(uint256)": {
        "details": "_newTotalSupplyCap new deposit cap*"
      },
      "totalSupply()": {
        "details": "Returns the amount of tokens in existence."
      },
      "withdraw(uint256,uint256[])": {
        "params": {
          "_amount": "the total amount to be withdrawn",
          "intentIndices": "array of intent indices to be used for withdrawal*"
        }
      },
      "withdrawInstant(uint256)": {
        "details": "_amount the amount to be withdrawn*"
      },
      "withdrawNativeToken(uint256,uint256[])": {
        "params": {
          "_amount": "The amount to be withdrawn.",
          "intentIndices": "array of intent indices to be used for withdrawal"
        }
      }
    },
    "title": "WavaxPool",
    "version": 1
  },
  "userdoc": {
    "kind": "user",
    "methods": {
      "balanceOf(address)": {
        "notice": "Returns the current deposited amount for the given user The value includes the interest rates earned at the current moment"
      },
      "borrow(uint256)": {
        "notice": "Borrows the specified amount It updates user borrowed balance, total borrowed amount and rates"
      },
      "cleanExpiredLocks()": {
        "notice": "Removes expired locks for the caller"
      },
      "deposit(uint256)": {
        "notice": "Deposits the amount It updates user deposited balance, total deposited and rates*"
      },
      "depositNativeToken()": {
        "notice": "Wraps and deposits the amount of native token attached to the transaction."
      },
      "depositOnBehalf(uint256,address)": {
        "notice": "Deposits the amount on behalf of `_of` user. It updates `_of` user deposited balance, total deposited and rates*"
      },
      "getBorrowed(address)": {
        "notice": "Returns the current borrowed amount for the given user The value includes the interest rates owned at the current moment"
      },
      "getBorrowingRate()": {
        "notice": "Returns the current interest rate for borrowings*"
      },
      "getDepositRate()": {
        "notice": "Returns the current interest rate for deposits*"
      },
      "getFullPoolStatus()": {
        "notice": "Returns full pool status"
      },
      "getFullyVestedLockedBalance(address)": {
        "notice": "Calculates and returns the fully vested locked balance for a given account."
      },
      "getTotalIntentAmount(address)": {
        "notice": "Returns the total amount of the withdrawal intents for the given user"
      },
      "recoverSurplus(uint256,address)": {
        "notice": "Recovers the surplus funds resultant from difference between deposit and borrowing rates*"
      },
      "repay(uint256)": {
        "notice": "Repays the amount It updates user borrowed balance, total borrowed amount and rates"
      },
      "setBorrowersRegistry(address)": {
        "notice": "Sets the new borrowers registry contract. The borrowers registry decides if an account can borrow funds. Only the owner of the Contract can execute this function."
      },
      "setPoolRewarder(address)": {
        "notice": "Sets the new Pool Rewarder. The IPoolRewarder that distributes additional token rewards to people having a stake in this pool proportionally to their stake and time of participance. Only the owner of the Contract can execute this function."
      },
      "setRatesCalculator(address)": {
        "notice": "Sets the new rate calculator. The calculator is an external contract that contains the logic for calculating deposit and borrowing rates. Only the owner of the Contract can execute this function."
      },
      "setTotalSupplyCap(uint256)": {
        "notice": "Sets new totalSupplyCap limiting how much in total can be deposited to the Pool. Only the owner of the Contract can execute this function."
      },
      "withdraw(uint256,uint256[])": {
        "notice": "Withdraws selected amount using multiple intents"
      },
      "withdrawInstant(uint256)": {
        "notice": "Withdraws without withdrawal queue, to be used by DEPOSIT_SWAP contract only"
      },
      "withdrawNativeToken(uint256,uint256[])": {
        "notice": "Unwraps and withdraws the specified amount from the user's deposits, enforcing withdrawal intents."
      }
    },
    "version": 1
  },
  "storageLayout": {
    "storage": [
      {
        "astId": 138,
        "contract": "contracts/deployment/avalanche/WavaxPool.sol:WavaxPool",
        "label": "_initialized",
        "offset": 0,
        "slot": "0",
        "type": "t_uint8"
      },
      {
        "astId": 141,
        "contract": "contracts/deployment/avalanche/WavaxPool.sol:WavaxPool",
        "label": "_initializing",
        "offset": 1,
        "slot": "0",
        "type": "t_bool"
      },
      {
        "astId": 755,
        "contract": "contracts/deployment/avalanche/WavaxPool.sol:WavaxPool",
        "label": "__gap",
        "offset": 0,
        "slot": "1",
        "type": "t_array(t_uint256)50_storage"
      },
      {
        "astId": 10,
        "contract": "contracts/deployment/avalanche/WavaxPool.sol:WavaxPool",
        "label": "_owner",
        "offset": 0,
        "slot": "51",
        "type": "t_address"
      },
      {
        "astId": 130,
        "contract": "contracts/deployment/avalanche/WavaxPool.sol:WavaxPool",
        "label": "__gap",
        "offset": 0,
        "slot": "52",
        "type": "t_array(t_uint256)49_storage"
      },
      {
        "astId": 314,
        "contract": "contracts/deployment/avalanche/WavaxPool.sol:WavaxPool",
        "label": "_status",
        "offset": 0,
        "slot": "101",
        "type": "t_uint256"
      },
      {
        "astId": 383,
        "contract": "contracts/deployment/avalanche/WavaxPool.sol:WavaxPool",
        "label": "__gap",
        "offset": 0,
        "slot": "102",
        "type": "t_array(t_uint256)49_storage"
      },
      {
        "astId": 9372,
        "contract": "contracts/deployment/avalanche/WavaxPool.sol:WavaxPool",
        "label": "totalSupplyCap",
        "offset": 0,
        "slot": "151",
        "type": "t_uint256"
      },
      {
        "astId": 9378,
        "contract": "contracts/deployment/avalanche/WavaxPool.sol:WavaxPool",
        "label": "_allowed",
        "offset": 0,
        "slot": "152",
        "type": "t_mapping(t_address,t_mapping(t_address,t_uint256))"
      },
      {
        "astId": 9382,
        "contract": "contracts/deployment/avalanche/WavaxPool.sol:WavaxPool",
        "label": "_deposited",
        "offset": 0,
        "slot": "153",
        "type": "t_mapping(t_address,t_uint256)"
      },
      {
        "astId": 9386,
        "contract": "contracts/deployment/avalanche/WavaxPool.sol:WavaxPool",
        "label": "borrowed",
        "offset": 0,
        "slot": "154",
        "type": "t_mapping(t_address,t_uint256)"
      },
      {
        "astId": 9389,
        "contract": "contracts/deployment/avalanche/WavaxPool.sol:WavaxPool",
        "label": "ratesCalculator",
        "offset": 0,
        "slot": "155",
        "type": "t_contract(IRatesCalculator)49143"
      },
      {
        "astId": 9392,
        "contract": "contracts/deployment/avalanche/WavaxPool.sol:WavaxPool",
        "label": "borrowersRegistry",
        "offset": 0,
        "slot": "156",
        "type": "t_contract(IBorrowersRegistry)48641"
      },
      {
        "astId": 9395,
        "contract": "contracts/deployment/avalanche/WavaxPool.sol:WavaxPool",
        "label": "poolRewarder",
        "offset": 0,
        "slot": "157",
        "type": "t_contract(IPoolRewarder)49121"
      },
      {
        "astId": 9398,
        "contract": "contracts/deployment/avalanche/WavaxPool.sol:WavaxPool",
        "label": "depositIndex",
        "offset": 0,
        "slot": "158",
        "type": "t_contract(IIndex)48797"
      },
      {
        "astId": 9401,
        "contract": "contracts/deployment/avalanche/WavaxPool.sol:WavaxPool",
        "label": "borrowIndex",
        "offset": 0,
        "slot": "159",
        "type": "t_contract(IIndex)48797"
      },
      {
        "astId": 9403,
        "contract": "contracts/deployment/avalanche/WavaxPool.sol:WavaxPool",
        "label": "tokenAddress",
        "offset": 0,
        "slot": "160",
        "type": "t_address_payable"
      },
      {
        "astId": 9406,
        "contract": "contracts/deployment/avalanche/WavaxPool.sol:WavaxPool",
        "label": "vestingDistributor",
        "offset": 0,
        "slot": "161",
        "type": "t_contract(VestingDistributor)14520"
      },
      {
        "astId": 9408,
        "contract": "contracts/deployment/avalanche/WavaxPool.sol:WavaxPool",
        "label": "_decimals",
        "offset": 20,
        "slot": "161",
        "type": "t_uint8"
      },
      {
        "astId": 9421,
        "contract": "contracts/deployment/avalanche/WavaxPool.sol:WavaxPool",
        "label": "locks",
        "offset": 0,
        "slot": "162",
        "type": "t_mapping(t_address,t_array(t_struct(LockDetails)9415_storage)dyn_storage)"
      },
      {
        "astId": 9429,
        "contract": "contracts/deployment/avalanche/WavaxPool.sol:WavaxPool",
        "label": "tokenManager",
        "offset": 0,
        "slot": "163",
        "type": "t_contract(ITokenManager)49460"
      },
      {
        "astId": 9455,
        "contract": "contracts/deployment/avalanche/WavaxPool.sol:WavaxPool",
        "label": "withdrawalIntents",
        "offset": 0,
        "slot": "164",
        "type": "t_mapping(t_address,t_array(t_struct(WithdrawalIntent)9436_storage)dyn_storage)"
      }
    ],
    "types": {
      "t_address": {
        "encoding": "inplace",
        "label": "address",
        "numberOfBytes": "20"
      },
      "t_address_payable": {
        "encoding": "inplace",
        "label": "address payable",
        "numberOfBytes": "20"
      },
      "t_array(t_struct(LockDetails)9415_storage)dyn_storage": {
        "base": "t_struct(LockDetails)9415_storage",
        "encoding": "dynamic_array",
        "label": "struct Pool.LockDetails[]",
        "numberOfBytes": "32"
      },
      "t_array(t_struct(WithdrawalIntent)9436_storage)dyn_storage": {
        "base": "t_struct(WithdrawalIntent)9436_storage",
        "encoding": "dynamic_array",
        "label": "struct Pool.WithdrawalIntent[]",
        "numberOfBytes": "32"
      },
      "t_array(t_uint256)49_storage": {
        "base": "t_uint256",
        "encoding": "inplace",
        "label": "uint256[49]",
        "numberOfBytes": "1568"
      },
      "t_array(t_uint256)50_storage": {
        "base": "t_uint256",
        "encoding": "inplace",
        "label": "uint256[50]",
        "numberOfBytes": "1600"
      },
      "t_bool": {
        "encoding": "inplace",
        "label": "bool",
        "numberOfBytes": "1"
      },
      "t_contract(IBorrowersRegistry)48641": {
        "encoding": "inplace",
        "label": "contract IBorrowersRegistry",
        "numberOfBytes": "20"
      },
      "t_contract(IIndex)48797": {
        "encoding": "inplace",
        "label": "contract IIndex",
        "numberOfBytes": "20"
      },
      "t_contract(IPoolRewarder)49121": {
        "encoding": "inplace",
        "label": "contract IPoolRewarder",
        "numberOfBytes": "20"
      },
      "t_contract(IRatesCalculator)49143": {
        "encoding": "inplace",
        "label": "contract IRatesCalculator",
        "numberOfBytes": "20"
      },
      "t_contract(ITokenManager)49460": {
        "encoding": "inplace",
        "label": "contract ITokenManager",
        "numberOfBytes": "20"
      },
      "t_contract(VestingDistributor)14520": {
        "encoding": "inplace",
        "label": "contract VestingDistributor",
        "numberOfBytes": "20"
      },
      "t_mapping(t_address,t_array(t_struct(LockDetails)9415_storage)dyn_storage)": {
        "encoding": "mapping",
        "key": "t_address",
        "label": "mapping(address => struct Pool.LockDetails[])",
        "numberOfBytes": "32",
        "value": "t_array(t_struct(LockDetails)9415_storage)dyn_storage"
      },
      "t_mapping(t_address,t_array(t_struct(WithdrawalIntent)9436_storage)dyn_storage)": {
        "encoding": "mapping",
        "key": "t_address",
        "label": "mapping(address => struct Pool.WithdrawalIntent[])",
        "numberOfBytes": "32",
        "value": "t_array(t_struct(WithdrawalIntent)9436_storage)dyn_storage"
      },
      "t_mapping(t_address,t_mapping(t_address,t_uint256))": {
        "encoding": "mapping",
        "key": "t_address",
        "label": "mapping(address => mapping(address => uint256))",
        "numberOfBytes": "32",
        "value": "t_mapping(t_address,t_uint256)"
      },
      "t_mapping(t_address,t_uint256)": {
        "encoding": "mapping",
        "key": "t_address",
        "label": "mapping(address => uint256)",
        "numberOfBytes": "32",
        "value": "t_uint256"
      },
      "t_struct(LockDetails)9415_storage": {
        "encoding": "inplace",
        "label": "struct Pool.LockDetails",
        "members": [
          {
            "astId": 9410,
            "contract": "contracts/deployment/avalanche/WavaxPool.sol:WavaxPool",
            "label": "lockTime",
            "offset": 0,
            "slot": "0",
            "type": "t_uint256"
          },
          {
            "astId": 9412,
            "contract": "contracts/deployment/avalanche/WavaxPool.sol:WavaxPool",
            "label": "amount",
            "offset": 0,
            "slot": "1",
            "type": "t_uint256"
          },
          {
            "astId": 9414,
            "contract": "contracts/deployment/avalanche/WavaxPool.sol:WavaxPool",
            "label": "unlockTime",
            "offset": 0,
            "slot": "2",
            "type": "t_uint256"
          }
        ],
        "numberOfBytes": "96"
      },
      "t_struct(WithdrawalIntent)9436_storage": {
        "encoding": "inplace",
        "label": "struct Pool.WithdrawalIntent",
        "members": [
          {
            "astId": 9431,
            "contract": "contracts/deployment/avalanche/WavaxPool.sol:WavaxPool",
            "label": "amount",
            "offset": 0,
            "slot": "0",
            "type": "t_uint256"
          },
          {
            "astId": 9433,
            "contract": "contracts/deployment/avalanche/WavaxPool.sol:WavaxPool",
            "label": "actionableAt",
            "offset": 0,
            "slot": "1",
            "type": "t_uint256"
          },
          {
            "astId": 9435,
            "contract": "contracts/deployment/avalanche/WavaxPool.sol:WavaxPool",
            "label": "expiresAt",
            "offset": 0,
            "slot": "2",
            "type": "t_uint256"
          }
        ],
        "numberOfBytes": "96"
      },
      "t_uint256": {
        "encoding": "inplace",
        "label": "uint256",
        "numberOfBytes": "32"
      },
      "t_uint8": {
        "encoding": "inplace",
        "label": "uint8",
        "numberOfBytes": "1"
      }
    }
  }
}