{
  "address": "0x30e50a7EaED2F7d5FCE9F6F31e221a1D36021558",
  "abi": [
    {
      "inputs": [],
      "name": "ActionMayCauseInsolvency",
      "type": "error"
    },
    {
      "inputs": [],
      "name": "CalldataMustHaveValidPayload",
      "type": "error"
    },
    {
      "inputs": [],
      "name": "CalldataOverOrUnderFlow",
      "type": "error"
    },
    {
      "inputs": [],
      "name": "DataPackageTimestampMustNotBeZero",
      "type": "error"
    },
    {
      "inputs": [],
      "name": "DataPackageTimestampsMustBeEqual",
      "type": "error"
    },
    {
      "inputs": [],
      "name": "EachSignerMustProvideTheSameValue",
      "type": "error"
    },
    {
      "inputs": [],
      "name": "EmptyCalldataPointersArr",
      "type": "error"
    },
    {
      "inputs": [],
      "name": "GmxMarketTokensNotFound",
      "type": "error"
    },
    {
      "inputs": [],
      "name": "GmxPlusMarketTokenNotFound",
      "type": "error"
    },
    {
      "inputs": [],
      "name": "IncorrectUnsignedMetadataSize",
      "type": "error"
    },
    {
      "inputs": [
        {
          "internalType": "uint256",
          "name": "amount",
          "type": "uint256"
        },
        {
          "internalType": "uint256",
          "name": "availableBalance",
          "type": "uint256"
        }
      ],
      "name": "InsufficientAvailableBalance",
      "type": "error"
    },
    {
      "inputs": [],
      "name": "InsufficientBalance",
      "type": "error"
    },
    {
      "inputs": [],
      "name": "InsufficientBalanceAfterFees",
      "type": "error"
    },
    {
      "inputs": [
        {
          "internalType": "uint256",
          "name": "receivedSignersCount",
          "type": "uint256"
        },
        {
          "internalType": "uint256",
          "name": "requiredSignersCount",
          "type": "uint256"
        }
      ],
      "name": "InsufficientNumberOfUniqueSigners",
      "type": "error"
    },
    {
      "inputs": [],
      "name": "InvalidCalldataPointer",
      "type": "error"
    },
    {
      "inputs": [],
      "name": "InvalidExecutionFee",
      "type": "error"
    },
    {
      "inputs": [],
      "name": "InvalidMinOutputValue",
      "type": "error"
    },
    {
      "inputs": [],
      "name": "MarketNotWhitelisted",
      "type": "error"
    },
    {
      "inputs": [],
      "name": "OnlyWhitelistedLiquidators",
      "type": "error"
    },
    {
      "inputs": [
        {
          "internalType": "bytes",
          "name": "result",
          "type": "bytes"
        }
      ],
      "name": "ProxyCalldataFailedWithCustomError",
      "type": "error"
    },
    {
      "inputs": [
        {
          "internalType": "string",
          "name": "message",
          "type": "string"
        }
      ],
      "name": "ProxyCalldataFailedWithStringMessage",
      "type": "error"
    },
    {
      "inputs": [],
      "name": "ProxyCalldataFailedWithoutErrMsg",
      "type": "error"
    },
    {
      "inputs": [],
      "name": "RedstonePayloadMustHaveAtLeastOneDataPackage",
      "type": "error"
    },
    {
      "inputs": [
        {
          "internalType": "address",
          "name": "receivedSigner",
          "type": "address"
        }
      ],
      "name": "SignerNotAuthorised",
      "type": "error"
    },
    {
      "anonymous": false,
      "inputs": [
        {
          "indexed": true,
          "internalType": "address",
          "name": "gmMarket",
          "type": "address"
        },
        {
          "indexed": true,
          "internalType": "uint256",
          "name": "benchmarkValueUsd",
          "type": "uint256"
        },
        {
          "indexed": false,
          "internalType": "uint256",
          "name": "longTokenAmount",
          "type": "uint256"
        },
        {
          "indexed": false,
          "internalType": "uint256",
          "name": "shortTokenAmount",
          "type": "uint256"
        },
        {
          "indexed": false,
          "internalType": "address",
          "name": "longTokenAddress",
          "type": "address"
        },
        {
          "indexed": false,
          "internalType": "address",
          "name": "shortTokenAddress",
          "type": "address"
        },
        {
          "indexed": false,
          "internalType": "uint256",
          "name": "gmTokenPriceUsd",
          "type": "uint256"
        },
        {
          "indexed": false,
          "internalType": "uint256",
          "name": "longTokenPriceUsd",
          "type": "uint256"
        },
        {
          "indexed": false,
          "internalType": "uint256",
          "name": "shortTokenPriceUsd",
          "type": "uint256"
        },
        {
          "indexed": false,
          "internalType": "uint256",
          "name": "timestamp",
          "type": "uint256"
        }
      ],
      "name": "BenchmarkCreated",
      "type": "event"
    },
    {
      "anonymous": false,
      "inputs": [
        {
          "indexed": true,
          "internalType": "address",
          "name": "gmMarket",
          "type": "address"
        },
        {
          "indexed": true,
          "internalType": "address",
          "name": "initiator",
          "type": "address"
        },
        {
          "indexed": false,
          "internalType": "bool",
          "name": "isPlusMarket",
          "type": "bool"
        },
        {
          "indexed": false,
          "internalType": "uint256",
          "name": "timestamp",
          "type": "uint256"
        }
      ],
      "name": "BenchmarkInitiated",
      "type": "event"
    },
    {
      "anonymous": false,
      "inputs": [
        {
          "indexed": true,
          "internalType": "address",
          "name": "gmMarket",
          "type": "address"
        },
        {
          "indexed": true,
          "internalType": "uint256",
          "name": "newBenchmarkValueUsd",
          "type": "uint256"
        },
        {
          "indexed": false,
          "internalType": "uint256",
          "name": "newLongTokenAmount",
          "type": "uint256"
        },
        {
          "indexed": false,
          "internalType": "uint256",
          "name": "newShortTokenAmount",
          "type": "uint256"
        },
        {
          "indexed": false,
          "internalType": "uint256",
          "name": "gmTokenPriceUsd",
          "type": "uint256"
        },
        {
          "indexed": false,
          "internalType": "uint256",
          "name": "longTokenPriceUsd",
          "type": "uint256"
        },
        {
          "indexed": false,
          "internalType": "uint256",
          "name": "shortTokenPriceUsd",
          "type": "uint256"
        },
        {
          "indexed": false,
          "internalType": "uint256",
          "name": "timestamp",
          "type": "uint256"
        }
      ],
      "name": "BenchmarkUpdated",
      "type": "event"
    },
    {
      "anonymous": false,
      "inputs": [
        {
          "indexed": true,
          "internalType": "address",
          "name": "gmToken",
          "type": "address"
        },
        {
          "indexed": false,
          "internalType": "uint256",
          "name": "gmTokenPrice",
          "type": "uint256"
        },
        {
          "indexed": false,
          "internalType": "uint256",
          "name": "longTokenPrice",
          "type": "uint256"
        },
        {
          "indexed": false,
          "internalType": "uint256",
          "name": "shortTokenPrice",
          "type": "uint256"
        },
        {
          "indexed": false,
          "internalType": "uint256",
          "name": "timestamp",
          "type": "uint256"
        }
      ],
      "name": "BenchmarkUpdatedDuringWithdrawalIntent",
      "type": "event"
    },
    {
      "anonymous": false,
      "inputs": [
        {
          "indexed": true,
          "internalType": "bytes32",
          "name": "asset",
          "type": "bytes32"
        },
        {
          "indexed": false,
          "internalType": "uint256",
          "name": "clearedCount",
          "type": "uint256"
        },
        {
          "indexed": false,
          "internalType": "uint256",
          "name": "timestamp",
          "type": "uint256"
        }
      ],
      "name": "ExpiredIntentsCleared",
      "type": "event"
    },
    {
      "anonymous": false,
      "inputs": [
        {
          "indexed": true,
          "internalType": "address",
          "name": "gmMarket",
          "type": "address"
        },
        {
          "indexed": true,
          "internalType": "uint256",
          "name": "feeInGmTokens",
          "type": "uint256"
        },
        {
          "indexed": false,
          "internalType": "uint256",
          "name": "performanceUsd",
          "type": "uint256"
        },
        {
          "indexed": false,
          "internalType": "uint256",
          "name": "currentBalance",
          "type": "uint256"
        },
        {
          "indexed": false,
          "internalType": "uint256",
          "name": "timestamp",
          "type": "uint256"
        }
      ],
      "name": "FeesCollected",
      "type": "event"
    },
    {
      "anonymous": false,
      "inputs": [
        {
          "indexed": true,
          "internalType": "address",
          "name": "gmToken",
          "type": "address"
        },
        {
          "indexed": false,
          "internalType": "uint256",
          "name": "feesCollected",
          "type": "uint256"
        },
        {
          "indexed": true,
          "internalType": "bytes32",
          "name": "asset",
          "type": "bytes32"
        },
        {
          "indexed": false,
          "internalType": "uint256",
          "name": "originalAmount",
          "type": "uint256"
        },
        {
          "indexed": false,
          "internalType": "uint256",
          "name": "timestamp",
          "type": "uint256"
        }
      ],
      "name": "FeesSweptDuringWithdrawalIntent",
      "type": "event"
    },
    {
      "anonymous": false,
      "inputs": [
        {
          "indexed": true,
          "internalType": "address",
          "name": "user",
          "type": "address"
        },
        {
          "indexed": false,
          "internalType": "uint256",
          "name": "amount",
          "type": "uint256"
        },
        {
          "indexed": false,
          "internalType": "uint256",
          "name": "remainingDebt",
          "type": "uint256"
        },
        {
          "indexed": false,
          "internalType": "uint256",
          "name": "timestamp",
          "type": "uint256"
        }
      ],
      "name": "PrimeDebtRepaid",
      "type": "event"
    },
    {
      "anonymous": false,
      "inputs": [
        {
          "indexed": true,
          "internalType": "bytes32",
          "name": "asset",
          "type": "bytes32"
        },
        {
          "indexed": false,
          "internalType": "uint256",
          "name": "amount",
          "type": "uint256"
        },
        {
          "indexed": false,
          "internalType": "uint256",
          "name": "timestamp",
          "type": "uint256"
        }
      ],
      "name": "WithdrawalIntentCanceled",
      "type": "event"
    },
    {
      "anonymous": false,
      "inputs": [
        {
          "indexed": true,
          "internalType": "bytes32",
          "name": "asset",
          "type": "bytes32"
        },
        {
          "indexed": false,
          "internalType": "uint256",
          "name": "intentIndex",
          "type": "uint256"
        },
        {
          "indexed": false,
          "internalType": "uint256",
          "name": "amount",
          "type": "uint256"
        },
        {
          "indexed": false,
          "internalType": "uint256",
          "name": "actionableAt",
          "type": "uint256"
        },
        {
          "indexed": false,
          "internalType": "uint256",
          "name": "expiresAt",
          "type": "uint256"
        },
        {
          "indexed": false,
          "internalType": "uint256",
          "name": "timestamp",
          "type": "uint256"
        }
      ],
      "name": "WithdrawalIntentCanceledDetailed",
      "type": "event"
    },
    {
      "anonymous": false,
      "inputs": [
        {
          "indexed": true,
          "internalType": "bytes32",
          "name": "asset",
          "type": "bytes32"
        },
        {
          "indexed": false,
          "internalType": "uint256",
          "name": "amount",
          "type": "uint256"
        },
        {
          "indexed": false,
          "internalType": "uint256",
          "name": "actionableAt",
          "type": "uint256"
        },
        {
          "indexed": false,
          "internalType": "uint256",
          "name": "expiresAt",
          "type": "uint256"
        }
      ],
      "name": "WithdrawalIntentCreated",
      "type": "event"
    },
    {
      "anonymous": false,
      "inputs": [
        {
          "indexed": true,
          "internalType": "bytes32",
          "name": "asset",
          "type": "bytes32"
        },
        {
          "indexed": false,
          "internalType": "uint256",
          "name": "amount",
          "type": "uint256"
        },
        {
          "indexed": false,
          "internalType": "uint256",
          "name": "timestamp",
          "type": "uint256"
        }
      ],
      "name": "WithdrawalIntentExecuted",
      "type": "event"
    },
    {
      "anonymous": false,
      "inputs": [
        {
          "indexed": true,
          "internalType": "bytes32",
          "name": "asset",
          "type": "bytes32"
        },
        {
          "indexed": false,
          "internalType": "uint256",
          "name": "intentsProcessed",
          "type": "uint256"
        },
        {
          "indexed": false,
          "internalType": "uint256",
          "name": "finalAmount",
          "type": "uint256"
        },
        {
          "indexed": false,
          "internalType": "uint256",
          "name": "feesDeducted",
          "type": "uint256"
        },
        {
          "indexed": false,
          "internalType": "uint256",
          "name": "timestamp",
          "type": "uint256"
        }
      ],
      "name": "WithdrawalIntentsProcessed",
      "type": "event"
    },
    {
      "inputs": [],
      "name": "FEE_PERCENTAGE",
      "outputs": [
        {
          "internalType": "uint256",
          "name": "",
          "type": "uint256"
        }
      ],
      "stateMutability": "view",
      "type": "function"
    },
    {
      "inputs": [
        {
          "internalType": "bytes32[]",
          "name": "assetsToRepay",
          "type": "bytes32[]"
        }
      ],
      "name": "_getAllPricesForLiquidation",
      "outputs": [
        {
          "components": [
            {
              "components": [
                {
                  "internalType": "bytes32",
                  "name": "asset",
                  "type": "bytes32"
                },
                {
                  "internalType": "uint256",
                  "name": "price",
                  "type": "uint256"
                }
              ],
              "internalType": "struct SolvencyFacetProd.AssetPrice[]",
              "name": "ownedAssetsPrices",
              "type": "tuple[]"
            },
            {
              "components": [
                {
                  "internalType": "bytes32",
                  "name": "asset",
                  "type": "bytes32"
                },
                {
                  "internalType": "uint256",
                  "name": "price",
                  "type": "uint256"
                }
              ],
              "internalType": "struct SolvencyFacetProd.AssetPrice[]",
              "name": "debtAssetsPrices",
              "type": "tuple[]"
            },
            {
              "components": [
                {
                  "internalType": "bytes32",
                  "name": "asset",
                  "type": "bytes32"
                },
                {
                  "internalType": "uint256",
                  "name": "price",
                  "type": "uint256"
                }
              ],
              "internalType": "struct SolvencyFacetProd.AssetPrice[]",
              "name": "stakedPositionsPrices",
              "type": "tuple[]"
            },
            {
              "components": [
                {
                  "internalType": "bytes32",
                  "name": "asset",
                  "type": "bytes32"
                },
                {
                  "internalType": "uint256",
                  "name": "price",
                  "type": "uint256"
                }
              ],
              "internalType": "struct SolvencyFacetProd.AssetPrice[]",
              "name": "assetsToRepayPrices",
              "type": "tuple[]"
            }
          ],
          "internalType": "struct SolvencyFacetProd.CachedPrices",
          "name": "result",
          "type": "tuple"
        }
      ],
      "stateMutability": "nonpayable",
      "type": "function"
    },
    {
      "inputs": [],
      "name": "_getHealthRatio",
      "outputs": [
        {
          "internalType": "uint256",
          "name": "health",
          "type": "uint256"
        }
      ],
      "stateMutability": "nonpayable",
      "type": "function"
    },
    {
      "inputs": [
        {
          "components": [
            {
              "components": [
                {
                  "internalType": "bytes32",
                  "name": "asset",
                  "type": "bytes32"
                },
                {
                  "internalType": "uint256",
                  "name": "price",
                  "type": "uint256"
                }
              ],
              "internalType": "struct SolvencyFacetProd.AssetPrice[]",
              "name": "ownedAssetsPrices",
              "type": "tuple[]"
            },
            {
              "components": [
                {
                  "internalType": "bytes32",
                  "name": "asset",
                  "type": "bytes32"
                },
                {
                  "internalType": "uint256",
                  "name": "price",
                  "type": "uint256"
                }
              ],
              "internalType": "struct SolvencyFacetProd.AssetPrice[]",
              "name": "debtAssetsPrices",
              "type": "tuple[]"
            },
            {
              "components": [
                {
                  "internalType": "bytes32",
                  "name": "asset",
                  "type": "bytes32"
                },
                {
                  "internalType": "uint256",
                  "name": "price",
                  "type": "uint256"
                }
              ],
              "internalType": "struct SolvencyFacetProd.AssetPrice[]",
              "name": "stakedPositionsPrices",
              "type": "tuple[]"
            },
            {
              "components": [
                {
                  "internalType": "bytes32",
                  "name": "asset",
                  "type": "bytes32"
                },
                {
                  "internalType": "uint256",
                  "name": "price",
                  "type": "uint256"
                }
              ],
              "internalType": "struct SolvencyFacetProd.AssetPrice[]",
              "name": "assetsToRepayPrices",
              "type": "tuple[]"
            }
          ],
          "internalType": "struct SolvencyFacetProd.CachedPrices",
          "name": "cachedPrices",
          "type": "tuple"
        }
      ],
      "name": "_getHealthRatioWithPrices",
      "outputs": [
        {
          "internalType": "uint256",
          "name": "health",
          "type": "uint256"
        }
      ],
      "stateMutability": "nonpayable",
      "type": "function"
    },
    {
      "inputs": [],
      "name": "_getThresholdWeightedValue",
      "outputs": [
        {
          "internalType": "uint256",
          "name": "twv",
          "type": "uint256"
        }
      ],
      "stateMutability": "nonpayable",
      "type": "function"
    },
    {
      "inputs": [],
      "name": "_getThresholdWeightedValuePayable",
      "outputs": [
        {
          "internalType": "uint256",
          "name": "twv",
          "type": "uint256"
        }
      ],
      "stateMutability": "nonpayable",
      "type": "function"
    },
    {
      "inputs": [
        {
          "internalType": "bytes32",
          "name": "_asset",
          "type": "bytes32"
        },
        {
          "internalType": "uint256",
          "name": "intentIndex",
          "type": "uint256"
        }
      ],
      "name": "cancelWithdrawalIntent",
      "outputs": [],
      "stateMutability": "nonpayable",
      "type": "function"
    },
    {
      "inputs": [
        {
          "internalType": "bytes32",
          "name": "_asset",
          "type": "bytes32"
        }
      ],
      "name": "clearExpiredIntents",
      "outputs": [],
      "stateMutability": "nonpayable",
      "type": "function"
    },
    {
      "inputs": [
        {
          "internalType": "bytes32",
          "name": "_asset",
          "type": "bytes32"
        },
        {
          "internalType": "uint256",
          "name": "_amount",
          "type": "uint256"
        }
      ],
      "name": "createWithdrawalIntent",
      "outputs": [],
      "stateMutability": "nonpayable",
      "type": "function"
    },
    {
      "inputs": [
        {
          "internalType": "bytes32",
          "name": "_asset",
          "type": "bytes32"
        },
        {
          "internalType": "uint256[]",
          "name": "intentIndices",
          "type": "uint256[]"
        }
      ],
      "name": "executeWithdrawalIntent",
      "outputs": [],
      "stateMutability": "nonpayable",
      "type": "function"
    },
    {
      "inputs": [],
      "name": "extractTimestampsAndAssertAllAreEqual",
      "outputs": [
        {
          "internalType": "uint256",
          "name": "extractedTimestamp",
          "type": "uint256"
        }
      ],
      "stateMutability": "pure",
      "type": "function"
    },
    {
      "inputs": [
        {
          "internalType": "bytes32",
          "name": "_asset",
          "type": "bytes32"
        }
      ],
      "name": "getAvailableBalance",
      "outputs": [
        {
          "internalType": "uint256",
          "name": "",
          "type": "uint256"
        }
      ],
      "stateMutability": "view",
      "type": "function"
    },
    {
      "inputs": [
        {
          "internalType": "bytes32",
          "name": "_asset",
          "type": "bytes32"
        }
      ],
      "name": "getAvailableBalancePayable",
      "outputs": [
        {
          "internalType": "uint256",
          "name": "",
          "type": "uint256"
        }
      ],
      "stateMutability": "payable",
      "type": "function"
    },
    {
      "inputs": [
        {
          "internalType": "bytes32",
          "name": "symbol",
          "type": "bytes32"
        }
      ],
      "name": "getPrice",
      "outputs": [
        {
          "internalType": "uint256",
          "name": "price",
          "type": "uint256"
        }
      ],
      "stateMutability": "view",
      "type": "function"
    },
    {
      "inputs": [
        {
          "internalType": "bytes32",
          "name": "_asset",
          "type": "bytes32"
        }
      ],
      "name": "getTotalIntentAmount",
      "outputs": [
        {
          "internalType": "uint256",
          "name": "",
          "type": "uint256"
        }
      ],
      "stateMutability": "view",
      "type": "function"
    },
    {
      "inputs": [
        {
          "internalType": "bytes32",
          "name": "_asset",
          "type": "bytes32"
        }
      ],
      "name": "getUserIntents",
      "outputs": [
        {
          "components": [
            {
              "internalType": "uint256",
              "name": "amount",
              "type": "uint256"
            },
            {
              "internalType": "uint256",
              "name": "actionableAt",
              "type": "uint256"
            },
            {
              "internalType": "uint256",
              "name": "expiresAt",
              "type": "uint256"
            },
            {
              "internalType": "bool",
              "name": "isPending",
              "type": "bool"
            },
            {
              "internalType": "bool",
              "name": "isActionable",
              "type": "bool"
            },
            {
              "internalType": "bool",
              "name": "isExpired",
              "type": "bool"
            }
          ],
          "internalType": "struct IWithdrawalIntentFacet.IntentInfo[]",
          "name": "",
          "type": "tuple[]"
        }
      ],
      "stateMutability": "view",
      "type": "function"
    }
  ],
  "transactionHash": "0xaae7f89096be0ae86950f5f06fb735b042ae8416700aed548a78a9178bde3f3b",
  "args": [],
  "numDeployments": 5,
  "solcInputHash": "59aaec69bf9c5ea3b00b51f20c5051f2",
  "bytecode": "0x608060405234801561001057600080fd5b5061458e806100206000396000f3fe6080604052600436106100c25760003560e01c80620b46f8146100c75780630bf77f9f146100f65780630fe12b651461011857806323a3afa21461013857806331d98b3f1461015857806332cbfcca1461017857806339e2719e146101a5578063530b3977146101ba57806355a547d5146101cf5780636e3bfe9f146101e45780637088e379146102045780639b1658d2146102195780639fc2e42d14610239578063a0a344ef14610259578063b2d40e7314610279578063f9ea76b2146102a6575b600080fd5b3480156100d357600080fd5b506100e367016345785d8a000081565b6040519081526020015b60405180910390f35b34801561010257600080fd5b50610116610111366004613a1a565b6102b9565b005b34801561012457600080fd5b50610116610133366004613a3c565b61049c565b34801561014457600080fd5b506100e3610153366004613aba565b610b46565b34801561016457600080fd5b506100e3610173366004613aba565b610c1d565b34801561018457600080fd5b50610198610193366004613aba565b610c99565b6040516100ed9190613ad3565b3480156101b157600080fd5b506100e3610e19565b3480156101c657600080fd5b506100e3610e74565b3480156101db57600080fd5b506100e3610eb7565b3480156101f057600080fd5b506100e36101ff366004613c88565b610fcf565b34801561021057600080fd5b506100e3611035565b34801561022557600080fd5b50610116610234366004613aba565b611078565b34801561024557600080fd5b506100e3610254366004613aba565b6110db565b34801561026557600080fd5b50610116610274366004613a1a565b611189565b34801561028557600080fd5b50610299610294366004613d60565b6113df565b6040516100ed9190613e2b565b6100e36102b4366004613aba565b61144a565b6102c1611455565b60006102cb6114cc565b8054909150600119016102f95760405162461bcd60e51b81526004016102f090613ea0565b60405180910390fd5b600281558161034a5760405162461bcd60e51b815260206004820181905260248201527f416d6f756e74206d7573742062652067726561746572207468616e207a65726f60448201526064016102f0565b60006103578460016114f0565b90508061036381611574565b50600061036f86610b46565b90508085111561039c5760405163adb9e04360e01b815260048101869052602481018290526044016102f0565b60006103a66116aa565b905060006103b74262015180613eed565b905060006103c8826202a300613eed565b6001600160a01b03861660009081526020858152604080832081516060810183528d81528084018881528184018781528354600181810186559488529590962091516003909502909101938455519083015591516002909101555190915089907f4e6c7921d7683fdc4f4825e400f8d25641d1a8b117382e8748912c83235e11aa90610459908b9086908690613f00565b60405180910390a250505050505060006104716116ce565b8054909150156104935760405162461bcd60e51b81526004016102f090613f16565b50600190555050565b6104a4611455565b7fc8fcad8db84d3cc18b4c41d551ea0ee66dd599cde068d998e57d5e09332c1322547fc8fcad8db84d3cc18b4c41d551ea0ee66dd599cde068d998e57d5e09332c131c904290036105515760405162461bcd60e51b815260206004820152603160248201527f426f72726f77696e67206d7573742068617070656e20696e2061207374616e6460448201527030b637b732903a3930b739b0b1ba34b7b760791b60648201526084016102f0565b50600061055c6114cc565b8054909150600119016105815760405162461bcd60e51b81526004016102f090613ea0565b6002815560006105928560016114f0565b905080600061059f6116f2565b90506105a96139f9565b60006105b684898961170a565b90506000836001600160a01b0316633dfef7c0866040518263ffffffff1660e01b81526004016105e69190613f4b565b602060405180830381865afa158015610603573d6000803e3d6000fd5b505050506040513d601f19601f820116820180604052508101906106279190613f5f565b156106a5576106358561194d565b92506106418584611987565b905080156106a5576106538183613f81565b9150896001600160a01b0386167fdf9872e381e579d2dd9875137f6f1f9dccc8b78dc01443fcd7153f4f3f2b9f318361068c8187613eed565b4260405161069c93929190613f00565b60405180910390a35b600082116106f35760405162461bcd60e51b815260206004820152601b60248201527a4e6f2076616c696420616d6f756e7420746f20776974686472617760281b60448201526064016102f0565b60006106fd611a1e565b905061070881611a61565b600061071382611a84565b905066b1a2bc2ec5000081111561072f5761072f818388611b70565b60006107396116aa565b6001600160a01b03891660009081526020829052604090209091508b5b80156108445760008e8e61076b600185613f81565b81811061077a5761077a613f94565b9050602002013590506000600184805490506107969190613f81565b90508082146107fa578381815481106107b1576107b1613f94565b90600052602060002090600302018483815481106107d1576107d1613f94565b600091825260209091208254600390920201908155600180830154908201556002918201549101555b8380548061080a5761080a613faa565b600082815260208120600360001990930192830201818155600181018290556002015590555081905061083c81613fc0565b915050610756565b506108596001600160a01b038b163388611df1565b60405162f7fbdf60e61b81526001600160a01b03891690633dfef7c090610884908c90600401613f4b565b602060405180830381865afa1580156108a1573d6000803e3d6000fd5b505050506040513d601f19601f820116820180604052508101906108c59190613f5f565b15610936576108e289886000015189602001518a60400151611f24565b886001600160a01b03167f74f1ca1e7a8527dd64a481e53c3d7fbcfe9c88b0e65f799e8a1989c744d899b4886000015189602001518a604001514260405161092d9493929190613fd7565b60405180910390a25b645052494d4560d81b8e036109aa5760405163b25bfc0160e01b81526001600160a01b0389169063b25bfc01906109739030908d90600401613ff2565b600060405180830381600087803b15801561098d57600080fd5b505af11580156109a1573d6000803e3d6000fd5b505050506109b4565b6109b4888a61226a565b604080518781524260208201528f917f42d97c54e2755647b79fdfff4dd5b966d1f5906f33360d1d38eafc743043c6da910160405180910390a26040518e907fafa5c4245cbbde0b4f448b84c4f599340e1f4c46bba0db58977f13a733fe424990610a26908f908a908a904290613fd7565b60405180910390a2505050505050505050506000610a426116ce565b805490915015610a645760405162461bcd60e51b81526004016102f090613f16565b50610a6d61242d565b610ad55760405162461bcd60e51b815260206004820152603360248201527f54686520616374696f6e206d617920636175736520616e206163636f756e74206044820152721d1bc8189958dbdb59481a5b9cdbdb1d995b9d606a1b60648201526084016102f0565b610add612483565b610b3d5760405162461bcd60e51b815260206004820152602b60248201527f496e73756666696369656e742061737365747320746f2066756c6c792072657060448201526a185e481d1a19481919589d60aa1b60648201526084016102f0565b60019055505050565b600080610b548360016114f0565b90506000816001600160a01b03166370a08231306040518263ffffffff1660e01b8152600401610b849190613f4b565b602060405180830381865afa158015610ba1573d6000803e3d6000fd5b505050506040513d601f19601f82011682018060405250810190610bc5919061400c565b90506000610bd2836124c6565b9050808211610be2576000610bec565b610bec8183613f81565b91506000610bf9866110db565b9050808311610c09576000610c13565b610c138184613f81565b9695505050505050565b6000610c80610c326331d98b3f60e01b6124f2565b604051602481018590526331d98b3f60e01b906044015b60408051601f198184030181529190526020810180516001600160e01b03166001600160e01b03199093169290921790915261257d565b806020019051810190610c93919061400c565b92915050565b60606000610ca88360016114f0565b90506000610cb46116aa565b6001600160a01b03831660009081526020829052604081208054929350916001600160401b03811115610ce957610ce9613b51565b604051908082528060200260200182016040528015610d4957816020015b6040805160c08101825260008082526020808301829052928201819052606082018190526080820181905260a08201528252600019909201910181610d075790505b50905060005b8254811015610e0f576000838281548110610d6c57610d6c613f94565b906000526020600020906003020190506040518060c00160405280826000015481526020018260010154815260200182600201548152602001826001015442101515815260200182600101544210158015610dcb575082600201544211155b15158152602001826002015442111515815250838381518110610df057610df0613f94565b6020026020010181905250508080610e0790614025565b915050610d4f565b5095945050505050565b6000610e5c610e2e637914334f60e01b6124f2565b6040805160048152602481019091526020810180516001600160e01b0316637914334f60e01b1790526125f6565b806020019051810190610e6f919061400c565b905090565b6000610e5c610e8963fd4344cd60e01b6124f2565b6040805160048152602481019091526020810180516001600160e01b031663fd4344cd60e01b1790526125f6565b600080610ec261265b565b90506000610ecf82612702565b61ffff16905080600003610ef657604051632154bfcf60e21b815260040160405180910390fd5b610f01600283613eed565b915060005b81811015610fc9576000610f198461273c565b9050600080610f29606887613eed565b90506000610f378236613f81565b9050803592508265ffffffffffff16600003610f6657604051630336dc9d60e41b815260040160405180910390fd5b87600003610f7e578265ffffffffffff169750610fa6565b878365ffffffffffff1614610fa65760405163d9d1f46560e01b815260040160405180910390fd5b610fb08488613eed565b9650505050508080610fc190614025565b915050610f06565b50505090565b6000610c80610fe463360398a360e01b6124f2565b60405163360398a360e01b90610ffe908690602401613e2b565b60408051601f198184030181529190526020810180516001600160e01b03166001600160e01b0319909316929092179091526125f6565b6000610e5c61104a63caacc76160e01b6124f2565b6040805160048152602481019091526020810180516001600160e01b031663caacc76160e01b1790526125f6565b60006110858260016114f0565b9050600061109282611574565b905080156110d6576040805182815242602082015284917ff7726097e1dbefc8ae4808a0da27580168067750f488cb605ac50c895658fd6491015b60405180910390a25b505050565b6000806110e98360016114f0565b905060006110f56116aa565b6001600160a01b0383166000908152602082905260408120919250805b8254811015610e0f5782818154811061112d5761112d613f94565b90600052602060002090600302016002015442116111775782818154811061115757611157613f94565b906000526020600020906003020160000154826111749190613eed565b91505b8061118181614025565b915050611112565b611191611455565b600061119b6114cc565b8054909150600119016111c05760405162461bcd60e51b81526004016102f090613ea0565b6002815560006111d18460016114f0565b905060006111dd6116aa565b6001600160a01b038316600090815260208290526040902080549192509085106112195760405162461bcd60e51b81526004016102f09061403e565b600081868154811061122d5761122d613f94565b9060005260206000209060030201600001549050600082878154811061125557611255613f94565b9060005260206000209060030201600101549050600083888154811061127d5761127d613f94565b6000918252602082206002600390920201015485549092506112a190600190613f81565b9050808914611305578481815481106112bc576112bc613f94565b9060005260206000209060030201858a815481106112dc576112dc613f94565b600091825260209091208254600390920201908155600180830154908201556002918201549101555b8480548061131557611315613faa565b600082815260208120600360001990930192830201818155600181018290556002015590556040518a907fc6a65d518e37e405a06a9fef6a41bed819ab9100e8a515e8ae71afa741d552f7906113779087904290918252602082015260400190565b60405180910390a2604080518a815260208101869052908101849052606081018390524260808201528a907fb8adff227cda4caf197533cae77ed6f4012c2335c6b05d11cf308500a5301dbc9060a00160405180910390a25050600190955550505050505050565b61140a6040518060800160405280606081526020016060815260200160608152602001606081525090565b61143761141d6351d5468f60e11b6124f2565b6040516351d5468f60e11b90610ffe90869060240161406c565b806020019051810190610c93919061412f565b6000610c9382610b46565b61145d612778565b600101546001600160a01b031633146114ca5760405162461bcd60e51b815260206004820152602960248201527f4469616d6f6e6453746f726167654c69623a204d75737420626520636f6e747260448201526830b1ba1037bbb732b960b91b60648201526084016102f0565b565b7f1c85eba10a4cf2d29c83fc15f97931886b9fd3caeb70d8c377aeedc58b919e3b90565b60006114fa6116f2565b6040516325eb876f60e01b81526004810185905283151560248201526001600160a01b0391909116906325eb876f90604401602060405180830381865afa158015611549573d6000803e3d6000fd5b505050506040513d601f19601f8201168201806040525081019061156d9190614214565b9392505050565b60008061157f6116aa565b6001600160a01b0384166000908152602082905260408120909350909150825b81548110156116a2578181815481106115ba576115ba613f94565b9060005260206000209060030201600201544211156116905781546000906115e490600190613f81565b9050808214611648578281815481106115ff576115ff613f94565b906000526020600020906003020183838154811061161f5761161f613f94565b600091825260209091208254600390920201908155600180830154908201556002918201549101555b8280548061165857611658613faa565b600082815260208120600360001990930192830201818155600181018290556002015590558461168781614025565b9550505061159f565b8061169a81614025565b91505061159f565b505050919050565b7f7313dae68dba2ce39f5b1f7df3d82109a4c41de6fbb8a41aea0538699cdc522590565b7f5bd9f2a6abfdcb78e37f3bb90d60590fbdd4c016af182813978c914fec39d57a90565b73f3978209b7cff2b90100c6f87cec77de928ed58e90565b6000816117595760405162461bcd60e51b815260206004820181905260248201527f4d7573742070726f76696465206174206c65617374206f6e6520696e74656e7460448201526064016102f0565b60006117636116aa565b6001600160a01b0386166000908152602082905260408120919250805b85811015611942578015806117ce5750868661179d600184613f81565b8181106117ac576117ac613f94565b905060200201358787838181106117c5576117c5613f94565b90506020020135115b61182d5760405162461bcd60e51b815260206004820152602a60248201527f496e74656e7420696e6469636573206d757374206265207374726963746c7920604482015269696e6372656173696e6760b01b60648201526084016102f0565b600087878381811061184157611841613f94565b9050602002013590508380549050811061186d5760405162461bcd60e51b81526004016102f09061403e565b600084828154811061188157611881613f94565b9060005260206000209060030201905080600101544210156118da5760405162461bcd60e51b8152602060048201526012602482015271125b9d195b9d081b9bdd081b585d1d5c995960721b60448201526064016102f0565b806002015442111561191f5760405162461bcd60e51b815260206004820152600e60248201526d125b9d195b9d08195e1c1a5c995960921b60448201526064016102f0565b805461192b9085613eed565b93505050808061193a90614025565b915050611780565b509695505050505050565b6119556139f9565b60006119608361279c565b60408051606081018252825181526020808401519082015291810151908201529392505050565b60008061199384612d26565b90508060c001516119a8576000915050610c93565b825115806119b857506020830151155b156119c7576000915050610c93565b60006119e28585600001518660200151876040015186612e37565b9050806060015181604001516119f89190613eed565b81602001511115611a1657611a138585600001518385612f8c565b92505b505092915050565b6000610e5c611a336314a6bf0f60e01b6124f2565b6040805160048152602481019091526020810180516001600160e01b03166314a6bf0f60e01b1790526125f6565b6000611a6c82611a84565b9050611a7781613180565b611a8042613190565b5050565b600080611a8f6116f2565b90506000611a9b6131a0565b90506000611aa76131b3565b611ab19042613f81565b90506000836001600160a01b031663334e118f611acc6131c6565b6040518263ffffffff1660e01b8152600401611ae8919061422f565b602060405180830381865afa158015611b05573d6000803e3d6000fd5b505050506040513d601f19601f82011682018060405250810190611b29919061400c565b905060006b0a3098c68eb9427db800000083611b45848a614257565b611b4f9190614257565b611b59919061426e565b9050611b658185613eed565b979650505050505050565b82611b82645052494d4560d81b6131d9565b1015611bdb5760405162461bcd60e51b815260206004820152602260248201527f4e6f7420656e6f756768205052494d4520746f20726570617920746865206465604482015261189d60f21b60648201526084016102f0565b6040516325eb876f60e01b8152645052494d4560d81b6004820152600160248201526000906001600160a01b038316906325eb876f90604401602060405180830381865afa158015611c31573d6000803e3d6000fd5b505050506040513d601f19601f82011682018060405250810190611c559190614214565b90506000611c6460028661426e565b90506000611c728287613f81565b60405163a9059cbb60e01b81529091506001600160a01b0384169063a9059cbb90611ca59061dead908690600401614290565b6020604051808303816000875af1158015611cc4573d6000803e3d6000fd5b505050506040513d601f19601f82011682018060405250810190611ce89190613f5f565b506000611cf3613209565b60405163a9059cbb60e01b81529091506001600160a01b0385169063a9059cbb90611d249084908690600401614290565b6020604051808303816000875af1158015611d43573d6000803e3d6000fd5b505050506040513d601f19601f82011682018060405250810190611d679190613f5f565b506000611d726131a0565b9050611d94888211611d85576000613180565b611d8f8983613f81565b613180565b6000611d9f88611a84565b9050336001600160a01b03167fd6e0a5459bac24b23a813689c2af344ee8a4fd446b816b49c7bdaef07c1ab2258a8342604051611dde93929190613f00565b60405180910390a2505050505050505050565b600080846001600160a01b031663a9059cbb8585604051602401611e16929190614290565b6040516020818303038152906040529060e01b6020820180516001600160e01b038381831617835250505050604051611e4f91906142cd565b6000604051808303816000865af19150503d8060008114611e8c576040519150601f19603f3d011682016040523d82523d6000602084013e611e91565b606091505b5091509150818015611ebb575080511580611ebb575080806020019051810190611ebb9190613f5f565b611f1d5760405162461bcd60e51b815260206004820152602d60248201527f5472616e7366657248656c7065723a3a736166655472616e736665723a20747260448201526c185b9cd9995c8819985a5b1959609a1b60648201526084016102f0565b5050505050565b6000611f2f85612d26565b9050611f5560405180606001604052806000815260200160008152602001600081525090565b856001600160a01b03166318160ddd6040518163ffffffff1660e01b8152600401602060405180830381865afa158015611f93573d6000803e3d6000fd5b505050506040513d601f19601f82011682018060405250810190611fb7919061400c565b815260808201516040516370a0823160e01b81526001600160a01b03909116906370a0823190611feb908990600401613f4b565b602060405180830381865afa158015612008573d6000803e3d6000fd5b505050506040513d601f19601f8201168201806040525081019061202c919061400c565b602082015260a08201516040516370a0823160e01b81526001600160a01b03909116906370a0823190612063908990600401613f4b565b602060405180830381865afa158015612080573d6000803e3d6000fd5b505050506040513d601f19601f820116820180604052508101906120a4919061400c565b604082015280516000036120b9575050612264565b6040516370a0823160e01b81526000906001600160a01b038816906370a08231906120e8903090600401613f4b565b602060405180830381865afa158015612105573d6000803e3d6000fd5b505050506040513d601f19601f82011682018060405250810190612129919061400c565b905060006305f5e10061213c8884614257565b612146919061426e565b8351602085015191925060009161215d9085614257565b612167919061426e565b8451604086015191925060009161217e9086614257565b612188919061426e565b90506121fb6040518061014001604052808c6001600160a01b0316815260200185815260200184815260200183815260200188608001516001600160a01b031681526020018860a001516001600160a01b031681526020014281526020018b81526020018a815260200189815250613221565b60408051838152602081018390529081018a905260608101899052608081018890524260a082015283906001600160a01b038c16907f4ac622163846a3f82e12e8e0c02c1f42cc731faa0c2945b37f703340930d48c09060c00160405180910390a35050505050505b50505050565b60405163b25bfc0160e01b81526001600160a01b0383169063b25bfc01906122989030908590600401613ff2565b600060405180830381600087803b1580156122b257600080fd5b505af11580156122c6573d6000803e3d6000fd5b50506040516370a0823160e01b8152600092506001600160a01b03841691506370a08231906122f9903090600401613f4b565b602060405180830381865afa158015612316573d6000803e3d6000fd5b505050506040513d601f19601f8201168201806040525081019061233a919061400c565b11156123b7576040516307c11f8f60e51b8152611a80906001600160a01b0384169063f823f1e090612370908590600401613f4b565b602060405180830381865afa15801561238d573d6000803e3d6000fd5b505050506040513d601f19601f820116820180604052508101906123b1919061400c565b826133a2565b6040516307c11f8f60e51b8152611a80906001600160a01b0384169063f823f1e0906123e7908590600401613f4b565b602060405180830381865afa158015612404573d6000803e3d6000fd5b505050506040513d601f19601f82011682018060405250810190612428919061400c565b613484565b60006124706124426305ce239560e41b6124f2565b6040805160048152602481019091526020810180516001600160e01b03166305ce239560e41b1790526125f6565b806020019051810190610e6f9190613f5f565b6000612470612498631ca1529760e11b6124f2565b6040805160048152602481019091526020810180516001600160e01b0316631ca1529760e11b1790526125f6565b60006124d06134dc565b6001600160a01b03909216600090815260019290920160205250604090205490565b6000732916b3bf7c35bd21e63d01c93c62fb0d4994e56d604051630d74157760e01b81526001600160e01b0319841660048201526001600160a01b039190911690630d74157790602401602060405180830381865afa158015612559573d6000803e3d6000fd5b505050506040513d601f19601f82011682018060405250810190610c939190614214565b6060600061258a83613500565b9050600080856001600160a01b0316836040516125a791906142cd565b600060405180830381855afa9150503d80600081146125e2576040519150601f19603f3d011682016040523d82523d6000602084013e6125e7565b606091505b5091509150610c13828261358f565b6060600061260383613500565b9050600080856001600160a01b03168360405161262091906142cd565b600060405180830381855af49150503d80600081146125e2576040519150601f19603f3d011682016040523d82523d6000602084013e6125e7565b60006602ed57011e0000601f193601358116148061268c576040516373bb264f60e11b815260040160405180910390fd5b600036602911156126b057604051632bcb7bc560e11b815260040160405180910390fd5b50602819360135600060096126cb600362ffffff8516613eed565b6126d59190613eed565b9050366126e3600283613eed565b111561156d5760405163c30a7bd760e01b815260040160405180910390fd5b600080612710602084613eed565b90503681111561273357604051632bcb7bc560e11b815260040160405180910390fd5b36033592915050565b600080600061274a8461360c565b9092509050604e61275c826020613eed565b6127669084614257565b6127709190613eed565b949350505050565b7f8d5bb42e0ac1496a2c326edc9c00758985246e6c2bb146d6c2f4a0d509e0960a90565b6040805160c081018252600080825260208201819052918101829052606081018290526080810182905260a08101829052906127d66116f2565b90506000816001600160a01b031663f4764149856040518263ffffffff1660e01b81526004016128069190613f4b565b602060405180830381865afa158015612823573d6000803e3d6000fd5b505050506040513d601f19601f820116820180604052508101906128479190613f5f565b60405163714af34b60e01b8152909150731ec018d2b6acca20a0bedb86450b7e27d1d8355b90732f0b22339414aded7d5f06f9d604c7ff5b2fe3f690600090839063714af34b9061289e9085908b90600401613ff2565b608060405180830381865afa1580156128bb573d6000803e3d6000fd5b505050506040513d601f19601f820116820180604052508101906128df91906142e9565b9050600080851561291e5750506040810151806001600160a01b03811661291957604051630ce5f4c360e01b815260040160405180910390fd5b612965565b5050604081015160608201516001600160a01b038216158061294757506001600160a01b038116155b1561296557604051631043e27760e01b815260040160405180910390fd5b60608615612aa957604080516002808252606082018352909160208301908036833750506040516307c11f8f60e51b8152919250506001600160a01b0389169063f823f1e0906129b9908d90600401613f4b565b602060405180830381865afa1580156129d6573d6000803e3d6000fd5b505050506040513d601f19601f820116820180604052508101906129fa919061400c565b81600081518110612a0d57612a0d613f94565b60209081029190910101526040516307c11f8f60e51b81526001600160a01b0389169063f823f1e090612a44908690600401613f4b565b602060405180830381865afa158015612a61573d6000803e3d6000fd5b505050506040513d601f19601f82011682018060405250810190612a85919061400c565b81600181518110612a9857612a98613f94565b602002602001018181525050612c6d565b60408051600380825260808201909252906020820160608036833750506040516307c11f8f60e51b8152919250506001600160a01b0389169063f823f1e090612af6908d90600401613f4b565b602060405180830381865afa158015612b13573d6000803e3d6000fd5b505050506040513d601f19601f82011682018060405250810190612b37919061400c565b81600081518110612b4a57612b4a613f94565b60209081029190910101526040516307c11f8f60e51b81526001600160a01b0389169063f823f1e090612b81908690600401613f4b565b602060405180830381865afa158015612b9e573d6000803e3d6000fd5b505050506040513d601f19601f82011682018060405250810190612bc2919061400c565b81600181518110612bd557612bd5613f94565b60209081029190910101526040516307c11f8f60e51b81526001600160a01b0389169063f823f1e090612c0c908590600401613f4b565b602060405180830381865afa158015612c29573d6000803e3d6000fd5b505050506040513d601f19601f82011682018060405250810190612c4d919061400c565b81600281518110612c6057612c60613f94565b6020026020010181815250505b6000612c7882613663565b90506040518060c0016040528082600081518110612c9857612c98613f94565b6020026020010151815260200182600181518110612cb857612cb8613f94565b6020026020010151815260200189612cea5782600281518110612cdd57612cdd613f94565b6020026020010151612ced565b60005b8152602001856001600160a01b03168152602001846001600160a01b031681526020018915158152509950505050505050505050919050565b612d906040518061014001604052806000815260200160008152602001600081526020016000815260200160006001600160a01b0316815260200160006001600160a01b031681526020016000151581526020016000815260200160008152602001600081525090565b6000612d9a6136a5565b6001600160a01b03938416600090815260209182526040908190208151610140810183528154815260018201549381019390935260028101549183019190915260038101546060830152600481015485166080830152600581015494851660a0830152600160a01b90940460ff16151560c0820152600684015460e082015260078401546101008201526008909301546101208401525090919050565b612e696040518060a0016040528060008152602001600081526020016000815260200160008152602001600081525090565b6000612e736116f2565b6040516370a0823160e01b81529091506001600160a01b038816906370a0823190612ea2903090600401613f4b565b602060405180830381865afa158015612ebf573d6000803e3d6000fd5b505050506040513d601f19601f82011682018060405250810190612ee3919061400c565b8083526305f5e10090612ef7908890614257565b612f01919061426e565b826020018181525050612f1d83602001518685608001516136c9565b826040018181525050612f398360400151858560a001516136c9565b606083018190526040830151600091612f5191613eed565b90508083602001511115612f7957808360200151612f6f9190613f81565b6080840152612f81565b600060808401525b505095945050505050565b600080670de0b6b3a764000067016345785d8a00008560800151612fb09190614257565b612fba919061426e565b905080600003612fce576000915050612770565b84612fdd826305f5e100614257565b612fe7919061426e565b915060038210158015612ffb575083518211155b1561317257600061300d60038461426e565b9050600061301b8285613f81565b60405163a9059cbb60e01b81529091506001600160a01b0389169063a9059cbb9061306090738ac151296ae72a8aee01ecb33cd8ad9842f2704f908690600401614290565b6020604051808303816000875af115801561307f573d6000803e3d6000fd5b505050506040513d601f19601f820116820180604052508101906130a39190613f5f565b50876001600160a01b031663a9059cbb6130bb613209565b836040518363ffffffff1660e01b81526004016130d9929190614290565b6020604051808303816000875af11580156130f8573d6000803e3d6000fd5b505050506040513d601f19601f8201168201806040525081019061311c9190613f5f565b5083886001600160a01b03167f7169048ac0fa5092b61a37205ccfd5269382afea33491901921d313ebb0d6b8c886080015189600001514260405161316393929190613f00565b60405180910390a35050613177565b600091505b50949350505050565b806131896134dc565b6002015550565b806131996134dc565b6003015550565b60006131aa6134dc565b60020154905090565b60006131bd6134dc565b60030154905090565b60006131d06134dc565b5460ff16919050565b6000610c806131ee6311d1d7d160e11b6124f2565b604051602481018590526311d1d7d160e11b90604401610ffe565b7318c244c62372df1b933cd455769f9b4ddb820f0c90565b600061322b6136a5565b90506040518061014001604052808360200151815260200183604001518152602001836060015181526020018360c00151815260200183608001516001600160a01b031681526020018360a001516001600160a01b031681526020016001151581526020018360e001518152602001836101000151815260200183610120015181525081600001600084600001516001600160a01b03166001600160a01b031681526020019081526020016000206000820151816000015560208201518160010155604082015181600201556060820151816003015560808201518160040160006101000a8154816001600160a01b0302191690836001600160a01b0316021790555060a08201518160050160006101000a8154816001600160a01b0302191690836001600160a01b0316021790555060c08201518160050160146101000a81548160ff02191690831515021790555060e08201518160060155610100820151816007015561012082015181600801559050505050565b816000036133eb5760405162461bcd60e51b815260206004820152601660248201527553796d626f6c2063616e6e6f7420626520656d70747960501b60448201526064016102f0565b6001600160a01b0381166134375760405162461bcd60e51b8152602060048201526013602482015272496e76616c696420416464726573735a65726f60681b60448201526064016102f0565b6000613441612778565b90506134518160040184846137cc565b50827f21eab7d98872eb1399cd56d99a43442b9b50720f3222e49563d2be182c6a6a3f426040516110cd91815260200190565b600061348e612778565b905061349d81600401836137e2565b50817f82829875fd21462894d9bbb2fdbd4a8c25ceb68425c4835a59ca0e76902def94426040516134d091815260200190565b60405180910390a25050565b7f7a9adddebd88baae7e40094aa6b60b0511f0580f415e30c08b59fe6fb7548dad90565b8051606090600061350f6137ee565b9050600061351d8284613eed565b90503682111561354057604051632bcb7bc560e11b815260040160405180910390fd5b6060604051905081815285602001848101826020015b8183101561356e578251815260209283019201613556565b50505082833603856020018301379190920181016020016040529392505050565b6060826136065781516000036135b857604051632b3ff13d60e11b815260040160405180910390fd5b602082015162461bcd60e51b1480156135eb576040516301efd04f60e31b815260448401906102f0908290600401614391565b8260405163fd36fde360e01b81526004016102f09190614391565b50919050565b60008080808061361d604187613eed565b9050600061363661362f602084613eed565b3690613859565b803594509050613647816003613859565b62ffffff9490941697933563ffffffff16965092945050505050565b6060613692613678631377241b60e11b6124f2565b604051631377241b60e11b90610c4990869060240161406c565b806020019051810190610c9391906143a4565b7f283b2a4d03bccb225a863e20e7f333d968b6323af87aaab8eb8bdbf05de84ca390565b60008315806136d6575082155b156136e35750600061156d565b6000826001600160a01b031663313ce5676040518163ffffffff1660e01b8152600401602060405180830381865afa158015613723573d6000803e3d6000fd5b505050506040513d601f19601f820116820180604052508101906137479190614429565b90508060ff166012146137aa5760128160ff1610156137875761376b81601261444c565b61377690600a614549565b6137809086614257565b94506137aa565b61379260128261444c565b61379d90600a614549565b6137a7908661426e565b94505b6305f5e1006137b98587614257565b6137c3919061426e565b95945050505050565b600061277084846001600160a01b038516613865565b600061156d8383613882565b6000806137f961265b565b9050600061380682612702565b61ffff169050613817600283613eed565b915060005b8181101561385157600061382f8461273c565b905061383b8185613eed565b935050808061384990614025565b91505061381c565b509092915050565b600061156d8284613f81565b60008281526002840160205260408120829055612770848461389f565b6000818152600283016020526040812081905561156d83836138ab565b600061156d83836138b7565b600061156d8383613906565b60008181526001830160205260408120546138fe57508154600181810184556000848152602080822090930184905584548482528286019093526040902091909155610c93565b506000610c93565b600081815260018301602052604081205480156139ef57600061392a600183613f81565b855490915060009061393e90600190613f81565b90508181146139a357600086600001828154811061395e5761395e613f94565b906000526020600020015490508087600001848154811061398157613981613f94565b6000918252602080832090910192909255918252600188019052604090208390555b85548690806139b4576139b4613faa565b600190038181906000526020600020016000905590558560010160008681526020019081526020016000206000905560019350505050610c93565b6000915050610c93565b60405180606001604052806000815260200160008152602001600081525090565b60008060408385031215613a2d57600080fd5b50508035926020909101359150565b600080600060408486031215613a5157600080fd5b8335925060208401356001600160401b0380821115613a6f57600080fd5b818601915086601f830112613a8357600080fd5b813581811115613a9257600080fd5b8760208260051b8501011115613aa757600080fd5b6020830194508093505050509250925092565b600060208284031215613acc57600080fd5b5035919050565b602080825282518282018190526000919060409081850190868401855b82811015613b44578151805185528681015187860152858101518686015260608082015115159086015260808082015115159086015260a09081015115159085015260c09093019290850190600101613af0565b5091979650505050505050565b634e487b7160e01b600052604160045260246000fd5b604080519081016001600160401b0381118282101715613b8957613b89613b51565b60405290565b604051608081016001600160401b0381118282101715613b8957613b89613b51565b604051601f8201601f191681016001600160401b0381118282101715613bd957613bd9613b51565b604052919050565b60006001600160401b03821115613bfa57613bfa613b51565b5060051b60200190565b600082601f830112613c1557600080fd5b81356020613c2a613c2583613be1565b613bb1565b82815260069290921b84018101918181019086841115613c4957600080fd5b8286015b848110156119425760408189031215613c665760008081fd5b613c6e613b67565b813581528482013585820152835291830191604001613c4d565b600060208284031215613c9a57600080fd5b81356001600160401b0380821115613cb157600080fd5b9083019060808286031215613cc557600080fd5b613ccd613b8f565b823582811115613cdc57600080fd5b613ce887828601613c04565b825250602083013582811115613cfd57600080fd5b613d0987828601613c04565b602083015250604083013582811115613d2157600080fd5b613d2d87828601613c04565b604083015250606083013582811115613d4557600080fd5b613d5187828601613c04565b60608301525095945050505050565b60006020808385031215613d7357600080fd5b82356001600160401b03811115613d8957600080fd5b8301601f81018513613d9a57600080fd5b8035613da8613c2582613be1565b81815260059190911b82018301908381019087831115613dc757600080fd5b928401925b82841015611b6557833582529284019290840190613dcc565b600081518084526020808501945080840160005b83811015613e20578151805188528301518388015260409096019590820190600101613df9565b509495945050505050565b602081526000825160806020840152613e4760a0840182613de5565b90506020840151601f1980858403016040860152613e658383613de5565b92506040860151915080858403016060860152613e828383613de5565b9250606086015191508085840301608086015250611a138282613de5565b6020808252601f908201527f5265656e7472616e637947756172643a207265656e7472616e742063616c6c00604082015260600190565b634e487b7160e01b600052601160045260246000fd5b80820180821115610c9357610c93613ed7565b9283526020830191909152604082015260600190565b6020808252601b908201527a1058d8dbdd5b9d081a5cc818995a5b99c81b1a5c5d5a59185d1959602a1b604082015260600190565b6001600160a01b0391909116815260200190565b600060208284031215613f7157600080fd5b8151801515811461156d57600080fd5b81810381811115610c9357610c93613ed7565b634e487b7160e01b600052603260045260246000fd5b634e487b7160e01b600052603160045260246000fd5b600081613fcf57613fcf613ed7565b506000190190565b93845260208401929092526040830152606082015260800190565b6001600160a01b0392831681529116602082015260400190565b60006020828403121561401e57600080fd5b5051919050565b60006001820161403757614037613ed7565b5060010190565b602080825260149082015273092dcecc2d8d2c840d2dce8cadce840d2dcc8caf60631b604082015260600190565b6020808252825182820181905260009190848201906040850190845b818110156140a457835183529284019291840191600101614088565b50909695505050505050565b600082601f8301126140c157600080fd5b815160206140d1613c2583613be1565b82815260069290921b840181019181810190868411156140f057600080fd5b8286015b84811015611942576040818903121561410d5760008081fd5b614115613b67565b8151815284820151858201528352918301916040016140f4565b60006020828403121561414157600080fd5b81516001600160401b038082111561415857600080fd5b908301906080828603121561416c57600080fd5b614174613b8f565b82518281111561418357600080fd5b61418f878286016140b0565b8252506020830151828111156141a457600080fd5b6141b0878286016140b0565b6020830152506040830151828111156141c857600080fd5b6141d4878286016140b0565b6040830152506060830151828111156141ec57600080fd5b613d51878286016140b0565b80516001600160a01b038116811461420f57600080fd5b919050565b60006020828403121561422657600080fd5b61156d826141f8565b602081016003831061425157634e487b7160e01b600052602160045260246000fd5b91905290565b8082028115828204841417610c9357610c93613ed7565b60008261428b57634e487b7160e01b600052601260045260246000fd5b500490565b6001600160a01b03929092168252602082015260400190565b60005b838110156142c45781810151838201526020016142ac565b50506000910152565b600082516142df8184602087016142a9565b9190910192915050565b6000608082840312156142fb57600080fd5b604051608081016001600160401b038111828210171561431d5761431d613b51565b604052614329836141f8565b8152614337602084016141f8565b6020820152614348604084016141f8565b6040820152614359606084016141f8565b60608201529392505050565b6000815180845261437d8160208601602086016142a9565b601f01601f19169290920160200192915050565b60208152600061156d6020830184614365565b600060208083850312156143b757600080fd5b82516001600160401b038111156143cd57600080fd5b8301601f810185136143de57600080fd5b80516143ec613c2582613be1565b81815260059190911b8201830190838101908783111561440b57600080fd5b928401925b82841015611b6557835182529284019290840190614410565b60006020828403121561443b57600080fd5b815160ff8116811461156d57600080fd5b60ff8281168282160390811115610c9357610c93613ed7565b600181815b808511156144a057816000190482111561448657614486613ed7565b8085161561449357918102915b93841c939080029061446a565b509250929050565b6000826144b757506001610c93565b816144c457506000610c93565b81600181146144da57600281146144e457614500565b6001915050610c93565b60ff8411156144f5576144f5613ed7565b50506001821b610c93565b5060208310610133831016604e8410600b8410161715614523575081810a610c93565b61452d8383614465565b806000190482111561454157614541613ed7565b029392505050565b600061156d60ff8416836144a856fea264697066735822122077b9d531509d4e9b0ab35946a4a25482f56f8a6ac1b9e353861da5b3aad8d33464736f6c63430008110033",
  "devdoc": {
    "kind": "dev",
    "methods": {},
    "version": 1
  },
  "userdoc": {
    "kind": "user",
    "methods": {},
    "version": 1
  },
  "storageLayout": {
    "storage": [],
    "types": null
  }
}