{
  "address": "0xf7b40a5E3d8546044185870dbF4f70D12Ff3B85B",
  "abi": [
    {
      "inputs": [],
      "stateMutability": "nonpayable",
      "type": "constructor"
    },
    {
      "inputs": [],
      "name": "EmptyPools",
      "type": "error"
    },
    {
      "inputs": [],
      "name": "InvalidBaseAsset",
      "type": "error"
    },
    {
      "inputs": [],
      "name": "InvalidInput",
      "type": "error"
    },
    {
      "inputs": [],
      "name": "InvalidPoolTokens",
      "type": "error"
    },
    {
      "inputs": [],
      "name": "InvalidProtocol",
      "type": "error"
    },
    {
      "inputs": [],
      "name": "LengthMismatch",
      "type": "error"
    },
    {
      "inputs": [],
      "name": "MissingBaseAssetPrice",
      "type": "error"
    },
    {
      "inputs": [],
      "name": "NoCLPoolProvided",
      "type": "error"
    },
    {
      "inputs": [],
      "name": "NoValidPrice",
      "type": "error"
    },
    {
      "inputs": [],
      "name": "TWAPDeviationTooHigh",
      "type": "error"
    },
    {
      "inputs": [],
      "name": "TokenNotConfigured",
      "type": "error"
    },
    {
      "anonymous": false,
      "inputs": [
        {
          "indexed": false,
          "internalType": "uint8",
          "name": "version",
          "type": "uint8"
        }
      ],
      "name": "Initialized",
      "type": "event"
    },
    {
      "anonymous": false,
      "inputs": [
        {
          "indexed": true,
          "internalType": "address",
          "name": "previousOwner",
          "type": "address"
        },
        {
          "indexed": true,
          "internalType": "address",
          "name": "newOwner",
          "type": "address"
        }
      ],
      "name": "OwnershipTransferred",
      "type": "event"
    },
    {
      "anonymous": false,
      "inputs": [
        {
          "indexed": true,
          "internalType": "address",
          "name": "token",
          "type": "address"
        },
        {
          "indexed": true,
          "internalType": "address",
          "name": "pool",
          "type": "address"
        }
      ],
      "name": "PoolAdded",
      "type": "event"
    },
    {
      "anonymous": false,
      "inputs": [
        {
          "indexed": true,
          "internalType": "address",
          "name": "token",
          "type": "address"
        },
        {
          "indexed": true,
          "internalType": "address",
          "name": "pool",
          "type": "address"
        }
      ],
      "name": "PoolRemoved",
      "type": "event"
    },
    {
      "anonymous": false,
      "inputs": [
        {
          "indexed": true,
          "internalType": "address",
          "name": "token",
          "type": "address"
        }
      ],
      "name": "TokenConfigured",
      "type": "event"
    },
    {
      "anonymous": false,
      "inputs": [
        {
          "indexed": true,
          "internalType": "address",
          "name": "token",
          "type": "address"
        }
      ],
      "name": "TokenRemoved",
      "type": "event"
    },
    {
      "inputs": [
        {
          "internalType": "address",
          "name": "token",
          "type": "address"
        },
        {
          "components": [
            {
              "internalType": "address",
              "name": "poolAddress",
              "type": "address"
            },
            {
              "internalType": "bool",
              "name": "isCL",
              "type": "bool"
            },
            {
              "internalType": "uint32",
              "name": "shortTwap",
              "type": "uint32"
            },
            {
              "components": [
                {
                  "internalType": "uint32",
                  "name": "duration",
                  "type": "uint32"
                },
                {
                  "internalType": "uint256",
                  "name": "maxDeviation",
                  "type": "uint256"
                }
              ],
              "internalType": "struct IBaseOracle.TWAPCheck[]",
              "name": "twapChecks",
              "type": "tuple[]"
            },
            {
              "internalType": "address",
              "name": "baseAsset",
              "type": "address"
            },
            {
              "internalType": "enum IBaseOracle.Protocol",
              "name": "protocol",
              "type": "uint8"
            }
          ],
          "internalType": "struct IBaseOracle.PoolConfig[]",
          "name": "pools",
          "type": "tuple[]"
        }
      ],
      "name": "configureToken",
      "outputs": [],
      "stateMutability": "nonpayable",
      "type": "function"
    },
    {
      "inputs": [
        {
          "internalType": "address",
          "name": "token",
          "type": "address"
        }
      ],
      "name": "getFullTokenConfig",
      "outputs": [
        {
          "components": [
            {
              "internalType": "bool",
              "name": "isConfigured",
              "type": "bool"
            },
            {
              "components": [
                {
                  "internalType": "address",
                  "name": "poolAddress",
                  "type": "address"
                },
                {
                  "internalType": "bool",
                  "name": "isCL",
                  "type": "bool"
                },
                {
                  "internalType": "uint32",
                  "name": "shortTwap",
                  "type": "uint32"
                },
                {
                  "components": [
                    {
                      "internalType": "uint32",
                      "name": "duration",
                      "type": "uint32"
                    },
                    {
                      "internalType": "uint256",
                      "name": "maxDeviation",
                      "type": "uint256"
                    }
                  ],
                  "internalType": "struct IBaseOracle.TWAPCheck[]",
                  "name": "twapChecks",
                  "type": "tuple[]"
                },
                {
                  "internalType": "address",
                  "name": "baseAsset",
                  "type": "address"
                },
                {
                  "internalType": "enum IBaseOracle.Protocol",
                  "name": "protocol",
                  "type": "uint8"
                }
              ],
              "internalType": "struct IBaseOracle.PoolConfig[]",
              "name": "pools",
              "type": "tuple[]"
            }
          ],
          "internalType": "struct IBaseOracle.TokenConfig",
          "name": "",
          "type": "tuple"
        }
      ],
      "stateMutability": "view",
      "type": "function"
    },
    {
      "inputs": [
        {
          "components": [
            {
              "internalType": "address",
              "name": "asset",
              "type": "address"
            },
            {
              "internalType": "uint256",
              "name": "amount",
              "type": "uint256"
            },
            {
              "internalType": "bool",
              "name": "useTwapChecks",
              "type": "bool"
            },
            {
              "internalType": "address[]",
              "name": "baseAssets",
              "type": "address[]"
            },
            {
              "internalType": "uint256[]",
              "name": "baseAssetPrices",
              "type": "uint256[]"
            }
          ],
          "internalType": "struct IBaseOracle.GetDollarValueParams",
          "name": "params",
          "type": "tuple"
        }
      ],
      "name": "getTokenDollarPrice",
      "outputs": [
        {
          "internalType": "uint256",
          "name": "",
          "type": "uint256"
        }
      ],
      "stateMutability": "view",
      "type": "function"
    },
    {
      "inputs": [
        {
          "internalType": "address",
          "name": "_initialOwner",
          "type": "address"
        }
      ],
      "name": "initialize",
      "outputs": [],
      "stateMutability": "nonpayable",
      "type": "function"
    },
    {
      "inputs": [],
      "name": "owner",
      "outputs": [
        {
          "internalType": "address",
          "name": "",
          "type": "address"
        }
      ],
      "stateMutability": "view",
      "type": "function"
    },
    {
      "inputs": [
        {
          "internalType": "enum IBaseOracle.Protocol",
          "name": "",
          "type": "uint8"
        }
      ],
      "name": "quoterConfigs",
      "outputs": [
        {
          "internalType": "address",
          "name": "clQuoter",
          "type": "address"
        }
      ],
      "stateMutability": "view",
      "type": "function"
    },
    {
      "inputs": [
        {
          "internalType": "address",
          "name": "token",
          "type": "address"
        }
      ],
      "name": "removeToken",
      "outputs": [],
      "stateMutability": "nonpayable",
      "type": "function"
    },
    {
      "inputs": [],
      "name": "renounceOwnership",
      "outputs": [],
      "stateMutability": "nonpayable",
      "type": "function"
    },
    {
      "inputs": [
        {
          "internalType": "address",
          "name": "",
          "type": "address"
        }
      ],
      "name": "tokenConfigs",
      "outputs": [
        {
          "internalType": "bool",
          "name": "isConfigured",
          "type": "bool"
        }
      ],
      "stateMutability": "view",
      "type": "function"
    },
    {
      "inputs": [
        {
          "internalType": "address",
          "name": "newOwner",
          "type": "address"
        }
      ],
      "name": "transferOwnership",
      "outputs": [],
      "stateMutability": "nonpayable",
      "type": "function"
    }
  ],
  "transactionHash": "0x06a41828b23be231aedd00e7b2e188cfe4e6f680da64ab6c86d9933b72fff0c0",
  "args": [],
  "numDeployments": 2,
  "solcInputHash": "99ce7d8378a765acfb96c8c05bf64dbe",
  "bytecode": "0x60806040523480156200001157600080fd5b506200001c62000022565b620000e3565b600054610100900460ff16156200008f5760405162461bcd60e51b815260206004820152602760248201527f496e697469616c697a61626c653a20636f6e747261637420697320696e697469604482015266616c697a696e6760c81b606482015260840160405180910390fd5b60005460ff90811614620000e1576000805460ff191660ff9081179091556040519081527f7f26b83ff96e1f2b6a682f133852f6798a09c465da95921460cefb38474024989060200160405180910390a15b565b61372780620000f36000396000f3fe608060405234801561001057600080fd5b506004361061008e5760003560e01c80631b69dc5f146100935780635fa7b584146100cb578063715018a6146100e0578063755c4b97146100e85780638837abd3146101295780638da5cb5b1461013c578063c4d66de814610144578063dbc4131014610157578063f24afd2914610177578063f2fde38b14610198575b600080fd5b6100b66100a1366004612bb3565b60976020526000908152604090205460ff1681565b60405190151581526020015b60405180910390f35b6100de6100d9366004612bb3565b6101ab565b005b6100de61022c565b6101116100f6366004612bdd565b6098602052600090815260409020546001600160a01b031681565b6040516001600160a01b0390911681526020016100c2565b6100de610137366004612bfa565b610240565b610111610c08565b6100de610152366004612bb3565b610c17565b61016a610165366004612bb3565b610dfb565b6040516100c29190612cb9565b61018a610185366004612dc9565b610f89565b6040519081526020016100c2565b6100de6101a6366004612bb3565b611591565b6101b3611607565b6101bb611666565b6001600160a01b0381166000908152609760205260408120805460ff19168155906101e96001830182612afe565b50506040516001600160a01b038216907f4c910b69fe65a61f7531b9c5042b2329ca7179c77290aa7e2eb3afa3c8511fd390600090a26102296001606555565b50565b610234611607565b61023e60006116c6565b565b610248611607565b610250611666565b6000819003610272576040516333f3e07b60e11b815260040160405180910390fd5b6001600160a01b038316600090815260976020526040812061029991600190910190612afe565b6001600160a01b0383166000908152609760205260408120805460ff19166001179055805b82811015610ba55760008484838181106102da576102da612e03565b90506020028101906102ec9190612e19565b6102fd9060a0810190608001612bb3565b6001600160a01b031603610324576040516366856dc760e11b815260040160405180910390fd5b83838281811061033657610336612e03565b90506020028101906103489190612e19565b610359906040810190602001612e47565b1561090957600084848381811061037257610372612e03565b90506020028101906103849190612e19565b610392906020810190612bb3565b6001600160a01b0316630dfe16816040518163ffffffff1660e01b8152600401602060405180830381865afa1580156103cf573d6000803e3d6000fd5b505050506040513d601f19601f820116820180604052508101906103f39190612e64565b9050600085858481811061040957610409612e03565b905060200281019061041b9190612e19565b610429906020810190612bb3565b6001600160a01b031663d21220a76040518163ffffffff1660e01b8152600401602060405180830381865afa158015610466573d6000803e3d6000fd5b505050506040513d601f19601f8201168201806040525081019061048a9190612e64565b90506000826001600160a01b0316886001600160a01b03161480156104f45750816001600160a01b03168787868181106104c6576104c6612e03565b90506020028101906104d89190612e19565b6104e99060a0810190608001612bb3565b6001600160a01b0316145b806105605750816001600160a01b0316886001600160a01b03161480156105605750826001600160a01b031687878681811061053257610532612e03565b90506020028101906105449190612e19565b6105559060a0810190608001612bb3565b6001600160a01b0316145b9050806105805760405163055b6e8960e11b815260040160405180910390fd5b60006105bf88888781811061059757610597612e03565b90506020028101906105a99190612e19565b6105ba9060c081019060a001612bdd565b611718565b90506000808989888181106105d6576105d6612e03565b90506020028101906105e89190612e19565b6105f99060c081019060a001612bdd565b600181111561060a5761060a612c81565b0361072e57600089898881811061062357610623612e03565b90506020028101906106359190612e19565b610643906020810190612bb3565b6001600160a01b031663ddca3f436040518163ffffffff1660e01b8152600401602060405180830381865afa158015610680573d6000803e3d6000fd5b505050506040513d601f19601f820116820180604052508101906106a49190612e81565b604051630b4c774160e11b81526001600160a01b038881166004830152878116602483015262ffffff8316604483015291925090841690631698ee82906064015b602060405180830381865afa158015610702573d6000803e3d6000fd5b505050506040513d601f19601f820116820180604052508101906107269190612e64565b91505061086d565b600189898881811061074257610742612e03565b90506020028101906107549190612e19565b6107659060c081019060a001612bdd565b600181111561077657610776612c81565b0361085457600089898881811061078f5761078f612e03565b90506020028101906107a19190612e19565b6107af906020810190612bb3565b6001600160a01b031663d0c93a7c6040518163ffffffff1660e01b8152600401602060405180830381865afa1580156107ec573d6000803e3d6000fd5b505050506040513d601f19601f820116820180604052508101906108109190612ea6565b6040516328af8d0b60e01b81526001600160a01b0388811660048301528781166024830152600283900b6044830152919250908416906328af8d0b906064016106e5565b6040516301fc71f560e21b815260040160405180910390fd5b88888781811061087f5761087f612e03565b90506020028101906108919190612e19565b61089f906020810190612bb3565b6001600160a01b0316816001600160a01b0316146108fb5760405162461bcd60e51b8152602060048201526014602482015273496e76616c696420706f6f6c206164647265737360601b60448201526064015b60405180910390fd5b600196505050505050610b2f565b600084848381811061091d5761091d612e03565b905060200281019061092f9190612e19565b61093d906020810190612bb3565b6001600160a01b0316630dfe16816040518163ffffffff1660e01b8152600401602060405180830381865afa15801561097a573d6000803e3d6000fd5b505050506040513d601f19601f8201168201806040525081019061099e9190612e64565b905060008585848181106109b4576109b4612e03565b90506020028101906109c69190612e19565b6109d4906020810190612bb3565b6001600160a01b031663d21220a76040518163ffffffff1660e01b8152600401602060405180830381865afa158015610a11573d6000803e3d6000fd5b505050506040513d601f19601f82011682018060405250810190610a359190612e64565b90506000826001600160a01b0316886001600160a01b0316148015610a9f5750816001600160a01b0316878786818110610a7157610a71612e03565b9050602002810190610a839190612e19565b610a949060a0810190608001612bb3565b6001600160a01b0316145b80610b0b5750816001600160a01b0316886001600160a01b0316148015610b0b5750826001600160a01b0316878786818110610add57610add612e03565b9050602002810190610aef9190612e19565b610b009060a0810190608001612bb3565b6001600160a01b0316145b905080610b2b5760405163055b6e8960e11b815260040160405180910390fd5b5050505b6001600160a01b0385166000908152609760205260409020600101848483818110610b5c57610b5c612e03565b9050602002810190610b6e9190612e19565b815460018101835560009283526020909220909160030201610b908282613089565b50508080610b9d90613172565b9150506102be565b5080610bc45760405163029a56a560e01b815260040160405180910390fd5b6040516001600160a01b038516907f3de6bfe55516f9cadcb09b7992370370609e179252c38173146ac026ecb40df090600090a250610c036001606555565b505050565b6033546001600160a01b031690565b600054610100900460ff1615808015610c375750600054600160ff909116105b80610c515750303b158015610c51575060005460ff166001145b610cb45760405162461bcd60e51b815260206004820152602e60248201527f496e697469616c697a61626c653a20636f6e747261637420697320616c72656160448201526d191e481a5b9a5d1a585b1a5e995960921b60648201526084016108f2565b6000805460ff191660011790558015610cd7576000805461ff0019166101001790555b610cdf611787565b610ce76117b6565b610cf082611591565b60408051602080820183527366828e953cb2ef164ef1e40653d864534251cfcb825260016000908152609880835292517fe66b7f18a15fed257e722ee4e0b46d479842712099771fae6234a4975b3be6fa80546001600160a01b03199081166001600160a01b0393841617909155855180850190965273222ca98f00ed15b1fae10b61c277703a194cf5d286529180529290915291517fddaeee8e61001dbcfaf4f92c6943552c392a86665d734d3c1905d7b3c23b1b1e805490931691161790558015610df7576000805461ff0019169055604051600181527f7f26b83ff96e1f2b6a682f133852f6798a09c465da95921460cefb38474024989060200160405180910390a15b5050565b6040805180820190915260008152606060208201526001600160a01b038216600090815260976020908152604080832081518083018352815460ff16151581526001820180548451818702810187019095528085529195929486810194939192919084015b82821015610f7b57600084815260208082206040805160c0810182526003870290920180546001600160a01b0381168452600160a01b810460ff16151584860152600160a81b900463ffffffff168383015260018101805483518187028101870190945280845293959194606087019491929084015b82821015610f1b5760008481526020908190206040805180820190915260028502909101805463ffffffff168252600190810154828401529083529092019101610ed6565b5050509082525060028201546001600160a01b0381166020830152604090910190600160a01b900460ff166001811115610f5757610f57612c81565b6001811115610f6857610f68612c81565b8152505081526020019060010190610e60565b505050915250909392505050565b6000609781610f9b6020850185612bb3565b6001600160a01b0316815260208101919091526040016000205460ff16610fd557604051631d8730d160e31b815260040160405180910390fd5b610fe2608083018361318b565b9050610ff1606084018461318b565b905014611014576040516001621398b960e31b0319815260040160405180910390fd5b81602001356000036110395760405163b4fa3fb360e01b815260040160405180910390fd5b60005b611049608084018461318b565b90508110156110a85761105f608084018461318b565b8281811061106f5761106f612e03565b905060200201356000036110965760405163b4fa3fb360e01b815260040160405180910390fd5b806110a081613172565b91505061103c565b5060006000198180806097816110c160208a018a612bb3565b6001600160a01b03166001600160a01b03168152602001908152602001600020600101805480602002602001604051908101604052809291908181526020016000905b8282101561121f57600084815260208082206040805160c0810182526003870290920180546001600160a01b0381168452600160a01b810460ff16151584860152600160a81b900463ffffffff168383015260018101805483518187028101870190945280845293959194606087019491929084015b828210156111bf5760008481526020908190206040805180820190915260028502909101805463ffffffff16825260019081015482840152908352909201910161117a565b5050509082525060028201546001600160a01b0381166020830152604090910190600160a01b900460ff1660018111156111fb576111fb612c81565b600181111561120c5761120c612c81565b8152505081526020019060010190611104565b50505050905060005b815181101561147c5760008060005b61124460608c018c61318b565b90508110156112f45784848151811061125f5761125f612e03565b6020026020010151608001516001600160a01b03168b8060600190611284919061318b565b8381811061129457611294612e03565b90506020020160208101906112a99190612bb3565b6001600160a01b0316036112e2576112c460808c018c61318b565b828181106112d4576112d4612e03565b9050602002013591506112f4565b806112ec81613172565b915050611237565b508060000361131657604051631291458360e01b815260040160405180910390fd5b600084848151811061132a5761132a612e03565b602002602001015160200151156113775761137061134b60208d018d612bb3565b8c602001358488888151811061136357611363612e03565b60200260200101516117e5565b90506113af565b6113ac61138760208d018d612bb3565b8c602001358488888151811061139f5761139f612e03565b6020026020010151611b3d565b90505b80156113c657888111156113c1578098505b600192505b8484815181106113d8576113d8612e03565b602002602001015160200151156114525760006114336113fb60208e018e612bb3565b8d602001358e60400160208101906114139190612e47565b868a8a8151811061142657611426612e03565b6020026020010151611dc8565b905080156114505788811015611447578098505b60019750600193505b505b8215611466578561146281613172565b9650505b505050808061147490613172565b915050611228565b50600282101561149f5760405163d41b1bb160e01b815260040160405180910390fd5b846000036114c05760405163d41b1bb160e01b815260040160405180910390fd5b826114de5760405163d41b1bb160e01b815260040160405180910390fd5b60006114ea8686612023565b905060006114fb60208a018a612bb3565b6001600160a01b031663313ce5676040518163ffffffff1660e01b8152600401602060405180830381865afa158015611538573d6000803e3d6000fd5b505050506040513d601f19601f8201168201806040525081019061155c91906131db565b9050600061156e8a602001358361203d565b905061158383670de0b6b3a764000083612092565b9a9950505050505050505050565b611599611607565b6001600160a01b0381166115fe5760405162461bcd60e51b815260206004820152602660248201527f4f776e61626c653a206e6577206f776e657220697320746865207a65726f206160448201526564647265737360d01b60648201526084016108f2565b610229816116c6565b33611610610c08565b6001600160a01b03161461023e5760405162461bcd60e51b815260206004820181905260248201527f4f776e61626c653a2063616c6c6572206973206e6f7420746865206f776e657260448201526064016108f2565b6002606554036116b85760405162461bcd60e51b815260206004820152601f60248201527f5265656e7472616e637947756172643a207265656e7472616e742063616c6c0060448201526064016108f2565b6002606555565b6001606555565b603380546001600160a01b038381166001600160a01b0319831681179093556040519116919082907f8be0079c531659141344cd1fd0a4f28419497f9722a3daafe3b4186f6b6457e090600090a35050565b6000600182600181111561172e5761172e612c81565b0361174e5750735e7bb104d84c7cb9b682aac2f3d509f5f406809a919050565b600082600181111561176257611762612c81565b0361085457507333128a8fc17869897dce68ed026d694621f6fdfd919050565b919050565b600054610100900460ff166117ae5760405162461bcd60e51b81526004016108f2906131fe565b61023e61220d565b600054610100900460ff166117dd5760405162461bcd60e51b81526004016108f2906131fe565b61023e61223d565b600080609860008460a00151600181111561180257611802612c81565b600181111561181357611813612c81565b815260200190815260200160002060000160009054906101000a90046001600160a01b031690506000836000015190506000816001600160a01b0316630dfe16816040518163ffffffff1660e01b8152600401602060405180830381865afa158015611883573d6000803e3d6000fd5b505050506040513d601f19601f820116820180604052508101906118a79190612e64565b90506000826001600160a01b031663d21220a76040518163ffffffff1660e01b8152600401602060405180830381865afa1580156118e9573d6000803e3d6000fd5b505050506040513d601f19601f8201168201806040525081019061190d9190612e64565b90506000896001600160a01b0316836001600160a01b031614905060006040518060c001604052808c6001600160a01b031681526020018361194f5785611951565b845b6001600160a01b031681526020018b815260200189600001516001600160a01b03168152602001866001600160a01b031663ddca3f436040518163ffffffff1660e01b8152600401602060405180830381865afa1580156119b6573d6000803e3d6000fd5b505050506040513d601f19601f820116820180604052508101906119da9190612e81565b62ffffff9081168252600060209283018190526040805163d85c3d6360e01b815285516001600160a01b03908116600483015294860151851660248201529085015160448201526060850151841660648201526080850151909216608483015260a0840151831660a48301529293509088169063d85c3d639060c401608060405180830381865afa158015611a73573d6000803e3d6000fd5b505050506040513d601f19601f82011682018060405250810190611a979190613249565b50505090506000611b158285611aad5787611aaf565b865b6001600160a01b031663313ce5676040518163ffffffff1660e01b8152600401602060405180830381865afa158015611aec573d6000803e3d6000fd5b505050506040513d601f19601f82011682018060405250810190611b1091906131db565b61203d565b9050611b2a818c670de0b6b3a7640000612092565b985050505050505050505b949350505050565b600081600001516001600160a01b0316630902f1ac6040518163ffffffff1660e01b8152600401606060405180830381865afa925050508015611b9d575060408051601f3d908101601f19168201909252611b9a918101906132a9565b60015b611be05760405162461bcd60e51b815260206004820152601460248201527320a6a6903837b7b61038bab7ba329032b93937b960611b60448201526064016108f2565b6001600160701b0383161580611bfd57506001600160701b038216155b15611c0e5760009350505050611b35565b600085600001516001600160a01b0316630dfe16816040518163ffffffff1660e01b8152600401602060405180830381865afa158015611c52573d6000803e3d6000fd5b505050506040513d601f19601f82011682018060405250810190611c769190612e64565b90506000808a6001600160a01b0316836001600160a01b031614611cad57846001600160701b0316866001600160701b0316611cc2565b856001600160701b0316856001600160701b03165b90925090506000611cd58b6103e5612f4b565b611ce1846103e8612f4b565b611ceb91906132f0565b905060008183611cfd8e6103e5612f4b565b611d079190612f4b565b611d119190613319565b905080600003611d2c57600098505050505050505050611b35565b60008a608001516001600160a01b031663313ce5676040518163ffffffff1660e01b8152600401602060405180830381865afa158015611d70573d6000803e3d6000fd5b505050506040513d601f19601f82011682018060405250810190611d9491906131db565b90506000611da2838361203d565b9050611db7818e670de0b6b3a7640000612092565b9a5050505050505050505050611b35565b600080826000015190506000816001600160a01b0316630dfe16816040518163ffffffff1660e01b8152600401602060405180830381865afa158015611e12573d6000803e3d6000fd5b505050506040513d601f19601f82011682018060405250810190611e369190612e64565b90506000886001600160a01b0316826001600160a01b03161490506000611e668660000151876040015184612264565b90506000611e7d8289670de0b6b3a7640000612092565b90508815611f4b5760005b876060015151811015611f4957600088606001518281518110611ead57611ead612e03565b6020026020010151600001519050600089606001518381518110611ed357611ed3612e03565b60200260200101516020015190506000611ef28b600001518489612264565b9050611f07818d670de0b6b3a7640000612092565b905081611f148683612405565b1115611f3357604051634661db5960e01b815260040160405180910390fd5b5050508080611f4190613172565b915050611e88565b505b611fb88185876001600160a01b031663d21220a76040518163ffffffff1660e01b8152600401602060405180830381865afa158015611f8e573d6000803e3d6000fd5b505050506040513d601f19601f82011682018060405250810190611fb29190612e64565b8661247a565b90506000611ffe8b8d6001600160a01b031663313ce5676040518163ffffffff1660e01b8152600401602060405180830381865afa158015611aec573d6000803e3d6000fd5b90506120138282670de0b6b3a7640000612092565b9c9b505050505050505050505050565b60008183106120325781612034565b825b90505b92915050565b600060128260ff1611156120725761205660128361332d565b61206190600a61342a565b61206b9084613319565b9050612037565b61207d82601261332d565b61208890600a61342a565b6120349084612f4b565b60008080600019858709858702925082811083820303915050806000036120cb57600084116120c057600080fd5b508290049050612206565b8084116120d757600080fd5b60008486880980840393811190920391905060006120f7861960016132f0565b86169586900495938490049360008190030460010190506121188184612f4b565b909317926000612129876003612f4b565b60021890506121388188612f4b565b612143906002613439565b61214d9082612f4b565b90506121598188612f4b565b612164906002613439565b61216e9082612f4b565b905061217a8188612f4b565b612185906002613439565b61218f9082612f4b565b905061219b8188612f4b565b6121a6906002613439565b6121b09082612f4b565b90506121bc8188612f4b565b6121c7906002613439565b6121d19082612f4b565b90506121dd8188612f4b565b6121e8906002613439565b6121f29082612f4b565b90506121fe8186612f4b565b955050505050505b9392505050565b600054610100900460ff166122345760405162461bcd60e51b81526004016108f2906131fe565b61023e336116c6565b600054610100900460ff166116bf5760405162461bcd60e51b81526004016108f2906131fe565b60408051600280825260608201835260009283929190602083019080368337019050509050838160008151811061229d5761229d612e03565b602002602001019063ffffffff16908163ffffffff16815250506000816001815181106122cc576122cc612e03565b63ffffffff9092166020928302919091019091015260405163883bdbfd60e01b81526001600160a01b0386169063883bdbfd9061230d90849060040161344c565b600060405180830381865afa92505050801561234b57506040513d6000823e601f3d908101601f19168201604052612348919081019061355d565b60015b6123975760405162461bcd60e51b815260206004820152601d60248201527f545741502070726963652063616c63756c6174696f6e206661696c656400000060448201526064016108f2565b60006123a3838861262e565b9050856123b6576123b381613628565b90505b60006123c18261268e565b905060006123f76001600160a01b0383166123e4670de0b6b3a764000082612f4b565b6123f2600160601b80612f4b565b612092565b965061220695505050505050565b6000821580612412575081155b156124205750600019612037565b6000828411612438576124338484613439565b612442565b6124428385613439565b90506000600261245285876132f0565b61245c9190613319565b905061247182670de0b6b3a764000083612092565b95945050505050565b600080846001600160a01b031663313ce5676040518163ffffffff1660e01b8152600401602060405180830381865afa1580156124bb573d6000803e3d6000fd5b505050506040513d601f19601f820116820180604052508101906124df91906131db565b90506000846001600160a01b031663313ce5676040518163ffffffff1660e01b8152600401602060405180830381865afa158015612521573d6000803e3d6000fd5b505050506040513d601f19601f8201168201806040525081019061254591906131db565b905083156125ca578060ff168260ff161115612589576000612567828461332d565b60ff16905061257781600a61364a565b6125819089612f4b565b975050612623565b8160ff168160ff1611156125c55760006125a3838361332d565b60ff16905087156125c3576125b981600a61364a565b6125819089613319565b505b612623565b8160ff168160ff1611156125e4576000612567838361332d565b8060ff168260ff1611156126235760006125fe828461332d565b60ff16905087156126215761261481600a61364a565b61261e9089613319565b97505b505b509495945050505050565b6000808360008151811061264457612644612e03565b60200260200101518460018151811061265f5761265f612e03565b60200260200101516126719190613656565b9050611b3561268663ffffffff851683613683565b60060b612a9b565b60008060008360020b126126a5578260020b6126b2565b8260020b6126b2906136c1565b90506126c1620d89e719613628565b60020b8111156126f75760405162461bcd60e51b81526020600482015260016024820152601560fa1b60448201526064016108f2565b60008160011660000361270e57600160801b612720565b6ffffcb933bd6fad37aa2d162d1a5940015b6001600160881b031690506002821615612755576080612750826ffff97272373d413259a46990580e213a612f4b565b901c90505b600482161561277f57608061277a826ffff2e50f5f656932ef12357cf3c7fdcc612f4b565b901c90505b60088216156127a95760806127a4826fffe5caca7e10e4e61c3624eaa0941cd0612f4b565b901c90505b60108216156127d35760806127ce826fffcb9843d60f6159c9db58835c926644612f4b565b901c90505b60208216156127fd5760806127f8826fff973b41fa98c081472e6896dfb254c0612f4b565b901c90505b6040821615612827576080612822826fff2ea16466c96a3843ec78b326b52861612f4b565b901c90505b608082161561285157608061284c826ffe5dee046a99a2a811c461f1969c3053612f4b565b901c90505b61010082161561287c576080612877826ffcbe86c7900a88aedcffc83b479aa3a4612f4b565b901c90505b6102008216156128a75760806128a2826ff987a7253ac413176f2b074cf7815e54612f4b565b901c90505b6104008216156128d25760806128cd826ff3392b0822b70005940c7a398e4b70f3612f4b565b901c90505b6108008216156128fd5760806128f8826fe7159475a2c29b7443b29c7fa6e889d9612f4b565b901c90505b611000821615612928576080612923826fd097f3bdfd2022b8845ad8f792aa5825612f4b565b901c90505b61200082161561295357608061294e826fa9f746462d870fdf8a65dc1f90e061e5612f4b565b901c90505b61400082161561297e576080612979826f70d869a156d2a1b890bb3df62baf32f7612f4b565b901c90505b6180008216156129a95760806129a4826f31be135f97d08fd981231505542fcfa6612f4b565b901c90505b620100008216156129d55760806129d0826f09aa508b5b7a84e1c677de54f3e99bc9612f4b565b901c90505b62020000821615612a005760806129fb826e5d6af8dedb81196699c329225ee604612f4b565b901c90505b62040000821615612a2a576080612a25826d2216e584f5fa1ea926041bedfe98612f4b565b901c90505b62080000821615612a52576080612a4d826b048a170391f7dc42444e8fa2612f4b565b901c90505b60008460020b1315612a6d57612a6a81600019613319565b90505b612a7b600160201b826136dd565b15612a87576001612a8a565b60005b611b359060ff16602083901c6132f0565b80600281900b81146117825760405162461bcd60e51b815260206004820152602660248201527f53616665436173743a2076616c756520646f65736e27742066697420696e203260448201526534206269747360d01b60648201526084016108f2565b508054600082556003029060005260206000209081019061022991905b80821115612b5b5780546001600160c81b03191681556000612b406001830182612b5f565b506002810180546001600160a81b0319169055600301612b1b565b5090565b508054600082556002029060005260206000209081019061022991905b80821115612b5b57805463ffffffff1916815560006001820155600201612b7c565b6001600160a01b038116811461022957600080fd5b600060208284031215612bc557600080fd5b813561220681612b9e565b6002811061022957600080fd5b600060208284031215612bef57600080fd5b813561220681612bd0565b600080600060408486031215612c0f57600080fd5b8335612c1a81612b9e565b925060208401356001600160401b0380821115612c3657600080fd5b818601915086601f830112612c4a57600080fd5b813581811115612c5957600080fd5b8760208260051b8501011115612c6e57600080fd5b6020830194508093505050509250925092565b634e487b7160e01b600052602160045260246000fd5b60028110612cb557634e487b7160e01b600052602160045260246000fd5b9052565b600060208083526060830184511515828501528185015160408081870152828251808552608094508488019150848160051b890101868501945060005b82811015612dbb57898203607f19018452855180516001600160a01b03168352888101511515898401528581015163ffffffff9081168785015260608083015160c0918601829052805191860182905260e0860192908c0191600091905b80831015612d7f5783518051831686528e01518e860152938a0193928d019260019290920191612d54565b50505050888201516001600160a01b0316848a015260a09182015191612da781860184612c97565b509689019694890194925050600101612cf6565b509998505050505050505050565b600060208284031215612ddb57600080fd5b81356001600160401b03811115612df157600080fd5b820160a0818503121561220657600080fd5b634e487b7160e01b600052603260045260246000fd5b6000823560be19833603018112612e2f57600080fd5b9190910192915050565b801515811461022957600080fd5b600060208284031215612e5957600080fd5b813561220681612e39565b600060208284031215612e7657600080fd5b815161220681612b9e565b600060208284031215612e9357600080fd5b815162ffffff8116811461220657600080fd5b600060208284031215612eb857600080fd5b81518060020b811461220657600080fd5b6000813561203781612b9e565b80546001600160a01b0319166001600160a01b0392909216919091179055565b60ff60a01b191660a09190911b60ff60a01b161790565b63ffffffff8116811461022957600080fd5b634e487b7160e01b600052604160045260246000fd5b634e487b7160e01b600052601160045260246000fd5b808202811582820484141761203757612037612f35565b8135612f6d81612f0d565b63ffffffff811663ffffffff1983541617825550602082013560018201555050565b600160401b831115612fa357612fa3612f1f565b8054838255808410156130115760016001600160ff1b038281168314612fcb57612fcb612f35565b8086168614612fdc57612fdc612f35565b5060008381526020812086831b81019084841b015b8082101561300c578282558284830155600282019150612ff1565b505050505b5060008181526020812083915b85811015613046576130308383612f62565b604092909201916002919091019060010161301e565b505050505050565b6000813561203781612bd0565b6002821061307957634e487b7160e01b600052602160045260246000fd5b613084828254612ef6565b905550565b813561309481612b9e565b61309e8183612ed6565b5060208201356130ad81612e39565b6130ba8115158354612ef6565b905080825560408301356130cd81612f0d565b63ffffffff60a81b199190911660a89190911b63ffffffff60a81b16178155606082013536839003601e1901811261310457600080fd5b820180356001600160401b0381111561311c57600080fd5b6020820191508060061b360382131561313457600080fd5b613142818360018601612f8f565b50506002810161315d61315760808501612ec9565b82612ed6565b610c0361316c60a0850161304e565b8261305b565b60006001820161318457613184612f35565b5060010190565b6000808335601e198436030181126131a257600080fd5b8301803591506001600160401b038211156131bc57600080fd5b6020019150600581901b36038213156131d457600080fd5b9250929050565b6000602082840312156131ed57600080fd5b815160ff8116811461220657600080fd5b6020808252602b908201527f496e697469616c697a61626c653a20636f6e7472616374206973206e6f74206960408201526a6e697469616c697a696e6760a81b606082015260800190565b6000806000806080858703121561325f57600080fd5b84519350602085015161327181612b9e565b604086015190935061328281612f0d565b6060959095015193969295505050565b80516001600160701b038116811461178257600080fd5b6000806000606084860312156132be57600080fd5b6132c784613292565b92506132d560208501613292565b915060408401516132e581612f0d565b809150509250925092565b8082018082111561203757612037612f35565b634e487b7160e01b600052601260045260246000fd5b60008261332857613328613303565b500490565b60ff828116828216039081111561203757612037612f35565b600181815b8085111561338157816000190482111561336757613367612f35565b8085161561337457918102915b93841c939080029061334b565b509250929050565b60008261339857506001612037565b816133a557506000612037565b81600181146133bb57600281146133c5576133e1565b6001915050612037565b60ff8411156133d6576133d6612f35565b50506001821b612037565b5060208310610133831016604e8410600b8410161715613404575081810a612037565b61340e8383613346565b806000190482111561342257613422612f35565b029392505050565b600061203460ff841683613389565b8181038181111561203757612037612f35565b6020808252825182820181905260009190848201906040850190845b8181101561348a57835163ffffffff1683529284019291840191600101613468565b50909695505050505050565b604051601f8201601f191681016001600160401b03811182821017156134be576134be612f1f565b604052919050565b60006001600160401b038211156134df576134df612f1f565b5060051b60200190565b600082601f8301126134fa57600080fd5b8151602061350f61350a836134c6565b613496565b82815260059290921b8401810191818101908684111561352e57600080fd5b8286015b8481101561355257805161354581612b9e565b8352918301918301613532565b509695505050505050565b6000806040838503121561357057600080fd5b82516001600160401b038082111561358757600080fd5b818501915085601f83011261359b57600080fd5b815160206135ab61350a836134c6565b82815260059290921b840181019181810190898411156135ca57600080fd5b948201945b838610156135f85785518060060b81146135e95760008081fd5b825294820194908201906135cf565b9188015191965090935050508082111561361157600080fd5b5061361e858286016134e9565b9150509250929050565b60008160020b627fffff19810361364157613641612f35565b60000392915050565b60006120348383613389565b600682810b9082900b03667fffffffffffff198112667fffffffffffff8213171561203757612037612f35565b60008160060b8360060b8061369a5761369a613303565b667fffffffffffff198214600019821416156136b8576136b8612f35565b90059392505050565b6000600160ff1b82016136d6576136d6612f35565b5060000390565b6000826136ec576136ec613303565b50069056fea26469706673582212201b4e7902ef170f162ead60eb7483950cc67a26815b24e29a8b821c91a2669df964736f6c63430008110033",
  "devdoc": {
    "details": "Calculates the USD value of an asset using multiple liquidity pools. This version converts the standardized input amount (1e18scaled) into the assets native units so that pool price calculations work properly for tokens with any number of decimals. IMPORTANT: The function getTokenDollarPrice returns the _dollar value per one token_. It uses the input amount for the quotes but then divides the resulting total USD value by that native amount.",
    "kind": "dev",
    "methods": {
      "configureToken(address,(address,bool,uint32,(uint32,uint256)[],address,uint8)[])": {
        "details": "Only callable by the owner. Reverts if no pools are provided or if a base asset is invalid.",
        "params": {
          "pools": "Array of pool configurations for the token.",
          "token": "The token address."
        }
      },
      "constructor": {
        "custom:oz-upgrades-unsafe-allow": "constructor"
      },
      "getFullTokenConfig(address)": {
        "params": {
          "token": "The token address."
        },
        "returns": {
          "_0": "The token configuration."
        }
      },
      "getTokenDollarPrice((address,uint256,bool,address[],uint256[]))": {
        "details": "Reverts if no valid quote prices are found or if no valid TWAP prices are available",
        "params": {
          "params": "GetDollarValueParams struct containing:        - asset: The asset token address        - amount: The amount in token's native decimals (e.g., 1000000 for 1 USDC)        - useTwapChecks: Whether to perform TWAP deviation checks        - baseAssets: Array of base asset addresses        - baseAssetPrices: Array of USD prices for the base assets (1e18 scale)"
        },
        "returns": {
          "_0": "The USD price per one token in 1e18 scale (e.g., 1e18 represents $1.00)"
        }
      },
      "initialize(address)": {
        "params": {
          "_initialOwner": "The address of the initial owner."
        }
      },
      "owner()": {
        "details": "Returns the address of the current owner."
      },
      "removeToken(address)": {
        "details": "Only callable by the owner.",
        "params": {
          "token": "The token address."
        }
      },
      "renounceOwnership()": {
        "details": "Leaves the contract without owner. It will not be possible to call `onlyOwner` functions. Can only be called by the current owner. NOTE: Renouncing ownership will leave the contract without an owner, thereby disabling any functionality that is only available to the owner."
      },
      "transferOwnership(address)": {
        "details": "Transfers ownership of the contract to a new account (`newOwner`). Can only be called by the current owner."
      }
    },
    "title": "BaseOracle",
    "version": 1
  },
  "userdoc": {
    "kind": "user",
    "methods": {
      "configureToken(address,(address,bool,uint32,(uint32,uint256)[],address,uint8)[])": {
        "notice": "Configures a token with its associated pools."
      },
      "getFullTokenConfig(address)": {
        "notice": "Retrieves the full configuration for a given token."
      },
      "getTokenDollarPrice((address,uint256,bool,address[],uint256[]))": {
        "notice": "Calculates the USD dollar price per one token (1e18 scale) of an asset based on its configured pools. The final price is determined by: 1. Finding maximum price among all pool quotes (both AMM and CL) 2. Finding minimum price among all CL pool TWAPs 3. Taking the minimum between (1) and (2)"
      },
      "initialize(address)": {
        "notice": "Initializes the contract and sets the initial owner."
      },
      "removeToken(address)": {
        "notice": "Removes a token and its associated pools from the configuration."
      }
    },
    "version": 1
  },
  "storageLayout": {
    "storage": [
      {
        "astId": 138,
        "contract": "contracts/oracle/BaseOracle.sol:BaseOracle",
        "label": "_initialized",
        "offset": 0,
        "slot": "0",
        "type": "t_uint8"
      },
      {
        "astId": 141,
        "contract": "contracts/oracle/BaseOracle.sol:BaseOracle",
        "label": "_initializing",
        "offset": 1,
        "slot": "0",
        "type": "t_bool"
      },
      {
        "astId": 755,
        "contract": "contracts/oracle/BaseOracle.sol:BaseOracle",
        "label": "__gap",
        "offset": 0,
        "slot": "1",
        "type": "t_array(t_uint256)50_storage"
      },
      {
        "astId": 10,
        "contract": "contracts/oracle/BaseOracle.sol:BaseOracle",
        "label": "_owner",
        "offset": 0,
        "slot": "51",
        "type": "t_address"
      },
      {
        "astId": 130,
        "contract": "contracts/oracle/BaseOracle.sol:BaseOracle",
        "label": "__gap",
        "offset": 0,
        "slot": "52",
        "type": "t_array(t_uint256)49_storage"
      },
      {
        "astId": 314,
        "contract": "contracts/oracle/BaseOracle.sol:BaseOracle",
        "label": "_status",
        "offset": 0,
        "slot": "101",
        "type": "t_uint256"
      },
      {
        "astId": 383,
        "contract": "contracts/oracle/BaseOracle.sol:BaseOracle",
        "label": "__gap",
        "offset": 0,
        "slot": "102",
        "type": "t_array(t_uint256)49_storage"
      },
      {
        "astId": 3994,
        "contract": "contracts/oracle/BaseOracle.sol:BaseOracle",
        "label": "tokenConfigs",
        "offset": 0,
        "slot": "151",
        "type": "t_mapping(t_address,t_struct(TokenConfig)5570_storage)"
      },
      {
        "astId": 4000,
        "contract": "contracts/oracle/BaseOracle.sol:BaseOracle",
        "label": "quoterConfigs",
        "offset": 0,
        "slot": "152",
        "type": "t_mapping(t_enum(Protocol)5539,t_struct(QuoterConfig)5542_storage)"
      }
    ],
    "types": {
      "t_address": {
        "encoding": "inplace",
        "label": "address",
        "numberOfBytes": "20"
      },
      "t_array(t_struct(PoolConfig)5563_storage)dyn_storage": {
        "base": "t_struct(PoolConfig)5563_storage",
        "encoding": "dynamic_array",
        "label": "struct IBaseOracle.PoolConfig[]",
        "numberOfBytes": "32"
      },
      "t_array(t_struct(TWAPCheck)5547_storage)dyn_storage": {
        "base": "t_struct(TWAPCheck)5547_storage",
        "encoding": "dynamic_array",
        "label": "struct IBaseOracle.TWAPCheck[]",
        "numberOfBytes": "32"
      },
      "t_array(t_uint256)49_storage": {
        "base": "t_uint256",
        "encoding": "inplace",
        "label": "uint256[49]",
        "numberOfBytes": "1568"
      },
      "t_array(t_uint256)50_storage": {
        "base": "t_uint256",
        "encoding": "inplace",
        "label": "uint256[50]",
        "numberOfBytes": "1600"
      },
      "t_bool": {
        "encoding": "inplace",
        "label": "bool",
        "numberOfBytes": "1"
      },
      "t_enum(Protocol)5539": {
        "encoding": "inplace",
        "label": "enum IBaseOracle.Protocol",
        "numberOfBytes": "1"
      },
      "t_mapping(t_address,t_struct(TokenConfig)5570_storage)": {
        "encoding": "mapping",
        "key": "t_address",
        "label": "mapping(address => struct IBaseOracle.TokenConfig)",
        "numberOfBytes": "32",
        "value": "t_struct(TokenConfig)5570_storage"
      },
      "t_mapping(t_enum(Protocol)5539,t_struct(QuoterConfig)5542_storage)": {
        "encoding": "mapping",
        "key": "t_enum(Protocol)5539",
        "label": "mapping(enum IBaseOracle.Protocol => struct IBaseOracle.QuoterConfig)",
        "numberOfBytes": "32",
        "value": "t_struct(QuoterConfig)5542_storage"
      },
      "t_struct(PoolConfig)5563_storage": {
        "encoding": "inplace",
        "label": "struct IBaseOracle.PoolConfig",
        "members": [
          {
            "astId": 5549,
            "contract": "contracts/oracle/BaseOracle.sol:BaseOracle",
            "label": "poolAddress",
            "offset": 0,
            "slot": "0",
            "type": "t_address"
          },
          {
            "astId": 5551,
            "contract": "contracts/oracle/BaseOracle.sol:BaseOracle",
            "label": "isCL",
            "offset": 20,
            "slot": "0",
            "type": "t_bool"
          },
          {
            "astId": 5553,
            "contract": "contracts/oracle/BaseOracle.sol:BaseOracle",
            "label": "shortTwap",
            "offset": 21,
            "slot": "0",
            "type": "t_uint32"
          },
          {
            "astId": 5557,
            "contract": "contracts/oracle/BaseOracle.sol:BaseOracle",
            "label": "twapChecks",
            "offset": 0,
            "slot": "1",
            "type": "t_array(t_struct(TWAPCheck)5547_storage)dyn_storage"
          },
          {
            "astId": 5559,
            "contract": "contracts/oracle/BaseOracle.sol:BaseOracle",
            "label": "baseAsset",
            "offset": 0,
            "slot": "2",
            "type": "t_address"
          },
          {
            "astId": 5562,
            "contract": "contracts/oracle/BaseOracle.sol:BaseOracle",
            "label": "protocol",
            "offset": 20,
            "slot": "2",
            "type": "t_enum(Protocol)5539"
          }
        ],
        "numberOfBytes": "96"
      },
      "t_struct(QuoterConfig)5542_storage": {
        "encoding": "inplace",
        "label": "struct IBaseOracle.QuoterConfig",
        "members": [
          {
            "astId": 5541,
            "contract": "contracts/oracle/BaseOracle.sol:BaseOracle",
            "label": "clQuoter",
            "offset": 0,
            "slot": "0",
            "type": "t_address"
          }
        ],
        "numberOfBytes": "32"
      },
      "t_struct(TWAPCheck)5547_storage": {
        "encoding": "inplace",
        "label": "struct IBaseOracle.TWAPCheck",
        "members": [
          {
            "astId": 5544,
            "contract": "contracts/oracle/BaseOracle.sol:BaseOracle",
            "label": "duration",
            "offset": 0,
            "slot": "0",
            "type": "t_uint32"
          },
          {
            "astId": 5546,
            "contract": "contracts/oracle/BaseOracle.sol:BaseOracle",
            "label": "maxDeviation",
            "offset": 0,
            "slot": "1",
            "type": "t_uint256"
          }
        ],
        "numberOfBytes": "64"
      },
      "t_struct(TokenConfig)5570_storage": {
        "encoding": "inplace",
        "label": "struct IBaseOracle.TokenConfig",
        "members": [
          {
            "astId": 5565,
            "contract": "contracts/oracle/BaseOracle.sol:BaseOracle",
            "label": "isConfigured",
            "offset": 0,
            "slot": "0",
            "type": "t_bool"
          },
          {
            "astId": 5569,
            "contract": "contracts/oracle/BaseOracle.sol:BaseOracle",
            "label": "pools",
            "offset": 0,
            "slot": "1",
            "type": "t_array(t_struct(PoolConfig)5563_storage)dyn_storage"
          }
        ],
        "numberOfBytes": "64"
      },
      "t_uint256": {
        "encoding": "inplace",
        "label": "uint256",
        "numberOfBytes": "32"
      },
      "t_uint32": {
        "encoding": "inplace",
        "label": "uint32",
        "numberOfBytes": "4"
      },
      "t_uint8": {
        "encoding": "inplace",
        "label": "uint8",
        "numberOfBytes": "1"
      }
    }
  }
}