{
  "address": "0x6862D066E33BCf75dfB508a7a556f0a7d214C66b",
  "abi": [
    {
      "inputs": [],
      "name": "CalldataMustHaveValidPayload",
      "type": "error"
    },
    {
      "inputs": [],
      "name": "CalldataOverOrUnderFlow",
      "type": "error"
    },
    {
      "inputs": [],
      "name": "ContractPaused",
      "type": "error"
    },
    {
      "inputs": [],
      "name": "DataPackageTimestampMustNotBeZero",
      "type": "error"
    },
    {
      "inputs": [],
      "name": "DataPackageTimestampsMustBeEqual",
      "type": "error"
    },
    {
      "inputs": [],
      "name": "EachSignerMustProvideTheSameValue",
      "type": "error"
    },
    {
      "inputs": [],
      "name": "EmptyCalldataPointersArr",
      "type": "error"
    },
    {
      "inputs": [],
      "name": "IncorrectUnsignedMetadataSize",
      "type": "error"
    },
    {
      "inputs": [],
      "name": "InsufficientAllowance",
      "type": "error"
    },
    {
      "inputs": [],
      "name": "InsufficientBalance",
      "type": "error"
    },
    {
      "inputs": [
        {
          "internalType": "uint256",
          "name": "receivedSignersCount",
          "type": "uint256"
        },
        {
          "internalType": "uint256",
          "name": "requiredSignersCount",
          "type": "uint256"
        }
      ],
      "name": "InsufficientNumberOfUniqueSigners",
      "type": "error"
    },
    {
      "inputs": [
        {
          "internalType": "uint256",
          "name": "available",
          "type": "uint256"
        },
        {
          "internalType": "uint256",
          "name": "requested",
          "type": "uint256"
        }
      ],
      "name": "InsufficientPoolBalance",
      "type": "error"
    },
    {
      "inputs": [],
      "name": "InvalidAmount",
      "type": "error"
    },
    {
      "inputs": [],
      "name": "InvalidBeneficiary",
      "type": "error"
    },
    {
      "inputs": [],
      "name": "InvalidCalldataPointer",
      "type": "error"
    },
    {
      "inputs": [],
      "name": "InvalidDecimals",
      "type": "error"
    },
    {
      "inputs": [],
      "name": "InvalidExecutor",
      "type": "error"
    },
    {
      "inputs": [],
      "name": "InvalidPartnerAddress",
      "type": "error"
    },
    {
      "inputs": [],
      "name": "InvalidTokenAddress",
      "type": "error"
    },
    {
      "inputs": [
        {
          "internalType": "bytes",
          "name": "result",
          "type": "bytes"
        }
      ],
      "name": "ProxyCalldataFailedWithCustomError",
      "type": "error"
    },
    {
      "inputs": [
        {
          "internalType": "string",
          "name": "message",
          "type": "string"
        }
      ],
      "name": "ProxyCalldataFailedWithStringMessage",
      "type": "error"
    },
    {
      "inputs": [],
      "name": "ProxyCalldataFailedWithoutErrMsg",
      "type": "error"
    },
    {
      "inputs": [],
      "name": "RedstonePayloadMustHaveAtLeastOneDataPackage",
      "type": "error"
    },
    {
      "inputs": [
        {
          "internalType": "address",
          "name": "receivedSigner",
          "type": "address"
        }
      ],
      "name": "SignerNotAuthorised",
      "type": "error"
    },
    {
      "inputs": [
        {
          "internalType": "uint256",
          "name": "currentSlippage",
          "type": "uint256"
        },
        {
          "internalType": "uint256",
          "name": "accumulatedSlippage",
          "type": "uint256"
        },
        {
          "internalType": "uint256",
          "name": "threshold",
          "type": "uint256"
        }
      ],
      "name": "SlippageLimitExceeded",
      "type": "error"
    },
    {
      "inputs": [
        {
          "internalType": "uint256",
          "name": "actual",
          "type": "uint256"
        },
        {
          "internalType": "uint256",
          "name": "max",
          "type": "uint256"
        }
      ],
      "name": "SlippageTooHigh",
      "type": "error"
    },
    {
      "inputs": [],
      "name": "SwapFailed",
      "type": "error"
    },
    {
      "inputs": [],
      "name": "TooLittleReceived",
      "type": "error"
    },
    {
      "inputs": [],
      "name": "TooMuchSold",
      "type": "error"
    },
    {
      "inputs": [
        {
          "internalType": "address",
          "name": "token",
          "type": "address"
        }
      ],
      "name": "UnsupportedToken",
      "type": "error"
    },
    {
      "anonymous": false,
      "inputs": [
        {
          "indexed": false,
          "internalType": "uint8",
          "name": "version",
          "type": "uint8"
        }
      ],
      "name": "Initialized",
      "type": "event"
    },
    {
      "anonymous": false,
      "inputs": [],
      "name": "OpeartionsPaused",
      "type": "event"
    },
    {
      "anonymous": false,
      "inputs": [],
      "name": "OperationsUnpaused",
      "type": "event"
    },
    {
      "anonymous": false,
      "inputs": [
        {
          "indexed": true,
          "internalType": "address",
          "name": "from",
          "type": "address"
        },
        {
          "indexed": true,
          "internalType": "address",
          "name": "to",
          "type": "address"
        }
      ],
      "name": "OwnershipTransferRequested",
      "type": "event"
    },
    {
      "anonymous": false,
      "inputs": [
        {
          "indexed": true,
          "internalType": "address",
          "name": "previousOwner",
          "type": "address"
        },
        {
          "indexed": true,
          "internalType": "address",
          "name": "newOwner",
          "type": "address"
        }
      ],
      "name": "OwnershipTransferred",
      "type": "event"
    },
    {
      "anonymous": false,
      "inputs": [
        {
          "indexed": true,
          "internalType": "address",
          "name": "user",
          "type": "address"
        },
        {
          "indexed": false,
          "internalType": "uint256",
          "name": "soldTokenValue",
          "type": "uint256"
        },
        {
          "indexed": false,
          "internalType": "uint256",
          "name": "boughtTokenValue",
          "type": "uint256"
        },
        {
          "indexed": false,
          "internalType": "uint256",
          "name": "slippage",
          "type": "uint256"
        }
      ],
      "name": "SlippageExceeded",
      "type": "event"
    },
    {
      "anonymous": false,
      "inputs": [
        {
          "indexed": false,
          "internalType": "uint256",
          "name": "removedEntries",
          "type": "uint256"
        },
        {
          "indexed": false,
          "internalType": "uint256",
          "name": "slippageReduced",
          "type": "uint256"
        }
      ],
      "name": "SlippageHistoryCleaned",
      "type": "event"
    },
    {
      "anonymous": false,
      "inputs": [
        {
          "indexed": false,
          "internalType": "uint256",
          "name": "timestamp",
          "type": "uint256"
        },
        {
          "indexed": false,
          "internalType": "uint256",
          "name": "slippageValueUSD",
          "type": "uint256"
        }
      ],
      "name": "SlippageRecorded",
      "type": "event"
    },
    {
      "anonymous": false,
      "inputs": [
        {
          "indexed": false,
          "internalType": "uint256",
          "name": "newThreshold",
          "type": "uint256"
        }
      ],
      "name": "SlippageThresholdUpdated",
      "type": "event"
    },
    {
      "anonymous": false,
      "inputs": [
        {
          "indexed": true,
          "internalType": "address",
          "name": "user",
          "type": "address"
        },
        {
          "indexed": true,
          "internalType": "bytes32",
          "name": "soldAsset",
          "type": "bytes32"
        },
        {
          "indexed": true,
          "internalType": "bytes32",
          "name": "boughtAsset",
          "type": "bytes32"
        },
        {
          "indexed": false,
          "internalType": "uint256",
          "name": "amountSold",
          "type": "uint256"
        },
        {
          "indexed": false,
          "internalType": "uint256",
          "name": "amountBought",
          "type": "uint256"
        },
        {
          "indexed": false,
          "internalType": "uint256",
          "name": "timestamp",
          "type": "uint256"
        }
      ],
      "name": "SwapExecuted",
      "type": "event"
    },
    {
      "inputs": [],
      "name": "ARB",
      "outputs": [
        {
          "internalType": "address",
          "name": "",
          "type": "address"
        }
      ],
      "stateMutability": "view",
      "type": "function"
    },
    {
      "inputs": [],
      "name": "ARB_POOL_TUP",
      "outputs": [
        {
          "internalType": "address",
          "name": "",
          "type": "address"
        }
      ],
      "stateMutability": "view",
      "type": "function"
    },
    {
      "inputs": [],
      "name": "BTC",
      "outputs": [
        {
          "internalType": "address",
          "name": "",
          "type": "address"
        }
      ],
      "stateMutability": "view",
      "type": "function"
    },
    {
      "inputs": [],
      "name": "BTC_POOL_TUP",
      "outputs": [
        {
          "internalType": "address",
          "name": "",
          "type": "address"
        }
      ],
      "stateMutability": "view",
      "type": "function"
    },
    {
      "inputs": [],
      "name": "DAI",
      "outputs": [
        {
          "internalType": "address",
          "name": "",
          "type": "address"
        }
      ],
      "stateMutability": "view",
      "type": "function"
    },
    {
      "inputs": [],
      "name": "DAI_POOL_TUP",
      "outputs": [
        {
          "internalType": "address",
          "name": "",
          "type": "address"
        }
      ],
      "stateMutability": "view",
      "type": "function"
    },
    {
      "inputs": [],
      "name": "SLIPPAGE_HISTORY_DURATION",
      "outputs": [
        {
          "internalType": "uint256",
          "name": "",
          "type": "uint256"
        }
      ],
      "stateMutability": "view",
      "type": "function"
    },
    {
      "inputs": [],
      "name": "USDC",
      "outputs": [
        {
          "internalType": "address",
          "name": "",
          "type": "address"
        }
      ],
      "stateMutability": "view",
      "type": "function"
    },
    {
      "inputs": [],
      "name": "USDC_POOL_TUP",
      "outputs": [
        {
          "internalType": "address",
          "name": "",
          "type": "address"
        }
      ],
      "stateMutability": "view",
      "type": "function"
    },
    {
      "inputs": [],
      "name": "WETH",
      "outputs": [
        {
          "internalType": "address",
          "name": "",
          "type": "address"
        }
      ],
      "stateMutability": "view",
      "type": "function"
    },
    {
      "inputs": [],
      "name": "WETH_POOL_TUP",
      "outputs": [
        {
          "internalType": "address",
          "name": "",
          "type": "address"
        }
      ],
      "stateMutability": "view",
      "type": "function"
    },
    {
      "inputs": [
        {
          "internalType": "bytes32[]",
          "name": "assetsToRepay",
          "type": "bytes32[]"
        }
      ],
      "name": "_getAllPricesForLiquidation",
      "outputs": [
        {
          "components": [
            {
              "components": [
                {
                  "internalType": "bytes32",
                  "name": "asset",
                  "type": "bytes32"
                },
                {
                  "internalType": "uint256",
                  "name": "price",
                  "type": "uint256"
                }
              ],
              "internalType": "struct SolvencyFacetProd.AssetPrice[]",
              "name": "ownedAssetsPrices",
              "type": "tuple[]"
            },
            {
              "components": [
                {
                  "internalType": "bytes32",
                  "name": "asset",
                  "type": "bytes32"
                },
                {
                  "internalType": "uint256",
                  "name": "price",
                  "type": "uint256"
                }
              ],
              "internalType": "struct SolvencyFacetProd.AssetPrice[]",
              "name": "debtAssetsPrices",
              "type": "tuple[]"
            },
            {
              "components": [
                {
                  "internalType": "bytes32",
                  "name": "asset",
                  "type": "bytes32"
                },
                {
                  "internalType": "uint256",
                  "name": "price",
                  "type": "uint256"
                }
              ],
              "internalType": "struct SolvencyFacetProd.AssetPrice[]",
              "name": "stakedPositionsPrices",
              "type": "tuple[]"
            },
            {
              "components": [
                {
                  "internalType": "bytes32",
                  "name": "asset",
                  "type": "bytes32"
                },
                {
                  "internalType": "uint256",
                  "name": "price",
                  "type": "uint256"
                }
              ],
              "internalType": "struct SolvencyFacetProd.AssetPrice[]",
              "name": "assetsToRepayPrices",
              "type": "tuple[]"
            }
          ],
          "internalType": "struct SolvencyFacetProd.CachedPrices",
          "name": "result",
          "type": "tuple"
        }
      ],
      "stateMutability": "nonpayable",
      "type": "function"
    },
    {
      "inputs": [],
      "name": "_getHealthRatio",
      "outputs": [
        {
          "internalType": "uint256",
          "name": "health",
          "type": "uint256"
        }
      ],
      "stateMutability": "nonpayable",
      "type": "function"
    },
    {
      "inputs": [
        {
          "components": [
            {
              "components": [
                {
                  "internalType": "bytes32",
                  "name": "asset",
                  "type": "bytes32"
                },
                {
                  "internalType": "uint256",
                  "name": "price",
                  "type": "uint256"
                }
              ],
              "internalType": "struct SolvencyFacetProd.AssetPrice[]",
              "name": "ownedAssetsPrices",
              "type": "tuple[]"
            },
            {
              "components": [
                {
                  "internalType": "bytes32",
                  "name": "asset",
                  "type": "bytes32"
                },
                {
                  "internalType": "uint256",
                  "name": "price",
                  "type": "uint256"
                }
              ],
              "internalType": "struct SolvencyFacetProd.AssetPrice[]",
              "name": "debtAssetsPrices",
              "type": "tuple[]"
            },
            {
              "components": [
                {
                  "internalType": "bytes32",
                  "name": "asset",
                  "type": "bytes32"
                },
                {
                  "internalType": "uint256",
                  "name": "price",
                  "type": "uint256"
                }
              ],
              "internalType": "struct SolvencyFacetProd.AssetPrice[]",
              "name": "stakedPositionsPrices",
              "type": "tuple[]"
            },
            {
              "components": [
                {
                  "internalType": "bytes32",
                  "name": "asset",
                  "type": "bytes32"
                },
                {
                  "internalType": "uint256",
                  "name": "price",
                  "type": "uint256"
                }
              ],
              "internalType": "struct SolvencyFacetProd.AssetPrice[]",
              "name": "assetsToRepayPrices",
              "type": "tuple[]"
            }
          ],
          "internalType": "struct SolvencyFacetProd.CachedPrices",
          "name": "cachedPrices",
          "type": "tuple"
        }
      ],
      "name": "_getHealthRatioWithPrices",
      "outputs": [
        {
          "internalType": "uint256",
          "name": "health",
          "type": "uint256"
        }
      ],
      "stateMutability": "nonpayable",
      "type": "function"
    },
    {
      "inputs": [],
      "name": "_getThresholdWeightedValue",
      "outputs": [
        {
          "internalType": "uint256",
          "name": "twv",
          "type": "uint256"
        }
      ],
      "stateMutability": "nonpayable",
      "type": "function"
    },
    {
      "inputs": [],
      "name": "_getThresholdWeightedValuePayable",
      "outputs": [
        {
          "internalType": "uint256",
          "name": "twv",
          "type": "uint256"
        }
      ],
      "stateMutability": "nonpayable",
      "type": "function"
    },
    {
      "inputs": [],
      "name": "acceptOwnership",
      "outputs": [],
      "stateMutability": "nonpayable",
      "type": "function"
    },
    {
      "inputs": [],
      "name": "accumulatedSlippageUSD",
      "outputs": [
        {
          "internalType": "uint256",
          "name": "",
          "type": "uint256"
        }
      ],
      "stateMutability": "view",
      "type": "function"
    },
    {
      "inputs": [],
      "name": "cleanSlippageHistory",
      "outputs": [
        {
          "internalType": "uint256",
          "name": "removedCount",
          "type": "uint256"
        },
        {
          "internalType": "uint256",
          "name": "slippageReduced",
          "type": "uint256"
        }
      ],
      "stateMutability": "nonpayable",
      "type": "function"
    },
    {
      "inputs": [
        {
          "internalType": "bytes4",
          "name": "selector",
          "type": "bytes4"
        },
        {
          "internalType": "bytes",
          "name": "data",
          "type": "bytes"
        },
        {
          "internalType": "address",
          "name": "fromToken",
          "type": "address"
        },
        {
          "internalType": "uint256",
          "name": "fromAmount",
          "type": "uint256"
        },
        {
          "internalType": "address",
          "name": "toToken",
          "type": "address"
        },
        {
          "internalType": "uint256",
          "name": "minOut",
          "type": "uint256"
        }
      ],
      "name": "depositSwapParaSwapV6",
      "outputs": [],
      "stateMutability": "nonpayable",
      "type": "function"
    },
    {
      "inputs": [],
      "name": "extractTimestampsAndAssertAllAreEqual",
      "outputs": [
        {
          "internalType": "uint256",
          "name": "extractedTimestamp",
          "type": "uint256"
        }
      ],
      "stateMutability": "pure",
      "type": "function"
    },
    {
      "inputs": [
        {
          "internalType": "bytes32",
          "name": "symbol",
          "type": "bytes32"
        }
      ],
      "name": "getPrice",
      "outputs": [
        {
          "internalType": "uint256",
          "name": "price",
          "type": "uint256"
        }
      ],
      "stateMutability": "view",
      "type": "function"
    },
    {
      "inputs": [
        {
          "internalType": "uint256",
          "name": "_initialSlippageThreshold",
          "type": "uint256"
        }
      ],
      "name": "initialize",
      "outputs": [],
      "stateMutability": "nonpayable",
      "type": "function"
    },
    {
      "inputs": [],
      "name": "owner",
      "outputs": [
        {
          "internalType": "address",
          "name": "",
          "type": "address"
        }
      ],
      "stateMutability": "view",
      "type": "function"
    },
    {
      "inputs": [],
      "name": "pause",
      "outputs": [],
      "stateMutability": "nonpayable",
      "type": "function"
    },
    {
      "inputs": [],
      "name": "paused",
      "outputs": [
        {
          "internalType": "bool",
          "name": "",
          "type": "bool"
        }
      ],
      "stateMutability": "view",
      "type": "function"
    },
    {
      "inputs": [],
      "name": "pendingOwner",
      "outputs": [
        {
          "internalType": "address",
          "name": "",
          "type": "address"
        }
      ],
      "stateMutability": "view",
      "type": "function"
    },
    {
      "inputs": [],
      "name": "renounceOwnership",
      "outputs": [],
      "stateMutability": "nonpayable",
      "type": "function"
    },
    {
      "inputs": [
        {
          "internalType": "uint256",
          "name": "_newThreshold",
          "type": "uint256"
        }
      ],
      "name": "setSlippageThreshold",
      "outputs": [],
      "stateMutability": "nonpayable",
      "type": "function"
    },
    {
      "inputs": [
        {
          "internalType": "uint256",
          "name": "",
          "type": "uint256"
        }
      ],
      "name": "slippageHistory",
      "outputs": [
        {
          "internalType": "uint256",
          "name": "timestamp",
          "type": "uint256"
        },
        {
          "internalType": "uint256",
          "name": "slippageValueUSD",
          "type": "uint256"
        }
      ],
      "stateMutability": "view",
      "type": "function"
    },
    {
      "inputs": [],
      "name": "slippageThresholdUSD",
      "outputs": [
        {
          "internalType": "uint256",
          "name": "",
          "type": "uint256"
        }
      ],
      "stateMutability": "view",
      "type": "function"
    },
    {
      "inputs": [
        {
          "internalType": "address",
          "name": "newOwner",
          "type": "address"
        }
      ],
      "name": "transferOwnership",
      "outputs": [],
      "stateMutability": "nonpayable",
      "type": "function"
    },
    {
      "inputs": [],
      "name": "unpause",
      "outputs": [],
      "stateMutability": "nonpayable",
      "type": "function"
    }
  ],
  "transactionHash": "0xccedbbfb061ce3f9aa10a51f14b359fbf7733bca6825b03def06cda165fc0c65",
  "args": [],
  "numDeployments": 2,
  "solcInputHash": "6d19b193dbc93efd777a46331d12fb97",
  "bytecode": "0x608060405234801561001057600080fd5b5061475a806100206000396000f3fe608060405234801561001057600080fd5b506004361061018b5760003560e01c80630ce014bb146101905780632792949d146101af57806331d98b3f146101d7578063355cedad146101f8578063365be6aa1461021357806339e2719e146102265780633e80ec671461022e5780633f35bce8146102435780633f4ba83a1461024c5780634146043614610254578063530b39771461026757806355a547d51461026f57806359772046146102775780635c975abb1461028057806364a285fd1461029d5780636ad1e707146102b85780636e3bfe9f146102c15780637088e379146102d4578063715018a6146102dc57806379ba5097146102e457806383ea37da146102ec5780638456cb591461030757806389a302711461030f5780638da5cb5b1461032a578063a2f3191414610332578063ad5c46481461034d578063b2d40e7314610368578063de4a086814610388578063e0bab4c4146103a3578063e30c3978146103be578063f2fde38b146103c6578063f31b8584146103d9578063fe4b84df146103f4575b600080fd5b610198610407565b6040516101a6929190613aeb565b60405180910390f35b6101ca732f2a2543b76a4166549f7aab2e75bef0aefc5b0f81565b6040516101a69190613af9565b6101ea6101e5366004613b0d565b6105d4565b6040519081526020016101a6565b6101ca730ed7b42b74f039eda928e1ae6f44eed5ef195fb581565b610198610221366004613b0d565b610650565b6101ea61067e565b61024161023c366004613b46565b6106d9565b005b6101ea60985481565b610241610c16565b610241610262366004613b0d565b610c64565b6101ea610cb8565b6101ea610cfb565b6101ea60995481565b609a5461028d9060ff1681565b60405190151581526020016101a6565b6101ca73912ce59144191c1204e64559fe8253a0e49e654881565b6101ea61a8c081565b6101ea6102cf366004613d71565b610e13565b6101ea610e79565b610241610ebc565b610241610ece565b6101ca73788a8324943beb1a7a47b76959e6c1e6b87ed36081565b610241610f5d565b6101ca73af88d065e77c8cc2239327c5edb3a432268e583181565b6101ca610fac565b6101ca738ac9dc27a6174a1cc30873b367a60acdfab965cc81565b6101ca7382af49447d8a07e3bd95bd0d56f35241523fbab181565b61037b610376366004613e49565b610fbb565b6040516101a69190613f14565b6101ca73fa354e4289db87beb81034a3abd6d465328378f181565b6101ca73da10009cbd5d07dd0cecc66161fc93d7c9000da181565b6101ca611026565b6102416103d4366004613f89565b611030565b6101ca73c629e8889350f1bbbf6ed1955095c2198ddc41c281565b610241610402366004613b0d565b6110f7565b600080428161041861a8c083613fbc565b90506000805b609754821080156104525750826097838154811061043e5761043e613fcf565b906000526020600020906002020160000154105b1561049b576097828154811061046a5761046a613fcf565b906000526020600020906002020160010154816104879190613fe5565b90508161049381613ff8565b92505061041e565b81156105c657815b60975481101561051c57609781815481106104c0576104c0613fcf565b9060005260206000209060020201609784836104dc9190613fbc565b815481106104ec576104ec613fcf565b6000918252602090912082546002909202019081556001918201549101558061051481613ff8565b9150506104a3565b5060005b8281101561056957609780548061053957610539614011565b6000828152602081206002600019909301928302018181556001015590558061056181613ff8565b915050610520565b50806098600082825461057c9190613fbc565b90915550506040517f2eb47cea3e3ca85de1ddab03ef2cca217a3d878129aecf57d734fb846486a121906105b39084908490613aeb565b60405180910390a1909590945092505050565b506000958695509350505050565b60006106376105e96331d98b3f60e01b611211565b604051602481018590526331d98b3f60e01b906044015b60408051601f198184030181529190526020810180516001600160e01b03166001600160e01b03199093169290921790915261129c565b80602001905181019061064a9190614027565b92915050565b6097818154811061066057600080fd5b60009182526020909120600290910201805460019091015490915082565b60006106c1610693637914334f60e01b611211565b6040805160048152602481019091526020810180516001600160e01b0316637914334f60e01b17905261131f565b8060200190518101906106d49190614027565b905090565b6106e1611384565b609a5460ff16156107055760405163ab35696f60e01b815260040160405180910390fd5b61070e846113dd565b6107365783604051635f8b555b60e11b815260040161072d9190613af9565b60405180910390fd5b61073f826113dd565b61075e5781604051635f8b555b60e11b815260040161072d9190613af9565b600081116107a75760405162461bcd60e51b815260206004820152601660248201527506d696e4f7574206e6565647320746f206265203e20360541b604482015260640161072d565b600083116108085760405162461bcd60e51b815260206004820152602860248201527f416d6f756e74206f6620746f6b656e7320746f2073656c6c206e65656473207460448201526706f206265203e20360c41b606482015260840161072d565b60006108158888886114a0565b90506108248186856000611535565b8381606001511461086e5760405162461bcd60e51b815260206004820152601460248201527308ce4deda40c2dadeeadce840dad2e6dac2e8c6d60631b604482015260640161072d565b81816080015110156108b85760405162461bcd60e51b815260206004820152601360248201527209ad2dc40deeae8e0eae840dad2e6dac2e8c6d606b1b604482015260640161072d565b60006108c386611766565b905060006108d085611766565b90503360006108df898961179d565b90506108ed848a8a85611917565b60006040518061010001604052806109048c611edf565b81526020016109128a611edf565b81526020018b6001600160a01b03168152602001896001600160a01b031681526020018b6001600160a01b03166370a08231306040518263ffffffff1660e01b81526004016109619190613af9565b602060405180830381865afa15801561097e573d6000803e3d6000fd5b505050506040513d601f19601f820116820180604052508101906109a29190614027565b8152602001896001600160a01b03166370a08231306040518263ffffffff1660e01b81526004016109d39190613af9565b602060405180830381865afa1580156109f0573d6000803e3d6000fd5b505050506040513d601f19601f82011682018060405250810190610a149190614027565b81526020018b6001600160a01b031663313ce5676040518163ffffffff1660e01b8152600401602060405180830381865afa158015610a57573d6000803e3d6000fd5b505050506040513d601f19601f82011682018060405250810190610a7b9190614040565b60ff168152602001896001600160a01b031663313ce5676040518163ffffffff1660e01b8152600401602060405180830381865afa158015610ac1573d6000803e3d6000fd5b505050506040513d601f19601f82011682018060405250810190610ae59190614040565b60ff1690529050610afb8d8d8d848a6000611ffc565b60008160a00151896001600160a01b03166370a08231306040518263ffffffff1660e01b8152600401610b2e9190613af9565b602060405180830381865afa158015610b4b573d6000803e3d6000fd5b505050506040513d601f19601f82011682018060405250810190610b6f9190614027565b610b799190613fbc565b905087811015610bc15760405162461bcd60e51b8152602060048201526013602482015272151bdbc81b1a5d1d1b19481c9958d95a5d9959606a1b604482015260640161072d565b6000610bcd8a8361179d565b905083811015610bf0576000610be38286613fbc565b9050610bee816123ef565b505b610bfc868b848861250d565b5050505050505050610c0d60018055565b50505050505050565b610c1e611384565b610c2661295c565b609a805460ff191690556040517f488fe0ba88bd2bc987d630cfc61d5dce088efea86b61275bcf4a694eb6b0fb6390600090a1610c6260018055565b565b610c6c611384565b610c7461295c565b60998190556040518181527fad3d2e36d644de683c6608bea35a9e25bef4ded83b5939c6d8f9c5ab390d89fc9060200160405180910390a1610cb560018055565b50565b60006106c1610ccd63fd4344cd60e01b611211565b6040805160048152602481019091526020810180516001600160e01b031663fd4344cd60e01b17905261131f565b600080610d066129bb565b90506000610d1382612a62565b61ffff16905080600003610d3a57604051632154bfcf60e21b815260040160405180910390fd5b610d45600283613fe5565b915060005b81811015610e0d576000610d5d84612a9c565b9050600080610d6d606887613fe5565b90506000610d7b8236613fbc565b9050803592508265ffffffffffff16600003610daa57604051630336dc9d60e41b815260040160405180910390fd5b87600003610dc2578265ffffffffffff169750610dea565b878365ffffffffffff1614610dea5760405163d9d1f46560e01b815260040160405180910390fd5b610df48488613fe5565b9650505050508080610e0590613ff8565b915050610d4a565b50505090565b6000610637610e2863360398a360e01b611211565b60405163360398a360e01b90610e42908690602401613f14565b60408051601f198184030181529190526020810180516001600160e01b03166001600160e01b03199093169290921790915261131f565b60006106c1610e8e63caacc76160e01b611211565b6040805160048152602481019091526020810180516001600160e01b031663caacc76160e01b17905261131f565b610ec461295c565b610c626000612ad8565b6000610ed8612b2a565b9050336001600160a01b03821614610f4a5760405162461bcd60e51b815260206004820152602f60248201527f50656e64696e674f776e61626c653a2063616c6c6572206973206e6f7420746860448201526e32903832b73234b7339037bbb732b960891b606482015260840161072d565b610f5381612ad8565b610cb56000612b3d565b610f65611384565b610f6d61295c565b609a805460ff191660011790556040517fe27316ce3162866b0f61b2911bf4975a45479727dad5b9e4d350814462229c6f90600090a1610c6260018055565b6065546001600160a01b031690565b610fe66040518060800160405280606081526020016060815260200160608152602001606081525090565b611013610ff96351d5468f60e11b611211565b6040516351d5468f60e11b90610e42908690602401614063565b80602001905181019061064a9190614126565b60006106d4612b2a565b61103861295c565b6001600160a01b0381166110a45760405162461bcd60e51b815260206004820152602d60248201527f50656e64696e674f776e61626c653a206e6577206f776e65722069732074686560448201526c207a65726f206164647265737360981b606482015260840161072d565b6110ad81612b3d565b806001600160a01b03166110bf610fac565b6001600160a01b03167fed8889f560326eb138920d842192f0eb3dd22b4f139c87a2c57538e05bae127860405160405180910390a350565b600054610100900460ff16158080156111175750600054600160ff909116105b80611138575061112630612b4f565b158015611138575060005460ff166001145b61119b5760405162461bcd60e51b815260206004820152602e60248201527f496e697469616c697a61626c653a20636f6e747261637420697320616c72656160448201526d191e481a5b9a5d1a585b1a5e995960921b606482015260840161072d565b6000805460ff1916600117905580156111be576000805461ff0019166101001790555b6111c782612b5e565b801561120d576000805461ff0019169055604051600181527f7f26b83ff96e1f2b6a682f133852f6798a09c465da95921460cefb38474024989060200160405180910390a15b5050565b60007362cf82fb0484af382714cd09296260edc1dc0c6c604051630d74157760e01b81526001600160e01b0319841660048201526001600160a01b039190911690630d74157790602401602060405180830381865afa158015611278573d6000803e3d6000fd5b505050506040513d601f19601f8201168201806040525081019061064a91906141ef565b606060006112a983612b92565b9050600080856001600160a01b0316836040516112c69190614230565b600060405180830381855afa9150503d8060008114611301576040519150601f19603f3d011682016040523d82523d6000602084013e611306565b606091505b50915091506113158282612c21565b9695505050505050565b6060600061132c83612b92565b9050600080856001600160a01b0316836040516113499190614230565b600060405180830381855af49150503d8060008114611301576040519150601f19603f3d011682016040523d82523d6000602084013e611306565b6002600154036113d65760405162461bcd60e51b815260206004820152601f60248201527f5265656e7472616e637947756172643a207265656e7472616e742063616c6c00604482015260640161072d565b6002600155565b60006001600160a01b0382167382af49447d8a07e3bd95bd0d56f35241523fbab1148061142657506001600160a01b03821673af88d065e77c8cc2239327c5edb3a432268e5831145b8061144d57506001600160a01b038216732f2a2543b76a4166549f7aab2e75bef0aefc5b0f145b8061147457506001600160a01b03821673da10009cbd5d07dd0cecc66161fc93d7c9000da1145b8061064a57506001600160a01b03821673912ce59144191c1204e64559fe8253a0e49e65481492915050565b6114a8613aaf565b630e0a953160e11b6001600160e01b03198516016114d1576114ca8383612c9e565b905061152e565b633c4afe8560e11b6001600160e01b03198516016114f3576114ca8383612e25565b60405162461bcd60e51b815260206004820152601060248201526f24b73b30b634b21039b2b632b1ba37b960811b604482015260640161072d565b9392505050565b83516001600160a01b0316158015906115565750835161155490612ea0565b155b156115745760405163710c949760e01b815260040160405180910390fd5b60a08401516001600160a01b0316158015906115b1575060a08401516001600160a01b0316735e7d3d4f744378c2259bb6c52fbf247be473860d14155b156115cf5760405163b7273bd560e01b815260040160405180910390fd5b60c08401516001600160a01b031630148015906115f8575060c08401516001600160a01b031615155b1561161657604051631559b7d760e21b815260040160405180910390fd5b826001600160a01b031684602001516001600160a01b03161415806116515750816001600160a01b031684604001516001600160a01b031614155b80611675575083604001516001600160a01b031684602001516001600160a01b0316145b8061168b575060208401516001600160a01b0316155b806116a1575060408401516001600160a01b0316155b156116bf57604051630f58058360e11b815260040160405180910390fd5b606084015115806116d257506080840151155b806116e7575060608401516001600160801b03105b156117055760405163162908e360e11b815260040160405180910390fd5b801561176057611713612f88565b156117605760405162461bcd60e51b815260206004820181905260248201527f43616e6e6f74206c697175696461746520736f6c76656e74206163636f756e74604482015260640161072d565b50505050565b60008061177283612fde565b90506001600160a01b03811661064a5782604051635f8b555b60e11b815260040161072d9190613af9565b6000806117a984611edf565b604080516001808252818301909252919250600091906020808301908036833701905050905081816000815181106117e3576117e3613fcf565b60200260200101818152505060006117fa82613120565b90506000866001600160a01b031663313ce5676040518163ffffffff1660e01b8152600401602060405180830381865afa15801561183c573d6000803e3d6000fd5b505050506040513d601f19601f820116820180604052508101906118609190614040565b60ff169050600060128210156118975761187b826012613fbc565b61188690600a614330565b611890908861433c565b90506118c3565b60128211156118c0576118ab601283613fbc565b6118b690600a614330565b6118909088614353565b50855b670de0b6b3a7640000836000815181106118df576118df613fcf565b6020026020010151826118f2919061433c565b611901906402540be40061433c565b61190b9190614353565b98975050505050505050565b6040516370a0823160e01b81526000906001600160a01b038616906370a0823190611946908590600401613af9565b602060405180830381865afa158015611963573d6000803e3d6000fd5b505050506040513d601f19601f820116820180604052508101906119879190614027565b90506000856001600160a01b03166370a08231306040518263ffffffff1660e01b81526004016119b79190613af9565b602060405180830381865afa1580156119d4573d6000803e3d6000fd5b505050506040513d601f19601f820116820180604052508101906119f89190614027565b905083821015611a1f57818460405163ce9514f960e01b815260040161072d929190613aeb565b6040516323b872dd60e01b81526001600160a01b038481166004830152306024830152604482018690528716906323b872dd906064016020604051808303816000875af1158015611a74573d6000803e3d6000fd5b505050506040513d601f19601f82011682018060405250810190611a989190614375565b508381876001600160a01b03166370a08231306040518263ffffffff1660e01b8152600401611ac79190613af9565b602060405180830381865afa158015611ae4573d6000803e3d6000fd5b505050506040513d601f19601f82011682018060405250810190611b089190614027565b611b129190613fbc565b14611b835760405162461bcd60e51b815260206004820152603b60248201527f616d6f756e7446726f6d546f6b656e20616e6420706f73742d7472616e73666560448201527a0e440c6dedce8e4c2c6e840c4c2d8c2dcc6ca40dad2e6dac2e8c6d602b1b606482015260840161072d565b611b8d8483613fbc565b6040516370a0823160e01b81526001600160a01b038816906370a0823190611bb9908790600401613af9565b602060405180830381865afa158015611bd6573d6000803e3d6000fd5b505050506040513d601f19601f82011682018060405250810190611bfa9190614027565b14611c575760405162461bcd60e51b815260206004820152602760248201527f7573657220706f73742d7472616e736665722062616c616e636520697320696e60448201526618dbdc9c9958dd60ca1b606482015260840161072d565b6040516370a0823160e01b81526000906001600160a01b038716906370a0823190611c86903090600401613af9565b602060405180830381865afa158015611ca3573d6000803e3d6000fd5b505050506040513d601f19601f82011682018060405250810190611cc79190614027565b6040516326935e3960e01b8152600481018790529091506001600160a01b038816906326935e3990602401600060405180830381600087803b158015611d0c57600080fd5b505af1158015611d20573d6000803e3d6000fd5b50506040516370a0823160e01b81528492506001600160a01b038a1691506370a0823190611d52903090600401613af9565b602060405180830381865afa158015611d6f573d6000803e3d6000fd5b505050506040513d601f19601f82011682018060405250810190611d939190614027565b14611dfb5760405162461bcd60e51b815260206004820152603260248201527f506f73742d7769746864726177616c20636f6e7472616374206465706f73697460448201527102062616c616e6365206d75737420626520360741b606482015260840161072d565b611e058582613fe5565b6040516370a0823160e01b81526001600160a01b038816906370a0823190611e31903090600401613af9565b602060405180830381865afa158015611e4e573d6000803e3d6000fd5b505050506040513d601f19601f82011682018060405250810190611e729190614027565b14610c0d5760405162461bcd60e51b815260206004820152603760248201527f506f73742d7769746864726177616c20636f6e74726163742066726f6d546f6b604482015276195b8818985b185b98d9481a5cc81a5b98dbdc9c9958dd604a1b606482015260840161072d565b60007382af49447d8a07e3bd95bd0d56f35241523fbab0196001600160a01b03831601611f1357506208aa8960eb1b919050565b73af88d065e77c8cc2239327c5edb3a432268e5830196001600160a01b03831601611f465750635553444360e01b919050565b732f2a2543b76a4166549f7aab2e75bef0aefc5b0e196001600160a01b03831601611f7857506242544360e81b919050565b73da10009cbd5d07dd0cecc66161fc93d7c9000da0196001600160a01b03831601611faa57506244414960e81b919050565b73912ce59144191c1204e64559fe8253a0e49e6547196001600160a01b03831601611fdc57506220a92160e91b919050565b81604051635f8b555b60e11b815260040161072d9190613af9565b919050565b6060820151835161200c90613162565b101561202b57604051631e9acf1760e31b815260040160405180910390fd5b6040830151612059906001600160a01b0316736a000f20005980200259b80c51020030400010686000613192565b612093736a000f20005980200259b80c5102003040001068836060015185604001516001600160a01b03166131929092919063ffffffff16565b60608201516040808501519051636eb1769f60e11b8152306004820152736a000f20005980200259b80c510200304000106860248201526001600160a01b039091169063dd62ed3e90604401602060405180830381865afa1580156120fc573d6000803e3d6000fd5b505050506040513d601f19601f820116820180604052508101906121209190614027565b101561213f576040516313be252b60e01b815260040160405180910390fd5b6000736a000f20005980200259b80c51020030400010686001600160a01b031687878760405160200161217493929190614397565b60408051601f198184030181529082905261218e91614230565b6000604051808303816000865af19150503d80600081146121cb576040519150601f19603f3d011682016040523d82523d6000602084013e6121d0565b606091505b50509050806121f25760405163081ceff360e41b815260040160405180910390fd5b60008460a0015185606001516001600160a01b03166370a08231306040518263ffffffff1660e01b81526004016122299190613af9565b602060405180830381865afa158015612246573d6000803e3d6000fd5b505050506040513d601f19601f8201168201806040525081019061226a9190614027565b6122749190613fbc565b9050836080015181101561229b5760405163c9f52c7160e01b815260040160405180910390fd5b600085604001516001600160a01b03166370a08231306040518263ffffffff1660e01b81526004016122cd9190613af9565b602060405180830381865afa1580156122ea573d6000803e3d6000fd5b505050506040513d601f19601f8201168201806040525081019061230e9190614027565b866080015161231d9190613fbc565b9050838015612330575084606001518114155b1561234e57604051637e2abcc760e11b815260040160405180910390fd5b61235a868284876132c3565b6040860151730a0d954d4b0f0b47a5990c0abd179a90ff74e2559061239e906001600160a01b0316736a000f20005980200259b80c51020030400010686000613192565b6020870151875160405133907f332013ff9e1c27616b23b152bbf2ed20156f1f19639265961ab94a5a61955050906123db908790899042906143bb565b60405180910390a450505050505050505050565b6123f7610407565b5050609954158015906124185750609954816098546124169190613fe5565b115b15612440578060985460995460405163060215b960e01b815260040161072d939291906143bb565b604080518082019091524281526020810182815260978054600181018255600091825292517f354a83ed9988f79f6038d4c7a7dadbad8af32f4ad6df893e0e5807a1b1944ff960029094029384015590517f354a83ed9988f79f6038d4c7a7dadbad8af32f4ad6df893e0e5807a1b1944ffa90920191909155609880548392906124cb908490613fe5565b90915550506040517f7ea492cbc31ef0e45851cf4f0d17769c9c882bec51e735a6610e9980c617f78a906125029042908490613aeb565b60405180910390a150565b6040516370a0823160e01b81526000906001600160a01b038516906370a082319061253c903090600401613af9565b602060405180830381865afa158015612559573d6000803e3d6000fd5b505050506040513d601f19601f8201168201806040525081019061257d9190614027565b90506000856001600160a01b03166370a08231846040518263ffffffff1660e01b81526004016125ad9190613af9565b602060405180830381865afa1580156125ca573d6000803e3d6000fd5b505050506040513d601f19601f820116820180604052508101906125ee9190614027565b90506000866001600160a01b03166370a08231306040518263ffffffff1660e01b815260040161261e9190613af9565b602060405180830381865afa15801561263b573d6000803e3d6000fd5b505050506040513d601f19601f8201168201806040525081019061265f9190614027565b9050848310156126bf5760405162461bcd60e51b815260206004820152602560248201527f496e73756666696369656e7420636f6e747261637420746f546f6b656e2062616044820152646c616e636560d81b606482015260840161072d565b6126d36001600160a01b03871688876134eb565b60405163b6b55f2560e01b8152600481018690526001600160a01b0388169063b6b55f2590602401600060405180830381600087803b15801561271557600080fd5b505af1158015612729573d6000803e3d6000fd5b5050505084816127399190613fe5565b6040516370a0823160e01b81526001600160a01b038916906370a0823190612765903090600401613af9565b602060405180830381865afa158015612782573d6000803e3d6000fd5b505050506040513d601f19601f820116820180604052508101906127a69190614027565b1461280e5760405162461bcd60e51b815260206004820152603260248201527f506f73742d6465706f73697420636f6e7472616374206465706f7369742062616044820152711b185b98d9481a5cc81a5b98dbdc9c9958dd60721b606482015260840161072d565b60405163a9059cbb60e01b81526001600160a01b0388169063a9059cbb9061283c90879089906004016143d1565b6020604051808303816000875af115801561285b573d6000803e3d6000fd5b505050506040513d601f19601f8201168201806040525081019061287f9190614375565b5061288a8583613fe5565b6040516370a0823160e01b81526001600160a01b038916906370a08231906128b6908890600401613af9565b602060405180830381865afa1580156128d3573d6000803e3d6000fd5b505050506040513d601f19601f820116820180604052508101906128f79190614027565b14610c0d5760405162461bcd60e51b815260206004820152602f60248201527f506f73742d7472616e736665722075736572206465706f7369742062616c616e60448201526e18d9481a5cc81a5b98dbdc9c9958dd608a1b606482015260840161072d565b33612965610fac565b6001600160a01b031614610c625760405162461bcd60e51b815260206004820181905260248201527f4f776e61626c653a2063616c6c6572206973206e6f7420746865206f776e6572604482015260640161072d565b60006602ed57011e0000601f19360135811614806129ec576040516373bb264f60e11b815260040160405180910390fd5b60003660291115612a1057604051632bcb7bc560e11b815260040160405180910390fd5b5060281936013560006009612a2b600362ffffff8516613fe5565b612a359190613fe5565b905036612a43600283613fe5565b111561152e5760405163c30a7bd760e01b815260040160405180910390fd5b600080612a70602084613fe5565b905036811115612a9357604051632bcb7bc560e11b815260040160405180910390fd5b36033592915050565b6000806000612aaa846135a9565b9092509050604e612abc826020613fe5565b612ac6908461433c565b612ad09190613fe5565b949350505050565b606580546001600160a01b038381166001600160a01b0319831681179093556040519116919082907f8be0079c531659141344cd1fd0a4f28419497f9722a3daafe3b4186f6b6457e090600090a35050565b6000805160206147058339815191525490565b60008051602061470583398151915255565b6001600160a01b03163b151590565b600054610100900460ff16612b855760405162461bcd60e51b815260040161072d906143ea565b612b8d613600565b609955565b80516060906000612ba161362f565b90506000612baf8284613fe5565b905036821115612bd257604051632bcb7bc560e11b815260040160405180910390fd5b6060604051905081815285602001848101826020015b81831015612c00578251815260209283019201612be8565b50505082833603856020018301379190920181016020016040529392505050565b606082612c98578151600003612c4a57604051632b3ff13d60e11b815260040160405180910390fd5b602082015162461bcd60e51b148015612c7d576040516301efd04f60e31b8152604484019061072d908290600401614461565b8260405163fd36fde360e01b815260040161072d9190614461565b50919050565b612ca6613aaf565b610120821015612d065760405162461bcd60e51b815260206004820152602560248201527f496e76616c696420537761704578616374416d6f756e74496e2064617461206c6044820152640cadccee8d60db1b606482015260840161072d565b600080612d166020828688614474565b8080601f0160208091040260200160405190810160405280939291908181526020018383808284376000920182905250602080860151975094955093612d659350610100925090508789614474565b8080601f0160208091040260200160405190810160405280939291908181526020018383808284376000920182905250939450612da7925084915061369a9050565b90506000612dbb610120610100898b614474565b810190612dc89190613b0d565b6001600160a01b0395861687528251861660208089019190915283015186166040808901919091528301516060888101919091528381015160808901521c60a08701525060c0908101519093169284019290925250909392505050565b612e2d613aaf565b6000612e3b8385018561450d565b90506000612e4985856136e9565b82516001600160a01b0390811660208681019190915284015181166040808701919091528401516060868101919091528481015160808701529190911c60a085015260c09283015116918301919091525092915050565b60007110036c0190e009a000d0fc3541100a073809196001600160a01b03831601612ecd57506001919050565b736a000f20005980200259b80c5102003040001067196001600160a01b03831601612efa57506001919050565b72c600b30fb0400701010f4b080409018b9006df196001600160a01b03831601612f2657506001919050565b73a0f408a000017007015e0f00320e470d00090a5a196001600160a01b03831601612f5357506001919050565b73def171fe48cf0115b1d80b88dc8eab59176fee56196001600160a01b03831601612f8057506001919050565b506000919050565b6000612fcb612f9d6305ce239560e41b611211565b6040805160048152602481019091526020810180516001600160e01b03166305ce239560e41b17905261131f565b8060200190518101906106d49190614375565b60007382af49447d8a07e3bd95bd0d56f35241523fbab0196001600160a01b03831601613020575073788a8324943beb1a7a47b76959e6c1e6b87ed360919050565b73af88d065e77c8cc2239327c5edb3a432268e5830196001600160a01b038316016130605750738ac9dc27a6174a1cc30873b367a60acdfab965cc919050565b732f2a2543b76a4166549f7aab2e75bef0aefc5b0e196001600160a01b038316016130a05750730ed7b42b74f039eda928e1ae6f44eed5ef195fb5919050565b73da10009cbd5d07dd0cecc66161fc93d7c9000da0196001600160a01b038316016130e0575073fa354e4289db87beb81034a3abd6d465328378f1919050565b73912ce59144191c1204e64559fe8253a0e49e6547196001600160a01b03831601612f80575073c629e8889350f1bbbf6ed1955095c2198ddc41c2919050565b606061314f613135631377241b60e11b611211565b604051631377241b60e11b90610600908690602401614063565b80602001905181019061064a91906145d5565b60006106376131776311d1d7d160e11b611211565b604051602481018590526311d1d7d160e11b90604401610e42565b600080846001600160a01b031663095ea7b385856040516024016131b79291906143d1565b6040516020818303038152906040529060e01b6020820180516001600160e01b0383818316178352505050506040516131f09190614230565b6000604051808303816000865af19150503d806000811461322d576040519150601f19603f3d011682016040523d82523d6000602084013e613232565b606091505b509150915081801561325c57508051158061325c57508080602001905181019061325c9190614375565b6132bc5760405162461bcd60e51b815260206004820152602b60248201527f5472616e7366657248656c7065723a3a73616665417070726f76653a2061707060448201526a1c9bdd994819985a5b195960aa1b606482015260840161072d565b5050505050565b6040805160028082526060820183526000926020830190803683370190505090508460000151816000815181106132fc576132fc613fcf565b60200260200101818152505084602001518160018151811061332057613320613fcf565b602002602001018181525050600061333782613120565b9050805160021461337f5760405162461bcd60e51b8152602060048201526012602482015271496e76616c6964207072696365206461746160701b604482015260640161072d565b60008660c00151600a613392919061465a565b61339d600a80614330565b87846000815181106133b1576133b1613fcf565b60200260200101516133c3919061433c565b6133cd919061433c565b6133d79190614353565b905060008760e00151600a6133ec919061465a565b6133f7600a80614330565b878560018151811061340b5761340b613fcf565b602002602001015161341d919061433c565b613427919061433c565b6134319190614353565b9050808211156134e15760008261271061344b8483613fbc565b613455919061433c565b61345f9190614353565b9050600086613470576101f4613473565b60c85b90508082106134de57336001600160a01b03167f406040258ed5300022492d196bc37e8964431c8573f4a9eab831c1377bd74da78585856040516134b9939291906143bb565b60405180910390a28181604051633b5d56ed60e11b815260040161072d929190613aeb565b50505b5050505050505050565b600063095ea7b360e01b83836040516024016135089291906143d1565b60408051601f198184030181529190526020810180516001600160e01b03166001600160e01b03199093169290921790915290506135468482613742565b61176057604080516001600160a01b038516602482015260006044808301919091528251808303909101815260649091019091526020810180516001600160e01b031663095ea7b360e01b17905261359f9085906137e4565b61176084826137e4565b6000808080806135ba604187613fe5565b905060006135d36135cc602084613fe5565b36906138be565b8035945090506135e48160036138be565b62ffffff9490941697933563ffffffff16965092945050505050565b600054610100900460ff166136275760405162461bcd60e51b815260040161072d906143ea565b610c626138ca565b60008061363a6129bb565b9050600061364782612a62565b61ffff169050613658600283613fe5565b915060005b8181101561369257600061367084612a9c565b905061367c8185613fe5565b935050808061368a90613ff8565b91505061365d565b509092915050565b6040805160e081018252600080825260208201819052918101829052606081018290526080810182905260a0810182905260c081019190915260008280602001905181019061152e9190614669565b60006101208210156137395760405162461bcd60e51b8152602060048201526019602482015278092dcecc2d8d2c840aadcd2ac6640c8c2e8c240d8cadccee8d603b1b604482015260640161072d565b50506020013590565b6000806000846001600160a01b03168460405161375f9190614230565b6000604051808303816000865af19150503d806000811461379c576040519150601f19603f3d011682016040523d82523d6000602084013e6137a1565b606091505b50915091508180156137cb5750805115806137cb5750808060200190518101906137cb9190614375565b80156137db57506137db85612b4f565b95945050505050565b6000613839826040518060400160405280602081526020017f5361666545524332303a206c6f772d6c6576656c2063616c6c206661696c6564815250856001600160a01b03166138f99092919063ffffffff16565b905080516000148061385a57508080602001905181019061385a9190614375565b6138b95760405162461bcd60e51b815260206004820152602a60248201527f5361666545524332303a204552433230206f7065726174696f6e20646964206e6044820152691bdd081cdd58d8d9595960b21b606482015260840161072d565b505050565b600061152e8284613fbc565b600054610100900460ff166138f15760405162461bcd60e51b815260040161072d906143ea565b610c62613908565b6060612ad08484600085613938565b600054610100900460ff1661392f5760405162461bcd60e51b815260040161072d906143ea565b610c6233612ad8565b6060824710156139995760405162461bcd60e51b815260206004820152602660248201527f416464726573733a20696e73756666696369656e742062616c616e636520666f6044820152651c8818d85b1b60d21b606482015260840161072d565b600080866001600160a01b031685876040516139b59190614230565b60006040518083038185875af1925050503d80600081146139f2576040519150601f19603f3d011682016040523d82523d6000602084013e6139f7565b606091505b5091509150613a0887838387613a13565b979650505050505050565b60608315613a80578251600003613a7957613a2d85612b4f565b613a795760405162461bcd60e51b815260206004820152601d60248201527f416464726573733a2063616c6c20746f206e6f6e2d636f6e7472616374000000604482015260640161072d565b5081612ad0565b612ad08383815115613a955781518083602001fd5b8060405162461bcd60e51b815260040161072d9190614461565b6040805160e081018252600080825260208201819052918101829052606081018290526080810182905260a0810182905260c081019190915290565b918252602082015260400190565b6001600160a01b0391909116815260200190565b600060208284031215613b1f57600080fd5b5035919050565b6001600160a01b0381168114610cb557600080fd5b8035611ff781613b26565b600080600080600080600060c0888a031215613b6157600080fd5b87356001600160e01b031981168114613b7957600080fd5b965060208801356001600160401b0380821115613b9557600080fd5b818a0191508a601f830112613ba957600080fd5b813581811115613bb857600080fd5b8b6020828501011115613bca57600080fd5b602083019850809750505050613be260408901613b3b565b935060608801359250613bf760808901613b3b565b915060a0880135905092959891949750929550565b634e487b7160e01b600052604160045260246000fd5b604080519081016001600160401b0381118282101715613c4457613c44613c0c565b60405290565b604051608081016001600160401b0381118282101715613c4457613c44613c0c565b60405161010081016001600160401b0381118282101715613c4457613c44613c0c565b604051601f8201601f191681016001600160401b0381118282101715613cb757613cb7613c0c565b604052919050565b60006001600160401b03821115613cd857613cd8613c0c565b5060051b60200190565b600082601f830112613cf357600080fd5b81356020613d08613d0383613cbf565b613c8f565b82815260069290921b84018101918181019086841115613d2757600080fd5b8286015b84811015613d665760408189031215613d445760008081fd5b613d4c613c22565b813581528482013585820152835291830191604001613d2b565b509695505050505050565b600060208284031215613d8357600080fd5b81356001600160401b0380821115613d9a57600080fd5b9083019060808286031215613dae57600080fd5b613db6613c4a565b823582811115613dc557600080fd5b613dd187828601613ce2565b825250602083013582811115613de657600080fd5b613df287828601613ce2565b602083015250604083013582811115613e0a57600080fd5b613e1687828601613ce2565b604083015250606083013582811115613e2e57600080fd5b613e3a87828601613ce2565b60608301525095945050505050565b60006020808385031215613e5c57600080fd5b82356001600160401b03811115613e7257600080fd5b8301601f81018513613e8357600080fd5b8035613e91613d0382613cbf565b81815260059190911b82018301908381019087831115613eb057600080fd5b928401925b82841015613a0857833582529284019290840190613eb5565b600081518084526020808501945080840160005b83811015613f09578151805188528301518388015260409096019590820190600101613ee2565b509495945050505050565b602081526000825160806020840152613f3060a0840182613ece565b90506020840151601f1980858403016040860152613f4e8383613ece565b92506040860151915080858403016060860152613f6b8383613ece565b92506060860151915080858403016080860152506137db8282613ece565b600060208284031215613f9b57600080fd5b813561152e81613b26565b634e487b7160e01b600052601160045260246000fd5b8181038181111561064a5761064a613fa6565b634e487b7160e01b600052603260045260246000fd5b8082018082111561064a5761064a613fa6565b60006001820161400a5761400a613fa6565b5060010190565b634e487b7160e01b600052603160045260246000fd5b60006020828403121561403957600080fd5b5051919050565b60006020828403121561405257600080fd5b815160ff8116811461152e57600080fd5b6020808252825182820181905260009190848201906040850190845b8181101561409b5783518352928401929184019160010161407f565b50909695505050505050565b600082601f8301126140b857600080fd5b815160206140c8613d0383613cbf565b82815260069290921b840181019181810190868411156140e757600080fd5b8286015b84811015613d6657604081890312156141045760008081fd5b61410c613c22565b8151815284820151858201528352918301916040016140eb565b60006020828403121561413857600080fd5b81516001600160401b038082111561414f57600080fd5b908301906080828603121561416357600080fd5b61416b613c4a565b82518281111561417a57600080fd5b614186878286016140a7565b82525060208301518281111561419b57600080fd5b6141a7878286016140a7565b6020830152506040830151828111156141bf57600080fd5b6141cb878286016140a7565b6040830152506060830151828111156141e357600080fd5b613e3a878286016140a7565b60006020828403121561420157600080fd5b815161152e81613b26565b60005b8381101561422757818101518382015260200161420f565b50506000910152565b6000825161424281846020870161420c565b9190910192915050565b600181815b8085111561428757816000190482111561426d5761426d613fa6565b8085161561427a57918102915b93841c9390800290614251565b509250929050565b60008261429e5750600161064a565b816142ab5750600061064a565b81600181146142c157600281146142cb576142e7565b600191505061064a565b60ff8411156142dc576142dc613fa6565b50506001821b61064a565b5060208310610133831016604e8410600b841016171561430a575081810a61064a565b614314838361424c565b806000190482111561432857614328613fa6565b029392505050565b600061152e838361428f565b808202811582820484141761064a5761064a613fa6565b60008261437057634e487b7160e01b600052601260045260246000fd5b500490565b60006020828403121561438757600080fd5b8151801515811461152e57600080fd5b6001600160e01b031984168152818360048301376000910160040190815292915050565b9283526020830191909152604082015260600190565b6001600160a01b03929092168252602082015260400190565b6020808252602b908201527f496e697469616c697a61626c653a20636f6e7472616374206973206e6f74206960408201526a6e697469616c697a696e6760a81b606082015260800190565b6000815180845261444d81602086016020860161420c565b601f01601f19169290920160200192915050565b60208152600061152e6020830184614435565b6000808585111561448457600080fd5b8386111561449157600080fd5b5050820193919092039150565b600082601f8301126144af57600080fd5b81356001600160401b038111156144c8576144c8613c0c565b6144db601f8201601f1916602001613c8f565b8181528460208386010111156144f057600080fd5b816020850160208301376000918101602001919091529392505050565b60006020828403121561451f57600080fd5b81356001600160401b038082111561453657600080fd5b90830190610100828603121561454b57600080fd5b614553613c6c565b61455c83613b3b565b815261456a60208401613b3b565b602082015260408301356040820152606083013560608201526080830135608082015260a083013560a08201526145a360c08401613b3b565b60c082015260e0830135828111156145ba57600080fd5b6145c68782860161449e565b60e08301525095945050505050565b600060208083850312156145e857600080fd5b82516001600160401b038111156145fe57600080fd5b8301601f8101851361460f57600080fd5b805161461d613d0382613cbf565b81815260059190911b8201830190838101908783111561463c57600080fd5b928401925b82841015613a0857835182529284019290840190614641565b600061152e60ff84168361428f565b600060e0828403121561467b57600080fd5b60405160e081016001600160401b038111828210171561469d5761469d613c0c565b60405282516146ab81613b26565b815260208301516146bb81613b26565b8060208301525060408301516040820152606083015160608201526080830151608082015260a083015160a082015260c08301516146f881613b26565b60c0820152939250505056fe63a0d9df49fae3f1b9d24f8dc819a568c429a1b11d0d8e9de63df53a0194acb2a2646970667358221220a997e29f138bbc7a0ea70687c9040031d1b0d5bf28dc3510be5b65a369bd89e264736f6c63430008110033",
  "devdoc": {
    "kind": "dev",
    "methods": {
      "cleanSlippageHistory()": {
        "returns": {
          "removedCount": "Number of entries removed",
          "slippageReduced": "Amount of slippage removed from accumulator"
        }
      },
      "depositSwapParaSwapV6(bytes4,bytes,address,uint256,address,uint256)": {
        "params": {
          "data": "Encoded ParaSwap data",
          "fromAmount": "Amount of source tokens to swap",
          "fromToken": "Address of the source token",
          "minOut": "Minimum amount of destination tokens to receive",
          "selector": "Function selector for ParaSwap",
          "toToken": "Address of the destination token"
        }
      },
      "initialize(uint256)": {
        "params": {
          "_initialSlippageThreshold": "Initial slippage threshold in USD (18 decimals)"
        }
      },
      "owner()": {
        "details": "Returns the address of the current owner."
      },
      "renounceOwnership()": {
        "details": "Leaves the contract without owner. It will not be possible to call `onlyOwner` functions. Can only be called by the current owner. NOTE: Renouncing ownership will leave the contract without an owner, thereby disabling any functionality that is only available to the owner."
      },
      "setSlippageThreshold(uint256)": {
        "params": {
          "_newThreshold": "New slippage threshold in USD (18 decimals)"
        }
      }
    },
    "version": 1
  },
  "userdoc": {
    "kind": "user",
    "methods": {
      "cleanSlippageHistory()": {
        "notice": "Clean up old slippage history entries"
      },
      "depositSwapParaSwapV6(bytes4,bytes,address,uint256,address,uint256)": {
        "notice": "Deposit from one token pool to another using ParaSwap v6"
      },
      "initialize(uint256)": {
        "notice": "Initialize the contract"
      },
      "pause()": {
        "notice": "Pause the contract"
      },
      "setSlippageThreshold(uint256)": {
        "notice": "Set the slippage threshold"
      },
      "unpause()": {
        "notice": "Unpause the contract"
      }
    },
    "version": 1
  },
  "storageLayout": {
    "storage": [
      {
        "astId": 138,
        "contract": "contracts/DepositSwapArbitrum.sol:DepositSwapArbitrum",
        "label": "_initialized",
        "offset": 0,
        "slot": "0",
        "type": "t_uint8"
      },
      {
        "astId": 141,
        "contract": "contracts/DepositSwapArbitrum.sol:DepositSwapArbitrum",
        "label": "_initializing",
        "offset": 1,
        "slot": "0",
        "type": "t_bool"
      },
      {
        "astId": 314,
        "contract": "contracts/DepositSwapArbitrum.sol:DepositSwapArbitrum",
        "label": "_status",
        "offset": 0,
        "slot": "1",
        "type": "t_uint256"
      },
      {
        "astId": 383,
        "contract": "contracts/DepositSwapArbitrum.sol:DepositSwapArbitrum",
        "label": "__gap",
        "offset": 0,
        "slot": "2",
        "type": "t_array(t_uint256)49_storage"
      },
      {
        "astId": 755,
        "contract": "contracts/DepositSwapArbitrum.sol:DepositSwapArbitrum",
        "label": "__gap",
        "offset": 0,
        "slot": "51",
        "type": "t_array(t_uint256)50_storage"
      },
      {
        "astId": 10,
        "contract": "contracts/DepositSwapArbitrum.sol:DepositSwapArbitrum",
        "label": "_owner",
        "offset": 0,
        "slot": "101",
        "type": "t_address"
      },
      {
        "astId": 130,
        "contract": "contracts/DepositSwapArbitrum.sol:DepositSwapArbitrum",
        "label": "__gap",
        "offset": 0,
        "slot": "102",
        "type": "t_array(t_uint256)49_storage"
      },
      {
        "astId": 16817,
        "contract": "contracts/DepositSwapArbitrum.sol:DepositSwapArbitrum",
        "label": "slippageHistory",
        "offset": 0,
        "slot": "151",
        "type": "t_array(t_struct(SlippageInfo)16813_storage)dyn_storage"
      },
      {
        "astId": 16819,
        "contract": "contracts/DepositSwapArbitrum.sol:DepositSwapArbitrum",
        "label": "accumulatedSlippageUSD",
        "offset": 0,
        "slot": "152",
        "type": "t_uint256"
      },
      {
        "astId": 16821,
        "contract": "contracts/DepositSwapArbitrum.sol:DepositSwapArbitrum",
        "label": "slippageThresholdUSD",
        "offset": 0,
        "slot": "153",
        "type": "t_uint256"
      },
      {
        "astId": 16823,
        "contract": "contracts/DepositSwapArbitrum.sol:DepositSwapArbitrum",
        "label": "paused",
        "offset": 0,
        "slot": "154",
        "type": "t_bool"
      }
    ],
    "types": {
      "t_address": {
        "encoding": "inplace",
        "label": "address",
        "numberOfBytes": "20"
      },
      "t_array(t_struct(SlippageInfo)16813_storage)dyn_storage": {
        "base": "t_struct(SlippageInfo)16813_storage",
        "encoding": "dynamic_array",
        "label": "struct DepositSwapBase.SlippageInfo[]",
        "numberOfBytes": "32"
      },
      "t_array(t_uint256)49_storage": {
        "base": "t_uint256",
        "encoding": "inplace",
        "label": "uint256[49]",
        "numberOfBytes": "1568"
      },
      "t_array(t_uint256)50_storage": {
        "base": "t_uint256",
        "encoding": "inplace",
        "label": "uint256[50]",
        "numberOfBytes": "1600"
      },
      "t_bool": {
        "encoding": "inplace",
        "label": "bool",
        "numberOfBytes": "1"
      },
      "t_struct(SlippageInfo)16813_storage": {
        "encoding": "inplace",
        "label": "struct DepositSwapBase.SlippageInfo",
        "members": [
          {
            "astId": 16810,
            "contract": "contracts/DepositSwapArbitrum.sol:DepositSwapArbitrum",
            "label": "timestamp",
            "offset": 0,
            "slot": "0",
            "type": "t_uint256"
          },
          {
            "astId": 16812,
            "contract": "contracts/DepositSwapArbitrum.sol:DepositSwapArbitrum",
            "label": "slippageValueUSD",
            "offset": 0,
            "slot": "1",
            "type": "t_uint256"
          }
        ],
        "numberOfBytes": "64"
      },
      "t_uint256": {
        "encoding": "inplace",
        "label": "uint256",
        "numberOfBytes": "32"
      },
      "t_uint8": {
        "encoding": "inplace",
        "label": "uint8",
        "numberOfBytes": "1"
      }
    }
  }
}