{
  "address": "0xfcCf6CDf19AAD9D5cA8771370B3ba8d973fA97ee",
  "abi": [
    {
      "anonymous": false,
      "inputs": [
        {
          "components": [
            {
              "internalType": "address",
              "name": "facetAddress",
              "type": "address"
            },
            {
              "internalType": "enum IDiamondCut.FacetCutAction",
              "name": "action",
              "type": "uint8"
            },
            {
              "internalType": "bytes4[]",
              "name": "functionSelectors",
              "type": "bytes4[]"
            }
          ],
          "indexed": false,
          "internalType": "struct IDiamondCut.FacetCut[]",
          "name": "_diamondCut",
          "type": "tuple[]"
        },
        {
          "indexed": false,
          "internalType": "address",
          "name": "_init",
          "type": "address"
        },
        {
          "indexed": false,
          "internalType": "bytes",
          "name": "_calldata",
          "type": "bytes"
        }
      ],
      "name": "DiamondCut",
      "type": "event"
    },
    {
      "inputs": [
        {
          "components": [
            {
              "internalType": "address",
              "name": "facetAddress",
              "type": "address"
            },
            {
              "internalType": "enum IDiamondCut.FacetCutAction",
              "name": "action",
              "type": "uint8"
            },
            {
              "internalType": "bytes4[]",
              "name": "functionSelectors",
              "type": "bytes4[]"
            }
          ],
          "internalType": "struct IDiamondCut.FacetCut[]",
          "name": "_diamondCut",
          "type": "tuple[]"
        },
        {
          "internalType": "address",
          "name": "_init",
          "type": "address"
        },
        {
          "internalType": "bytes",
          "name": "_calldata",
          "type": "bytes"
        }
      ],
      "name": "diamondCut",
      "outputs": [],
      "stateMutability": "nonpayable",
      "type": "function"
    },
    {
      "inputs": [],
      "name": "pause",
      "outputs": [],
      "stateMutability": "nonpayable",
      "type": "function"
    },
    {
      "inputs": [],
      "name": "unpause",
      "outputs": [],
      "stateMutability": "nonpayable",
      "type": "function"
    }
  ],
  "transactionHash": "0x9ab69c6a205b28725b238451b369bed6469136b583da4a2179a40e3669cdb513",
  "args": [],
  "numDeployments": 3,
  "solcInputHash": "6bb2399e61afee0457c4e1b44d3e7cc0",
  "bytecode": "0x608060405234801561001057600080fd5b50611760806100206000396000f3fe608060405234801561001057600080fd5b50600436106100415760003560e01c80631f931c1c146100465780633f4ba83a1461005b5780638456cb5914610063575b600080fd5b610059610054366004611108565b61006b565b005b610059610153565b6100596101df565b7fc8fcad8db84d3cc18b4c41d551ea0ee66dd599cde068d998e57d5e09332c132154600080516020611671833981519152908190610100900460ff16156100f85760405162461bcd60e51b815260206004820152601c60248201527b283937ba37b1b7b62ab833b930b2329d103737ba103830bab9b2b21760211b60448201526064015b60405180910390fd5b61010061025b565b61014a61010d878961124a565b8686868080601f0160208091040260200160405190810160405280939291908181526020018383808284376000920191909152506102c092505050565b50505050505050565b61015b6104d8565b600061016561053d565b6005810154909150610100900460ff16156101cd5760405162461bcd60e51b815260206004820152602260248201527f50726f746f636f6c557067726164653a20616c726561647920756e7061757365604482015261321760f11b60648201526084016100ef565b600501805461ff001916610100179055565b6101e76104d8565b60006101f161053d565b6005810154909150610100900460ff1661024d5760405162461bcd60e51b815260206004820181905260248201527f50726f746f636f6c557067726164653a20616c7265616479207061757365642e60448201526064016100ef565b600501805461ff0019169055565b61026361054f565b600101546001600160a01b031633146102be5760405162461bcd60e51b815260206004820152602960248201526000805160206116eb83398151915260448201526830b1ba1037bbb732b960b91b60648201526084016100ef565b565b60005b835181101561048d5760008482815181106102e0576102e061138d565b602002602001015160200151905060006002811115610301576103016113a3565b816002811115610313576103136113a3565b036103615761035c85838151811061032d5761032d61138d565b60200260200101516000015186848151811061034b5761034b61138d565b602002602001015160400151610573565b61047a565b6001816002811115610375576103756113a3565b036103be5761035c85838151811061038f5761038f61138d565b6020026020010151600001518684815181106103ad576103ad61138d565b6020026020010151604001516106f6565b60028160028111156103d2576103d26113a3565b0361041b5761035c8583815181106103ec576103ec61138d565b60200260200101516000015186848151811061040a5761040a61138d565b602002602001015160400151610883565b60405162461bcd60e51b815260206004820152602e60248201527f4469616d6f6e6453746f726167654c69624375743a20496e636f72726563742060448201526d2330b1b2ba21baba20b1ba34b7b760911b60648201526084016100ef565b5080610485816113cf565b9150506102c3565b507f8faa70878671ccd212d20771b795c50af8fd3ff6cf27f4bde57e5d4de0aeb6738383836040516104c193929190611438565b60405180910390a16104d382826109a5565b505050565b6104e061054f565b546001600160a01b031633146102be5760405162461bcd60e51b815260206004820152602e60248201526000805160206116eb83398151915260448201526d30b1ba103830bab9b2a0b236b4b760911b60648201526084016100ef565b60008051602061167183398151915290565b7f8d5bb42e0ac1496a2c326edc9c00758985246e6c2bb146d6c2f4a0d509e0960a90565b60008151116105945760405162461bcd60e51b81526004016100ef90611538565b600061059e61053d565b90506001600160a01b0383166105c65760405162461bcd60e51b81526004016100ef9061158a565b6001600160a01b0383166000908152600182016020526040812054906001600160601b03821690036105fc576105fc8285610bd3565b60005b83518110156106ef57600084828151811061061c5761061c61138d565b6020908102919091018101516001600160e01b031981166000908152918690526040909120549091506001600160a01b031680156106c15760405162461bcd60e51b815260206004820152603c60248201527f4469616d6f6e6453746f726167654c69624375743a2043616e2774206164642060448201527b66756e6374696f6e207468617420616c72656164792065786973747360201b60648201526084016100ef565b6106cd8583868a610c3d565b836106d7816115dd565b945050505080806106e7906113cf565b9150506105ff565b5050505050565b60008151116107175760405162461bcd60e51b81526004016100ef90611538565b600061072161053d565b90506001600160a01b0383166107495760405162461bcd60e51b81526004016100ef9061158a565b6001600160a01b0383166000908152600182016020526040812054906001600160601b038216900361077f5761077f8285610bd3565b60005b83518110156106ef57600084828151811061079f5761079f61138d565b6020908102919091018101516001600160e01b031981166000908152918690526040909120549091506001600160a01b03908116908716810361084a5760405162461bcd60e51b815260206004820152603f60248201527f4469616d6f6e6453746f726167654c69624375743a2043616e2774207265706c60448201527f6163652066756e6374696f6e20776974682073616d652066756e6374696f6e0060648201526084016100ef565b610855858284610cdd565b6108618583868a610c3d565b8361086b816115dd565b9450505050808061087b906113cf565b915050610782565b60008151116108a45760405162461bcd60e51b81526004016100ef90611538565b60006108ae61053d565b90506001600160a01b0383161561092d5760405162461bcd60e51b815260206004820152603d60248201527f4469616d6f6e6453746f726167654c69624375743a2052656d6f76652066616360448201527f65742061646472657373206d757374206265206164647265737328302900000060648201526084016100ef565b60005b825181101561099f57600083828151811061094d5761094d61138d565b6020908102919091018101516001600160e01b031981166000908152918590526040909120549091506001600160a01b031661098a848284610cdd565b50508080610997906113cf565b915050610930565b50505050565b6001600160a01b038216610a3857805115610a345760405162461bcd60e51b815260206004820152604360248201527f4469616d6f6e6453746f726167654c69624375743a205f696e6974206973206160448201527f646472657373283029206275745f63616c6c64617461206973206e6f7420656d60648201526270747960e81b608482015260a4016100ef565b5050565b6000815111610abd5760405162461bcd60e51b8152602060048201526044602482018190527f4469616d6f6e6453746f726167654c69624375743a205f63616c6c6461746120908201527f697320656d70747920627574205f696e6974206973206e6f74206164647265736064820152637328302960e01b608482015260a4016100ef565b6001600160a01b0382163014610aef57610aef826040518060600160405280602f81526020016116bc602f9139611083565b600080836001600160a01b031683604051610b0a919061160b565b600060405180830381855af49150503d8060008114610b45576040519150601f19603f3d011682016040523d82523d6000602084013e610b4a565b606091505b50915091508161099f57805115610b75578060405162461bcd60e51b81526004016100ef9190611627565b60405162461bcd60e51b815260206004820152602d60248201527f4469616d6f6e6453746f726167654c69624375743a205f696e69742066756e6360448201526c1d1a5bdb881c995d995c9d1959609a1b60648201526084016100ef565b610bf5816040518060600160405280602b8152602001611691602b9139611083565b6002820180546001600160a01b0390921660008181526001948501602090815260408220860185905594840183559182529290200180546001600160a01b0319169091179055565b6001600160e01b0319831660008181526020868152604080832080546001600160601b03909716600160a01b026001600160a01b0397881617815594909516808352600180890183529583208054968701815583528183206008870401805460e09890981c60046007909816979097026101000a96870263ffffffff9097021990971695909517909555529290915281546001600160a01b031916179055565b6001600160a01b038216610d475760405162461bcd60e51b815260206004820152603e602482015260008051602061170b83398151915260448201527f76652066756e6374696f6e207468617420646f65736e2774206578697374000060648201526084016100ef565b306001600160a01b03831603610dab5760405162461bcd60e51b8152602060048201526035602482015260008051602061170b8339815191526044820152743b329034b6b6baba30b1363290333ab731ba34b7b760591b60648201526084016100ef565b6001600160e01b03198116600090815260208481526040808320546001600160a01b0386168452600180880190935290832054600160a01b9091046001600160601b03169291610dfa91611641565b9050808214610eec576001600160a01b03841660009081526001860160205260408120805483908110610e2f57610e2f61138d565b600091825260208083206008830401546001600160a01b038916845260018a019091526040909220805460079092166004026101000a90920460e01b925082919085908110610e8057610e8061138d565b600091825260208083206008830401805463ffffffff60079094166004026101000a938402191660e09590951c929092029390931790556001600160e01b03199290921682528690526040902080546001600160a01b0316600160a01b6001600160601b038516021790555b6001600160a01b03841660009081526001860160205260409020805480610f1557610f1561165a565b60008281526020808220600860001990940193840401805463ffffffff600460078716026101000a0219169055919092556001600160e01b031985168252869052604081208190558190036106ef576002850154600090610f7890600190611641565b6001600160a01b0386166000908152600180890160205260409091200154909150808214611027576000876002018381548110610fb757610fb761138d565b6000918252602090912001546002890180546001600160a01b039092169250829184908110610fe857610fe861138d565b600091825260208083209190910180546001600160a01b0319166001600160a01b03948516179055929091168152600189810190925260409020018190555b8660020180548061103a5761103a61165a565b60008281526020808220830160001990810180546001600160a01b03191690559092019092556001600160a01b0388168252600189810190915260408220015550505050505050565b813b818161099f5760405162461bcd60e51b81526004016100ef9190611627565b80356001600160a01b03811681146110bb57600080fd5b919050565b60008083601f8401126110d257600080fd5b5081356001600160401b038111156110e957600080fd5b60208301915083602082850101111561110157600080fd5b9250929050565b60008060008060006060868803121561112057600080fd5b85356001600160401b038082111561113757600080fd5b818801915088601f83011261114b57600080fd5b81358181111561115a57600080fd5b8960208260051b850101111561116f57600080fd5b60208301975080965050611185602089016110a4565b9450604088013591508082111561119b57600080fd5b506111a8888289016110c0565b969995985093965092949392505050565b634e487b7160e01b600052604160045260246000fd5b604051606081016001600160401b03811182821017156111f1576111f16111b9565b60405290565b604051601f8201601f191681016001600160401b038111828210171561121f5761121f6111b9565b604052919050565b60006001600160401b03821115611240576112406111b9565b5060051b60200190565b600061125d61125884611227565b6111f7565b83815260208082019190600586811b86013681111561127b57600080fd5b865b818110156113805780356001600160401b038082111561129d5760008081fd5b818a019150606082360312156112b35760008081fd5b6112bb6111cf565b6112c4836110a4565b815286830135600381106112d85760008081fd5b81880152604083810135838111156112f05760008081fd5b939093019236601f85011261130757600092508283fd5b8335925061131761125884611227565b83815292871b840188019288810190368511156113345760008081fd5b948901945b848610156113695785356001600160e01b03198116811461135a5760008081fd5b82529489019490890190611339565b91830191909152508852505094830194830161127d565b5092979650505050505050565b634e487b7160e01b600052603260045260246000fd5b634e487b7160e01b600052602160045260246000fd5b634e487b7160e01b600052601160045260246000fd5b6000600182016113e1576113e16113b9565b5060010190565b60005b838110156114035781810151838201526020016113eb565b50506000910152565b600081518084526114248160208601602086016113e8565b601f01601f19169290920160200192915050565b60006060808301818452808751808352608092508286019150828160051b8701016020808b0160005b8481101561150857898403607f19018652815180516001600160a01b031685528381015189860190600381106114a757634e487b7160e01b600052602160045260246000fd5b868601526040918201519186018a905281519081905290840190600090898701905b808310156114f35783516001600160e01b03191682529286019260019290920191908601906114c9565b50978501979550505090820190600101611461565b50506001600160a01b038a1690880152868103604088015261152a818961140c565b9a9950505050505050505050565b60208082526032908201527f4469616d6f6e6453746f726167654c69624375743a204e6f2073656c6563746f6040820152711c9cc81a5b88199858d95d081d1bc818dd5d60721b606082015260800190565b60208082526033908201527f4469616d6f6e6453746f726167654c69624375743a204164642066616365742060408201527263616e2774206265206164647265737328302960681b606082015260800190565b60006001600160601b038281166002600160601b03198101611601576116016113b9565b6001019392505050565b6000825161161d8184602087016113e8565b9190910192915050565b60208152600061163a602083018461140c565b9392505050565b81810381811115611654576116546113b9565b92915050565b634e487b7160e01b600052603160045260246000fdfec8fcad8db84d3cc18b4c41d551ea0ee66dd599cde068d998e57d5e09332c131c4469616d6f6e6453746f726167654c69624375743a204e657720666163657420686173206e6f20636f64654469616d6f6e6453746f726167654c69624375743a205f696e6974206164647265737320686173206e6f20636f64654469616d6f6e6453746f726167654c69623a204d75737420626520636f6e74724469616d6f6e6453746f726167654c69624375743a2043616e27742072656d6fa2646970667358221220fb01ebc5e686bc010bf8d0fd6381bff610c1101453236055d09ccf980be28a0064736f6c63430008110033",
  "devdoc": {
    "kind": "dev",
    "methods": {
      "diamondCut((address,uint8,bytes4[])[],address,bytes)": {
        "params": {
          "_calldata": "A function call, including function selector and arguments                  _calldata is executed with delegatecall on _init",
          "_diamondCut": "Contains the facet addresses and function selectors",
          "_init": "The address of the contract or facet to execute _calldata"
        }
      }
    },
    "version": 1
  },
  "userdoc": {
    "kind": "user",
    "methods": {
      "diamondCut((address,uint8,bytes4[])[],address,bytes)": {
        "notice": "Add/replace/remove any number of functions and optionally execute         a function with delegatecall"
      }
    },
    "version": 1
  },
  "storageLayout": {
    "storage": [],
    "types": null
  }
}