{
  "address": "0x968f944e9c43FC8AD80F6C1629F10570a46e2651",
  "abi": [
    {
      "inputs": [
        {
          "internalType": "address",
          "name": "_contractOwner",
          "type": "address"
        },
        {
          "internalType": "address",
          "name": "_diamondCutFacet",
          "type": "address"
        }
      ],
      "stateMutability": "payable",
      "type": "constructor"
    },
    {
      "anonymous": false,
      "inputs": [
        {
          "indexed": true,
          "internalType": "address",
          "name": "newOwner",
          "type": "address"
        }
      ],
      "name": "OwnershipProposalAccepted",
      "type": "event"
    },
    {
      "anonymous": false,
      "inputs": [
        {
          "indexed": true,
          "internalType": "address",
          "name": "owner",
          "type": "address"
        },
        {
          "indexed": true,
          "internalType": "address",
          "name": "proposed",
          "type": "address"
        }
      ],
      "name": "OwnershipProposalCreated",
      "type": "event"
    },
    {
      "anonymous": false,
      "inputs": [
        {
          "indexed": true,
          "internalType": "address",
          "name": "newPauseAdmin",
          "type": "address"
        }
      ],
      "name": "PauseAdminOwnershipProposalAccepted",
      "type": "event"
    },
    {
      "anonymous": false,
      "inputs": [
        {
          "indexed": true,
          "internalType": "address",
          "name": "pauseAdmin",
          "type": "address"
        },
        {
          "indexed": true,
          "internalType": "address",
          "name": "proposed",
          "type": "address"
        }
      ],
      "name": "PauseAdminOwnershipProposalCreated",
      "type": "event"
    },
    {
      "stateMutability": "payable",
      "type": "fallback"
    },
    {
      "inputs": [],
      "name": "acceptBeaconOwnership",
      "outputs": [],
      "stateMutability": "nonpayable",
      "type": "function"
    },
    {
      "inputs": [],
      "name": "acceptBeaconPauseAdminOwnership",
      "outputs": [],
      "stateMutability": "nonpayable",
      "type": "function"
    },
    {
      "inputs": [
        {
          "internalType": "bytes4",
          "name": "methodSig",
          "type": "bytes4"
        }
      ],
      "name": "canBeExecutedWhenPaused",
      "outputs": [
        {
          "internalType": "bool",
          "name": "",
          "type": "bool"
        }
      ],
      "stateMutability": "view",
      "type": "function"
    },
    {
      "inputs": [],
      "name": "getStatus",
      "outputs": [
        {
          "internalType": "bool",
          "name": "",
          "type": "bool"
        }
      ],
      "stateMutability": "view",
      "type": "function"
    },
    {
      "inputs": [
        {
          "internalType": "bytes4",
          "name": "funcSignature",
          "type": "bytes4"
        }
      ],
      "name": "implementation",
      "outputs": [
        {
          "internalType": "address",
          "name": "",
          "type": "address"
        }
      ],
      "stateMutability": "view",
      "type": "function"
    },
    {
      "inputs": [],
      "name": "implementation",
      "outputs": [
        {
          "internalType": "address",
          "name": "",
          "type": "address"
        }
      ],
      "stateMutability": "view",
      "type": "function"
    },
    {
      "inputs": [
        {
          "internalType": "address",
          "name": "_newOwner",
          "type": "address"
        }
      ],
      "name": "proposeBeaconOwnershipTransfer",
      "outputs": [],
      "stateMutability": "nonpayable",
      "type": "function"
    },
    {
      "inputs": [
        {
          "internalType": "address",
          "name": "_newPauseAdmin",
          "type": "address"
        }
      ],
      "name": "proposeBeaconPauseAdminOwnershipTransfer",
      "outputs": [],
      "stateMutability": "nonpayable",
      "type": "function"
    },
    {
      "inputs": [
        {
          "internalType": "bytes4[]",
          "name": "methodSigs",
          "type": "bytes4[]"
        },
        {
          "internalType": "bool[]",
          "name": "values",
          "type": "bool[]"
        }
      ],
      "name": "setPausedMethodExemptions",
      "outputs": [],
      "stateMutability": "nonpayable",
      "type": "function"
    }
  ],
  "transactionHash": "0x4506e97780c79036bc40c99ac079fee51bcb7877427e81f5314c884b0611822e",
  "args": [
    "0x5Ee7673Ba06a87f125d14F2C009ec2C4dE02728C",
    "0xfcCf6CDf19AAD9D5cA8771370B3ba8d973fA97ee"
  ],
  "numDeployments": 3,
  "solcInputHash": "8479f670b88cf9ecd6ae484e3f2fa0cd",
  "bytecode": "0x60806040526040516200329a3803806200329a8339810160408190526200002691620011fe565b6200003c826200023c60201b6200069e1760201c565b62000052826200033760201b620007441760201c565b604080516001808252818301909252600091816020015b6040805160608082018352600080835260208301529181019190915281526020019060019003908162000069575050604080516003808252608082019092529192506000919060208201606080368337019050509050631f931c1c60e01b81600081518110620000dd57620000dd62001236565b6001600160e01b0319909216602092830291909101909101528051638456cb5960e01b908290600190811062000117576200011762001236565b6001600160e01b0319909216602092830291909101909101528051631fa5d41d60e11b908290600290811062000151576200015162001236565b6001600160e01b031990921660209283029190910182015260408051606081019091526001600160a01b0385168152908101600081526020018281525082600081518110620001a457620001a462001236565b6020026020010181905250620001d782600060405180602001604052806000815250620003a860201b620007a01760201c565b6000620001ee6200060a60201b620009b81760201c565b6307e4c70760e21b600090815260049091016020526040808220805460ff199081166001908117909255631fa5d41d60e11b84529190922080549091169091179055506200153b9350505050565b7f8d5bb42e0ac1496a2c326edc9c00758985246e6c2bb146d6c2f4a0d509e0960b80546001600160a01b038381166001600160a01b03198316179092557f8d5bb42e0ac1496a2c326edc9c00758985246e6c2bb146d6c2f4a0d509e0960d547f8d5bb42e0ac1496a2c326edc9c00758985246e6c2bb146d6c2f4a0d509e0960a929091169060ff600160a01b90910416620002eb57620002e0620151804262001278565b6009830155620002f2565b4260098301555b826001600160a01b0316816001600160a01b03167f8be0079c531659141344cd1fd0a4f28419497f9722a3daafe3b4186f6b6457e060405160405180910390a3505050565b7f8d5bb42e0ac1496a2c326edc9c00758985246e6c2bb146d6c2f4a0d509e0960a80546001600160a01b031981166001600160a01b03848116918217845560405192169182907fa9b6c2526b044187e4744e292867fd1f6b7e6be882e40ec94d7949b26f8088b290600090a3505050565b60005b8351811015620005bb576000848281518110620003cc57620003cc62001236565b602002602001015160200151905060006002811115620003f057620003f06200124c565b8160028111156200040557620004056200124c565b0362000463576200045d85838151811062000424576200042462001236565b60200260200101516000015186848151811062000445576200044562001236565b6020026020010151604001516200062e60201b60201c565b620005a5565b60018160028111156200047a576200047a6200124c565b03620004d2576200045d85838151811062000499576200049962001236565b602002602001015160000151868481518110620004ba57620004ba62001236565b602002602001015160400151620007ca60201b60201c565b6002816002811115620004e957620004e96200124c565b0362000541576200045d85838151811062000508576200050862001236565b60200260200101516000015186848151811062000529576200052962001236565b6020026020010151604001516200097160201b60201c565b60405162461bcd60e51b815260206004820152602e60248201527f4469616d6f6e6453746f726167654c69624375743a20496e636f72726563742060448201526d2330b1b2ba21baba20b1ba34b7b760911b60648201526084015b60405180910390fd5b5080620005b28162001294565b915050620003ab565b507f8faa70878671ccd212d20771b795c50af8fd3ff6cf27f4bde57e5d4de0aeb673838383604051620005f19392919062001304565b60405180910390a162000605828262000aa3565b505050565b7fc8fcad8db84d3cc18b4c41d551ea0ee66dd599cde068d998e57d5e09332c131c90565b6000815111620006525760405162461bcd60e51b81526004016200059c906200140b565b60006200065e6200060a565b90506001600160a01b038316620006895760405162461bcd60e51b81526004016200059c906200145d565b6001600160a01b0383166000908152600182016020526040812054906001600160601b0382169003620006c257620006c2828562000ce3565b60005b8351811015620007c3576000848281518110620006e657620006e662001236565b6020908102919091018101516001600160e01b031981166000908152918690526040909120549091506001600160a01b031680156200078e5760405162461bcd60e51b815260206004820152603c60248201527f4469616d6f6e6453746f726167654c69624375743a2043616e2774206164642060448201527f66756e6374696f6e207468617420616c7265616479206578697374730000000060648201526084016200059c565b6200079c8583868a62000d50565b83620007a881620014ba565b94505050508080620007ba9062001294565b915050620006c5565b5050505050565b6000815111620007ee5760405162461bcd60e51b81526004016200059c906200140b565b6000620007fa6200060a565b90506001600160a01b038316620008255760405162461bcd60e51b81526004016200059c906200145d565b6001600160a01b0383166000908152600182016020526040812054906001600160601b03821690036200085e576200085e828562000ce3565b60005b8351811015620007c357600084828151811062000882576200088262001236565b6020908102919091018101516001600160e01b031981166000908152918690526040909120549091506001600160a01b0390811690871681036200092f5760405162461bcd60e51b815260206004820152603f60248201527f4469616d6f6e6453746f726167654c69624375743a2043616e2774207265706c60448201527f6163652066756e6374696f6e20776974682073616d652066756e6374696f6e0060648201526084016200059c565b6200093c85828462000df0565b6200094a8583868a62000d50565b836200095681620014ba565b94505050508080620009689062001294565b91505062000861565b6000815111620009955760405162461bcd60e51b81526004016200059c906200140b565b6000620009a16200060a565b90506001600160a01b0383161562000a225760405162461bcd60e51b815260206004820152603d60248201527f4469616d6f6e6453746f726167654c69624375743a2052656d6f76652066616360448201527f65742061646472657373206d757374206265206164647265737328302900000060648201526084016200059c565b60005b825181101562000a9d57600083828151811062000a465762000a4662001236565b6020908102919091018101516001600160e01b031981166000908152918590526040909120549091506001600160a01b031662000a8584828462000df0565b5050808062000a949062001294565b91505062000a25565b50505050565b6001600160a01b03821662000b395780511562000b355760405162461bcd60e51b815260206004820152604360248201527f4469616d6f6e6453746f726167654c69624375743a205f696e6974206973206160448201527f646472657373283029206275745f63616c6c64617461206973206e6f7420656d60648201526270747960e81b608482015260a4016200059c565b5050565b600081511162000bc05760405162461bcd60e51b8152602060048201526044602482018190527f4469616d6f6e6453746f726167654c69624375743a205f63616c6c6461746120908201527f697320656d70747920627574205f696e6974206973206e6f74206164647265736064820152637328302960e01b608482015260a4016200059c565b6001600160a01b038216301462000bf65762000bf6826040518060600160405280602f81526020016200324b602f9139620011bd565b600080836001600160a01b03168360405162000c139190620014eb565b600060405180830381855af49150503d806000811462000c50576040519150601f19603f3d011682016040523d82523d6000602084013e62000c55565b606091505b50915091508162000a9d5780511562000c84578060405162461bcd60e51b81526004016200059c919062001509565b60405162461bcd60e51b815260206004820152602d60248201527f4469616d6f6e6453746f726167654c69624375743a205f696e69742066756e6360448201526c1d1a5bdb881c995d995c9d1959609a1b60648201526084016200059c565b62000d08816040518060600160405280602b815260200162003220602b9139620011bd565b6002820180546001600160a01b0390921660008181526001948501602090815260408220860185905594840183559182529290200180546001600160a01b0319169091179055565b6001600160e01b0319831660008181526020868152604080832080546001600160601b03909716600160a01b026001600160a01b0397881617815594909516808352600180890183529583208054968701815583528183206008870401805460e09890981c60046007909816979097026101000a96870263ffffffff9097021990971695909517909555529290915281546001600160a01b031916179055565b6001600160a01b03821662000e5d5760405162461bcd60e51b815260206004820152603e60248201526000805160206200327a83398151915260448201527f76652066756e6374696f6e207468617420646f65736e2774206578697374000060648201526084016200059c565b306001600160a01b0383160362000ecc5760405162461bcd60e51b815260206004820152603560248201526000805160206200327a83398151915260448201527f766520696d6d757461626c652066756e6374696f6e000000000000000000000060648201526084016200059c565b6001600160e01b03198116600090815260208481526040808320546001600160a01b0386168452600180880190935290832054600160a01b9091046001600160601b0316929162000f1d9162001278565b905080821462001016576001600160a01b0384166000908152600186016020526040812080548390811062000f565762000f5662001236565b600091825260208083206008830401546001600160a01b038916845260018a019091526040909220805460079092166004026101000a90920460e01b92508291908590811062000faa5762000faa62001236565b600091825260208083206008830401805463ffffffff60079094166004026101000a938402191660e09590951c929092029390931790556001600160e01b03199290921682528690526040902080546001600160a01b0316600160a01b6001600160601b038516021790555b6001600160a01b0384166000908152600186016020526040902080548062001042576200104262001525565b60008281526020808220600860001990940193840401805463ffffffff600460078716026101000a0219169055919092556001600160e01b03198516825286905260408120819055819003620007c3576002850154600090620010a89060019062001278565b6001600160a01b03861660009081526001808901602052604090912001549091508082146200115e576000876002018381548110620010eb57620010eb62001236565b6000918252602090912001546002890180546001600160a01b0390921692508291849081106200111f576200111f62001236565b600091825260208083209190910180546001600160a01b0319166001600160a01b03948516179055929091168152600189810190925260409020018190555b8660020180548062001174576200117462001525565b60008281526020808220830160001990810180546001600160a01b03191690559092019092556001600160a01b0388168252600189810190915260408220015550505050505050565b813b818162000a9d5760405162461bcd60e51b81526004016200059c919062001509565b80516001600160a01b0381168114620011f957600080fd5b919050565b600080604083850312156200121257600080fd5b6200121d83620011e1565b91506200122d60208401620011e1565b90509250929050565b634e487b7160e01b600052603260045260246000fd5b634e487b7160e01b600052602160045260246000fd5b634e487b7160e01b600052601160045260246000fd5b818103818111156200128e576200128e62001262565b92915050565b600060018201620012a957620012a962001262565b5060010190565b60005b83811015620012cd578181015183820152602001620012b3565b50506000910152565b60008151808452620012f0816020860160208601620012b0565b601f01601f19169290920160200192915050565b60006060808301818452808751808352608092508286019150828160051b8701016020808b0160005b84811015620013d957898403607f19018652815180516001600160a01b031685528381015189860190600381106200137557634e487b7160e01b600052602160045260246000fd5b868601526040918201519186018a905281519081905290840190600090898701905b80831015620013c35783516001600160e01b031916825292860192600192909201919086019062001397565b509785019795505050908201906001016200132d565b50506001600160a01b038a16908801528681036040880152620013fd8189620012d6565b9a9950505050505050505050565b60208082526032908201527f4469616d6f6e6453746f726167654c69624375743a204e6f2073656c6563746f6040820152711c9cc81a5b88199858d95d081d1bc818dd5d60721b606082015260800190565b60208082526033908201527f4469616d6f6e6453746f726167654c69624375743a204164642066616365742060408201527f63616e2774206265206164647265737328302900000000000000000000000000606082015260800190565b60006001600160601b038281166002600160601b03198101620014e157620014e162001262565b6001019392505050565b60008251620014ff818460208701620012b0565b9190910192915050565b6020815260006200151e6020830184620012d6565b9392505050565b634e487b7160e01b600052603160045260246000fd5b611cd5806200154b6000396000f3fe6080604052600436106100765760003560e01c80630d741577146100b55780634e69d560146100f25780635c60da1b146101175780637aa071c01461012a578063886575231461014a578063b9e75c671461016a578063c83b58a01461017f578063df499fa51461019f578063edad0379146101b4575b600061008d6000356001600160e01b0319166101d4565b90503660008037600080366000845af43d6000803e8080156100ae573d6000f35b3d6000fd5b005b3480156100c157600080fd5b506100d56100d03660046116d9565b6101d4565b6040516001600160a01b0390911681526020015b60405180910390f35b3480156100fe57600080fd5b506101076102e6565b60405190151581526020016100e9565b34801561012357600080fd5b50306100d5565b34801561013657600080fd5b506100b36101453660046116fb565b610303565b34801561015657600080fd5b506100b3610165366004611807565b6103aa565b34801561017657600080fd5b506100b361050d565b34801561018b57600080fd5b506100b361019a3660046116fb565b61057c565b3480156101ab57600080fd5b506100b361061e565b3480156101c057600080fd5b506101076101cf3660046116d9565b61068d565b60008160006101e16109b8565b6005810154909150610100900460ff16610260576001600160e01b03198216600090815260048201602052604090205460ff166102605760405162461bcd60e51b8152602060048201526018602482015277283937ba37b1b7b62ab833b930b2329d103830bab9b2b21760411b60448201526064015b60405180910390fd5b600061026a6109b8565b6001600160e01b031986166000908152602082905260409020549091506001600160a01b0316806102dd5760405162461bcd60e51b815260206004820181905260248201527f4469616d6f6e643a2046756e6374696f6e20646f6573206e6f742065786973746044820152606401610257565b95945050505050565b6000806102f16109b8565b60050154610100900460ff1692915050565b61030b6109dc565b336001600160a01b038216036103685760405162461bcd60e51b815260206004820152602e6024820152600080516020611be683398151915260448201526d30b1ba103830bab9b2a0b236b4b760911b6064820152608401610257565b61037181610a43565b6040516001600160a01b0382169033907f4df3b7624b06f776b815d2fefcdc202767d1b527b1449c2657d8f6951db44ddf90600090a350565b6103b2610a72565b60006103bc6109b8565b905060005b8351811015610507578381815181106103dc576103dc6118c6565b60200260200101516001600160e01b031916633f4ba83a60e01b14801561041d5750828181518110610410576104106118c6565b6020908102919091010151155b156104905760405162461bcd60e51b815260206004820152603f60248201527f54686520756e70617573652829206d6574686f64206d7573742062652061766160448201527f696c61626c6520647572696e6720746865207061757365642073746174652e006064820152608401610257565b8281815181106104a2576104a26118c6565b60200260200101518260040160008684815181106104c2576104c26118c6565b6020908102919091018101516001600160e01b0319168252810191909152604001600020805460ff1916911515919091179055806104ff816118f2565b9150506103c1565b50505050565b33610516610ad5565b6001600160a01b03161461053c5760405162461bcd60e51b81526004016102579061190b565b6105453361069e565b61054f6000610af1565b60405133907fd3c0f3a3e3f95e42614af3ba6af04f6a6df312e675ce644bf876e1ae420e3cc690600090a2565b610584610a72565b336001600160a01b038216036105dc5760405162461bcd60e51b81526020600482015260296024820152600080516020611be683398151915260448201526830b1ba1037bbb732b960b91b6064820152608401610257565b6105e581610af1565b6040516001600160a01b0382169033907f21deb7d724608c01da3d0b07a81834ec56f01dbf1263c6c878d360adf7b5f3dd90600090a350565b33610627610b20565b6001600160a01b03161461064d5760405162461bcd60e51b81526004016102579061190b565b61065633610744565b6106606000610a43565b60405133907fe50a4f4f7511acadcc7bdb023559c8cc80d15be0d87fe6f7f6d28cceb1d3b7f890600090a2565b600061069882610b3c565b92915050565b60006106a8610b6d565b6001810180546001600160a01b038581166001600160a01b03198316179092556003830154929350169060ff600160a01b909104166106f8576106ee6201518042611954565b60098301556106ff565b4260098301555b826001600160a01b0316816001600160a01b03167f8be0079c531659141344cd1fd0a4f28419497f9722a3daafe3b4186f6b6457e060405160405180910390a3505050565b600061074e610b6d565b80546001600160a01b038481166001600160a01b031983168117845560405193945091169182907fa9b6c2526b044187e4744e292867fd1f6b7e6be882e40ec94d7949b26f8088b290600090a3505050565b60005b835181101561096d5760008482815181106107c0576107c06118c6565b6020026020010151602001519050600060028111156107e1576107e1611967565b8160028111156107f3576107f3611967565b036108415761083c85838151811061080d5761080d6118c6565b60200260200101516000015186848151811061082b5761082b6118c6565b602002602001015160400151610b91565b61095a565b600181600281111561085557610855611967565b0361089e5761083c85838151811061086f5761086f6118c6565b60200260200101516000015186848151811061088d5761088d6118c6565b602002602001015160400151610d14565b60028160028111156108b2576108b2611967565b036108fb5761083c8583815181106108cc576108cc6118c6565b6020026020010151600001518684815181106108ea576108ea6118c6565b602002602001015160400151610ea1565b60405162461bcd60e51b815260206004820152602e60248201527f4469616d6f6e6453746f726167654c69624375743a20496e636f72726563742060448201526d2330b1b2ba21baba20b1ba34b7b760911b6064820152608401610257565b5080610965816118f2565b9150506107a3565b507f8faa70878671ccd212d20771b795c50af8fd3ff6cf27f4bde57e5d4de0aeb6738383836040516109a1939291906119cd565b60405180910390a16109b38282610fbd565b505050565b7fc8fcad8db84d3cc18b4c41d551ea0ee66dd599cde068d998e57d5e09332c131c90565b6109e4610b6d565b546001600160a01b03163314610a415760405162461bcd60e51b815260206004820152602e6024820152600080516020611c6083398151915260448201526d30b1ba103830bab9b2a0b236b4b760911b6064820152608401610257565b565b6000610a4d610b6d565b60030180546001600160a01b0319166001600160a01b03939093169290921790915550565b610a7a610b6d565b600101546001600160a01b03163314610a415760405162461bcd60e51b81526020600482015260296024820152600080516020611c6083398151915260448201526830b1ba1037bbb732b960b91b6064820152608401610257565b6000610adf610b6d565b600201546001600160a01b0316919050565b6000610afb610b6d565b60020180546001600160a01b0319166001600160a01b03939093169290921790915550565b6000610b2a610b6d565b600301546001600160a01b0316919050565b600080610b476109b8565b6001600160e01b0319909316600090815260049093016020525050604090205460ff1690565b7f8d5bb42e0ac1496a2c326edc9c00758985246e6c2bb146d6c2f4a0d509e0960a90565b6000815111610bb25760405162461bcd60e51b815260040161025790611acd565b6000610bbc6109b8565b90506001600160a01b038316610be45760405162461bcd60e51b815260040161025790611b1f565b6001600160a01b0383166000908152600182016020526040812054906001600160601b0382169003610c1a57610c1a82856111eb565b60005b8351811015610d0d576000848281518110610c3a57610c3a6118c6565b6020908102919091018101516001600160e01b031981166000908152918690526040909120549091506001600160a01b03168015610cdf5760405162461bcd60e51b815260206004820152603c60248201527f4469616d6f6e6453746f726167654c69624375743a2043616e2774206164642060448201527b66756e6374696f6e207468617420616c72656164792065786973747360201b6064820152608401610257565b610ceb8583868a611255565b83610cf581611b72565b94505050508080610d05906118f2565b915050610c1d565b5050505050565b6000815111610d355760405162461bcd60e51b815260040161025790611acd565b6000610d3f6109b8565b90506001600160a01b038316610d675760405162461bcd60e51b815260040161025790611b1f565b6001600160a01b0383166000908152600182016020526040812054906001600160601b0382169003610d9d57610d9d82856111eb565b60005b8351811015610d0d576000848281518110610dbd57610dbd6118c6565b6020908102919091018101516001600160e01b031981166000908152918690526040909120549091506001600160a01b039081169087168103610e685760405162461bcd60e51b815260206004820152603f60248201527f4469616d6f6e6453746f726167654c69624375743a2043616e2774207265706c60448201527f6163652066756e6374696f6e20776974682073616d652066756e6374696f6e006064820152608401610257565b610e738582846112f5565b610e7f8583868a611255565b83610e8981611b72565b94505050508080610e99906118f2565b915050610da0565b6000815111610ec25760405162461bcd60e51b815260040161025790611acd565b6000610ecc6109b8565b90506001600160a01b03831615610f4b5760405162461bcd60e51b815260206004820152603d60248201527f4469616d6f6e6453746f726167654c69624375743a2052656d6f76652066616360448201527f65742061646472657373206d75737420626520616464726573732830290000006064820152608401610257565b60005b8251811015610507576000838281518110610f6b57610f6b6118c6565b6020908102919091018101516001600160e01b031981166000908152918590526040909120549091506001600160a01b0316610fa88482846112f5565b50508080610fb5906118f2565b915050610f4e565b6001600160a01b0382166110505780511561104c5760405162461bcd60e51b815260206004820152604360248201527f4469616d6f6e6453746f726167654c69624375743a205f696e6974206973206160448201527f646472657373283029206275745f63616c6c64617461206973206e6f7420656d60648201526270747960e81b608482015260a401610257565b5050565b60008151116110d55760405162461bcd60e51b8152602060048201526044602482018190527f4469616d6f6e6453746f726167654c69624375743a205f63616c6c6461746120908201527f697320656d70747920627574205f696e6974206973206e6f74206164647265736064820152637328302960e01b608482015260a401610257565b6001600160a01b038216301461110757611107826040518060600160405280602f8152602001611c31602f913961169b565b600080836001600160a01b0316836040516111229190611ba0565b600060405180830381855af49150503d806000811461115d576040519150601f19603f3d011682016040523d82523d6000602084013e611162565b606091505b5091509150816105075780511561118d578060405162461bcd60e51b81526004016102579190611bbc565b60405162461bcd60e51b815260206004820152602d60248201527f4469616d6f6e6453746f726167654c69624375743a205f696e69742066756e6360448201526c1d1a5bdb881c995d995c9d1959609a1b6064820152608401610257565b61120d816040518060600160405280602b8152602001611c06602b913961169b565b6002820180546001600160a01b0390921660008181526001948501602090815260408220860185905594840183559182529290200180546001600160a01b0319169091179055565b6001600160e01b0319831660008181526020868152604080832080546001600160601b03909716600160a01b026001600160a01b0397881617815594909516808352600180890183529583208054968701815583528183206008870401805460e09890981c60046007909816979097026101000a96870263ffffffff9097021990971695909517909555529290915281546001600160a01b031916179055565b6001600160a01b03821661135f5760405162461bcd60e51b815260206004820152603e6024820152600080516020611c8083398151915260448201527f76652066756e6374696f6e207468617420646f65736e277420657869737400006064820152608401610257565b306001600160a01b038316036113c35760405162461bcd60e51b81526020600482015260356024820152600080516020611c808339815191526044820152743b329034b6b6baba30b1363290333ab731ba34b7b760591b6064820152608401610257565b6001600160e01b03198116600090815260208481526040808320546001600160a01b0386168452600180880190935290832054600160a01b9091046001600160601b0316929161141291611954565b9050808214611504576001600160a01b03841660009081526001860160205260408120805483908110611447576114476118c6565b600091825260208083206008830401546001600160a01b038916845260018a019091526040909220805460079092166004026101000a90920460e01b925082919085908110611498576114986118c6565b600091825260208083206008830401805463ffffffff60079094166004026101000a938402191660e09590951c929092029390931790556001600160e01b03199290921682528690526040902080546001600160a01b0316600160a01b6001600160601b038516021790555b6001600160a01b0384166000908152600186016020526040902080548061152d5761152d611bcf565b60008281526020808220600860001990940193840401805463ffffffff600460078716026101000a0219169055919092556001600160e01b03198516825286905260408120819055819003610d0d57600285015460009061159090600190611954565b6001600160a01b038616600090815260018089016020526040909120015490915080821461163f5760008760020183815481106115cf576115cf6118c6565b6000918252602090912001546002890180546001600160a01b039092169250829184908110611600576116006118c6565b600091825260208083209190910180546001600160a01b0319166001600160a01b03948516179055929091168152600189810190925260409020018190555b8660020180548061165257611652611bcf565b60008281526020808220830160001990810180546001600160a01b03191690559092019092556001600160a01b0388168252600189810190915260408220015550505050505050565b813b81816105075760405162461bcd60e51b81526004016102579190611bbc565b80356001600160e01b0319811681146116d457600080fd5b919050565b6000602082840312156116eb57600080fd5b6116f4826116bc565b9392505050565b60006020828403121561170d57600080fd5b81356001600160a01b03811681146116f457600080fd5b634e487b7160e01b600052604160045260246000fd5b604051601f8201601f191681016001600160401b038111828210171561176257611762611724565b604052919050565b60006001600160401b0382111561178357611783611724565b5060051b60200190565b600082601f83011261179e57600080fd5b813560206117b36117ae8361176a565b61173a565b82815260059290921b840181019181810190868411156117d257600080fd5b8286015b848110156117fc57803580151581146117ef5760008081fd5b83529183019183016117d6565b509695505050505050565b6000806040838503121561181a57600080fd5b82356001600160401b038082111561183157600080fd5b818501915085601f83011261184557600080fd5b813560206118556117ae8361176a565b82815260059290921b8401810191818101908984111561187457600080fd5b948201945b838610156118995761188a866116bc565b82529482019490820190611879565b965050860135925050808211156118af57600080fd5b506118bc8582860161178d565b9150509250929050565b634e487b7160e01b600052603260045260246000fd5b634e487b7160e01b600052601160045260246000fd5b600060018201611904576119046118dc565b5060010190565b60208082526029908201527f4f6e6c7920612070726f706f73656420757365722063616e206163636570742060408201526806f776e6572736869760bc1b606082015260800190565b81810381811115610698576106986118dc565b634e487b7160e01b600052602160045260246000fd5b60005b83811015611998578181015183820152602001611980565b50506000910152565b600081518084526119b981602086016020860161197d565b601f01601f19169290920160200192915050565b60006060808301818452808751808352608092508286019150828160051b8701016020808b0160005b84811015611a9d57898403607f19018652815180516001600160a01b03168552838101518986019060038110611a3c57634e487b7160e01b600052602160045260246000fd5b868601526040918201519186018a905281519081905290840190600090898701905b80831015611a885783516001600160e01b0319168252928601926001929092019190860190611a5e565b509785019795505050908201906001016119f6565b50506001600160a01b038a16908801528681036040880152611abf81896119a1565b9a9950505050505050505050565b60208082526032908201527f4469616d6f6e6453746f726167654c69624375743a204e6f2073656c6563746f6040820152711c9cc81a5b88199858d95d081d1bc818dd5d60721b606082015260800190565b60208082526033908201527f4469616d6f6e6453746f726167654c69624375743a204164642066616365742060408201527263616e2774206265206164647265737328302960681b606082015260800190565b60006001600160601b038281166002600160601b03198101611b9657611b966118dc565b6001019392505050565b60008251611bb281846020870161197d565b9190910192915050565b6020815260006116f460208301846119a1565b634e487b7160e01b600052603160045260246000fdfe43616e27742070726f706f7365206f6e6573656c66206173206120636f6e74724469616d6f6e6453746f726167654c69624375743a204e657720666163657420686173206e6f20636f64654469616d6f6e6453746f726167654c69624375743a205f696e6974206164647265737320686173206e6f20636f64654469616d6f6e6453746f726167654c69623a204d75737420626520636f6e74724469616d6f6e6453746f726167654c69624375743a2043616e27742072656d6fa2646970667358221220f0335e4ac17dadba38489b7b515a863506d4789eddd435ba01cec713eaaa73f664736f6c634300081100334469616d6f6e6453746f726167654c69624375743a204e657720666163657420686173206e6f20636f64654469616d6f6e6453746f726167654c69624375743a205f696e6974206164647265737320686173206e6f20636f64654469616d6f6e6453746f726167654c69624375743a2043616e27742072656d6f",
  "devdoc": {
    "events": {
      "OwnershipProposalAccepted(address)": {
        "details": "emitted after accepting a ownership transfer proposal by the new owner",
        "params": {
          "newOwner": "address of the new owner*"
        }
      },
      "OwnershipProposalCreated(address,address)": {
        "details": "emitted after creating a ownership transfer proposal by the owner",
        "params": {
          "owner": "address of the current owner",
          "proposed": "address of the proposed owner*"
        }
      },
      "PauseAdminOwnershipProposalAccepted(address)": {
        "details": "emitted after accepting a pauseAdmin transfer proposal by the new pauseAdmin",
        "params": {
          "newPauseAdmin": "address of the new pauseAdmin*"
        }
      },
      "PauseAdminOwnershipProposalCreated(address,address)": {
        "details": "emitted after creating a pauseAdmin transfer proposal by the pauseAdmin",
        "params": {
          "pauseAdmin": "address of the current pauseAdmin",
          "proposed": "address of the proposed pauseAdmin*"
        }
      }
    },
    "kind": "dev",
    "methods": {},
    "title": "SmartLoanDiamondBeacon A contract that is authorised to borrow funds using delegated credit. It maintains solvency calculating the current value of assets and borrowings. In case the value of assets held drops below certain level, part of the funds may be forcibly repaid. It permits only a limited and safe token transfer.",
    "version": 1
  },
  "userdoc": {
    "kind": "user",
    "methods": {},
    "version": 1
  },
  "storageLayout": {
    "storage": [],
    "types": null
  }
}