{
  "address": "0xc6eD4f77cAFC498E07F1007e0473A0d4c553B523",
  "abi": [
    {
      "inputs": [],
      "name": "BorrowersRegistryNotConfigured",
      "type": "error"
    },
    {
      "inputs": [],
      "name": "BurnAmountExceedsAvailableForUser",
      "type": "error"
    },
    {
      "inputs": [],
      "name": "BurnAmountExceedsBalance",
      "type": "error"
    },
    {
      "inputs": [],
      "name": "CalldataMustHaveValidPayload",
      "type": "error"
    },
    {
      "inputs": [],
      "name": "CalldataOverOrUnderFlow",
      "type": "error"
    },
    {
      "inputs": [],
      "name": "DataPackageTimestampMustNotBeZero",
      "type": "error"
    },
    {
      "inputs": [],
      "name": "DataPackageTimestampsMustBeEqual",
      "type": "error"
    },
    {
      "inputs": [],
      "name": "EachSignerMustProvideTheSameValue",
      "type": "error"
    },
    {
      "inputs": [],
      "name": "EmptyCalldataPointersArr",
      "type": "error"
    },
    {
      "inputs": [],
      "name": "IncorrectUnsignedMetadataSize",
      "type": "error"
    },
    {
      "inputs": [
        {
          "internalType": "uint256",
          "name": "requested",
          "type": "uint256"
        },
        {
          "internalType": "uint256",
          "name": "allowance",
          "type": "uint256"
        }
      ],
      "name": "InsufficientAllowance",
      "type": "error"
    },
    {
      "inputs": [
        {
          "internalType": "uint256",
          "name": "amount",
          "type": "uint256"
        },
        {
          "internalType": "uint256",
          "name": "availableBalance",
          "type": "uint256"
        }
      ],
      "name": "InsufficientAvailableBalance",
      "type": "error"
    },
    {
      "inputs": [
        {
          "internalType": "uint256",
          "name": "receivedSignersCount",
          "type": "uint256"
        },
        {
          "internalType": "uint256",
          "name": "requiredSignersCount",
          "type": "uint256"
        }
      ],
      "name": "InsufficientNumberOfUniqueSigners",
      "type": "error"
    },
    {
      "inputs": [],
      "name": "InsufficientPoolFunds",
      "type": "error"
    },
    {
      "inputs": [],
      "name": "InsufficientSurplus",
      "type": "error"
    },
    {
      "inputs": [],
      "name": "InvalidCalldataPointer",
      "type": "error"
    },
    {
      "inputs": [],
      "name": "MaxPoolUtilisationBreached",
      "type": "error"
    },
    {
      "inputs": [],
      "name": "MintToAddressZero",
      "type": "error"
    },
    {
      "inputs": [
        {
          "internalType": "address",
          "name": "target",
          "type": "address"
        }
      ],
      "name": "NotAContract",
      "type": "error"
    },
    {
      "inputs": [],
      "name": "NotAuthorizedToBorrow",
      "type": "error"
    },
    {
      "inputs": [],
      "name": "PoolFrozen",
      "type": "error"
    },
    {
      "inputs": [
        {
          "internalType": "bytes",
          "name": "result",
          "type": "bytes"
        }
      ],
      "name": "ProxyCalldataFailedWithCustomError",
      "type": "error"
    },
    {
      "inputs": [
        {
          "internalType": "string",
          "name": "message",
          "type": "string"
        }
      ],
      "name": "ProxyCalldataFailedWithStringMessage",
      "type": "error"
    },
    {
      "inputs": [],
      "name": "ProxyCalldataFailedWithoutErrMsg",
      "type": "error"
    },
    {
      "inputs": [],
      "name": "RedstonePayloadMustHaveAtLeastOneDataPackage",
      "type": "error"
    },
    {
      "inputs": [],
      "name": "RepayingMoreThanWasBorrowed",
      "type": "error"
    },
    {
      "inputs": [
        {
          "internalType": "address",
          "name": "receivedSigner",
          "type": "address"
        }
      ],
      "name": "SignerNotAuthorised",
      "type": "error"
    },
    {
      "inputs": [],
      "name": "SpenderZeroAddress",
      "type": "error"
    },
    {
      "inputs": [],
      "name": "TotalSupplyCapBreached",
      "type": "error"
    },
    {
      "inputs": [
        {
          "internalType": "uint256",
          "name": "amount",
          "type": "uint256"
        },
        {
          "internalType": "uint256",
          "name": "balance",
          "type": "uint256"
        }
      ],
      "name": "TransferAmountExceedsBalance",
      "type": "error"
    },
    {
      "inputs": [],
      "name": "TransferToPoolAddress",
      "type": "error"
    },
    {
      "inputs": [],
      "name": "TransferToZeroAddress",
      "type": "error"
    },
    {
      "inputs": [],
      "name": "ZeroDepositAmount",
      "type": "error"
    },
    {
      "anonymous": false,
      "inputs": [
        {
          "indexed": true,
          "internalType": "address",
          "name": "owner",
          "type": "address"
        },
        {
          "indexed": true,
          "internalType": "address",
          "name": "spender",
          "type": "address"
        },
        {
          "indexed": false,
          "internalType": "uint256",
          "name": "value",
          "type": "uint256"
        }
      ],
      "name": "Approval",
      "type": "event"
    },
    {
      "anonymous": false,
      "inputs": [
        {
          "indexed": true,
          "internalType": "address",
          "name": "registry",
          "type": "address"
        },
        {
          "indexed": false,
          "internalType": "uint256",
          "name": "timestamp",
          "type": "uint256"
        }
      ],
      "name": "BorrowersRegistryChanged",
      "type": "event"
    },
    {
      "anonymous": false,
      "inputs": [
        {
          "indexed": true,
          "internalType": "address",
          "name": "user",
          "type": "address"
        },
        {
          "indexed": false,
          "internalType": "uint256",
          "name": "value",
          "type": "uint256"
        },
        {
          "indexed": false,
          "internalType": "uint256",
          "name": "timestamp",
          "type": "uint256"
        }
      ],
      "name": "Borrowing",
      "type": "event"
    },
    {
      "anonymous": false,
      "inputs": [
        {
          "indexed": true,
          "internalType": "address",
          "name": "user",
          "type": "address"
        },
        {
          "indexed": false,
          "internalType": "uint256",
          "name": "value",
          "type": "uint256"
        },
        {
          "indexed": false,
          "internalType": "uint256",
          "name": "timestamp",
          "type": "uint256"
        }
      ],
      "name": "Deposit",
      "type": "event"
    },
    {
      "anonymous": false,
      "inputs": [
        {
          "indexed": true,
          "internalType": "address",
          "name": "user",
          "type": "address"
        },
        {
          "indexed": false,
          "internalType": "uint256",
          "name": "amount",
          "type": "uint256"
        },
        {
          "indexed": false,
          "internalType": "uint256",
          "name": "lockTime",
          "type": "uint256"
        },
        {
          "indexed": false,
          "internalType": "uint256",
          "name": "unlockTime",
          "type": "uint256"
        }
      ],
      "name": "DepositLocked",
      "type": "event"
    },
    {
      "anonymous": false,
      "inputs": [
        {
          "indexed": true,
          "internalType": "address",
          "name": "user",
          "type": "address"
        },
        {
          "indexed": true,
          "internalType": "address",
          "name": "_of",
          "type": "address"
        },
        {
          "indexed": false,
          "internalType": "uint256",
          "name": "value",
          "type": "uint256"
        },
        {
          "indexed": false,
          "internalType": "uint256",
          "name": "timestamp",
          "type": "uint256"
        }
      ],
      "name": "DepositOnBehalfOf",
      "type": "event"
    },
    {
      "anonymous": false,
      "inputs": [
        {
          "indexed": true,
          "internalType": "address",
          "name": "user",
          "type": "address"
        },
        {
          "indexed": false,
          "internalType": "uint256",
          "name": "count",
          "type": "uint256"
        }
      ],
      "name": "ExpiredLocksRemoved",
      "type": "event"
    },
    {
      "anonymous": false,
      "inputs": [
        {
          "indexed": false,
          "internalType": "uint8",
          "name": "version",
          "type": "uint8"
        }
      ],
      "name": "Initialized",
      "type": "event"
    },
    {
      "anonymous": false,
      "inputs": [
        {
          "indexed": true,
          "internalType": "address",
          "name": "user",
          "type": "address"
        },
        {
          "indexed": false,
          "internalType": "uint256",
          "name": "value",
          "type": "uint256"
        },
        {
          "indexed": false,
          "internalType": "uint256",
          "name": "timestamp",
          "type": "uint256"
        }
      ],
      "name": "InterestCollected",
      "type": "event"
    },
    {
      "anonymous": false,
      "inputs": [
        {
          "indexed": true,
          "internalType": "address",
          "name": "from",
          "type": "address"
        },
        {
          "indexed": true,
          "internalType": "address",
          "name": "to",
          "type": "address"
        }
      ],
      "name": "OwnershipTransferRequested",
      "type": "event"
    },
    {
      "anonymous": false,
      "inputs": [
        {
          "indexed": true,
          "internalType": "address",
          "name": "previousOwner",
          "type": "address"
        },
        {
          "indexed": true,
          "internalType": "address",
          "name": "newOwner",
          "type": "address"
        }
      ],
      "name": "OwnershipTransferred",
      "type": "event"
    },
    {
      "anonymous": false,
      "inputs": [
        {
          "indexed": true,
          "internalType": "address",
          "name": "poolRewarder",
          "type": "address"
        },
        {
          "indexed": false,
          "internalType": "uint256",
          "name": "timestamp",
          "type": "uint256"
        }
      ],
      "name": "PoolRewarderChanged",
      "type": "event"
    },
    {
      "anonymous": false,
      "inputs": [
        {
          "indexed": true,
          "internalType": "address",
          "name": "calculator",
          "type": "address"
        },
        {
          "indexed": false,
          "internalType": "uint256",
          "name": "timestamp",
          "type": "uint256"
        }
      ],
      "name": "RatesCalculatorChanged",
      "type": "event"
    },
    {
      "anonymous": false,
      "inputs": [
        {
          "indexed": true,
          "internalType": "address",
          "name": "user",
          "type": "address"
        },
        {
          "indexed": false,
          "internalType": "uint256",
          "name": "value",
          "type": "uint256"
        },
        {
          "indexed": false,
          "internalType": "uint256",
          "name": "timestamp",
          "type": "uint256"
        }
      ],
      "name": "Repayment",
      "type": "event"
    },
    {
      "anonymous": false,
      "inputs": [
        {
          "indexed": true,
          "internalType": "address",
          "name": "from",
          "type": "address"
        },
        {
          "indexed": true,
          "internalType": "address",
          "name": "to",
          "type": "address"
        },
        {
          "indexed": false,
          "internalType": "uint256",
          "name": "value",
          "type": "uint256"
        }
      ],
      "name": "Transfer",
      "type": "event"
    },
    {
      "anonymous": false,
      "inputs": [
        {
          "indexed": true,
          "internalType": "address",
          "name": "user",
          "type": "address"
        },
        {
          "indexed": false,
          "internalType": "uint256",
          "name": "value",
          "type": "uint256"
        },
        {
          "indexed": false,
          "internalType": "uint256",
          "name": "timestamp",
          "type": "uint256"
        }
      ],
      "name": "Withdrawal",
      "type": "event"
    },
    {
      "anonymous": false,
      "inputs": [
        {
          "indexed": true,
          "internalType": "address",
          "name": "user",
          "type": "address"
        },
        {
          "indexed": false,
          "internalType": "uint256",
          "name": "amount",
          "type": "uint256"
        },
        {
          "indexed": false,
          "internalType": "uint256",
          "name": "timestamp",
          "type": "uint256"
        }
      ],
      "name": "WithdrawalIntentCancelled",
      "type": "event"
    },
    {
      "anonymous": false,
      "inputs": [
        {
          "indexed": true,
          "internalType": "address",
          "name": "user",
          "type": "address"
        },
        {
          "indexed": false,
          "internalType": "uint256",
          "name": "amount",
          "type": "uint256"
        },
        {
          "indexed": false,
          "internalType": "uint256",
          "name": "actionableAt",
          "type": "uint256"
        },
        {
          "indexed": false,
          "internalType": "uint256",
          "name": "expiresAt",
          "type": "uint256"
        }
      ],
      "name": "WithdrawalIntentCreated",
      "type": "event"
    },
    {
      "inputs": [],
      "name": "MAX_LOCK_TIME",
      "outputs": [
        {
          "internalType": "uint256",
          "name": "",
          "type": "uint256"
        }
      ],
      "stateMutability": "view",
      "type": "function"
    },
    {
      "inputs": [],
      "name": "acceptOwnership",
      "outputs": [],
      "stateMutability": "nonpayable",
      "type": "function"
    },
    {
      "inputs": [
        {
          "internalType": "address",
          "name": "owner",
          "type": "address"
        },
        {
          "internalType": "address",
          "name": "spender",
          "type": "address"
        }
      ],
      "name": "allowance",
      "outputs": [
        {
          "internalType": "uint256",
          "name": "",
          "type": "uint256"
        }
      ],
      "stateMutability": "view",
      "type": "function"
    },
    {
      "inputs": [
        {
          "internalType": "address",
          "name": "spender",
          "type": "address"
        },
        {
          "internalType": "uint256",
          "name": "amount",
          "type": "uint256"
        }
      ],
      "name": "approve",
      "outputs": [
        {
          "internalType": "bool",
          "name": "",
          "type": "bool"
        }
      ],
      "stateMutability": "nonpayable",
      "type": "function"
    },
    {
      "inputs": [
        {
          "internalType": "address",
          "name": "user",
          "type": "address"
        }
      ],
      "name": "balanceOf",
      "outputs": [
        {
          "internalType": "uint256",
          "name": "",
          "type": "uint256"
        }
      ],
      "stateMutability": "view",
      "type": "function"
    },
    {
      "inputs": [
        {
          "internalType": "uint256",
          "name": "_amount",
          "type": "uint256"
        }
      ],
      "name": "borrow",
      "outputs": [],
      "stateMutability": "nonpayable",
      "type": "function"
    },
    {
      "inputs": [],
      "name": "borrowIndex",
      "outputs": [
        {
          "internalType": "contract IIndex",
          "name": "",
          "type": "address"
        }
      ],
      "stateMutability": "view",
      "type": "function"
    },
    {
      "inputs": [
        {
          "internalType": "address",
          "name": "",
          "type": "address"
        }
      ],
      "name": "borrowed",
      "outputs": [
        {
          "internalType": "uint256",
          "name": "",
          "type": "uint256"
        }
      ],
      "stateMutability": "view",
      "type": "function"
    },
    {
      "inputs": [],
      "name": "borrowersRegistry",
      "outputs": [
        {
          "internalType": "contract IBorrowersRegistry",
          "name": "",
          "type": "address"
        }
      ],
      "stateMutability": "view",
      "type": "function"
    },
    {
      "inputs": [
        {
          "internalType": "uint256",
          "name": "intentIndex",
          "type": "uint256"
        }
      ],
      "name": "cancelWithdrawalIntent",
      "outputs": [],
      "stateMutability": "nonpayable",
      "type": "function"
    },
    {
      "inputs": [],
      "name": "checkRewards",
      "outputs": [
        {
          "internalType": "uint256",
          "name": "",
          "type": "uint256"
        }
      ],
      "stateMutability": "view",
      "type": "function"
    },
    {
      "inputs": [],
      "name": "cleanExpiredLocks",
      "outputs": [
        {
          "internalType": "uint256",
          "name": "count",
          "type": "uint256"
        }
      ],
      "stateMutability": "nonpayable",
      "type": "function"
    },
    {
      "inputs": [],
      "name": "clearExpiredIntents",
      "outputs": [],
      "stateMutability": "nonpayable",
      "type": "function"
    },
    {
      "inputs": [],
      "name": "containsOracleCalldata",
      "outputs": [
        {
          "internalType": "bool",
          "name": "",
          "type": "bool"
        }
      ],
      "stateMutability": "view",
      "type": "function"
    },
    {
      "inputs": [
        {
          "internalType": "uint256",
          "name": "amount",
          "type": "uint256"
        }
      ],
      "name": "createWithdrawalIntent",
      "outputs": [],
      "stateMutability": "nonpayable",
      "type": "function"
    },
    {
      "inputs": [],
      "name": "decimals",
      "outputs": [
        {
          "internalType": "uint8",
          "name": "decimals",
          "type": "uint8"
        }
      ],
      "stateMutability": "pure",
      "type": "function"
    },
    {
      "inputs": [
        {
          "internalType": "address",
          "name": "spender",
          "type": "address"
        },
        {
          "internalType": "uint256",
          "name": "subtractedValue",
          "type": "uint256"
        }
      ],
      "name": "decreaseAllowance",
      "outputs": [
        {
          "internalType": "bool",
          "name": "",
          "type": "bool"
        }
      ],
      "stateMutability": "nonpayable",
      "type": "function"
    },
    {
      "inputs": [
        {
          "internalType": "uint256",
          "name": "_amount",
          "type": "uint256"
        }
      ],
      "name": "deposit",
      "outputs": [],
      "stateMutability": "nonpayable",
      "type": "function"
    },
    {
      "inputs": [],
      "name": "depositIndex",
      "outputs": [
        {
          "internalType": "contract IIndex",
          "name": "",
          "type": "address"
        }
      ],
      "stateMutability": "view",
      "type": "function"
    },
    {
      "inputs": [
        {
          "internalType": "uint256",
          "name": "_amount",
          "type": "uint256"
        },
        {
          "internalType": "address",
          "name": "_of",
          "type": "address"
        }
      ],
      "name": "depositOnBehalf",
      "outputs": [],
      "stateMutability": "nonpayable",
      "type": "function"
    },
    {
      "inputs": [],
      "name": "extractTimestampsAndAssertAllAreEqual",
      "outputs": [
        {
          "internalType": "uint256",
          "name": "extractedTimestamp",
          "type": "uint256"
        }
      ],
      "stateMutability": "pure",
      "type": "function"
    },
    {
      "inputs": [
        {
          "internalType": "address",
          "name": "_user",
          "type": "address"
        }
      ],
      "name": "getBorrowed",
      "outputs": [
        {
          "internalType": "uint256",
          "name": "",
          "type": "uint256"
        }
      ],
      "stateMutability": "view",
      "type": "function"
    },
    {
      "inputs": [],
      "name": "getBorrowingRate",
      "outputs": [
        {
          "internalType": "uint256",
          "name": "",
          "type": "uint256"
        }
      ],
      "stateMutability": "view",
      "type": "function"
    },
    {
      "inputs": [],
      "name": "getDepositRate",
      "outputs": [
        {
          "internalType": "uint256",
          "name": "",
          "type": "uint256"
        }
      ],
      "stateMutability": "view",
      "type": "function"
    },
    {
      "inputs": [],
      "name": "getFullPoolStatus",
      "outputs": [
        {
          "internalType": "uint256[5]",
          "name": "",
          "type": "uint256[5]"
        }
      ],
      "stateMutability": "view",
      "type": "function"
    },
    {
      "inputs": [
        {
          "internalType": "address",
          "name": "account",
          "type": "address"
        }
      ],
      "name": "getFullyVestedLockedBalance",
      "outputs": [
        {
          "internalType": "uint256",
          "name": "fullyVestedBalance",
          "type": "uint256"
        }
      ],
      "stateMutability": "view",
      "type": "function"
    },
    {
      "inputs": [
        {
          "internalType": "address",
          "name": "account",
          "type": "address"
        }
      ],
      "name": "getLockedBalance",
      "outputs": [
        {
          "internalType": "uint256",
          "name": "",
          "type": "uint256"
        }
      ],
      "stateMutability": "view",
      "type": "function"
    },
    {
      "inputs": [],
      "name": "getMaxPoolUtilisationForBorrowing",
      "outputs": [
        {
          "internalType": "uint256",
          "name": "",
          "type": "uint256"
        }
      ],
      "stateMutability": "view",
      "type": "function"
    },
    {
      "inputs": [
        {
          "internalType": "address",
          "name": "account",
          "type": "address"
        },
        {
          "internalType": "uint256",
          "name": "excludedIntentAmount",
          "type": "uint256"
        }
      ],
      "name": "getNotLockedBalance",
      "outputs": [
        {
          "internalType": "uint256",
          "name": "notLockedBalance",
          "type": "uint256"
        }
      ],
      "stateMutability": "view",
      "type": "function"
    },
    {
      "inputs": [],
      "name": "getRewards",
      "outputs": [],
      "stateMutability": "nonpayable",
      "type": "function"
    },
    {
      "inputs": [
        {
          "internalType": "address",
          "name": "user",
          "type": "address"
        }
      ],
      "name": "getTotalIntentAmount",
      "outputs": [
        {
          "internalType": "uint256",
          "name": "totalIntentAmount",
          "type": "uint256"
        }
      ],
      "stateMutability": "view",
      "type": "function"
    },
    {
      "inputs": [
        {
          "internalType": "address",
          "name": "user",
          "type": "address"
        }
      ],
      "name": "getUserIntents",
      "outputs": [
        {
          "components": [
            {
              "internalType": "uint256",
              "name": "amount",
              "type": "uint256"
            },
            {
              "internalType": "uint256",
              "name": "actionableAt",
              "type": "uint256"
            },
            {
              "internalType": "uint256",
              "name": "expiresAt",
              "type": "uint256"
            },
            {
              "internalType": "bool",
              "name": "isPending",
              "type": "bool"
            },
            {
              "internalType": "bool",
              "name": "isActionable",
              "type": "bool"
            },
            {
              "internalType": "bool",
              "name": "isExpired",
              "type": "bool"
            }
          ],
          "internalType": "struct Pool.IntentInfo[]",
          "name": "",
          "type": "tuple[]"
        }
      ],
      "stateMutability": "view",
      "type": "function"
    },
    {
      "inputs": [],
      "name": "getVPrimeControllerAddress",
      "outputs": [
        {
          "internalType": "address",
          "name": "",
          "type": "address"
        }
      ],
      "stateMutability": "view",
      "type": "function"
    },
    {
      "inputs": [
        {
          "internalType": "address",
          "name": "spender",
          "type": "address"
        },
        {
          "internalType": "uint256",
          "name": "addedValue",
          "type": "uint256"
        }
      ],
      "name": "increaseAllowance",
      "outputs": [
        {
          "internalType": "bool",
          "name": "",
          "type": "bool"
        }
      ],
      "stateMutability": "nonpayable",
      "type": "function"
    },
    {
      "inputs": [
        {
          "internalType": "contract IRatesCalculator",
          "name": "ratesCalculator_",
          "type": "address"
        },
        {
          "internalType": "contract IBorrowersRegistry",
          "name": "borrowersRegistry_",
          "type": "address"
        },
        {
          "internalType": "contract IIndex",
          "name": "depositIndex_",
          "type": "address"
        },
        {
          "internalType": "contract IIndex",
          "name": "borrowIndex_",
          "type": "address"
        },
        {
          "internalType": "address payable",
          "name": "tokenAddress_",
          "type": "address"
        },
        {
          "internalType": "contract IPoolRewarder",
          "name": "poolRewarder_",
          "type": "address"
        },
        {
          "internalType": "uint256",
          "name": "_totalSupplyCap",
          "type": "uint256"
        }
      ],
      "name": "initialize",
      "outputs": [],
      "stateMutability": "nonpayable",
      "type": "function"
    },
    {
      "inputs": [
        {
          "internalType": "address",
          "name": "account",
          "type": "address"
        },
        {
          "internalType": "uint256",
          "name": "amount",
          "type": "uint256"
        },
        {
          "internalType": "uint256",
          "name": "excludedIntentAmount",
          "type": "uint256"
        }
      ],
      "name": "isWithdrawalAmountAvailable",
      "outputs": [
        {
          "internalType": "bool",
          "name": "",
          "type": "bool"
        }
      ],
      "stateMutability": "view",
      "type": "function"
    },
    {
      "inputs": [
        {
          "internalType": "uint256",
          "name": "amount",
          "type": "uint256"
        },
        {
          "internalType": "uint256",
          "name": "lockTime",
          "type": "uint256"
        }
      ],
      "name": "lockDeposit",
      "outputs": [],
      "stateMutability": "nonpayable",
      "type": "function"
    },
    {
      "inputs": [
        {
          "internalType": "address",
          "name": "",
          "type": "address"
        },
        {
          "internalType": "uint256",
          "name": "",
          "type": "uint256"
        }
      ],
      "name": "locks",
      "outputs": [
        {
          "internalType": "uint256",
          "name": "lockTime",
          "type": "uint256"
        },
        {
          "internalType": "uint256",
          "name": "amount",
          "type": "uint256"
        },
        {
          "internalType": "uint256",
          "name": "unlockTime",
          "type": "uint256"
        }
      ],
      "stateMutability": "view",
      "type": "function"
    },
    {
      "inputs": [],
      "name": "name",
      "outputs": [
        {
          "internalType": "string",
          "name": "_name",
          "type": "string"
        }
      ],
      "stateMutability": "pure",
      "type": "function"
    },
    {
      "inputs": [],
      "name": "owner",
      "outputs": [
        {
          "internalType": "address",
          "name": "",
          "type": "address"
        }
      ],
      "stateMutability": "view",
      "type": "function"
    },
    {
      "inputs": [],
      "name": "pendingOwner",
      "outputs": [
        {
          "internalType": "address",
          "name": "",
          "type": "address"
        }
      ],
      "stateMutability": "view",
      "type": "function"
    },
    {
      "inputs": [],
      "name": "poolRewarder",
      "outputs": [
        {
          "internalType": "contract IPoolRewarder",
          "name": "",
          "type": "address"
        }
      ],
      "stateMutability": "view",
      "type": "function"
    },
    {
      "inputs": [],
      "name": "ratesCalculator",
      "outputs": [
        {
          "internalType": "contract IRatesCalculator",
          "name": "",
          "type": "address"
        }
      ],
      "stateMutability": "view",
      "type": "function"
    },
    {
      "inputs": [
        {
          "internalType": "uint256",
          "name": "amount",
          "type": "uint256"
        },
        {
          "internalType": "address",
          "name": "account",
          "type": "address"
        }
      ],
      "name": "recoverSurplus",
      "outputs": [],
      "stateMutability": "nonpayable",
      "type": "function"
    },
    {
      "inputs": [],
      "name": "renounceOwnership",
      "outputs": [],
      "stateMutability": "nonpayable",
      "type": "function"
    },
    {
      "inputs": [
        {
          "internalType": "uint256",
          "name": "amount",
          "type": "uint256"
        }
      ],
      "name": "repay",
      "outputs": [],
      "stateMutability": "nonpayable",
      "type": "function"
    },
    {
      "inputs": [
        {
          "internalType": "contract IBorrowersRegistry",
          "name": "borrowersRegistry_",
          "type": "address"
        }
      ],
      "name": "setBorrowersRegistry",
      "outputs": [],
      "stateMutability": "nonpayable",
      "type": "function"
    },
    {
      "inputs": [
        {
          "internalType": "contract IPoolRewarder",
          "name": "_poolRewarder",
          "type": "address"
        }
      ],
      "name": "setPoolRewarder",
      "outputs": [],
      "stateMutability": "nonpayable",
      "type": "function"
    },
    {
      "inputs": [
        {
          "internalType": "contract IRatesCalculator",
          "name": "ratesCalculator_",
          "type": "address"
        }
      ],
      "name": "setRatesCalculator",
      "outputs": [],
      "stateMutability": "nonpayable",
      "type": "function"
    },
    {
      "inputs": [
        {
          "internalType": "contract ITokenManager",
          "name": "_tokenManager",
          "type": "address"
        }
      ],
      "name": "setTokenManager",
      "outputs": [],
      "stateMutability": "nonpayable",
      "type": "function"
    },
    {
      "inputs": [
        {
          "internalType": "uint256",
          "name": "_newTotalSupplyCap",
          "type": "uint256"
        }
      ],
      "name": "setTotalSupplyCap",
      "outputs": [],
      "stateMutability": "nonpayable",
      "type": "function"
    },
    {
      "inputs": [],
      "name": "symbol",
      "outputs": [
        {
          "internalType": "string",
          "name": "_symbol",
          "type": "string"
        }
      ],
      "stateMutability": "pure",
      "type": "function"
    },
    {
      "inputs": [],
      "name": "tokenAddress",
      "outputs": [
        {
          "internalType": "address payable",
          "name": "",
          "type": "address"
        }
      ],
      "stateMutability": "view",
      "type": "function"
    },
    {
      "inputs": [],
      "name": "tokenManager",
      "outputs": [
        {
          "internalType": "contract ITokenManager",
          "name": "",
          "type": "address"
        }
      ],
      "stateMutability": "view",
      "type": "function"
    },
    {
      "inputs": [],
      "name": "totalBorrowed",
      "outputs": [
        {
          "internalType": "uint256",
          "name": "",
          "type": "uint256"
        }
      ],
      "stateMutability": "view",
      "type": "function"
    },
    {
      "inputs": [],
      "name": "totalSupply",
      "outputs": [
        {
          "internalType": "uint256",
          "name": "",
          "type": "uint256"
        }
      ],
      "stateMutability": "view",
      "type": "function"
    },
    {
      "inputs": [],
      "name": "totalSupplyCap",
      "outputs": [
        {
          "internalType": "uint256",
          "name": "",
          "type": "uint256"
        }
      ],
      "stateMutability": "view",
      "type": "function"
    },
    {
      "inputs": [
        {
          "internalType": "address",
          "name": "recipient",
          "type": "address"
        },
        {
          "internalType": "uint256",
          "name": "amount",
          "type": "uint256"
        }
      ],
      "name": "transfer",
      "outputs": [
        {
          "internalType": "bool",
          "name": "",
          "type": "bool"
        }
      ],
      "stateMutability": "nonpayable",
      "type": "function"
    },
    {
      "inputs": [
        {
          "internalType": "address",
          "name": "sender",
          "type": "address"
        },
        {
          "internalType": "address",
          "name": "recipient",
          "type": "address"
        },
        {
          "internalType": "uint256",
          "name": "amount",
          "type": "uint256"
        }
      ],
      "name": "transferFrom",
      "outputs": [
        {
          "internalType": "bool",
          "name": "",
          "type": "bool"
        }
      ],
      "stateMutability": "nonpayable",
      "type": "function"
    },
    {
      "inputs": [
        {
          "internalType": "address",
          "name": "newOwner",
          "type": "address"
        }
      ],
      "name": "transferOwnership",
      "outputs": [],
      "stateMutability": "nonpayable",
      "type": "function"
    },
    {
      "inputs": [],
      "name": "vestingDistributor",
      "outputs": [
        {
          "internalType": "contract VestingDistributor",
          "name": "",
          "type": "address"
        }
      ],
      "stateMutability": "view",
      "type": "function"
    },
    {
      "inputs": [
        {
          "internalType": "uint256",
          "name": "_amount",
          "type": "uint256"
        },
        {
          "internalType": "uint256[]",
          "name": "intentIndices",
          "type": "uint256[]"
        }
      ],
      "name": "withdraw",
      "outputs": [],
      "stateMutability": "nonpayable",
      "type": "function"
    },
    {
      "inputs": [
        {
          "internalType": "uint256",
          "name": "_amount",
          "type": "uint256"
        }
      ],
      "name": "withdrawInstant",
      "outputs": [],
      "stateMutability": "nonpayable",
      "type": "function"
    },
    {
      "inputs": [
        {
          "internalType": "address",
          "name": "",
          "type": "address"
        },
        {
          "internalType": "uint256",
          "name": "",
          "type": "uint256"
        }
      ],
      "name": "withdrawalIntents",
      "outputs": [
        {
          "internalType": "uint256",
          "name": "amount",
          "type": "uint256"
        },
        {
          "internalType": "uint256",
          "name": "actionableAt",
          "type": "uint256"
        },
        {
          "internalType": "uint256",
          "name": "expiresAt",
          "type": "uint256"
        }
      ],
      "stateMutability": "view",
      "type": "function"
    }
  ],
  "transactionHash": "0x42d9328cc30f10e8e1514b81d01acc3e9f47e497e8b3852ba244d1b56136f4cc",
  "args": [],
  "numDeployments": 10,
  "solcInputHash": "89c4d7a65e485eec66626bf3e59c70c9",
  "bytecode": "0x608060405234801561001057600080fd5b506148aa806100206000396000f3fe608060405234801561001057600080fd5b50600436106102f05760003560e01c8063715018a61161018f578063715018a6146102fd578063726cd4151461057457806379ba50971461057c5780637b898939146105845780637cb2b79c1461059757806389e8adb4146105aa5780638da5cb5b146105bd57806395d89b41146105c55780639d76ea58146105e7578063a457c2d7146105fa578063a9059cbb1461060d578063aa5af0fd14610620578063b425f80214610633578063b6b55f2514610646578063b75c42bd14610659578063b790634e1461066e578063bb102aea14610676578063c40868931461067f578063c4ce635814610692578063c5ebeaec146106a5578063d06dca89146106b8578063dd62ed3e146106cb578063e2b9442e14610704578063e30c397814610717578063e84d13c81461071f578063ee61bd6e14610732578063ef5fd2d114610745578063f2fde38b1461074d578063f36b242514610760578063fa3209b214610768578063fa78668f14610788578063fc68f6611461079357600080fd5b80630572b0cc146102f557806306fdde03146102ff5780630790ef9a1461033e57806307bbebdd146103515780630941cb3d14610371578063095ea7b31461039f5780630d1870df146103c25780631457db34146103ca5780631460e390146103dd57806318160ddd146103f057806323b872dd146103f857806326935e391461040b5780632742f2531461041e5780632a709b14146104405780632aeaa29114610453578063313ce5671461045b57806331d05b111461046a578063371fd8e61461047d57806337b764fe146104905780633866ecf7146104a357806339509351146104b65780634c19386c146104c95780635107b5a0146104d157806355a547d5146104d9578063562b1168146104e15780635915d806146104f45780636011163e1461050757806361215aa81461051a5780636ca6d5d0146105285780636cf55ea21461053b57806370a082311461054e57806370d4cea014610561575b600080fd5b6102fd6107a6565b005b6040805180820190915260118152702232b63a30a83934b6b2aaa9a221b7b4b760791b60208201525b6040516103359190614249565b60405180910390f35b6102fd61034c366004614271565b61080a565b60a154610364906001600160a01b031681565b60405161033591906142a1565b61039161037f3660046142b5565b609a6020526000908152604090205481565b604051908152602001610335565b6103b26103ad3660046142d2565b610912565b6040519015158152602001610335565b6103b261098e565b6102fd6103d83660046142b5565b6109a2565b6102fd6103eb3660046142fe565b610a51565b610391610cfd565b6103b261040636600461438b565b610d0d565b6102fd6104193660046143cc565b611009565b61043161042c3660046142d2565b611243565b604051610335939291906143e5565b60a354610364906001600160a01b031681565b610391611285565b60405160068152602001610335565b6102fd6104783660046143cc565b6112f5565b6102fd61048b3660046143cc565b611302565b6102fd61049e3660046143cc565b6113eb565b6103b26104b13660046143fb565b61155c565b6103b26104c43660046142d2565b611575565b610391611622565b61039161162d565b6103916117a8565b6102fd6104ef3660046143cc565b6118c0565b6102fd610502366004614430565b611a18565b6103916105153660046142b5565b611d34565b670cd64299613c8000610391565b609d54610364906001600160a01b031681565b6102fd610549366004614271565b611dbb565b61039161055c3660046142b5565b61205b565b6102fd61056f3660046142b5565b6120a1565b61036461214f565b6102fd6121e0565b609e54610364906001600160a01b031681565b6102fd6105a53660046142b5565b61226f565b6103916105b83660046142d2565b612299565b610364612311565b60408051808201909152600681526544505553444360d01b6020820152610328565b60a054610364906001600160a01b031681565b6103b26106083660046142d2565b612320565b6103b261061b3660046142d2565b6123f4565b609f54610364906001600160a01b031681565b6104316106413660046142d2565b61261f565b6102fd6106543660046143cc565b61263b565b610661612645565b60405161033591906144ae565b61039161269c565b61039160975481565b61039161068d3660046142b5565b6126dd565b6103916106a03660046142b5565b6127aa565b6102fd6106b33660046143cc565b6128ca565b609c54610364906001600160a01b031681565b6103916106d93660046144df565b6001600160a01b03918216600090815260986020908152604080832093909416825291909152205490565b6102fd61071236600461450d565b612b47565b610364612cb3565b61039161072d3660046142b5565b612cbd565b609b54610364906001600160a01b031681565b6102fd612d55565b6102fd61075b3660046142b5565b612d5e565b610391612e25565b61077b6107763660046142b5565b612e41565b604051610335919061452f565b6103916305a39a8081565b6102fd6107a13660046142b5565b612fa4565b609d546040516311305c1f60e11b81526001600160a01b0390911690632260b83e906107d69033906004016142a1565b600060405180830381600087803b1580156107f057600080fd5b505af1158015610804573d6000803e3d6000fd5b50505050565b610812613022565b61081a613081565b60a0546040516370a0823160e01b81526000916001600160a01b0316906370a082319061084b9030906004016142a1565b602060405180830381865afa158015610868573d6000803e3d6000fd5b505050506040513d601f19601f8201168201806040525081019061088c91906145ad565b90506000610898610cfd565b6108a0611622565b6108aa90846145dc565b6108b491906145ef565b9050818411156108d7576040516316d5c93f60e21b815260040160405180910390fd5b838110156108f8576040516394290ab960e01b815260040160405180910390fd5b61090283856130da565b505061090e6001606555565b5050565b60006001600160a01b03831661093b57604051633d6601c760e11b815260040160405180910390fd5b3360008181526098602090815260408083206001600160a01b0388168085529083529281902086905551858152919291600080516020614835833981519152910160405180910390a35060015b92915050565b6602ed57011e0000601f1936013581161490565b6109aa613022565b6109b3816130f8565b1580156109c857506001600160a01b03811615155b156109fc57609d546040516322a2d07b60e21b81526109f3916001600160a01b0316906004016142a1565b60405180910390fd5b609d80546001600160a01b0319166001600160a01b0383169081179091556040514281527f85796821ee1d670b0fdb986f256b5c1a29b9019038831c7f09df2061879cf9e5906020015b60405180910390a250565b600054610100900460ff1615808015610a715750600054600160ff909116105b80610a925750610a80306130f8565b158015610a92575060005460ff166001145b610af55760405162461bcd60e51b815260206004820152602e60248201527f496e697469616c697a61626c653a20636f6e747261637420697320616c72656160448201526d191e481a5b9a5d1a585b1a5e995960921b60648201526084016109f3565b6000805460ff191660011790558015610b18576000805461ff0019166101001790555b610b21886130f8565b8015610b315750610b31876130f8565b8015610b415750610b41866130f8565b8015610b515750610b51856130f8565b8015610b735750610b61836130f8565b80610b7357506001600160a01b038316155b610bb65760405162461bcd60e51b815260206004820152601460248201527357726f6e6720696e697420617267756d656e747360601b60448201526064016109f3565b609c80546001600160a01b03199081166001600160a01b038a811691909117909255609b805482168b8416179055609e80548216898416179055609f80548216888416179055609d8054821686841617905560a08054909116918616918217905560978390556040805163313ce56760e01b8152905163313ce567916004818101926020929091908290030181865afa158015610c57573d6000803e3d6000fd5b505050506040513d601f19601f82011682018060405250810190610c7b9190614602565b60a160146101000a81548160ff021916908360ff160217905550610c9d613107565b610ca5613136565b610cad613165565b8015610cf3576000805461ff0019169055604051600181527f7f26b83ff96e1f2b6a682f133852f6798a09c465da95921460cefb38474024989060200160405180910390a15b5050505050505050565b6000610d083061205b565b905090565b6000610d17613081565b6001600160a01b0384166000908152609860209081526040808320338452909152902054821115610d82576001600160a01b03841660009081526098602090815260408083203384529091529081902054905163054365bb60e31b81526109f3918491600401614625565b6001600160a01b038316610da957604051633a954ecd60e21b815260040160405180910390fd5b306001600160a01b03841603610dd25760405163ed728e5760e01b815260040160405180910390fd5b610dde8483600061155c565b610e095781610dee856000612299565b60405163adb9e04360e01b81526004016109f3929190614625565b610e1284613348565b6001600160a01b03841660009081526099602052604081208054849290610e3a9084906145ef565b90915550506001600160a01b038416600090815260986020908152604080832033845290915281208054849290610e729084906145ef565b90915550610e81905083613348565b6001600160a01b03831660009081526099602052604081208054849290610ea99084906145dc565b9091555050609d546001600160a01b031615801590610ec757508115155b15610fb157609d54604051630d5dbdb360e21b81526000916001600160a01b031690633576f6cc90610eff9086908990600401614633565b6020604051808303816000875af1158015610f1e573d6000803e3d6000fd5b505050506040513d601f19601f82011682018060405250810190610f4291906145ad565b90508015610faf57609d546040516328ba35d960e11b81526001600160a01b03909116906351746bb290610f7c9084908890600401614633565b600060405180830381600087803b158015610f9657600080fd5b505af1158015610faa573d6000803e3d6000fd5b505050505b505b826001600160a01b0316846001600160a01b031660008051602061481583398151915284604051610fe491815260200190565b60405180910390a3610ff584613473565b5060016110026001606555565b9392505050565b611011613081565b7370deaa9c41cd696d22a075fd6994f498b56ac55b33811461103257600080fd5b61103b33613348565b3360009081526099602052604090205461105690839061350d565b91506110643383600061155c565b6110805760405162461bcd60e51b81526004016109f39061464a565b60a0546040516370a0823160e01b81526001600160a01b03909116906370a08231906110b09030906004016142a1565b602060405180830381865afa1580156110cd573d6000803e3d6000fd5b505050506040513d601f19601f820116820180604052508101906110f191906145ad565b821115611111576040516316d5c93f60e21b815260040160405180910390fd5b3060009081526099602052604090205482111561114157604051630bba337f60e11b815260040160405180910390fd5b306000908152609960205260409020805483900390556111613383613523565b611169613165565b61117233613473565b61117c33836130da565b609d546001600160a01b03161561120457609d54604051630d5dbdb360e21b81526001600160a01b0390911690633576f6cc906111bf9085903390600401614633565b6020604051808303816000875af11580156111de573d6000803e3d6000fd5b505050506040513d601f19601f8201168201806040525081019061120291906145ad565b505b336001600160a01b0316600080516020614855833981519152834260405161122d929190614625565b60405180910390a2506112406001606555565b50565b60a4602052816000526040600020818154811061125f57600080fd5b600091825260209091206003909102018054600182015460029092015490935090915083565b609d546040516246613160e11b81526000916001600160a01b031690628cc262906112b49033906004016142a1565b602060405180830381865afa1580156112d1573d6000803e3d6000fd5b505050506040513d601f19601f82011682018060405250810190610d0891906145ad565b6112fd613022565b609755565b61130a613081565b611313336135a3565b336000908152609a602052604090205481111561134357604051630dcad43360e11b815260040160405180910390fd5b61134d33826136a9565b336000908152609a60205260408120805483929061136c9084906145ef565b9091555050306000908152609a6020526040812080548392906113909084906145ef565b9091555061139e9050613165565b336001600160a01b03167f24fcca58a997b1b2eff6db8107e860458544c09ddd3693b3b779e1df6c0d6c5d82426040516113d9929190614625565b60405180910390a26112406001606555565b6113f3613081565b33600090815260a460205260409020805482106114225760405162461bcd60e51b81526004016109f390614675565b6000818381548110611436576114366146a3565b60009182526020808320604080516060810182526003909402909101805484526001808201549385019390935260020154908301528454919350611479916145ef565b90508084146114dd57828181548110611494576114946146a3565b90600052602060002090600302018385815481106114b4576114b46146a3565b600091825260209091208254600390920201908155600180830154908201556002918201549101555b828054806114ed576114ed6146b9565b60008281526020812060036000199093019283020181815560018101829055600201559055815160405133917fd33d8fdc6783acd0812c254bbb11863beb43e98ae9bb139867d674bb2a32336e9161154791904290614625565b60405180910390a25050506112406001606555565b6000806115698584612299565b90931115949350505050565b60006001600160a01b03831661159e57604051633d6601c760e11b815260040160405180910390fd5b3360009081526098602090815260408083206001600160a01b03871684529091528120546115cd9084906145dc565b3360008181526098602090815260408083206001600160a01b038a1680855290835292819020859055518481529394509092600080516020614835833981519152910160405180910390a35060019392505050565b6000610d0830611d34565b33600090815260a26020526040812081805b8254811015611707574283828154811061165b5761165b6146a3565b90600052602060002090600302016002015411156116e7578181146116d55782818154811061168c5761168c6146a3565b90600052602060002090600302018383815481106116ac576116ac6146a3565b600091825260209091208254600390920201908155600180830154908201556002918201549101555b816116df816146cf565b9250506116f5565b836116f1816146cf565b9450505b806116ff816146cf565b91505061163f565b5081546000906117189083906145ef565b905060005b8181101561176c5783805480611735576117356146b9565b6000828152602081206003600019909301928302018181556001810182905560020155905580611764816146cf565b91505061171d565b5060405184815233907fe90005560cd386bf9d168cec08a675ec21753c51f9b52ead8f5c995ea5412f1b9060200160405180910390a250505090565b6000806117b36136c1565b905060006117c082613768565b61ffff169050806000036117e757604051632154bfcf60e21b815260040160405180910390fd5b6117f26002836145dc565b915060005b818110156118ba57600061180a846137a2565b905060008061181a6068876145dc565b9050600061182882366145ef565b9050803592508265ffffffffffff1660000361185757604051630336dc9d60e41b815260040160405180910390fd5b8760000361186f578265ffffffffffff169750611897565b878365ffffffffffff16146118975760405163d9d1f46560e01b815260040160405180910390fd5b6118a184886145dc565b96505050505080806118b2906146cf565b9150506117f7565b50505090565b6118c8613081565b600081116119185760405162461bcd60e51b815260206004820181905260248201527f416d6f756e74206d7573742062652067726561746572207468616e207a65726f60448201526064016109f3565b611921336137de565b600061192e336000612299565b90508082111561195557818160405163adb9e04360e01b81526004016109f3929190614625565b600061196442620151806145dc565b90506000611975826202a3006145dc565b60408051606081018252868152602080820186815282840185815233600081815260a48552868120805460018181018355918352959091208651600390960201948555925192840192909255516002909201919091559151929350917ff7e664c0da2f587b77873cf0f2c343841d19557b27f07a4fadf367fcabb15e6790611a02908890879087906143e5565b60405180910390a2505050506112406001606555565b611a20613081565b33600090815260a46020526040812090611a3c828585886138ee565b9050611a4933828361155c565b611a655760405162461bcd60e51b81526004016109f39061464a565b825b8015611b555760008585611a7c6001856145ef565b818110611a8b57611a8b6146a3565b905060200201359050600060018580549050611aa791906145ef565b9050808214611b0b57848181548110611ac257611ac26146a3565b9060005260206000209060030201858381548110611ae257611ae26146a3565b600091825260209091208254600390920201908155600180830154908201556002918201549101555b84805480611b1b57611b1b6146b9565b6000828152602081206003600019909301928302018181556001810182905560020155905550819050611b4d816146e8565b915050611a67565b50611b5f33613348565b60a0546040516370a0823160e01b81526001600160a01b03909116906370a0823190611b8f9030906004016142a1565b602060405180830381865afa158015611bac573d6000803e3d6000fd5b505050506040513d601f19601f82011682018060405250810190611bd091906145ad565b811115611bf0576040516316d5c93f60e21b815260040160405180910390fd5b30600090815260996020526040902054811115611c2057604051630bba337f60e11b815260040160405180910390fd5b3060009081526099602052604081208054839290611c3f9084906145ef565b90915550611c4f90503382613523565b611c57613165565b611c6033613473565b609d546001600160a01b031615611ce857609d54604051630d5dbdb360e21b81526001600160a01b0390911690633576f6cc90611ca39084903390600401614633565b6020604051808303816000875af1158015611cc2573d6000803e3d6000fd5b505050506040513d601f19601f82011682018060405250810190611ce691906145ad565b505b611cf233826130da565b336001600160a01b03166000805160206148558339815191528242604051611d1b929190614625565b60405180910390a25050611d2f6001606555565b505050565b609f546001600160a01b038281166000908152609a602052604080822054905163966da88960e01b81529193929092169163966da88991611d7a91908690600401614633565b602060405180830381865afa158015611d97573d6000803e3d6000fd5b505050506040513d601f19601f8201168201806040525081019061098891906145ad565b611dc3613081565b81600003611de45760405163078e1d8560e01b815260040160405180910390fd5b6001600160a01b038116611e295760405162461bcd60e51b815260206004820152600c60248201526b41646472657373207a65726f60a01b60448201526064016109f3565b306001600160a01b03821603611e815760405162461bcd60e51b815260206004820181905260248201527f43616e6e6f74206465706f736974206f6e20626568616c66206f6620706f6f6c60448201526064016109f3565b60a0546040516370a0823160e01b8152611efd9184916001600160a01b03909116906370a0823190611eb79033906004016142a1565b602060405180830381865afa158015611ed4573d6000803e3d6000fd5b505050506040513d601f19601f82011682018060405250810190611ef891906145ad565b61350d565b9150611f0881613348565b60975415611f4d5760975430600090815260996020526040902054611f2e9084906145dc565b1115611f4d57604051633f27d61760e01b815260040160405180910390fd5b611f5733836136a9565b611f618183613bd0565b3060009081526099602052604081208054849290611f809084906145dc565b90915550611f8e9050613165565b609d546001600160a01b03161561200457609d546040516328ba35d960e11b81526001600160a01b03909116906351746bb290611fd19085908590600401614633565b600060405180830381600087803b158015611feb57600080fd5b505af1158015611fff573d6000803e3d6000fd5b505050505b806001600160a01b0316336001600160a01b03167fef0ada5ca19bede6a40b575865a6ce451938d26835b7215e6a5e03bb2c4392128442604051612049929190614625565b60405180910390a361090e6001606555565b609e546001600160a01b0382811660009081526099602052604080822054905163966da88960e01b81529193929092169163966da88991611d7a91908690600401614633565b6120a9613022565b6120b2816130f8565b1580156120c757506001600160a01b03811615155b156120e757806040516322a2d07b60e21b81526004016109f391906142a1565b609b80546001600160a01b0319166001600160a01b0383169081179091551561211257612112613165565b806001600160a01b03167fef1b7e9216e08b283cc613824ccb26ea505227777839a4f3c6810d64594e018242604051610a4691815260200190565b565b60a3546000906001600160a01b0316156121da5760a360009054906101000a90046001600160a01b03166001600160a01b031663726cd4156040518163ffffffff1660e01b8152600401602060405180830381865afa1580156121b6573d6000803e3d6000fd5b505050506040513d601f19601f82011682018060405250810190610d0891906146ff565b50600090565b60006121ea613c50565b9050336001600160a01b0382161461225c5760405162461bcd60e51b815260206004820152602f60248201527f50656e64696e674f776e61626c653a2063616c6c6572206973206e6f7420746860448201526e32903832b73234b7339037bbb732b960891b60648201526084016109f3565b61226581613c63565b6112406000613cb5565b612277613022565b60a380546001600160a01b0319166001600160a01b0392909216919091179055565b6000806122a5846126dd565b905060006122b285612cbd565b90508381116122c25760006122cc565b6122cc84826145ef565b905060006122d98661205b565b905060006122e783856145dc565b9050808210156122fa5760009450612307565b61230481836145ef565b94505b5050505092915050565b6033546001600160a01b031690565b60006001600160a01b03831661234957604051633d6601c760e11b815260040160405180910390fd5b3360009081526098602090815260408083206001600160a01b03871684529091529020548281101561239257828160405163054365bb60e31b81526004016109f3929190614625565b600061239e84836145ef565b3360008181526098602090815260408083206001600160a01b038b1680855290835292819020859055518481529394509092600080516020614835833981519152910160405180910390a3506001949350505050565b60006123fe613081565b6001600160a01b03831661242557604051633a954ecd60e21b815260040160405180910390fd5b306001600160a01b0384160361244e5760405163ed728e5760e01b815260040160405180910390fd5b61245a3383600061155c565b61246a5781610dee336000612299565b3361247481613348565b6001600160a01b03811660009081526099602052604090208054849003905561249c84613348565b6001600160a01b038416600090815260996020526040812080548592906124c49084906145dc565b9091555050609d546001600160a01b0316158015906124e257508215155b156125cc57609d54604051630d5dbdb360e21b81526000916001600160a01b031690633576f6cc9061251a9087908690600401614633565b6020604051808303816000875af1158015612539573d6000803e3d6000fd5b505050506040513d601f19601f8201168201806040525081019061255d91906145ad565b905080156125ca57609d546040516328ba35d960e11b81526001600160a01b03909116906351746bb2906125979084908990600401614633565b600060405180830381600087803b1580156125b157600080fd5b505af11580156125c5573d6000803e3d6000fd5b505050505b505b836001600160a01b0316816001600160a01b0316600080516020614815833981519152856040516125ff91815260200190565b60405180910390a361261033613473565b60019150506109886001606555565b60a2602052816000526040600020818154811061125f57600080fd5b6112408133611dbb565b61264d6141db565b6040518060a00160405280612660610cfd565b815260200161266d61269c565b815260200161267a612e25565b8152602001612687611622565b8152602001670cd64299613c80009052919050565b609b546000906001600160a01b0316637cd083316126b8611622565b6126c0610cfd565b6040518363ffffffff1660e01b81526004016112b4929190614625565b600080805b6001600160a01b038416600090815260a260205260409020548110156127a3576001600160a01b038416600090815260a26020526040902080544291908390811061272f5761272f6146a3565b9060005260206000209060030201600201541115612791576001600160a01b038416600090815260a260205260409020805482908110612771576127716146a3565b9060005260206000209060030201600101548261278e91906145dc565b91505b8061279b816146cf565b9150506126e2565b5092915050565b6000805b6001600160a01b038316600090815260a260205260409020548110156128c4576001600160a01b038316600090815260a2602052604090208054429190839081106127fb576127fb6146a3565b90600052602060002090600302016002015411156128b2576001600160a01b038316600090815260a26020526040902080546305a39a80919083908110612844576128446146a3565b600091825260208083206003909202909101546001600160a01b038716835260a2909152604090912080548490811061287f5761287f6146a3565b90600052602060002090600302016001015461289b919061471c565b6128a59190614733565b6128af90836145dc565b91505b806128bc816146cf565b9150506127ae565b50919050565b609c546001600160a01b03166128f357604051631c038dab60e21b815260040160405180910390fd5b609c5460405163039ff21960e21b81526001600160a01b0390911690630e7fc864906129239033906004016142a1565b602060405180830381865afa158015612940573d6000803e3d6000fd5b505050506040513d601f19601f820116820180604052508101906129649190614755565b61298157604051637582fa9b60e11b815260040160405180910390fd5b612989610cfd565b6000036129a9576040516316d5c93f60e21b815260040160405180910390fd5b6129b1613081565b60a0546040516370a0823160e01b81526001600160a01b03909116906370a08231906129e19030906004016142a1565b602060405180830381865afa1580156129fe573d6000803e3d6000fd5b505050506040513d601f19601f82011682018060405250810190612a2291906145ad565b811115612a42576040516316d5c93f60e21b815260040160405180910390fd5b612a4b336135a3565b336000908152609a602052604081208054839290612a6a9084906145dc565b9091555050306000908152609a602052604081208054839290612a8e9084906145dc565b90915550612a9e905033826130da565b612aa6613165565b336001600160a01b03167fd6b37be10b58108f696d9ed067fedad0bff7cb417ef4c28d2f8a25d6d83c98d58242604051612ae1929190614625565b60405180910390a2612af36001606555565b670cd64299613c8000612b04610cfd565b612b0c611622565b612b1e90670de0b6b3a764000061471c565b612b289190614733565b1115611240576040516372b9ce3f60e11b815260040160405180910390fd5b81612b53336000612299565b1015612ba05760405162461bcd60e51b815260206004820152601c60248201527b496e73756666696369656e742062616c616e636520746f206c6f636b60201b60448201526064016109f3565b6305a39a80811115612bfe5760405162461bcd60e51b815260206004820152602160248201527f43616e6e6f74206c6f636b20666f72206d6f7265207468616e203320796561726044820152607360f81b60648201526084016109f3565b33600090815260a260209081526040918290208251606081018452848152918201859052918101612c2f84426145dc565b905281546001818101845560009384526020938490208351600390930201918255928201519281019290925560400151600290910155337fada80de846c2fa6289ae8db8bd0145346851ca76d49946df18240ebbf97200a78383612c9381426145dc565b604051612ca2939291906143e5565b60405180910390a261090e33613473565b6000610d08613c50565b6001600160a01b038116600090815260a460205260408120815b8154811015612d4e57818181548110612cf257612cf26146a3565b9060005260206000209060030201600201544211612d3c57818181548110612d1c57612d1c6146a3565b90600052602060002090600302016000015483612d3991906145dc565b92505b80612d46816146cf565b915050612cd7565b5050919050565b61214d336137de565b612d66613022565b6001600160a01b038116612dd25760405162461bcd60e51b815260206004820152602d60248201527f50656e64696e674f776e61626c653a206e6577206f776e65722069732074686560448201526c207a65726f206164647265737360981b60648201526084016109f3565b612ddb81613cb5565b806001600160a01b0316612ded612311565b6001600160a01b03167fed8889f560326eb138920d842192f0eb3dd22b4f139c87a2c57538e05bae127860405160405180910390a350565b609b546000906001600160a01b031663df841eec6126b8611622565b6001600160a01b038116600090815260a4602052604081208054606092906001600160401b03811115612e7657612e76614777565b604051908082528060200260200182016040528015612ed657816020015b6040805160c08101825260008082526020808301829052928201819052606082018190526080820181905260a08201528252600019909201910181612e945790505b50905060005b8254811015612f9c576000838281548110612ef957612ef96146a3565b906000526020600020906003020190506040518060c00160405280826000015481526020018260010154815260200182600201548152602001826001015442101515815260200182600101544210158015612f58575082600201544211155b15158152602001826002015442111515815250838381518110612f7d57612f7d6146a3565b6020026020010181905250508080612f94906146cf565b915050612edc565b509392505050565b612fac613022565b612fb5816130f8565b612fd457806040516322a2d07b60e21b81526004016109f391906142a1565b609c80546001600160a01b0319166001600160a01b0383169081179091556040514281527f04dce7d074f7e287a2e6e3516c802271d58d5c14e0dede83a49719eb6b92046990602001610a46565b3361302b612311565b6001600160a01b03161461214d5760405162461bcd60e51b815260206004820181905260248201527f4f776e61626c653a2063616c6c6572206973206e6f7420746865206f776e657260448201526064016109f3565b6002606554036130d35760405162461bcd60e51b815260206004820152601f60248201527f5265656e7472616e637947756172643a207265656e7472616e742063616c6c0060448201526064016109f3565b6002606555565b60a05461090e906001600160a01b03168383613cc7565b6001606555565b6001600160a01b03163b151590565b600054610100900460ff1661312e5760405162461bcd60e51b81526004016109f39061478d565b61214d613df1565b600054610100900460ff1661315d5760405162461bcd60e51b81526004016109f39061478d565b61214d613e21565b600061316f611622565b9050600061317b610cfd565b609b549091506001600160a01b03166131a75760405163fd4851e960e01b815260040160405180910390fd5b609e54609b54604051637cd0833160e01b81526001600160a01b03928316926334fcf437921690637cd08331906131e49087908790600401614625565b602060405180830381865afa158015613201573d6000803e3d6000fd5b505050506040513d601f19601f8201168201806040525081019061322591906145ad565b6040518263ffffffff1660e01b815260040161324391815260200190565b600060405180830381600087803b15801561325d57600080fd5b505af1158015613271573d6000803e3d6000fd5b5050609f54609b546040516337e107bb60e21b81526001600160a01b0392831694506334fcf437935091169063df841eec906132b39087908790600401614625565b602060405180830381865afa1580156132d0573d6000803e3d6000fd5b505050506040513d601f19601f820116820180604052508101906132f491906145ad565b6040518263ffffffff1660e01b815260040161331291815260200190565b600060405180830381600087803b15801561332c57600080fd5b505af1158015613340573d6000803e3d6000fd5b505050505050565b6001600160a01b03811660009081526099602052604081205461336a8361205b565b61337491906145ef565b90506133808282613bd0565b6133893061205b565b306000908152609960205260409081902091909155516001600160a01b038316907f9bbd517758fbae61197f1c1c04c8614064e89512dbaf4350dcdf76fcaa5e2161906133d99084904290614625565b60405180910390a2609e54604051637681d99b60e11b81526001600160a01b039091169063ed03b336906134119085906004016142a1565b600060405180830381600087803b15801561342b57600080fd5b505af115801561343f573d6000803e3d6000fd5b5050609e54604051637681d99b60e11b81526001600160a01b03909116925063ed03b33691506133129030906004016142a1565b600061347d61214f565b90506001600160a01b0381161561090e5761349661098e565b156134e157611d2f81836040516024016134b091906142a1565b60408051601f198184030181529190526020810180516001600160e01b0316636cec346160e01b1790526000613e48565b6040516328e98e7360e01b81526001600160a01b038216906328e98e73906133129085906004016142a1565b600081831061351c5781611002565b5090919050565b6001600160a01b03821660009081526099602052604090205481111561355c57604051630bba337f60e11b815260040160405180910390fd5b6001600160a01b0382166000818152609960209081526040808320805486900390555184815291929160008051602061481583398151915291015b60405180910390a35050565b6135ac81611d34565b6001600160a01b0382166000908152609a60205260409020556135ce30611d34565b306000908152609a60205260409081902091909155609f549051637681d99b60e11b81526001600160a01b039091169063ed03b336906136129084906004016142a1565b600060405180830381600087803b15801561362c57600080fd5b505af1158015613640573d6000803e3d6000fd5b5050609f54604051637681d99b60e11b81526001600160a01b03909116925063ed03b33691506136749030906004016142a1565b600060405180830381600087803b15801561368e57600080fd5b505af11580156136a2573d6000803e3d6000fd5b5050505050565b60a05461090e906001600160a01b0316833084613ed1565b60006602ed57011e0000601f19360135811614806136f2576040516373bb264f60e11b815260040160405180910390fd5b6000366029111561371657604051632bcb7bc560e11b815260040160405180910390fd5b5060281936013560006009613731600362ffffff85166145dc565b61373b91906145dc565b9050366137496002836145dc565b11156110025760405163c30a7bd760e01b815260040160405180910390fd5b6000806137766020846145dc565b90503681111561379957604051632bcb7bc560e11b815260040160405180910390fd5b36033592915050565b60008060006137b084614007565b9092509050604e6137c28260206145dc565b6137cc908461471c565b6137d691906145dc565b949350505050565b6001600160a01b038116600090815260a460205260408120905b8154811015611d2f57818181548110613813576138136146a3565b9060005260206000209060030201600201544211156138dc57815460009061383d906001906145ef565b90508082146138a157828181548110613858576138586146a3565b9060005260206000209060030201838381548110613878576138786146a3565b600091825260209091208254600390920201908155600180830154908201556002918201549101555b828054806138b1576138b16146b9565b60008281526020812060036000199093019283020181815560018101829055600201559055506137f8565b806138e6816146cf565b9150506137f8565b60008261393d5760405162461bcd60e51b815260206004820181905260248201527f4d7573742070726f76696465206174206c65617374206f6e6520696e74656e7460448201526064016109f3565b60015b838110156139f65784846139556001846145ef565b818110613964576139646146a3565b9050602002013585858381811061397d5761397d6146a3565b90506020020135116139e45760405162461bcd60e51b815260206004820152602a60248201527f496e74656e7420696e6469636573206d757374206265207374726963746c7920604482015269696e6372656173696e6760b01b60648201526084016109f3565b806139ee816146cf565b915050613940565b506000805b84811015613b2e576000868683818110613a1757613a176146a3565b90506020020135905087805490508110613a435760405162461bcd60e51b81526004016109f390614675565b6000888281548110613a5757613a576146a3565b906000526020600020906003020190508060010154421015613abb5760405162461bcd60e51b815260206004820152601d60248201527f5769746864726177616c20696e74656e74206e6f74206d61747572656400000060448201526064016109f3565b8060020154421115613b0b5760405162461bcd60e51b815260206004820152601960248201527815da5d1a191c985dd85b081a5b9d195b9d08195e1c1a5c9959603a1b60448201526064016109f3565b8054613b1790856145dc565b935050508080613b26906146cf565b9150506139fb565b506000613b3c606483614733565b613b4690836145dc565b905080841115613bb75760405162461bcd60e51b815260206004820152603660248201527f52657175657374656420616d6f756e74206578636565647320696e74656e7420604482015275616d6f756e74206279206d6f7265207468616e20312560501b60648201526084016109f3565b613bc584611ef83385612299565b979650505050505050565b6001600160a01b038216613bf7576040516346dbfb6d60e11b815260040160405180910390fd5b6001600160a01b03821660009081526099602052604081208054839290613c1f9084906145dc565b90915550506040518181526001600160a01b0383169060009060008051602061481583398151915290602001613597565b6000805160206147f58339815191525490565b603380546001600160a01b038381166001600160a01b0319831681179093556040519116919082907f8be0079c531659141344cd1fd0a4f28419497f9722a3daafe3b4186f6b6457e090600090a35050565b6000805160206147f583398151915255565b604080516001600160a01b038481166024830152604480830185905283518084039091018152606490920183526020820180516001600160e01b031663a9059cbb60e01b1790529151600092839290871691613d2391906147d8565b6000604051808303816000865af19150503d8060008114613d60576040519150601f19603f3d011682016040523d82523d6000602084013e613d65565b606091505b5091509150818015613d8f575080511580613d8f575080806020019051810190613d8f9190614755565b6136a25760405162461bcd60e51b815260206004820152602d60248201527f5472616e7366657248656c7065723a3a736166655472616e736665723a20747260448201526c185b9cd9995c8819985a5b1959609a1b60648201526084016109f3565b600054610100900460ff16613e185760405162461bcd60e51b81526004016109f39061478d565b61214d33613c63565b600054610100900460ff166130f15760405162461bcd60e51b81526004016109f39061478d565b60606000613e558461405e565b9050600080866001600160a01b031685613e70576000613e72565b345b84604051613e8091906147d8565b60006040518083038185875af1925050503d8060008114613ebd576040519150601f19603f3d011682016040523d82523d6000602084013e613ec2565b606091505b5091509150613bc582826140ed565b604080516001600160a01b0385811660248301528481166044830152606480830185905283518084039091018152608490920183526020820180516001600160e01b03166323b872dd60e01b1790529151600092839290881691613f3591906147d8565b6000604051808303816000865af19150503d8060008114613f72576040519150601f19603f3d011682016040523d82523d6000602084013e613f77565b606091505b5091509150818015613fa1575080511580613fa1575080806020019051810190613fa19190614755565b6133405760405162461bcd60e51b815260206004820152603160248201527f5472616e7366657248656c7065723a3a7472616e7366657246726f6d3a207472604482015270185b9cd9995c919c9bdb4819985a5b1959607a1b60648201526084016109f3565b6000808080806140186041876145dc565b9050600061403161402a6020846145dc565b3690614164565b803594509050614042816003614164565b62ffffff9490941697933563ffffffff16965092945050505050565b8051606090600061406d614170565b9050600061407b82846145dc565b90503682111561409e57604051632bcb7bc560e11b815260040160405180910390fd5b6060604051905081815285602001848101826020015b818310156140cc5782518152602092830192016140b4565b50505082833603856020018301379190920181016020016040529392505050565b6060826128c457815160000361411657604051632b3ff13d60e11b815260040160405180910390fd5b602082015162461bcd60e51b148015614149576040516301efd04f60e31b815260448401906109f3908290600401614249565b8260405163fd36fde360e01b81526004016109f39190614249565b600061100282846145ef565b60008061417b6136c1565b9050600061418882613768565b61ffff1690506141996002836145dc565b915060005b818110156141d35760006141b1846137a2565b90506141bd81856145dc565b93505080806141cb906146cf565b91505061419e565b509092915050565b6040518060a001604052806005906020820280368337509192915050565b60005b838110156142145781810151838201526020016141fc565b50506000910152565b600081518084526142358160208601602086016141f9565b601f01601f19169290920160200192915050565b602081526000611002602083018461421d565b6001600160a01b038116811461124057600080fd5b6000806040838503121561428457600080fd5b8235915060208301356142968161425c565b809150509250929050565b6001600160a01b0391909116815260200190565b6000602082840312156142c757600080fd5b81356110028161425c565b600080604083850312156142e557600080fd5b82356142f08161425c565b946020939093013593505050565b600080600080600080600060e0888a03121561431957600080fd5b87356143248161425c565b965060208801356143348161425c565b955060408801356143448161425c565b945060608801356143548161425c565b935060808801356143648161425c565b925060a08801356143748161425c565b8092505060c0880135905092959891949750929550565b6000806000606084860312156143a057600080fd5b83356143ab8161425c565b925060208401356143bb8161425c565b929592945050506040919091013590565b6000602082840312156143de57600080fd5b5035919050565b9283526020830191909152604082015260600190565b60008060006060848603121561441057600080fd5b833561441b8161425c565b95602085013595506040909401359392505050565b60008060006040848603121561444557600080fd5b8335925060208401356001600160401b038082111561446357600080fd5b818601915086601f83011261447757600080fd5b81358181111561448657600080fd5b8760208260051b850101111561449b57600080fd5b6020830194508093505050509250925092565b60a08101818360005b60058110156144d65781518352602092830192909101906001016144b7565b50505092915050565b600080604083850312156144f257600080fd5b82356144fd8161425c565b915060208301356142968161425c565b6000806040838503121561452057600080fd5b50508035926020909101359150565b602080825282518282018190526000919060409081850190868401855b828110156145a0578151805185528681015187860152858101518686015260608082015115159086015260808082015115159086015260a09081015115159085015260c0909301929085019060010161454c565b5091979650505050505050565b6000602082840312156145bf57600080fd5b5051919050565b634e487b7160e01b600052601160045260246000fd5b80820180821115610988576109886145c6565b81810381811115610988576109886145c6565b60006020828403121561461457600080fd5b815160ff8116811461100257600080fd5b918252602082015260400190565b9182526001600160a01b0316602082015260400190565b60208082526011908201527010985b185b98d9481a5cc81b1bd8dad959607a1b604082015260600190565b602080825260149082015273092dcecc2d8d2c840d2dce8cadce840d2dcc8caf60631b604082015260600190565b634e487b7160e01b600052603260045260246000fd5b634e487b7160e01b600052603160045260246000fd5b6000600182016146e1576146e16145c6565b5060010190565b6000816146f7576146f76145c6565b506000190190565b60006020828403121561471157600080fd5b81516110028161425c565b8082028115828204841417610988576109886145c6565b60008261475057634e487b7160e01b600052601260045260246000fd5b500490565b60006020828403121561476757600080fd5b8151801515811461100257600080fd5b634e487b7160e01b600052604160045260246000fd5b6020808252602b908201527f496e697469616c697a61626c653a20636f6e7472616374206973206e6f74206960408201526a6e697469616c697a696e6760a81b606082015260800190565b600082516147ea8184602087016141f9565b919091019291505056fe63a0d9df49fae3f1b9d24f8dc819a568c429a1b11d0d8e9de63df53a0194acb2ddf252ad1be2c89b69c2b068fc378daa952ba7f163c4a11628f55a4df523b3ef8c5be1e5ebec7d5bd14f71427d1e84f3dd0314c0f7b2291e5b200ac8c7c3b925df273cb619d95419a9cd0ec88123a0538c85064229baa6363788f743fff90deba2646970667358221220d9df1767eb8bc412e68d7a00de3e5e9cab4449046287dd0a500a5dd55cb7a7c664736f6c63430008110033",
  "devdoc": {
    "details": "Contract allowing user to deposit to and borrow USDC from a dedicated user account",
    "errors": {
      "InsufficientAllowance(uint256,uint256)": [
        {
          "params": {
            "allowance": "current allowance",
            "requested": "requested transfer amount"
          }
        }
      ],
      "TransferAmountExceedsBalance(uint256,uint256)": [
        {
          "params": {
            "amount": "transfer amount",
            "balance": "available balance"
          }
        }
      ]
    },
    "kind": "dev",
    "methods": {
      "allowance(address,address)": {
        "details": "Returns the remaining number of tokens that `spender` will be allowed to spend on behalf of `owner` through {transferFrom}. This is zero by default. This value changes when {approve} or {transferFrom} are called."
      },
      "approve(address,uint256)": {
        "details": "Sets `amount` as the allowance of `spender` over the caller's tokens. Returns a boolean value indicating whether the operation succeeded. IMPORTANT: Beware that changing an allowance with this method brings the risk that someone may use both the old and the new allowance by unfortunate transaction ordering. One possible solution to mitigate this race condition is to first reduce the spender's allowance to 0 and set the desired value afterwards: https://github.com/ethereum/EIPs/issues/20#issuecomment-263524729 Emits an {Approval} event."
      },
      "balanceOf(address)": {
        "details": "_user the address of queried depositor*"
      },
      "borrow(uint256)": {
        "details": "_amount the amount to be borrowedIt is only meant to be used by a SmartLoanDiamondProxy*"
      },
      "cleanExpiredLocks()": {
        "details": "This function should be called periodically to prevent array growth",
        "returns": {
          "count": "Number of locks removed"
        }
      },
      "getBorrowed(address)": {
        "details": "_user the address of queried borrower*"
      },
      "getFullyVestedLockedBalance(address)": {
        "details": "The fully vested locked balance is used in the governance mechanism of the system, specifically for the allocation of vPrime tokens. The method calculates the fully vested locked balance by iterating over all the locks of the account and summing up the amounts of those locks that are still active (i.e., their `unlockTime` is greater than the current block timestamp). However, the amount of each lock is scaled by the ratio of its `lockTime` to the `MAX_LOCK_TIME` (3 years). This means that the longer the lock time, the larger the contribution of the lock to the fully vested locked balance. The fully vested locked balance is used to calculate the maximum vPrime allocation for a user. Users accrue vPrime over a period of 3 years, from 0 to the maximum vPrime based on their 10-1 pairs of pool-deposit and sPrime. Locking pool deposits and sPrime immediately vests the vPrime.",
        "params": {
          "account": "The address of the account for which to calculate the fully vested locked balance."
        },
        "returns": {
          "fullyVestedBalance": "The fully vested locked balance of the provided account."
        }
      },
      "getTotalIntentAmount(address)": {
        "details": "user the address of the queried user*"
      },
      "getUserIntents(address)": {
        "details": "Returns array of all intents with their current status for a given user",
        "params": {
          "user": "Address of the user to check intents for"
        },
        "returns": {
          "_0": "Array of IntentInfo structs containing all intent details and status*"
        }
      },
      "owner()": {
        "details": "Returns the address of the current owner."
      },
      "renounceOwnership()": {
        "details": "Leaves the contract without owner. It will not be possible to call `onlyOwner` functions. Can only be called by the current owner. NOTE: Renouncing ownership will leave the contract without an owner, thereby disabling any functionality that is only available to the owner."
      },
      "repay(uint256)": {
        "details": "It is only meant to be used by a SmartLoanDiamondProxy*"
      },
      "setBorrowersRegistry(address)": {
        "details": "borrowersRegistry the address of borrowers registry*"
      },
      "setPoolRewarder(address)": {
        "details": "_poolRewarder the address of PoolRewarder*"
      },
      "setRatesCalculator(address)": {
        "details": "ratesCalculator the address of rates calculator*"
      },
      "setTotalSupplyCap(uint256)": {
        "details": "_newTotalSupplyCap new deposit cap*"
      },
      "totalSupply()": {
        "details": "Returns the amount of tokens in existence."
      },
      "withdraw(uint256,uint256[])": {
        "params": {
          "_amount": "the total amount to be withdrawn",
          "intentIndices": "array of intent indices to be used for withdrawal*"
        }
      },
      "withdrawInstant(uint256)": {
        "details": "_amount the amount to be withdrawn*"
      }
    },
    "title": "UsdcPool",
    "version": 1
  },
  "userdoc": {
    "kind": "user",
    "methods": {
      "balanceOf(address)": {
        "notice": "Returns the current deposited amount for the given user The value includes the interest rates earned at the current moment"
      },
      "borrow(uint256)": {
        "notice": "Borrows the specified amount It updates user borrowed balance, total borrowed amount and rates"
      },
      "cleanExpiredLocks()": {
        "notice": "Removes expired locks for the caller"
      },
      "deposit(uint256)": {
        "notice": "Deposits the amount It updates user deposited balance, total deposited and rates*"
      },
      "depositOnBehalf(uint256,address)": {
        "notice": "Deposits the amount on behalf of `_of` user. It updates `_of` user deposited balance, total deposited and rates*"
      },
      "getBorrowed(address)": {
        "notice": "Returns the current borrowed amount for the given user The value includes the interest rates owned at the current moment"
      },
      "getBorrowingRate()": {
        "notice": "Returns the current interest rate for borrowings*"
      },
      "getDepositRate()": {
        "notice": "Returns the current interest rate for deposits*"
      },
      "getFullPoolStatus()": {
        "notice": "Returns full pool status"
      },
      "getFullyVestedLockedBalance(address)": {
        "notice": "Calculates and returns the fully vested locked balance for a given account."
      },
      "getTotalIntentAmount(address)": {
        "notice": "Returns the total amount of the withdrawal intents for the given user"
      },
      "recoverSurplus(uint256,address)": {
        "notice": "Recovers the surplus funds resultant from difference between deposit and borrowing rates*"
      },
      "repay(uint256)": {
        "notice": "Repays the amount It updates user borrowed balance, total borrowed amount and rates"
      },
      "setBorrowersRegistry(address)": {
        "notice": "Sets the new borrowers registry contract. The borrowers registry decides if an account can borrow funds. Only the owner of the Contract can execute this function."
      },
      "setPoolRewarder(address)": {
        "notice": "Sets the new Pool Rewarder. The IPoolRewarder that distributes additional token rewards to people having a stake in this pool proportionally to their stake and time of participance. Only the owner of the Contract can execute this function."
      },
      "setRatesCalculator(address)": {
        "notice": "Sets the new rate calculator. The calculator is an external contract that contains the logic for calculating deposit and borrowing rates. Only the owner of the Contract can execute this function."
      },
      "setTotalSupplyCap(uint256)": {
        "notice": "Sets new totalSupplyCap limiting how much in total can be deposited to the Pool. Only the owner of the Contract can execute this function."
      },
      "withdraw(uint256,uint256[])": {
        "notice": "Withdraws selected amount using multiple intents"
      },
      "withdrawInstant(uint256)": {
        "notice": "Withdraws without withdrawal queue, to be used by DEPOSIT_SWAP contract only"
      }
    },
    "version": 1
  },
  "storageLayout": {
    "storage": [
      {
        "astId": 138,
        "contract": "contracts/deployment/arbitrum/UsdcPool.sol:UsdcPool",
        "label": "_initialized",
        "offset": 0,
        "slot": "0",
        "type": "t_uint8"
      },
      {
        "astId": 141,
        "contract": "contracts/deployment/arbitrum/UsdcPool.sol:UsdcPool",
        "label": "_initializing",
        "offset": 1,
        "slot": "0",
        "type": "t_bool"
      },
      {
        "astId": 755,
        "contract": "contracts/deployment/arbitrum/UsdcPool.sol:UsdcPool",
        "label": "__gap",
        "offset": 0,
        "slot": "1",
        "type": "t_array(t_uint256)50_storage"
      },
      {
        "astId": 10,
        "contract": "contracts/deployment/arbitrum/UsdcPool.sol:UsdcPool",
        "label": "_owner",
        "offset": 0,
        "slot": "51",
        "type": "t_address"
      },
      {
        "astId": 130,
        "contract": "contracts/deployment/arbitrum/UsdcPool.sol:UsdcPool",
        "label": "__gap",
        "offset": 0,
        "slot": "52",
        "type": "t_array(t_uint256)49_storage"
      },
      {
        "astId": 314,
        "contract": "contracts/deployment/arbitrum/UsdcPool.sol:UsdcPool",
        "label": "_status",
        "offset": 0,
        "slot": "101",
        "type": "t_uint256"
      },
      {
        "astId": 383,
        "contract": "contracts/deployment/arbitrum/UsdcPool.sol:UsdcPool",
        "label": "__gap",
        "offset": 0,
        "slot": "102",
        "type": "t_array(t_uint256)49_storage"
      },
      {
        "astId": 3504,
        "contract": "contracts/deployment/arbitrum/UsdcPool.sol:UsdcPool",
        "label": "totalSupplyCap",
        "offset": 0,
        "slot": "151",
        "type": "t_uint256"
      },
      {
        "astId": 3510,
        "contract": "contracts/deployment/arbitrum/UsdcPool.sol:UsdcPool",
        "label": "_allowed",
        "offset": 0,
        "slot": "152",
        "type": "t_mapping(t_address,t_mapping(t_address,t_uint256))"
      },
      {
        "astId": 3514,
        "contract": "contracts/deployment/arbitrum/UsdcPool.sol:UsdcPool",
        "label": "_deposited",
        "offset": 0,
        "slot": "153",
        "type": "t_mapping(t_address,t_uint256)"
      },
      {
        "astId": 3518,
        "contract": "contracts/deployment/arbitrum/UsdcPool.sol:UsdcPool",
        "label": "borrowed",
        "offset": 0,
        "slot": "154",
        "type": "t_mapping(t_address,t_uint256)"
      },
      {
        "astId": 3521,
        "contract": "contracts/deployment/arbitrum/UsdcPool.sol:UsdcPool",
        "label": "ratesCalculator",
        "offset": 0,
        "slot": "155",
        "type": "t_contract(IRatesCalculator)7920"
      },
      {
        "astId": 3524,
        "contract": "contracts/deployment/arbitrum/UsdcPool.sol:UsdcPool",
        "label": "borrowersRegistry",
        "offset": 0,
        "slot": "156",
        "type": "t_contract(IBorrowersRegistry)7773"
      },
      {
        "astId": 3527,
        "contract": "contracts/deployment/arbitrum/UsdcPool.sol:UsdcPool",
        "label": "poolRewarder",
        "offset": 0,
        "slot": "157",
        "type": "t_contract(IPoolRewarder)7898"
      },
      {
        "astId": 3530,
        "contract": "contracts/deployment/arbitrum/UsdcPool.sol:UsdcPool",
        "label": "depositIndex",
        "offset": 0,
        "slot": "158",
        "type": "t_contract(IIndex)7844"
      },
      {
        "astId": 3533,
        "contract": "contracts/deployment/arbitrum/UsdcPool.sol:UsdcPool",
        "label": "borrowIndex",
        "offset": 0,
        "slot": "159",
        "type": "t_contract(IIndex)7844"
      },
      {
        "astId": 3535,
        "contract": "contracts/deployment/arbitrum/UsdcPool.sol:UsdcPool",
        "label": "tokenAddress",
        "offset": 0,
        "slot": "160",
        "type": "t_address_payable"
      },
      {
        "astId": 3538,
        "contract": "contracts/deployment/arbitrum/UsdcPool.sol:UsdcPool",
        "label": "vestingDistributor",
        "offset": 0,
        "slot": "161",
        "type": "t_contract(VestingDistributor)7547"
      },
      {
        "astId": 3540,
        "contract": "contracts/deployment/arbitrum/UsdcPool.sol:UsdcPool",
        "label": "_decimals",
        "offset": 20,
        "slot": "161",
        "type": "t_uint8"
      },
      {
        "astId": 3553,
        "contract": "contracts/deployment/arbitrum/UsdcPool.sol:UsdcPool",
        "label": "locks",
        "offset": 0,
        "slot": "162",
        "type": "t_mapping(t_address,t_array(t_struct(LockDetails)3547_storage)dyn_storage)"
      },
      {
        "astId": 3561,
        "contract": "contracts/deployment/arbitrum/UsdcPool.sol:UsdcPool",
        "label": "tokenManager",
        "offset": 0,
        "slot": "163",
        "type": "t_contract(ITokenManager)8231"
      },
      {
        "astId": 3587,
        "contract": "contracts/deployment/arbitrum/UsdcPool.sol:UsdcPool",
        "label": "withdrawalIntents",
        "offset": 0,
        "slot": "164",
        "type": "t_mapping(t_address,t_array(t_struct(WithdrawalIntent)3568_storage)dyn_storage)"
      }
    ],
    "types": {
      "t_address": {
        "encoding": "inplace",
        "label": "address",
        "numberOfBytes": "20"
      },
      "t_address_payable": {
        "encoding": "inplace",
        "label": "address payable",
        "numberOfBytes": "20"
      },
      "t_array(t_struct(LockDetails)3547_storage)dyn_storage": {
        "base": "t_struct(LockDetails)3547_storage",
        "encoding": "dynamic_array",
        "label": "struct Pool.LockDetails[]",
        "numberOfBytes": "32"
      },
      "t_array(t_struct(WithdrawalIntent)3568_storage)dyn_storage": {
        "base": "t_struct(WithdrawalIntent)3568_storage",
        "encoding": "dynamic_array",
        "label": "struct Pool.WithdrawalIntent[]",
        "numberOfBytes": "32"
      },
      "t_array(t_uint256)49_storage": {
        "base": "t_uint256",
        "encoding": "inplace",
        "label": "uint256[49]",
        "numberOfBytes": "1568"
      },
      "t_array(t_uint256)50_storage": {
        "base": "t_uint256",
        "encoding": "inplace",
        "label": "uint256[50]",
        "numberOfBytes": "1600"
      },
      "t_bool": {
        "encoding": "inplace",
        "label": "bool",
        "numberOfBytes": "1"
      },
      "t_contract(IBorrowersRegistry)7773": {
        "encoding": "inplace",
        "label": "contract IBorrowersRegistry",
        "numberOfBytes": "20"
      },
      "t_contract(IIndex)7844": {
        "encoding": "inplace",
        "label": "contract IIndex",
        "numberOfBytes": "20"
      },
      "t_contract(IPoolRewarder)7898": {
        "encoding": "inplace",
        "label": "contract IPoolRewarder",
        "numberOfBytes": "20"
      },
      "t_contract(IRatesCalculator)7920": {
        "encoding": "inplace",
        "label": "contract IRatesCalculator",
        "numberOfBytes": "20"
      },
      "t_contract(ITokenManager)8231": {
        "encoding": "inplace",
        "label": "contract ITokenManager",
        "numberOfBytes": "20"
      },
      "t_contract(VestingDistributor)7547": {
        "encoding": "inplace",
        "label": "contract VestingDistributor",
        "numberOfBytes": "20"
      },
      "t_mapping(t_address,t_array(t_struct(LockDetails)3547_storage)dyn_storage)": {
        "encoding": "mapping",
        "key": "t_address",
        "label": "mapping(address => struct Pool.LockDetails[])",
        "numberOfBytes": "32",
        "value": "t_array(t_struct(LockDetails)3547_storage)dyn_storage"
      },
      "t_mapping(t_address,t_array(t_struct(WithdrawalIntent)3568_storage)dyn_storage)": {
        "encoding": "mapping",
        "key": "t_address",
        "label": "mapping(address => struct Pool.WithdrawalIntent[])",
        "numberOfBytes": "32",
        "value": "t_array(t_struct(WithdrawalIntent)3568_storage)dyn_storage"
      },
      "t_mapping(t_address,t_mapping(t_address,t_uint256))": {
        "encoding": "mapping",
        "key": "t_address",
        "label": "mapping(address => mapping(address => uint256))",
        "numberOfBytes": "32",
        "value": "t_mapping(t_address,t_uint256)"
      },
      "t_mapping(t_address,t_uint256)": {
        "encoding": "mapping",
        "key": "t_address",
        "label": "mapping(address => uint256)",
        "numberOfBytes": "32",
        "value": "t_uint256"
      },
      "t_struct(LockDetails)3547_storage": {
        "encoding": "inplace",
        "label": "struct Pool.LockDetails",
        "members": [
          {
            "astId": 3542,
            "contract": "contracts/deployment/arbitrum/UsdcPool.sol:UsdcPool",
            "label": "lockTime",
            "offset": 0,
            "slot": "0",
            "type": "t_uint256"
          },
          {
            "astId": 3544,
            "contract": "contracts/deployment/arbitrum/UsdcPool.sol:UsdcPool",
            "label": "amount",
            "offset": 0,
            "slot": "1",
            "type": "t_uint256"
          },
          {
            "astId": 3546,
            "contract": "contracts/deployment/arbitrum/UsdcPool.sol:UsdcPool",
            "label": "unlockTime",
            "offset": 0,
            "slot": "2",
            "type": "t_uint256"
          }
        ],
        "numberOfBytes": "96"
      },
      "t_struct(WithdrawalIntent)3568_storage": {
        "encoding": "inplace",
        "label": "struct Pool.WithdrawalIntent",
        "members": [
          {
            "astId": 3563,
            "contract": "contracts/deployment/arbitrum/UsdcPool.sol:UsdcPool",
            "label": "amount",
            "offset": 0,
            "slot": "0",
            "type": "t_uint256"
          },
          {
            "astId": 3565,
            "contract": "contracts/deployment/arbitrum/UsdcPool.sol:UsdcPool",
            "label": "actionableAt",
            "offset": 0,
            "slot": "1",
            "type": "t_uint256"
          },
          {
            "astId": 3567,
            "contract": "contracts/deployment/arbitrum/UsdcPool.sol:UsdcPool",
            "label": "expiresAt",
            "offset": 0,
            "slot": "2",
            "type": "t_uint256"
          }
        ],
        "numberOfBytes": "96"
      },
      "t_uint256": {
        "encoding": "inplace",
        "label": "uint256",
        "numberOfBytes": "32"
      },
      "t_uint8": {
        "encoding": "inplace",
        "label": "uint8",
        "numberOfBytes": "1"
      }
    }
  }
}