{
  "address": "0x028e1f5dC60317043ad78793e4bD3b77131327e9",
  "abi": [
    {
      "inputs": [],
      "name": "BorrowersRegistryNotConfigured",
      "type": "error"
    },
    {
      "inputs": [],
      "name": "BurnAmountExceedsAvailableForUser",
      "type": "error"
    },
    {
      "inputs": [],
      "name": "BurnAmountExceedsBalance",
      "type": "error"
    },
    {
      "inputs": [],
      "name": "CalldataMustHaveValidPayload",
      "type": "error"
    },
    {
      "inputs": [],
      "name": "CalldataOverOrUnderFlow",
      "type": "error"
    },
    {
      "inputs": [],
      "name": "DataPackageTimestampMustNotBeZero",
      "type": "error"
    },
    {
      "inputs": [],
      "name": "DataPackageTimestampsMustBeEqual",
      "type": "error"
    },
    {
      "inputs": [],
      "name": "EachSignerMustProvideTheSameValue",
      "type": "error"
    },
    {
      "inputs": [],
      "name": "EmptyCalldataPointersArr",
      "type": "error"
    },
    {
      "inputs": [],
      "name": "IncorrectUnsignedMetadataSize",
      "type": "error"
    },
    {
      "inputs": [
        {
          "internalType": "uint256",
          "name": "requested",
          "type": "uint256"
        },
        {
          "internalType": "uint256",
          "name": "allowance",
          "type": "uint256"
        }
      ],
      "name": "InsufficientAllowance",
      "type": "error"
    },
    {
      "inputs": [
        {
          "internalType": "uint256",
          "name": "amount",
          "type": "uint256"
        },
        {
          "internalType": "uint256",
          "name": "availableBalance",
          "type": "uint256"
        }
      ],
      "name": "InsufficientAvailableBalance",
      "type": "error"
    },
    {
      "inputs": [
        {
          "internalType": "uint256",
          "name": "receivedSignersCount",
          "type": "uint256"
        },
        {
          "internalType": "uint256",
          "name": "requiredSignersCount",
          "type": "uint256"
        }
      ],
      "name": "InsufficientNumberOfUniqueSigners",
      "type": "error"
    },
    {
      "inputs": [],
      "name": "InsufficientPoolFunds",
      "type": "error"
    },
    {
      "inputs": [],
      "name": "InsufficientSurplus",
      "type": "error"
    },
    {
      "inputs": [],
      "name": "InvalidCalldataPointer",
      "type": "error"
    },
    {
      "inputs": [],
      "name": "MaxPoolUtilisationBreached",
      "type": "error"
    },
    {
      "inputs": [],
      "name": "MintToAddressZero",
      "type": "error"
    },
    {
      "inputs": [
        {
          "internalType": "address",
          "name": "target",
          "type": "address"
        }
      ],
      "name": "NotAContract",
      "type": "error"
    },
    {
      "inputs": [],
      "name": "NotAuthorizedToBorrow",
      "type": "error"
    },
    {
      "inputs": [],
      "name": "PoolFrozen",
      "type": "error"
    },
    {
      "inputs": [
        {
          "internalType": "bytes",
          "name": "result",
          "type": "bytes"
        }
      ],
      "name": "ProxyCalldataFailedWithCustomError",
      "type": "error"
    },
    {
      "inputs": [
        {
          "internalType": "string",
          "name": "message",
          "type": "string"
        }
      ],
      "name": "ProxyCalldataFailedWithStringMessage",
      "type": "error"
    },
    {
      "inputs": [],
      "name": "ProxyCalldataFailedWithoutErrMsg",
      "type": "error"
    },
    {
      "inputs": [],
      "name": "RedstonePayloadMustHaveAtLeastOneDataPackage",
      "type": "error"
    },
    {
      "inputs": [],
      "name": "RepayingMoreThanWasBorrowed",
      "type": "error"
    },
    {
      "inputs": [
        {
          "internalType": "address",
          "name": "receivedSigner",
          "type": "address"
        }
      ],
      "name": "SignerNotAuthorised",
      "type": "error"
    },
    {
      "inputs": [],
      "name": "SpenderZeroAddress",
      "type": "error"
    },
    {
      "inputs": [],
      "name": "TotalSupplyCapBreached",
      "type": "error"
    },
    {
      "inputs": [
        {
          "internalType": "uint256",
          "name": "amount",
          "type": "uint256"
        },
        {
          "internalType": "uint256",
          "name": "balance",
          "type": "uint256"
        }
      ],
      "name": "TransferAmountExceedsBalance",
      "type": "error"
    },
    {
      "inputs": [],
      "name": "TransferToPoolAddress",
      "type": "error"
    },
    {
      "inputs": [],
      "name": "TransferToZeroAddress",
      "type": "error"
    },
    {
      "inputs": [],
      "name": "ZeroDepositAmount",
      "type": "error"
    },
    {
      "anonymous": false,
      "inputs": [
        {
          "indexed": true,
          "internalType": "address",
          "name": "owner",
          "type": "address"
        },
        {
          "indexed": true,
          "internalType": "address",
          "name": "spender",
          "type": "address"
        },
        {
          "indexed": false,
          "internalType": "uint256",
          "name": "value",
          "type": "uint256"
        }
      ],
      "name": "Approval",
      "type": "event"
    },
    {
      "anonymous": false,
      "inputs": [
        {
          "indexed": true,
          "internalType": "address",
          "name": "registry",
          "type": "address"
        },
        {
          "indexed": false,
          "internalType": "uint256",
          "name": "timestamp",
          "type": "uint256"
        }
      ],
      "name": "BorrowersRegistryChanged",
      "type": "event"
    },
    {
      "anonymous": false,
      "inputs": [
        {
          "indexed": true,
          "internalType": "address",
          "name": "user",
          "type": "address"
        },
        {
          "indexed": false,
          "internalType": "uint256",
          "name": "value",
          "type": "uint256"
        },
        {
          "indexed": false,
          "internalType": "uint256",
          "name": "timestamp",
          "type": "uint256"
        }
      ],
      "name": "Borrowing",
      "type": "event"
    },
    {
      "anonymous": false,
      "inputs": [
        {
          "indexed": true,
          "internalType": "address",
          "name": "user",
          "type": "address"
        },
        {
          "indexed": false,
          "internalType": "uint256",
          "name": "value",
          "type": "uint256"
        },
        {
          "indexed": false,
          "internalType": "uint256",
          "name": "timestamp",
          "type": "uint256"
        }
      ],
      "name": "Deposit",
      "type": "event"
    },
    {
      "anonymous": false,
      "inputs": [
        {
          "indexed": true,
          "internalType": "address",
          "name": "user",
          "type": "address"
        },
        {
          "indexed": false,
          "internalType": "uint256",
          "name": "amount",
          "type": "uint256"
        },
        {
          "indexed": false,
          "internalType": "uint256",
          "name": "lockTime",
          "type": "uint256"
        },
        {
          "indexed": false,
          "internalType": "uint256",
          "name": "unlockTime",
          "type": "uint256"
        }
      ],
      "name": "DepositLocked",
      "type": "event"
    },
    {
      "anonymous": false,
      "inputs": [
        {
          "indexed": true,
          "internalType": "address",
          "name": "user",
          "type": "address"
        },
        {
          "indexed": true,
          "internalType": "address",
          "name": "_of",
          "type": "address"
        },
        {
          "indexed": false,
          "internalType": "uint256",
          "name": "value",
          "type": "uint256"
        },
        {
          "indexed": false,
          "internalType": "uint256",
          "name": "timestamp",
          "type": "uint256"
        }
      ],
      "name": "DepositOnBehalfOf",
      "type": "event"
    },
    {
      "anonymous": false,
      "inputs": [
        {
          "indexed": true,
          "internalType": "address",
          "name": "user",
          "type": "address"
        },
        {
          "indexed": false,
          "internalType": "uint256",
          "name": "count",
          "type": "uint256"
        }
      ],
      "name": "ExpiredLocksRemoved",
      "type": "event"
    },
    {
      "anonymous": false,
      "inputs": [
        {
          "indexed": false,
          "internalType": "uint8",
          "name": "version",
          "type": "uint8"
        }
      ],
      "name": "Initialized",
      "type": "event"
    },
    {
      "anonymous": false,
      "inputs": [
        {
          "indexed": true,
          "internalType": "address",
          "name": "user",
          "type": "address"
        },
        {
          "indexed": false,
          "internalType": "uint256",
          "name": "value",
          "type": "uint256"
        },
        {
          "indexed": false,
          "internalType": "uint256",
          "name": "timestamp",
          "type": "uint256"
        }
      ],
      "name": "InterestCollected",
      "type": "event"
    },
    {
      "anonymous": false,
      "inputs": [
        {
          "indexed": true,
          "internalType": "address",
          "name": "from",
          "type": "address"
        },
        {
          "indexed": true,
          "internalType": "address",
          "name": "to",
          "type": "address"
        }
      ],
      "name": "OwnershipTransferRequested",
      "type": "event"
    },
    {
      "anonymous": false,
      "inputs": [
        {
          "indexed": true,
          "internalType": "address",
          "name": "previousOwner",
          "type": "address"
        },
        {
          "indexed": true,
          "internalType": "address",
          "name": "newOwner",
          "type": "address"
        }
      ],
      "name": "OwnershipTransferred",
      "type": "event"
    },
    {
      "anonymous": false,
      "inputs": [
        {
          "indexed": true,
          "internalType": "address",
          "name": "poolRewarder",
          "type": "address"
        },
        {
          "indexed": false,
          "internalType": "uint256",
          "name": "timestamp",
          "type": "uint256"
        }
      ],
      "name": "PoolRewarderChanged",
      "type": "event"
    },
    {
      "anonymous": false,
      "inputs": [
        {
          "indexed": true,
          "internalType": "address",
          "name": "calculator",
          "type": "address"
        },
        {
          "indexed": false,
          "internalType": "uint256",
          "name": "timestamp",
          "type": "uint256"
        }
      ],
      "name": "RatesCalculatorChanged",
      "type": "event"
    },
    {
      "anonymous": false,
      "inputs": [
        {
          "indexed": true,
          "internalType": "address",
          "name": "user",
          "type": "address"
        },
        {
          "indexed": false,
          "internalType": "uint256",
          "name": "value",
          "type": "uint256"
        },
        {
          "indexed": false,
          "internalType": "uint256",
          "name": "timestamp",
          "type": "uint256"
        }
      ],
      "name": "Repayment",
      "type": "event"
    },
    {
      "anonymous": false,
      "inputs": [
        {
          "indexed": true,
          "internalType": "address",
          "name": "from",
          "type": "address"
        },
        {
          "indexed": true,
          "internalType": "address",
          "name": "to",
          "type": "address"
        },
        {
          "indexed": false,
          "internalType": "uint256",
          "name": "value",
          "type": "uint256"
        }
      ],
      "name": "Transfer",
      "type": "event"
    },
    {
      "anonymous": false,
      "inputs": [
        {
          "indexed": true,
          "internalType": "address",
          "name": "user",
          "type": "address"
        },
        {
          "indexed": false,
          "internalType": "uint256",
          "name": "value",
          "type": "uint256"
        },
        {
          "indexed": false,
          "internalType": "uint256",
          "name": "timestamp",
          "type": "uint256"
        }
      ],
      "name": "Withdrawal",
      "type": "event"
    },
    {
      "anonymous": false,
      "inputs": [
        {
          "indexed": true,
          "internalType": "address",
          "name": "user",
          "type": "address"
        },
        {
          "indexed": false,
          "internalType": "uint256",
          "name": "amount",
          "type": "uint256"
        },
        {
          "indexed": false,
          "internalType": "uint256",
          "name": "timestamp",
          "type": "uint256"
        }
      ],
      "name": "WithdrawalIntentCancelled",
      "type": "event"
    },
    {
      "anonymous": false,
      "inputs": [
        {
          "indexed": true,
          "internalType": "address",
          "name": "user",
          "type": "address"
        },
        {
          "indexed": false,
          "internalType": "uint256",
          "name": "amount",
          "type": "uint256"
        },
        {
          "indexed": false,
          "internalType": "uint256",
          "name": "actionableAt",
          "type": "uint256"
        },
        {
          "indexed": false,
          "internalType": "uint256",
          "name": "expiresAt",
          "type": "uint256"
        }
      ],
      "name": "WithdrawalIntentCreated",
      "type": "event"
    },
    {
      "inputs": [],
      "name": "MAX_LOCK_TIME",
      "outputs": [
        {
          "internalType": "uint256",
          "name": "",
          "type": "uint256"
        }
      ],
      "stateMutability": "view",
      "type": "function"
    },
    {
      "inputs": [],
      "name": "acceptOwnership",
      "outputs": [],
      "stateMutability": "nonpayable",
      "type": "function"
    },
    {
      "inputs": [
        {
          "internalType": "address",
          "name": "owner",
          "type": "address"
        },
        {
          "internalType": "address",
          "name": "spender",
          "type": "address"
        }
      ],
      "name": "allowance",
      "outputs": [
        {
          "internalType": "uint256",
          "name": "",
          "type": "uint256"
        }
      ],
      "stateMutability": "view",
      "type": "function"
    },
    {
      "inputs": [
        {
          "internalType": "address",
          "name": "spender",
          "type": "address"
        },
        {
          "internalType": "uint256",
          "name": "amount",
          "type": "uint256"
        }
      ],
      "name": "approve",
      "outputs": [
        {
          "internalType": "bool",
          "name": "",
          "type": "bool"
        }
      ],
      "stateMutability": "nonpayable",
      "type": "function"
    },
    {
      "inputs": [
        {
          "internalType": "address",
          "name": "user",
          "type": "address"
        }
      ],
      "name": "balanceOf",
      "outputs": [
        {
          "internalType": "uint256",
          "name": "",
          "type": "uint256"
        }
      ],
      "stateMutability": "view",
      "type": "function"
    },
    {
      "inputs": [
        {
          "internalType": "uint256",
          "name": "_amount",
          "type": "uint256"
        }
      ],
      "name": "borrow",
      "outputs": [],
      "stateMutability": "nonpayable",
      "type": "function"
    },
    {
      "inputs": [],
      "name": "borrowIndex",
      "outputs": [
        {
          "internalType": "contract IIndex",
          "name": "",
          "type": "address"
        }
      ],
      "stateMutability": "view",
      "type": "function"
    },
    {
      "inputs": [
        {
          "internalType": "address",
          "name": "",
          "type": "address"
        }
      ],
      "name": "borrowed",
      "outputs": [
        {
          "internalType": "uint256",
          "name": "",
          "type": "uint256"
        }
      ],
      "stateMutability": "view",
      "type": "function"
    },
    {
      "inputs": [],
      "name": "borrowersRegistry",
      "outputs": [
        {
          "internalType": "contract IBorrowersRegistry",
          "name": "",
          "type": "address"
        }
      ],
      "stateMutability": "view",
      "type": "function"
    },
    {
      "inputs": [
        {
          "internalType": "uint256",
          "name": "intentIndex",
          "type": "uint256"
        }
      ],
      "name": "cancelWithdrawalIntent",
      "outputs": [],
      "stateMutability": "nonpayable",
      "type": "function"
    },
    {
      "inputs": [],
      "name": "checkRewards",
      "outputs": [
        {
          "internalType": "uint256",
          "name": "",
          "type": "uint256"
        }
      ],
      "stateMutability": "view",
      "type": "function"
    },
    {
      "inputs": [],
      "name": "cleanExpiredLocks",
      "outputs": [
        {
          "internalType": "uint256",
          "name": "count",
          "type": "uint256"
        }
      ],
      "stateMutability": "nonpayable",
      "type": "function"
    },
    {
      "inputs": [],
      "name": "clearExpiredIntents",
      "outputs": [],
      "stateMutability": "nonpayable",
      "type": "function"
    },
    {
      "inputs": [],
      "name": "containsOracleCalldata",
      "outputs": [
        {
          "internalType": "bool",
          "name": "",
          "type": "bool"
        }
      ],
      "stateMutability": "view",
      "type": "function"
    },
    {
      "inputs": [
        {
          "internalType": "uint256",
          "name": "amount",
          "type": "uint256"
        }
      ],
      "name": "createWithdrawalIntent",
      "outputs": [],
      "stateMutability": "nonpayable",
      "type": "function"
    },
    {
      "inputs": [],
      "name": "decimals",
      "outputs": [
        {
          "internalType": "uint8",
          "name": "decimals",
          "type": "uint8"
        }
      ],
      "stateMutability": "pure",
      "type": "function"
    },
    {
      "inputs": [
        {
          "internalType": "address",
          "name": "spender",
          "type": "address"
        },
        {
          "internalType": "uint256",
          "name": "subtractedValue",
          "type": "uint256"
        }
      ],
      "name": "decreaseAllowance",
      "outputs": [
        {
          "internalType": "bool",
          "name": "",
          "type": "bool"
        }
      ],
      "stateMutability": "nonpayable",
      "type": "function"
    },
    {
      "inputs": [
        {
          "internalType": "uint256",
          "name": "_amount",
          "type": "uint256"
        }
      ],
      "name": "deposit",
      "outputs": [],
      "stateMutability": "nonpayable",
      "type": "function"
    },
    {
      "inputs": [],
      "name": "depositIndex",
      "outputs": [
        {
          "internalType": "contract IIndex",
          "name": "",
          "type": "address"
        }
      ],
      "stateMutability": "view",
      "type": "function"
    },
    {
      "inputs": [],
      "name": "depositNativeToken",
      "outputs": [],
      "stateMutability": "payable",
      "type": "function"
    },
    {
      "inputs": [
        {
          "internalType": "uint256",
          "name": "_amount",
          "type": "uint256"
        },
        {
          "internalType": "address",
          "name": "_of",
          "type": "address"
        }
      ],
      "name": "depositOnBehalf",
      "outputs": [],
      "stateMutability": "nonpayable",
      "type": "function"
    },
    {
      "inputs": [],
      "name": "extractTimestampsAndAssertAllAreEqual",
      "outputs": [
        {
          "internalType": "uint256",
          "name": "extractedTimestamp",
          "type": "uint256"
        }
      ],
      "stateMutability": "pure",
      "type": "function"
    },
    {
      "inputs": [
        {
          "internalType": "address",
          "name": "_user",
          "type": "address"
        }
      ],
      "name": "getBorrowed",
      "outputs": [
        {
          "internalType": "uint256",
          "name": "",
          "type": "uint256"
        }
      ],
      "stateMutability": "view",
      "type": "function"
    },
    {
      "inputs": [],
      "name": "getBorrowingRate",
      "outputs": [
        {
          "internalType": "uint256",
          "name": "",
          "type": "uint256"
        }
      ],
      "stateMutability": "view",
      "type": "function"
    },
    {
      "inputs": [],
      "name": "getDepositRate",
      "outputs": [
        {
          "internalType": "uint256",
          "name": "",
          "type": "uint256"
        }
      ],
      "stateMutability": "view",
      "type": "function"
    },
    {
      "inputs": [],
      "name": "getFullPoolStatus",
      "outputs": [
        {
          "internalType": "uint256[5]",
          "name": "",
          "type": "uint256[5]"
        }
      ],
      "stateMutability": "view",
      "type": "function"
    },
    {
      "inputs": [
        {
          "internalType": "address",
          "name": "account",
          "type": "address"
        }
      ],
      "name": "getFullyVestedLockedBalance",
      "outputs": [
        {
          "internalType": "uint256",
          "name": "fullyVestedBalance",
          "type": "uint256"
        }
      ],
      "stateMutability": "view",
      "type": "function"
    },
    {
      "inputs": [
        {
          "internalType": "address",
          "name": "account",
          "type": "address"
        }
      ],
      "name": "getLockedBalance",
      "outputs": [
        {
          "internalType": "uint256",
          "name": "",
          "type": "uint256"
        }
      ],
      "stateMutability": "view",
      "type": "function"
    },
    {
      "inputs": [],
      "name": "getMaxPoolUtilisationForBorrowing",
      "outputs": [
        {
          "internalType": "uint256",
          "name": "",
          "type": "uint256"
        }
      ],
      "stateMutability": "view",
      "type": "function"
    },
    {
      "inputs": [
        {
          "internalType": "address",
          "name": "account",
          "type": "address"
        },
        {
          "internalType": "uint256",
          "name": "excludedIntentAmount",
          "type": "uint256"
        }
      ],
      "name": "getNotLockedBalance",
      "outputs": [
        {
          "internalType": "uint256",
          "name": "notLockedBalance",
          "type": "uint256"
        }
      ],
      "stateMutability": "view",
      "type": "function"
    },
    {
      "inputs": [],
      "name": "getRewards",
      "outputs": [],
      "stateMutability": "nonpayable",
      "type": "function"
    },
    {
      "inputs": [
        {
          "internalType": "address",
          "name": "user",
          "type": "address"
        }
      ],
      "name": "getTotalIntentAmount",
      "outputs": [
        {
          "internalType": "uint256",
          "name": "totalIntentAmount",
          "type": "uint256"
        }
      ],
      "stateMutability": "view",
      "type": "function"
    },
    {
      "inputs": [
        {
          "internalType": "address",
          "name": "user",
          "type": "address"
        }
      ],
      "name": "getUserIntents",
      "outputs": [
        {
          "components": [
            {
              "internalType": "uint256",
              "name": "amount",
              "type": "uint256"
            },
            {
              "internalType": "uint256",
              "name": "actionableAt",
              "type": "uint256"
            },
            {
              "internalType": "uint256",
              "name": "expiresAt",
              "type": "uint256"
            },
            {
              "internalType": "bool",
              "name": "isPending",
              "type": "bool"
            },
            {
              "internalType": "bool",
              "name": "isActionable",
              "type": "bool"
            },
            {
              "internalType": "bool",
              "name": "isExpired",
              "type": "bool"
            }
          ],
          "internalType": "struct Pool.IntentInfo[]",
          "name": "",
          "type": "tuple[]"
        }
      ],
      "stateMutability": "view",
      "type": "function"
    },
    {
      "inputs": [],
      "name": "getVPrimeControllerAddress",
      "outputs": [
        {
          "internalType": "address",
          "name": "",
          "type": "address"
        }
      ],
      "stateMutability": "view",
      "type": "function"
    },
    {
      "inputs": [
        {
          "internalType": "address",
          "name": "spender",
          "type": "address"
        },
        {
          "internalType": "uint256",
          "name": "addedValue",
          "type": "uint256"
        }
      ],
      "name": "increaseAllowance",
      "outputs": [
        {
          "internalType": "bool",
          "name": "",
          "type": "bool"
        }
      ],
      "stateMutability": "nonpayable",
      "type": "function"
    },
    {
      "inputs": [
        {
          "internalType": "contract IRatesCalculator",
          "name": "ratesCalculator_",
          "type": "address"
        },
        {
          "internalType": "contract IBorrowersRegistry",
          "name": "borrowersRegistry_",
          "type": "address"
        },
        {
          "internalType": "contract IIndex",
          "name": "depositIndex_",
          "type": "address"
        },
        {
          "internalType": "contract IIndex",
          "name": "borrowIndex_",
          "type": "address"
        },
        {
          "internalType": "address payable",
          "name": "tokenAddress_",
          "type": "address"
        },
        {
          "internalType": "contract IPoolRewarder",
          "name": "poolRewarder_",
          "type": "address"
        },
        {
          "internalType": "uint256",
          "name": "_totalSupplyCap",
          "type": "uint256"
        }
      ],
      "name": "initialize",
      "outputs": [],
      "stateMutability": "nonpayable",
      "type": "function"
    },
    {
      "inputs": [
        {
          "internalType": "address",
          "name": "account",
          "type": "address"
        },
        {
          "internalType": "uint256",
          "name": "amount",
          "type": "uint256"
        },
        {
          "internalType": "uint256",
          "name": "excludedIntentAmount",
          "type": "uint256"
        }
      ],
      "name": "isWithdrawalAmountAvailable",
      "outputs": [
        {
          "internalType": "bool",
          "name": "",
          "type": "bool"
        }
      ],
      "stateMutability": "view",
      "type": "function"
    },
    {
      "inputs": [
        {
          "internalType": "uint256",
          "name": "amount",
          "type": "uint256"
        },
        {
          "internalType": "uint256",
          "name": "lockTime",
          "type": "uint256"
        }
      ],
      "name": "lockDeposit",
      "outputs": [],
      "stateMutability": "nonpayable",
      "type": "function"
    },
    {
      "inputs": [
        {
          "internalType": "address",
          "name": "",
          "type": "address"
        },
        {
          "internalType": "uint256",
          "name": "",
          "type": "uint256"
        }
      ],
      "name": "locks",
      "outputs": [
        {
          "internalType": "uint256",
          "name": "lockTime",
          "type": "uint256"
        },
        {
          "internalType": "uint256",
          "name": "amount",
          "type": "uint256"
        },
        {
          "internalType": "uint256",
          "name": "unlockTime",
          "type": "uint256"
        }
      ],
      "stateMutability": "view",
      "type": "function"
    },
    {
      "inputs": [],
      "name": "name",
      "outputs": [
        {
          "internalType": "string",
          "name": "_name",
          "type": "string"
        }
      ],
      "stateMutability": "pure",
      "type": "function"
    },
    {
      "inputs": [],
      "name": "owner",
      "outputs": [
        {
          "internalType": "address",
          "name": "",
          "type": "address"
        }
      ],
      "stateMutability": "view",
      "type": "function"
    },
    {
      "inputs": [],
      "name": "pendingOwner",
      "outputs": [
        {
          "internalType": "address",
          "name": "",
          "type": "address"
        }
      ],
      "stateMutability": "view",
      "type": "function"
    },
    {
      "inputs": [],
      "name": "poolRewarder",
      "outputs": [
        {
          "internalType": "contract IPoolRewarder",
          "name": "",
          "type": "address"
        }
      ],
      "stateMutability": "view",
      "type": "function"
    },
    {
      "inputs": [],
      "name": "ratesCalculator",
      "outputs": [
        {
          "internalType": "contract IRatesCalculator",
          "name": "",
          "type": "address"
        }
      ],
      "stateMutability": "view",
      "type": "function"
    },
    {
      "inputs": [
        {
          "internalType": "uint256",
          "name": "amount",
          "type": "uint256"
        },
        {
          "internalType": "address",
          "name": "account",
          "type": "address"
        }
      ],
      "name": "recoverSurplus",
      "outputs": [],
      "stateMutability": "nonpayable",
      "type": "function"
    },
    {
      "inputs": [],
      "name": "renounceOwnership",
      "outputs": [],
      "stateMutability": "nonpayable",
      "type": "function"
    },
    {
      "inputs": [
        {
          "internalType": "uint256",
          "name": "amount",
          "type": "uint256"
        }
      ],
      "name": "repay",
      "outputs": [],
      "stateMutability": "nonpayable",
      "type": "function"
    },
    {
      "inputs": [
        {
          "internalType": "contract IBorrowersRegistry",
          "name": "borrowersRegistry_",
          "type": "address"
        }
      ],
      "name": "setBorrowersRegistry",
      "outputs": [],
      "stateMutability": "nonpayable",
      "type": "function"
    },
    {
      "inputs": [
        {
          "internalType": "contract IPoolRewarder",
          "name": "_poolRewarder",
          "type": "address"
        }
      ],
      "name": "setPoolRewarder",
      "outputs": [],
      "stateMutability": "nonpayable",
      "type": "function"
    },
    {
      "inputs": [
        {
          "internalType": "contract IRatesCalculator",
          "name": "ratesCalculator_",
          "type": "address"
        }
      ],
      "name": "setRatesCalculator",
      "outputs": [],
      "stateMutability": "nonpayable",
      "type": "function"
    },
    {
      "inputs": [
        {
          "internalType": "contract ITokenManager",
          "name": "_tokenManager",
          "type": "address"
        }
      ],
      "name": "setTokenManager",
      "outputs": [],
      "stateMutability": "nonpayable",
      "type": "function"
    },
    {
      "inputs": [
        {
          "internalType": "uint256",
          "name": "_newTotalSupplyCap",
          "type": "uint256"
        }
      ],
      "name": "setTotalSupplyCap",
      "outputs": [],
      "stateMutability": "nonpayable",
      "type": "function"
    },
    {
      "inputs": [],
      "name": "symbol",
      "outputs": [
        {
          "internalType": "string",
          "name": "_symbol",
          "type": "string"
        }
      ],
      "stateMutability": "pure",
      "type": "function"
    },
    {
      "inputs": [],
      "name": "tokenAddress",
      "outputs": [
        {
          "internalType": "address payable",
          "name": "",
          "type": "address"
        }
      ],
      "stateMutability": "view",
      "type": "function"
    },
    {
      "inputs": [],
      "name": "tokenManager",
      "outputs": [
        {
          "internalType": "contract ITokenManager",
          "name": "",
          "type": "address"
        }
      ],
      "stateMutability": "view",
      "type": "function"
    },
    {
      "inputs": [],
      "name": "totalBorrowed",
      "outputs": [
        {
          "internalType": "uint256",
          "name": "",
          "type": "uint256"
        }
      ],
      "stateMutability": "view",
      "type": "function"
    },
    {
      "inputs": [],
      "name": "totalSupply",
      "outputs": [
        {
          "internalType": "uint256",
          "name": "",
          "type": "uint256"
        }
      ],
      "stateMutability": "view",
      "type": "function"
    },
    {
      "inputs": [],
      "name": "totalSupplyCap",
      "outputs": [
        {
          "internalType": "uint256",
          "name": "",
          "type": "uint256"
        }
      ],
      "stateMutability": "view",
      "type": "function"
    },
    {
      "inputs": [
        {
          "internalType": "address",
          "name": "recipient",
          "type": "address"
        },
        {
          "internalType": "uint256",
          "name": "amount",
          "type": "uint256"
        }
      ],
      "name": "transfer",
      "outputs": [
        {
          "internalType": "bool",
          "name": "",
          "type": "bool"
        }
      ],
      "stateMutability": "nonpayable",
      "type": "function"
    },
    {
      "inputs": [
        {
          "internalType": "address",
          "name": "sender",
          "type": "address"
        },
        {
          "internalType": "address",
          "name": "recipient",
          "type": "address"
        },
        {
          "internalType": "uint256",
          "name": "amount",
          "type": "uint256"
        }
      ],
      "name": "transferFrom",
      "outputs": [
        {
          "internalType": "bool",
          "name": "",
          "type": "bool"
        }
      ],
      "stateMutability": "nonpayable",
      "type": "function"
    },
    {
      "inputs": [
        {
          "internalType": "address",
          "name": "newOwner",
          "type": "address"
        }
      ],
      "name": "transferOwnership",
      "outputs": [],
      "stateMutability": "nonpayable",
      "type": "function"
    },
    {
      "inputs": [],
      "name": "vestingDistributor",
      "outputs": [
        {
          "internalType": "contract VestingDistributor",
          "name": "",
          "type": "address"
        }
      ],
      "stateMutability": "view",
      "type": "function"
    },
    {
      "inputs": [
        {
          "internalType": "uint256",
          "name": "_amount",
          "type": "uint256"
        },
        {
          "internalType": "uint256[]",
          "name": "intentIndices",
          "type": "uint256[]"
        }
      ],
      "name": "withdraw",
      "outputs": [],
      "stateMutability": "nonpayable",
      "type": "function"
    },
    {
      "inputs": [
        {
          "internalType": "uint256",
          "name": "_amount",
          "type": "uint256"
        }
      ],
      "name": "withdrawInstant",
      "outputs": [],
      "stateMutability": "nonpayable",
      "type": "function"
    },
    {
      "inputs": [
        {
          "internalType": "uint256",
          "name": "_amount",
          "type": "uint256"
        },
        {
          "internalType": "uint256[]",
          "name": "intentIndices",
          "type": "uint256[]"
        }
      ],
      "name": "withdrawNativeToken",
      "outputs": [],
      "stateMutability": "nonpayable",
      "type": "function"
    },
    {
      "inputs": [
        {
          "internalType": "address",
          "name": "",
          "type": "address"
        },
        {
          "internalType": "uint256",
          "name": "",
          "type": "uint256"
        }
      ],
      "name": "withdrawalIntents",
      "outputs": [
        {
          "internalType": "uint256",
          "name": "amount",
          "type": "uint256"
        },
        {
          "internalType": "uint256",
          "name": "actionableAt",
          "type": "uint256"
        },
        {
          "internalType": "uint256",
          "name": "expiresAt",
          "type": "uint256"
        }
      ],
      "stateMutability": "view",
      "type": "function"
    },
    {
      "stateMutability": "payable",
      "type": "receive"
    }
  ],
  "transactionHash": "0x09f58af2b7b125a568a50cf0f41b4d973403af249cb05168eed0493deb0feb9c",
  "args": [],
  "numDeployments": 9,
  "solcInputHash": "8c97a278a14938b1d6a39408c30af303",
  "bytecode": "0x608060405234801561001057600080fd5b50615210806100206000396000f3fe6080604052600436106102fd5760003560e01c8063715018a61161018d578063715018a61461074b578063726cd4151461075757806379433d8b1461076c57806379ba5097146107745780637b898939146107895780637cb2b79c146107a957806389e8adb4146107c95780638da5cb5b146107e957806395d89b41146107fe5780639d76ea581461082d578063a457c2d71461084d578063a9059cbb1461086d578063aa5af0fd1461088d578063b425f802146108ad578063b6b55f25146108cd578063b75c42bd146108ed578063b790634e1461090f578063bb102aea14610924578063c40868931461093a578063c4ce63581461095a578063c5ebeaec1461097a578063d06dca891461099a578063dd62ed3e146109ba578063e2b9442e14610a00578063e30c397814610a20578063e84d13c814610a35578063ee61bd6e14610a55578063ef5fd2d114610a75578063f2fde38b14610a8a578063f36b242514610aaa578063fa3209b214610abf578063fa78668f14610aec578063fc68f66114610b0457600080fd5b80630572b0cc1461030957806306fdde03146103205780630790ef9a1461036f57806307bbebdd1461038f5780630941cb3d146103bc578063095ea7b3146103f75780630d1870df146104275780631457db341461043c5780631460e3901461045c57806318160ddd1461047c57806323b872dd1461049157806326935e39146104b15780632742f253146104d15780632a709b14146105005780632aeaa29114610520578063313ce5671461053557806331d05b1114610551578063371fd8e61461057157806337b764fe146105915780633866ecf7146105b157806339509351146105d15780634c19386c146105f15780635107b5a01461060657806355a547d51461061b578063562b11681461063057806356c33f43146106505780635915d806146106705780636011163e1461069057806361215aa8146106b05780636ca6d5d0146106cb5780636cf55ea2146106eb57806370a082311461070b57806370d4cea01461072b57600080fd5b3661030457005b600080fd5b34801561031557600080fd5b5061031e610b24565b005b34801561032c57600080fd5b50604080518082019091526014815273088cad8e8c2a0e4d2dacaaee4c2e0e0cac88aa8960631b60208201525b6040516103669190614baf565b60405180910390f35b34801561037b57600080fd5b5061031e61038a366004614bd7565b610b88565b34801561039b57600080fd5b5060a1546103af906001600160a01b031681565b6040516103669190614c07565b3480156103c857600080fd5b506103e96103d7366004614c1b565b609a6020526000908152604090205481565b604051908152602001610366565b34801561040357600080fd5b50610417610412366004614c38565b610c90565b6040519015158152602001610366565b34801561043357600080fd5b50610417610d0c565b34801561044857600080fd5b5061031e610457366004614c1b565b610d20565b34801561046857600080fd5b5061031e610477366004614c64565b610dcf565b34801561048857600080fd5b506103e961107b565b34801561049d57600080fd5b506104176104ac366004614cf1565b61108b565b3480156104bd57600080fd5b5061031e6104cc366004614d32565b611387565b3480156104dd57600080fd5b506104f16104ec366004614c38565b6115c1565b60405161036693929190614d4b565b34801561050c57600080fd5b5060a3546103af906001600160a01b031681565b34801561052c57600080fd5b506103e9611603565b34801561054157600080fd5b5060405160128152602001610366565b34801561055d57600080fd5b5061031e61056c366004614d32565b611673565b34801561057d57600080fd5b5061031e61058c366004614d32565b611680565b34801561059d57600080fd5b5061031e6105ac366004614d32565b611769565b3480156105bd57600080fd5b506104176105cc366004614d61565b6118da565b3480156105dd57600080fd5b506104176105ec366004614c38565b6118f3565b3480156105fd57600080fd5b506103e96119a0565b34801561061257600080fd5b506103e96119ab565b34801561062757600080fd5b506103e9611b26565b34801561063c57600080fd5b5061031e61064b366004614d32565b611c3e565b34801561065c57600080fd5b5061031e61066b366004614d96565b611d96565b34801561067c57600080fd5b5061031e61068b366004614d96565b612113565b34801561069c57600080fd5b506103e96106ab366004614c1b565b6123ed565b3480156106bc57600080fd5b50670cd64299613c80006103e9565b3480156106d757600080fd5b50609d546103af906001600160a01b031681565b3480156106f757600080fd5b5061031e610706366004614bd7565b612474565b34801561071757600080fd5b506103e9610726366004614c1b565b612714565b34801561073757600080fd5b5061031e610746366004614c1b565b61275a565b34801561031e57600080fd5b34801561076357600080fd5b506103af612808565b61031e612899565b34801561078057600080fd5b5061031e612a6c565b34801561079557600080fd5b50609e546103af906001600160a01b031681565b3480156107b557600080fd5b5061031e6107c4366004614c1b565b612afb565b3480156107d557600080fd5b506103e96107e4366004614c38565b612b25565b3480156107f557600080fd5b506103af612b9d565b34801561080a57600080fd5b50604080518082019091526006815265088a0ae8aa8960d31b6020820152610359565b34801561083957600080fd5b5060a0546103af906001600160a01b031681565b34801561085957600080fd5b50610417610868366004614c38565b612bac565b34801561087957600080fd5b50610417610888366004614c38565b612c80565b34801561089957600080fd5b50609f546103af906001600160a01b031681565b3480156108b957600080fd5b506104f16108c8366004614c38565b612eab565b3480156108d957600080fd5b5061031e6108e8366004614d32565b612ec7565b3480156108f957600080fd5b50610902612ed1565b6040516103669190614e14565b34801561091b57600080fd5b506103e9612f28565b34801561093057600080fd5b506103e960975481565b34801561094657600080fd5b506103e9610955366004614c1b565b612f69565b34801561096657600080fd5b506103e9610975366004614c1b565b613036565b34801561098657600080fd5b5061031e610995366004614d32565b613156565b3480156109a657600080fd5b50609c546103af906001600160a01b031681565b3480156109c657600080fd5b506103e96109d5366004614e45565b6001600160a01b03918216600090815260986020908152604080832093909416825291909152205490565b348015610a0c57600080fd5b5061031e610a1b366004614e73565b6133d3565b348015610a2c57600080fd5b506103af61353f565b348015610a4157600080fd5b506103e9610a50366004614c1b565b613549565b348015610a6157600080fd5b50609b546103af906001600160a01b031681565b348015610a8157600080fd5b5061031e6135e1565b348015610a9657600080fd5b5061031e610aa5366004614c1b565b6135ea565b348015610ab657600080fd5b506103e96136b1565b348015610acb57600080fd5b50610adf610ada366004614c1b565b6136cd565b6040516103669190614e95565b348015610af857600080fd5b506103e96305a39a8081565b348015610b1057600080fd5b5061031e610b1f366004614c1b565b613830565b609d546040516311305c1f60e11b81526001600160a01b0390911690632260b83e90610b54903390600401614c07565b600060405180830381600087803b158015610b6e57600080fd5b505af1158015610b82573d6000803e3d6000fd5b50505050565b610b906138ae565b610b9861390d565b60a0546040516370a0823160e01b81526000916001600160a01b0316906370a0823190610bc9903090600401614c07565b602060405180830381865afa158015610be6573d6000803e3d6000fd5b505050506040513d601f19601f82011682018060405250810190610c0a9190614f13565b90506000610c1661107b565b610c1e6119a0565b610c289084614f42565b610c329190614f55565b905081841115610c55576040516316d5c93f60e21b815260040160405180910390fd5b83811015610c76576040516394290ab960e01b815260040160405180910390fd5b610c808385613966565b5050610c8c6001606555565b5050565b60006001600160a01b038316610cb957604051633d6601c760e11b815260040160405180910390fd5b3360008181526098602090815260408083206001600160a01b038816808552908352928190208690555185815291929160008051602061519b833981519152910160405180910390a35060015b92915050565b6602ed57011e0000601f1936013581161490565b610d286138ae565b610d3181613984565b158015610d4657506001600160a01b03811615155b15610d7a57609d546040516322a2d07b60e21b8152610d71916001600160a01b031690600401614c07565b60405180910390fd5b609d80546001600160a01b0319166001600160a01b0383169081179091556040514281527f85796821ee1d670b0fdb986f256b5c1a29b9019038831c7f09df2061879cf9e5906020015b60405180910390a250565b600054610100900460ff1615808015610def5750600054600160ff909116105b80610e105750610dfe30613984565b158015610e10575060005460ff166001145b610e735760405162461bcd60e51b815260206004820152602e60248201527f496e697469616c697a61626c653a20636f6e747261637420697320616c72656160448201526d191e481a5b9a5d1a585b1a5e995960921b6064820152608401610d71565b6000805460ff191660011790558015610e96576000805461ff0019166101001790555b610e9f88613984565b8015610eaf5750610eaf87613984565b8015610ebf5750610ebf86613984565b8015610ecf5750610ecf85613984565b8015610ef15750610edf83613984565b80610ef157506001600160a01b038316155b610f345760405162461bcd60e51b815260206004820152601460248201527357726f6e6720696e697420617267756d656e747360601b6044820152606401610d71565b609c80546001600160a01b03199081166001600160a01b038a811691909117909255609b805482168b8416179055609e80548216898416179055609f80548216888416179055609d8054821686841617905560a08054909116918616918217905560978390556040805163313ce56760e01b8152905163313ce567916004818101926020929091908290030181865afa158015610fd5573d6000803e3d6000fd5b505050506040513d601f19601f82011682018060405250810190610ff99190614f68565b60a160146101000a81548160ff021916908360ff16021790555061101b613993565b6110236139c2565b61102b6139f1565b8015611071576000805461ff0019169055604051600181527f7f26b83ff96e1f2b6a682f133852f6798a09c465da95921460cefb38474024989060200160405180910390a15b5050505050505050565b600061108630612714565b905090565b600061109561390d565b6001600160a01b0384166000908152609860209081526040808320338452909152902054821115611100576001600160a01b03841660009081526098602090815260408083203384529091529081902054905163054365bb60e31b8152610d71918491600401614f8b565b6001600160a01b03831661112757604051633a954ecd60e21b815260040160405180910390fd5b306001600160a01b038416036111505760405163ed728e5760e01b815260040160405180910390fd5b61115c848360006118da565b611187578161116c856000612b25565b60405163adb9e04360e01b8152600401610d71929190614f8b565b61119084613bd4565b6001600160a01b038416600090815260996020526040812080548492906111b8908490614f55565b90915550506001600160a01b0384166000908152609860209081526040808320338452909152812080548492906111f0908490614f55565b909155506111ff905083613bd4565b6001600160a01b03831660009081526099602052604081208054849290611227908490614f42565b9091555050609d546001600160a01b03161580159061124557508115155b1561132f57609d54604051630d5dbdb360e21b81526000916001600160a01b031690633576f6cc9061127d9086908990600401614f99565b6020604051808303816000875af115801561129c573d6000803e3d6000fd5b505050506040513d601f19601f820116820180604052508101906112c09190614f13565b9050801561132d57609d546040516328ba35d960e11b81526001600160a01b03909116906351746bb2906112fa9084908890600401614f99565b600060405180830381600087803b15801561131457600080fd5b505af1158015611328573d6000803e3d6000fd5b505050505b505b826001600160a01b0316846001600160a01b031660008051602061517b8339815191528460405161136291815260200190565b60405180910390a361137384613cff565b5060016113806001606555565b9392505050565b61138f61390d565b7370deaa9c41cd696d22a075fd6994f498b56ac55b3381146113b057600080fd5b6113b933613bd4565b336000908152609960205260409020546113d4908390613d99565b91506113e2338360006118da565b6113fe5760405162461bcd60e51b8152600401610d7190614fb0565b60a0546040516370a0823160e01b81526001600160a01b03909116906370a082319061142e903090600401614c07565b602060405180830381865afa15801561144b573d6000803e3d6000fd5b505050506040513d601f19601f8201168201806040525081019061146f9190614f13565b82111561148f576040516316d5c93f60e21b815260040160405180910390fd5b306000908152609960205260409020548211156114bf57604051630bba337f60e11b815260040160405180910390fd5b306000908152609960205260409020805483900390556114df3383613daf565b6114e76139f1565b6114f033613cff565b6114fa3383613966565b609d546001600160a01b03161561158257609d54604051630d5dbdb360e21b81526001600160a01b0390911690633576f6cc9061153d9085903390600401614f99565b6020604051808303816000875af115801561155c573d6000803e3d6000fd5b505050506040513d601f19601f820116820180604052508101906115809190614f13565b505b336001600160a01b03166000805160206151bb83398151915283426040516115ab929190614f8b565b60405180910390a2506115be6001606555565b50565b60a460205281600052604060002081815481106115dd57600080fd5b600091825260209091206003909102018054600182015460029092015490935090915083565b609d546040516246613160e11b81526000916001600160a01b031690628cc26290611632903390600401614c07565b602060405180830381865afa15801561164f573d6000803e3d6000fd5b505050506040513d601f19601f820116820180604052508101906110869190614f13565b61167b6138ae565b609755565b61168861390d565b61169133613e2f565b336000908152609a60205260409020548111156116c157604051630dcad43360e11b815260040160405180910390fd5b6116cb3382613f35565b336000908152609a6020526040812080548392906116ea908490614f55565b9091555050306000908152609a60205260408120805483929061170e908490614f55565b9091555061171c90506139f1565b336001600160a01b03167f24fcca58a997b1b2eff6db8107e860458544c09ddd3693b3b779e1df6c0d6c5d8242604051611757929190614f8b565b60405180910390a26115be6001606555565b61177161390d565b33600090815260a460205260409020805482106117a05760405162461bcd60e51b8152600401610d7190614fdb565b60008183815481106117b4576117b4615009565b600091825260208083206040805160608101825260039094029091018054845260018082015493850193909352600201549083015284549193506117f791614f55565b905080841461185b5782818154811061181257611812615009565b906000526020600020906003020183858154811061183257611832615009565b600091825260209091208254600390920201908155600180830154908201556002918201549101555b8280548061186b5761186b61501f565b60008281526020812060036000199093019283020181815560018101829055600201559055815160405133917fd33d8fdc6783acd0812c254bbb11863beb43e98ae9bb139867d674bb2a32336e916118c591904290614f8b565b60405180910390a25050506115be6001606555565b6000806118e78584612b25565b90931115949350505050565b60006001600160a01b03831661191c57604051633d6601c760e11b815260040160405180910390fd5b3360009081526098602090815260408083206001600160a01b038716845290915281205461194b908490614f42565b3360008181526098602090815260408083206001600160a01b038a168085529083529281902085905551848152939450909260008051602061519b833981519152910160405180910390a35060019392505050565b6000611086306123ed565b33600090815260a26020526040812081805b8254811015611a8557428382815481106119d9576119d9615009565b9060005260206000209060030201600201541115611a6557818114611a5357828181548110611a0a57611a0a615009565b9060005260206000209060030201838381548110611a2a57611a2a615009565b600091825260209091208254600390920201908155600180830154908201556002918201549101555b81611a5d81615035565b925050611a73565b83611a6f81615035565b9450505b80611a7d81615035565b9150506119bd565b508154600090611a96908390614f55565b905060005b81811015611aea5783805480611ab357611ab361501f565b6000828152602081206003600019909301928302018181556001810182905560020155905580611ae281615035565b915050611a9b565b5060405184815233907fe90005560cd386bf9d168cec08a675ec21753c51f9b52ead8f5c995ea5412f1b9060200160405180910390a250505090565b600080611b31613f4d565b90506000611b3e82613ff4565b61ffff16905080600003611b6557604051632154bfcf60e21b815260040160405180910390fd5b611b70600283614f42565b915060005b81811015611c38576000611b888461402e565b9050600080611b98606887614f42565b90506000611ba68236614f55565b9050803592508265ffffffffffff16600003611bd557604051630336dc9d60e41b815260040160405180910390fd5b87600003611bed578265ffffffffffff169750611c15565b878365ffffffffffff1614611c155760405163d9d1f46560e01b815260040160405180910390fd5b611c1f8488614f42565b9650505050508080611c3090615035565b915050611b75565b50505090565b611c4661390d565b60008111611c965760405162461bcd60e51b815260206004820181905260248201527f416d6f756e74206d7573742062652067726561746572207468616e207a65726f6044820152606401610d71565b611c9f3361406a565b6000611cac336000612b25565b905080821115611cd357818160405163adb9e04360e01b8152600401610d71929190614f8b565b6000611ce24262015180614f42565b90506000611cf3826202a300614f42565b60408051606081018252868152602080820186815282840185815233600081815260a48552868120805460018181018355918352959091208651600390960201948555925192840192909255516002909201919091559151929350917ff7e664c0da2f587b77873cf0f2c343841d19557b27f07a4fadf367fcabb15e6790611d8090889087908790614d4b565b60405180910390a2505050506115be6001606555565b611d9e61390d565b33600090815260a46020526040812090611dba8285858861417a565b9050611dc73382836118da565b611de35760405162461bcd60e51b8152600401610d7190614fb0565b825b8015611ed35760008585611dfa600185614f55565b818110611e0957611e09615009565b905060200201359050600060018580549050611e259190614f55565b9050808214611e8957848181548110611e4057611e40615009565b9060005260206000209060030201858381548110611e6057611e60615009565b600091825260209091208254600390920201908155600180830154908201556002918201549101555b84805480611e9957611e9961501f565b6000828152602081206003600019909301928302018181556001810182905560020155905550819050611ecb8161504e565b915050611de5565b50611edd33613bd4565b60a0546040516370a0823160e01b81526001600160a01b03909116906370a0823190611f0d903090600401614c07565b602060405180830381865afa158015611f2a573d6000803e3d6000fd5b505050506040513d601f19601f82011682018060405250810190611f4e9190614f13565b811115611f6e576040516316d5c93f60e21b815260040160405180910390fd5b30600090815260996020526040902054811115611f9e57604051630bba337f60e11b815260040160405180910390fd5b3060009081526099602052604081208054839290611fbd908490614f55565b90915550611fcd90503382613daf565b611fd56139f1565b609d546001600160a01b03161561205d57609d54604051630d5dbdb360e21b81526001600160a01b0390911690633576f6cc906120189084903390600401614f99565b6020604051808303816000875af1158015612037573d6000803e3d6000fd5b505050506040513d601f19601f8201168201806040525081019061205b9190614f13565b505b61206633613cff565b60a054604051632e1a7d4d60e01b8152600481018390526001600160a01b0390911690632e1a7d4d90602401600060405180830381600087803b1580156120ac57600080fd5b505af11580156120c0573d6000803e3d6000fd5b506120d1925033915083905061445c565b336001600160a01b03166000805160206151bb83398151915282426040516120fa929190614f8b565b60405180910390a2505061210e6001606555565b505050565b61211b61390d565b33600090815260a460205260408120906121378285858861417a565b90506121443382836118da565b6121605760405162461bcd60e51b8152600401610d7190614fb0565b825b80156122505760008585612177600185614f55565b81811061218657612186615009565b9050602002013590506000600185805490506121a29190614f55565b9050808214612206578481815481106121bd576121bd615009565b90600052602060002090600302018583815481106121dd576121dd615009565b600091825260209091208254600390920201908155600180830154908201556002918201549101555b848054806122165761221661501f565b60008281526020812060036000199093019283020181815560018101829055600201559055508190506122488161504e565b915050612162565b5061225a33613bd4565b60a0546040516370a0823160e01b81526001600160a01b03909116906370a082319061228a903090600401614c07565b602060405180830381865afa1580156122a7573d6000803e3d6000fd5b505050506040513d601f19601f820116820180604052508101906122cb9190614f13565b8111156122eb576040516316d5c93f60e21b815260040160405180910390fd5b3060009081526099602052604090205481111561231b57604051630bba337f60e11b815260040160405180910390fd5b306000908152609960205260408120805483929061233a908490614f55565b9091555061234a90503382613daf565b6123526139f1565b61235b33613cff565b609d546001600160a01b0316156123e357609d54604051630d5dbdb360e21b81526001600160a01b0390911690633576f6cc9061239e9084903390600401614f99565b6020604051808303816000875af11580156123bd573d6000803e3d6000fd5b505050506040513d601f19601f820116820180604052508101906123e19190614f13565b505b6120d13382613966565b609f546001600160a01b038281166000908152609a602052604080822054905163966da88960e01b81529193929092169163966da8899161243391908690600401614f99565b602060405180830381865afa158015612450573d6000803e3d6000fd5b505050506040513d601f19601f82011682018060405250810190610d069190614f13565b61247c61390d565b8160000361249d5760405163078e1d8560e01b815260040160405180910390fd5b6001600160a01b0381166124e25760405162461bcd60e51b815260206004820152600c60248201526b41646472657373207a65726f60a01b6044820152606401610d71565b306001600160a01b0382160361253a5760405162461bcd60e51b815260206004820181905260248201527f43616e6e6f74206465706f736974206f6e20626568616c66206f6620706f6f6c6044820152606401610d71565b60a0546040516370a0823160e01b81526125b69184916001600160a01b03909116906370a0823190612570903390600401614c07565b602060405180830381865afa15801561258d573d6000803e3d6000fd5b505050506040513d601f19601f820116820180604052508101906125b19190614f13565b613d99565b91506125c181613bd4565b6097541561260657609754306000908152609960205260409020546125e7908490614f42565b111561260657604051633f27d61760e01b815260040160405180910390fd5b6126103383613f35565b61261a8183614536565b3060009081526099602052604081208054849290612639908490614f42565b9091555061264790506139f1565b609d546001600160a01b0316156126bd57609d546040516328ba35d960e11b81526001600160a01b03909116906351746bb29061268a9085908590600401614f99565b600060405180830381600087803b1580156126a457600080fd5b505af11580156126b8573d6000803e3d6000fd5b505050505b806001600160a01b0316336001600160a01b03167fef0ada5ca19bede6a40b575865a6ce451938d26835b7215e6a5e03bb2c4392128442604051612702929190614f8b565b60405180910390a3610c8c6001606555565b609e546001600160a01b0382811660009081526099602052604080822054905163966da88960e01b81529193929092169163966da8899161243391908690600401614f99565b6127626138ae565b61276b81613984565b15801561278057506001600160a01b03811615155b156127a057806040516322a2d07b60e21b8152600401610d719190614c07565b609b80546001600160a01b0319166001600160a01b038316908117909155156127cb576127cb6139f1565b806001600160a01b03167fef1b7e9216e08b283cc613824ccb26ea505227777839a4f3c6810d64594e018242604051610dc491815260200190565b565b60a3546000906001600160a01b0316156128935760a360009054906101000a90046001600160a01b03166001600160a01b031663726cd4156040518163ffffffff1660e01b8152600401602060405180830381865afa15801561286f573d6000803e3d6000fd5b505050506040513d601f19601f820116820180604052508101906110869190615065565b50600090565b346000036128ba5760405163078e1d8560e01b815260040160405180910390fd5b6128c333613bd4565b6097541561290857609754306000908152609960205260409020546128e9903490614f42565b111561290857604051633f27d61760e01b815260040160405180910390fd5b60a060009054906101000a90046001600160a01b03166001600160a01b031663d0e30db0346040518263ffffffff1660e01b81526004016000604051808303818588803b15801561295857600080fd5b505af115801561296c573d6000803e3d6000fd5b505050505061297b3334614536565b306000908152609960205260408120805434929061299a908490614f42565b909155506129a890506139f1565b609d546001600160a01b031615612a1e57609d546040516328ba35d960e11b81526001600160a01b03909116906351746bb2906129eb9034903390600401614f99565b600060405180830381600087803b158015612a0557600080fd5b505af1158015612a19573d6000803e3d6000fd5b505050505b612a2733613cff565b336001600160a01b03167f90890809c654f11d6e72a28fa60149770a0d11ec6c92319d6ceb2bb0a4ea1a153442604051612a62929190614f8b565b60405180910390a2565b6000612a766145b6565b9050336001600160a01b03821614612ae85760405162461bcd60e51b815260206004820152602f60248201527f50656e64696e674f776e61626c653a2063616c6c6572206973206e6f7420746860448201526e32903832b73234b7339037bbb732b960891b6064820152608401610d71565b612af1816145c9565b6115be600061461b565b612b036138ae565b60a380546001600160a01b0319166001600160a01b0392909216919091179055565b600080612b3184612f69565b90506000612b3e85613549565b9050838111612b4e576000612b58565b612b588482614f55565b90506000612b6586612714565b90506000612b738385614f42565b905080821015612b865760009450612b93565b612b908183614f55565b94505b5050505092915050565b6033546001600160a01b031690565b60006001600160a01b038316612bd557604051633d6601c760e11b815260040160405180910390fd5b3360009081526098602090815260408083206001600160a01b038716845290915290205482811015612c1e57828160405163054365bb60e31b8152600401610d71929190614f8b565b6000612c2a8483614f55565b3360008181526098602090815260408083206001600160a01b038b168085529083529281902085905551848152939450909260008051602061519b833981519152910160405180910390a3506001949350505050565b6000612c8a61390d565b6001600160a01b038316612cb157604051633a954ecd60e21b815260040160405180910390fd5b306001600160a01b03841603612cda5760405163ed728e5760e01b815260040160405180910390fd5b612ce6338360006118da565b612cf6578161116c336000612b25565b33612d0081613bd4565b6001600160a01b038116600090815260996020526040902080548490039055612d2884613bd4565b6001600160a01b03841660009081526099602052604081208054859290612d50908490614f42565b9091555050609d546001600160a01b031615801590612d6e57508215155b15612e5857609d54604051630d5dbdb360e21b81526000916001600160a01b031690633576f6cc90612da69087908690600401614f99565b6020604051808303816000875af1158015612dc5573d6000803e3d6000fd5b505050506040513d601f19601f82011682018060405250810190612de99190614f13565b90508015612e5657609d546040516328ba35d960e11b81526001600160a01b03909116906351746bb290612e239084908990600401614f99565b600060405180830381600087803b158015612e3d57600080fd5b505af1158015612e51573d6000803e3d6000fd5b505050505b505b836001600160a01b0316816001600160a01b031660008051602061517b83398151915285604051612e8b91815260200190565b60405180910390a3612e9c33613cff565b6001915050610d066001606555565b60a260205281600052604060002081815481106115dd57600080fd5b6115be8133612474565b612ed9614b41565b6040518060a00160405280612eec61107b565b8152602001612ef9612f28565b8152602001612f066136b1565b8152602001612f136119a0565b8152602001670cd64299613c80009052919050565b609b546000906001600160a01b0316637cd08331612f446119a0565b612f4c61107b565b6040518363ffffffff1660e01b8152600401611632929190614f8b565b600080805b6001600160a01b038416600090815260a2602052604090205481101561302f576001600160a01b038416600090815260a260205260409020805442919083908110612fbb57612fbb615009565b906000526020600020906003020160020154111561301d576001600160a01b038416600090815260a260205260409020805482908110612ffd57612ffd615009565b9060005260206000209060030201600101548261301a9190614f42565b91505b8061302781615035565b915050612f6e565b5092915050565b6000805b6001600160a01b038316600090815260a26020526040902054811015613150576001600160a01b038316600090815260a26020526040902080544291908390811061308757613087615009565b906000526020600020906003020160020154111561313e576001600160a01b038316600090815260a26020526040902080546305a39a809190839081106130d0576130d0615009565b600091825260208083206003909202909101546001600160a01b038716835260a2909152604090912080548490811061310b5761310b615009565b9060005260206000209060030201600101546131279190615082565b6131319190615099565b61313b9083614f42565b91505b8061314881615035565b91505061303a565b50919050565b609c546001600160a01b031661317f57604051631c038dab60e21b815260040160405180910390fd5b609c5460405163039ff21960e21b81526001600160a01b0390911690630e7fc864906131af903390600401614c07565b602060405180830381865afa1580156131cc573d6000803e3d6000fd5b505050506040513d601f19601f820116820180604052508101906131f091906150bb565b61320d57604051637582fa9b60e11b815260040160405180910390fd5b61321561107b565b600003613235576040516316d5c93f60e21b815260040160405180910390fd5b61323d61390d565b60a0546040516370a0823160e01b81526001600160a01b03909116906370a082319061326d903090600401614c07565b602060405180830381865afa15801561328a573d6000803e3d6000fd5b505050506040513d601f19601f820116820180604052508101906132ae9190614f13565b8111156132ce576040516316d5c93f60e21b815260040160405180910390fd5b6132d733613e2f565b336000908152609a6020526040812080548392906132f6908490614f42565b9091555050306000908152609a60205260408120805483929061331a908490614f42565b9091555061332a90503382613966565b6133326139f1565b336001600160a01b03167fd6b37be10b58108f696d9ed067fedad0bff7cb417ef4c28d2f8a25d6d83c98d5824260405161336d929190614f8b565b60405180910390a261337f6001606555565b670cd64299613c800061339061107b565b6133986119a0565b6133aa90670de0b6b3a7640000615082565b6133b49190615099565b11156115be576040516372b9ce3f60e11b815260040160405180910390fd5b816133df336000612b25565b101561342c5760405162461bcd60e51b815260206004820152601c60248201527b496e73756666696369656e742062616c616e636520746f206c6f636b60201b6044820152606401610d71565b6305a39a8081111561348a5760405162461bcd60e51b815260206004820152602160248201527f43616e6e6f74206c6f636b20666f72206d6f7265207468616e203320796561726044820152607360f81b6064820152608401610d71565b33600090815260a2602090815260409182902082516060810184528481529182018590529181016134bb8442614f42565b905281546001818101845560009384526020938490208351600390930201918255928201519281019290925560400151600290910155337fada80de846c2fa6289ae8db8bd0145346851ca76d49946df18240ebbf97200a7838361351f8142614f42565b60405161352e93929190614d4b565b60405180910390a2610c8c33613cff565b60006110866145b6565b6001600160a01b038116600090815260a460205260408120815b81548110156135da5781818154811061357e5761357e615009565b90600052602060002090600302016002015442116135c8578181815481106135a8576135a8615009565b906000526020600020906003020160000154836135c59190614f42565b92505b806135d281615035565b915050613563565b5050919050565b6128063361406a565b6135f26138ae565b6001600160a01b03811661365e5760405162461bcd60e51b815260206004820152602d60248201527f50656e64696e674f776e61626c653a206e6577206f776e65722069732074686560448201526c207a65726f206164647265737360981b6064820152608401610d71565b6136678161461b565b806001600160a01b0316613679612b9d565b6001600160a01b03167fed8889f560326eb138920d842192f0eb3dd22b4f139c87a2c57538e05bae127860405160405180910390a350565b609b546000906001600160a01b031663df841eec612f446119a0565b6001600160a01b038116600090815260a4602052604081208054606092906001600160401b03811115613702576137026150dd565b60405190808252806020026020018201604052801561376257816020015b6040805160c08101825260008082526020808301829052928201819052606082018190526080820181905260a082015282526000199092019101816137205790505b50905060005b825481101561382857600083828154811061378557613785615009565b906000526020600020906003020190506040518060c001604052808260000154815260200182600101548152602001826002015481526020018260010154421015158152602001826001015442101580156137e4575082600201544211155b1515815260200182600201544211151581525083838151811061380957613809615009565b602002602001018190525050808061382090615035565b915050613768565b509392505050565b6138386138ae565b61384181613984565b61386057806040516322a2d07b60e21b8152600401610d719190614c07565b609c80546001600160a01b0319166001600160a01b0383169081179091556040514281527f04dce7d074f7e287a2e6e3516c802271d58d5c14e0dede83a49719eb6b92046990602001610dc4565b336138b7612b9d565b6001600160a01b0316146128065760405162461bcd60e51b815260206004820181905260248201527f4f776e61626c653a2063616c6c6572206973206e6f7420746865206f776e65726044820152606401610d71565b60026065540361395f5760405162461bcd60e51b815260206004820152601f60248201527f5265656e7472616e637947756172643a207265656e7472616e742063616c6c006044820152606401610d71565b6002606555565b60a054610c8c906001600160a01b0316838361462d565b6001606555565b6001600160a01b03163b151590565b600054610100900460ff166139ba5760405162461bcd60e51b8152600401610d71906150f3565b612806614757565b600054610100900460ff166139e95760405162461bcd60e51b8152600401610d71906150f3565b612806614787565b60006139fb6119a0565b90506000613a0761107b565b609b549091506001600160a01b0316613a335760405163fd4851e960e01b815260040160405180910390fd5b609e54609b54604051637cd0833160e01b81526001600160a01b03928316926334fcf437921690637cd0833190613a709087908790600401614f8b565b602060405180830381865afa158015613a8d573d6000803e3d6000fd5b505050506040513d601f19601f82011682018060405250810190613ab19190614f13565b6040518263ffffffff1660e01b8152600401613acf91815260200190565b600060405180830381600087803b158015613ae957600080fd5b505af1158015613afd573d6000803e3d6000fd5b5050609f54609b546040516337e107bb60e21b81526001600160a01b0392831694506334fcf437935091169063df841eec90613b3f9087908790600401614f8b565b602060405180830381865afa158015613b5c573d6000803e3d6000fd5b505050506040513d601f19601f82011682018060405250810190613b809190614f13565b6040518263ffffffff1660e01b8152600401613b9e91815260200190565b600060405180830381600087803b158015613bb857600080fd5b505af1158015613bcc573d6000803e3d6000fd5b505050505050565b6001600160a01b038116600090815260996020526040812054613bf683612714565b613c009190614f55565b9050613c0c8282614536565b613c1530612714565b306000908152609960205260409081902091909155516001600160a01b038316907f9bbd517758fbae61197f1c1c04c8614064e89512dbaf4350dcdf76fcaa5e216190613c659084904290614f8b565b60405180910390a2609e54604051637681d99b60e11b81526001600160a01b039091169063ed03b33690613c9d908590600401614c07565b600060405180830381600087803b158015613cb757600080fd5b505af1158015613ccb573d6000803e3d6000fd5b5050609e54604051637681d99b60e11b81526001600160a01b03909116925063ed03b3369150613b9e903090600401614c07565b6000613d09612808565b90506001600160a01b03811615610c8c57613d22610d0c565b15613d6d5761210e8183604051602401613d3c9190614c07565b60408051601f198184030181529190526020810180516001600160e01b0316636cec346160e01b17905260006147ae565b6040516328e98e7360e01b81526001600160a01b038216906328e98e7390613b9e908590600401614c07565b6000818310613da85781611380565b5090919050565b6001600160a01b038216600090815260996020526040902054811115613de857604051630bba337f60e11b815260040160405180910390fd5b6001600160a01b0382166000818152609960209081526040808320805486900390555184815291929160008051602061517b83398151915291015b60405180910390a35050565b613e38816123ed565b6001600160a01b0382166000908152609a6020526040902055613e5a306123ed565b306000908152609a60205260409081902091909155609f549051637681d99b60e11b81526001600160a01b039091169063ed03b33690613e9e908490600401614c07565b600060405180830381600087803b158015613eb857600080fd5b505af1158015613ecc573d6000803e3d6000fd5b5050609f54604051637681d99b60e11b81526001600160a01b03909116925063ed03b3369150613f00903090600401614c07565b600060405180830381600087803b158015613f1a57600080fd5b505af1158015613f2e573d6000803e3d6000fd5b5050505050565b60a054610c8c906001600160a01b0316833084614837565b60006602ed57011e0000601f1936013581161480613f7e576040516373bb264f60e11b815260040160405180910390fd5b60003660291115613fa257604051632bcb7bc560e11b815260040160405180910390fd5b5060281936013560006009613fbd600362ffffff8516614f42565b613fc79190614f42565b905036613fd5600283614f42565b11156113805760405163c30a7bd760e01b815260040160405180910390fd5b600080614002602084614f42565b90503681111561402557604051632bcb7bc560e11b815260040160405180910390fd5b36033592915050565b600080600061403c8461496d565b9092509050604e61404e826020614f42565b6140589084615082565b6140629190614f42565b949350505050565b6001600160a01b038116600090815260a460205260408120905b815481101561210e5781818154811061409f5761409f615009565b9060005260206000209060030201600201544211156141685781546000906140c990600190614f55565b905080821461412d578281815481106140e4576140e4615009565b906000526020600020906003020183838154811061410457614104615009565b600091825260209091208254600390920201908155600180830154908201556002918201549101555b8280548061413d5761413d61501f565b6000828152602081206003600019909301928302018181556001810182905560020155905550614084565b8061417281615035565b915050614084565b6000826141c95760405162461bcd60e51b815260206004820181905260248201527f4d7573742070726f76696465206174206c65617374206f6e6520696e74656e746044820152606401610d71565b60015b838110156142825784846141e1600184614f55565b8181106141f0576141f0615009565b9050602002013585858381811061420957614209615009565b90506020020135116142705760405162461bcd60e51b815260206004820152602a60248201527f496e74656e7420696e6469636573206d757374206265207374726963746c7920604482015269696e6372656173696e6760b01b6064820152608401610d71565b8061427a81615035565b9150506141cc565b506000805b848110156143ba5760008686838181106142a3576142a3615009565b905060200201359050878054905081106142cf5760405162461bcd60e51b8152600401610d7190614fdb565b60008882815481106142e3576142e3615009565b9060005260206000209060030201905080600101544210156143475760405162461bcd60e51b815260206004820152601d60248201527f5769746864726177616c20696e74656e74206e6f74206d6174757265640000006044820152606401610d71565b80600201544211156143975760405162461bcd60e51b815260206004820152601960248201527815da5d1a191c985dd85b081a5b9d195b9d08195e1c1a5c9959603a1b6044820152606401610d71565b80546143a39085614f42565b9350505080806143b290615035565b915050614287565b5060006143c8606483615099565b6143d29083614f42565b9050808411156144435760405162461bcd60e51b815260206004820152603660248201527f52657175657374656420616d6f756e74206578636565647320696e74656e7420604482015275616d6f756e74206279206d6f7265207468616e20312560501b6064820152608401610d71565b614451846125b13385612b25565b979650505050505050565b604080516000808252602082019092526001600160a01b038416908390604051614486919061513e565b60006040518083038185875af1925050503d80600081146144c3576040519150601f19603f3d011682016040523d82523d6000602084013e6144c8565b606091505b505090508061210e5760405162461bcd60e51b815260206004820152603460248201527f5472616e7366657248656c7065723a3a736166655472616e736665724554483a60448201527308115512081d1c985b9cd9995c8819985a5b195960621b6064820152608401610d71565b6001600160a01b03821661455d576040516346dbfb6d60e11b815260040160405180910390fd5b6001600160a01b03821660009081526099602052604081208054839290614585908490614f42565b90915550506040518181526001600160a01b0383169060009060008051602061517b83398151915290602001613e23565b60008051602061515b8339815191525490565b603380546001600160a01b038381166001600160a01b0319831681179093556040519116919082907f8be0079c531659141344cd1fd0a4f28419497f9722a3daafe3b4186f6b6457e090600090a35050565b60008051602061515b83398151915255565b604080516001600160a01b038481166024830152604480830185905283518084039091018152606490920183526020820180516001600160e01b031663a9059cbb60e01b1790529151600092839290871691614689919061513e565b6000604051808303816000865af19150503d80600081146146c6576040519150601f19603f3d011682016040523d82523d6000602084013e6146cb565b606091505b50915091508180156146f55750805115806146f55750808060200190518101906146f591906150bb565b613f2e5760405162461bcd60e51b815260206004820152602d60248201527f5472616e7366657248656c7065723a3a736166655472616e736665723a20747260448201526c185b9cd9995c8819985a5b1959609a1b6064820152608401610d71565b600054610100900460ff1661477e5760405162461bcd60e51b8152600401610d71906150f3565b612806336145c9565b600054610100900460ff1661397d5760405162461bcd60e51b8152600401610d71906150f3565b606060006147bb846149c4565b9050600080866001600160a01b0316856147d65760006147d8565b345b846040516147e6919061513e565b60006040518083038185875af1925050503d8060008114614823576040519150601f19603f3d011682016040523d82523d6000602084013e614828565b606091505b50915091506144518282614a53565b604080516001600160a01b0385811660248301528481166044830152606480830185905283518084039091018152608490920183526020820180516001600160e01b03166323b872dd60e01b179052915160009283929088169161489b919061513e565b6000604051808303816000865af19150503d80600081146148d8576040519150601f19603f3d011682016040523d82523d6000602084013e6148dd565b606091505b509150915081801561490757508051158061490757508080602001905181019061490791906150bb565b613bcc5760405162461bcd60e51b815260206004820152603160248201527f5472616e7366657248656c7065723a3a7472616e7366657246726f6d3a207472604482015270185b9cd9995c919c9bdb4819985a5b1959607a1b6064820152608401610d71565b60008080808061497e604187614f42565b90506000614997614990602084614f42565b3690614aca565b8035945090506149a8816003614aca565b62ffffff9490941697933563ffffffff16965092945050505050565b805160609060006149d3614ad6565b905060006149e18284614f42565b905036821115614a0457604051632bcb7bc560e11b815260040160405180910390fd5b6060604051905081815285602001848101826020015b81831015614a32578251815260209283019201614a1a565b50505082833603856020018301379190920181016020016040529392505050565b606082613150578151600003614a7c57604051632b3ff13d60e11b815260040160405180910390fd5b602082015162461bcd60e51b148015614aaf576040516301efd04f60e31b81526044840190610d71908290600401614baf565b8260405163fd36fde360e01b8152600401610d719190614baf565b60006113808284614f55565b600080614ae1613f4d565b90506000614aee82613ff4565b61ffff169050614aff600283614f42565b915060005b81811015614b39576000614b178461402e565b9050614b238185614f42565b9350508080614b3190615035565b915050614b04565b509092915050565b6040518060a001604052806005906020820280368337509192915050565b60005b83811015614b7a578181015183820152602001614b62565b50506000910152565b60008151808452614b9b816020860160208601614b5f565b601f01601f19169290920160200192915050565b6020815260006113806020830184614b83565b6001600160a01b03811681146115be57600080fd5b60008060408385031215614bea57600080fd5b823591506020830135614bfc81614bc2565b809150509250929050565b6001600160a01b0391909116815260200190565b600060208284031215614c2d57600080fd5b813561138081614bc2565b60008060408385031215614c4b57600080fd5b8235614c5681614bc2565b946020939093013593505050565b600080600080600080600060e0888a031215614c7f57600080fd5b8735614c8a81614bc2565b96506020880135614c9a81614bc2565b95506040880135614caa81614bc2565b94506060880135614cba81614bc2565b93506080880135614cca81614bc2565b925060a0880135614cda81614bc2565b8092505060c0880135905092959891949750929550565b600080600060608486031215614d0657600080fd5b8335614d1181614bc2565b92506020840135614d2181614bc2565b929592945050506040919091013590565b600060208284031215614d4457600080fd5b5035919050565b9283526020830191909152604082015260600190565b600080600060608486031215614d7657600080fd5b8335614d8181614bc2565b95602085013595506040909401359392505050565b600080600060408486031215614dab57600080fd5b8335925060208401356001600160401b0380821115614dc957600080fd5b818601915086601f830112614ddd57600080fd5b813581811115614dec57600080fd5b8760208260051b8501011115614e0157600080fd5b6020830194508093505050509250925092565b60a08101818360005b6005811015614e3c578151835260209283019290910190600101614e1d565b50505092915050565b60008060408385031215614e5857600080fd5b8235614e6381614bc2565b91506020830135614bfc81614bc2565b60008060408385031215614e8657600080fd5b50508035926020909101359150565b602080825282518282018190526000919060409081850190868401855b82811015614f06578151805185528681015187860152858101518686015260608082015115159086015260808082015115159086015260a09081015115159085015260c09093019290850190600101614eb2565b5091979650505050505050565b600060208284031215614f2557600080fd5b5051919050565b634e487b7160e01b600052601160045260246000fd5b80820180821115610d0657610d06614f2c565b81810381811115610d0657610d06614f2c565b600060208284031215614f7a57600080fd5b815160ff8116811461138057600080fd5b918252602082015260400190565b9182526001600160a01b0316602082015260400190565b60208082526011908201527010985b185b98d9481a5cc81b1bd8dad959607a1b604082015260600190565b602080825260149082015273092dcecc2d8d2c840d2dce8cadce840d2dcc8caf60631b604082015260600190565b634e487b7160e01b600052603260045260246000fd5b634e487b7160e01b600052603160045260246000fd5b60006001820161504757615047614f2c565b5060010190565b60008161505d5761505d614f2c565b506000190190565b60006020828403121561507757600080fd5b815161138081614bc2565b8082028115828204841417610d0657610d06614f2c565b6000826150b657634e487b7160e01b600052601260045260246000fd5b500490565b6000602082840312156150cd57600080fd5b8151801515811461138057600080fd5b634e487b7160e01b600052604160045260246000fd5b6020808252602b908201527f496e697469616c697a61626c653a20636f6e7472616374206973206e6f74206960408201526a6e697469616c697a696e6760a81b606082015260800190565b60008251615150818460208701614b5f565b919091019291505056fe63a0d9df49fae3f1b9d24f8dc819a568c429a1b11d0d8e9de63df53a0194acb2ddf252ad1be2c89b69c2b068fc378daa952ba7f163c4a11628f55a4df523b3ef8c5be1e5ebec7d5bd14f71427d1e84f3dd0314c0f7b2291e5b200ac8c7c3b925df273cb619d95419a9cd0ec88123a0538c85064229baa6363788f743fff90deba264697066735822122045e05b5d09ae0e1d9afff645f6568d65ee9cd8621ca1bd0a34f4017c106f41bf64736f6c63430008110033",
  "devdoc": {
    "details": "Contract allowing user to deposit to and borrow WETH from a dedicated user account",
    "errors": {
      "InsufficientAllowance(uint256,uint256)": [
        {
          "params": {
            "allowance": "current allowance",
            "requested": "requested transfer amount"
          }
        }
      ],
      "TransferAmountExceedsBalance(uint256,uint256)": [
        {
          "params": {
            "amount": "transfer amount",
            "balance": "available balance"
          }
        }
      ]
    },
    "kind": "dev",
    "methods": {
      "allowance(address,address)": {
        "details": "Returns the remaining number of tokens that `spender` will be allowed to spend on behalf of `owner` through {transferFrom}. This is zero by default. This value changes when {approve} or {transferFrom} are called."
      },
      "approve(address,uint256)": {
        "details": "Sets `amount` as the allowance of `spender` over the caller's tokens. Returns a boolean value indicating whether the operation succeeded. IMPORTANT: Beware that changing an allowance with this method brings the risk that someone may use both the old and the new allowance by unfortunate transaction ordering. One possible solution to mitigate this race condition is to first reduce the spender's allowance to 0 and set the desired value afterwards: https://github.com/ethereum/EIPs/issues/20#issuecomment-263524729 Emits an {Approval} event."
      },
      "balanceOf(address)": {
        "details": "_user the address of queried depositor*"
      },
      "borrow(uint256)": {
        "details": "_amount the amount to be borrowedIt is only meant to be used by a SmartLoanDiamondProxy*"
      },
      "cleanExpiredLocks()": {
        "details": "This function should be called periodically to prevent array growth",
        "returns": {
          "count": "Number of locks removed"
        }
      },
      "getBorrowed(address)": {
        "details": "_user the address of queried borrower*"
      },
      "getFullyVestedLockedBalance(address)": {
        "details": "The fully vested locked balance is used in the governance mechanism of the system, specifically for the allocation of vPrime tokens. The method calculates the fully vested locked balance by iterating over all the locks of the account and summing up the amounts of those locks that are still active (i.e., their `unlockTime` is greater than the current block timestamp). However, the amount of each lock is scaled by the ratio of its `lockTime` to the `MAX_LOCK_TIME` (3 years). This means that the longer the lock time, the larger the contribution of the lock to the fully vested locked balance. The fully vested locked balance is used to calculate the maximum vPrime allocation for a user. Users accrue vPrime over a period of 3 years, from 0 to the maximum vPrime based on their 10-1 pairs of pool-deposit and sPrime. Locking pool deposits and sPrime immediately vests the vPrime.",
        "params": {
          "account": "The address of the account for which to calculate the fully vested locked balance."
        },
        "returns": {
          "fullyVestedBalance": "The fully vested locked balance of the provided account."
        }
      },
      "getTotalIntentAmount(address)": {
        "details": "user the address of the queried user*"
      },
      "getUserIntents(address)": {
        "details": "Returns array of all intents with their current status for a given user",
        "params": {
          "user": "Address of the user to check intents for"
        },
        "returns": {
          "_0": "Array of IntentInfo structs containing all intent details and status*"
        }
      },
      "owner()": {
        "details": "Returns the address of the current owner."
      },
      "renounceOwnership()": {
        "details": "Leaves the contract without owner. It will not be possible to call `onlyOwner` functions. Can only be called by the current owner. NOTE: Renouncing ownership will leave the contract without an owner, thereby disabling any functionality that is only available to the owner."
      },
      "repay(uint256)": {
        "details": "It is only meant to be used by a SmartLoanDiamondProxy*"
      },
      "setBorrowersRegistry(address)": {
        "details": "borrowersRegistry the address of borrowers registry*"
      },
      "setPoolRewarder(address)": {
        "details": "_poolRewarder the address of PoolRewarder*"
      },
      "setRatesCalculator(address)": {
        "details": "ratesCalculator the address of rates calculator*"
      },
      "setTotalSupplyCap(uint256)": {
        "details": "_newTotalSupplyCap new deposit cap*"
      },
      "totalSupply()": {
        "details": "Returns the amount of tokens in existence."
      },
      "withdraw(uint256,uint256[])": {
        "params": {
          "_amount": "the total amount to be withdrawn",
          "intentIndices": "array of intent indices to be used for withdrawal*"
        }
      },
      "withdrawInstant(uint256)": {
        "details": "_amount the amount to be withdrawn*"
      },
      "withdrawNativeToken(uint256,uint256[])": {
        "params": {
          "_amount": "The amount to be withdrawn.",
          "intentIndices": "array of intent indices to be used for withdrawal"
        }
      }
    },
    "title": "WethPool",
    "version": 1
  },
  "userdoc": {
    "kind": "user",
    "methods": {
      "balanceOf(address)": {
        "notice": "Returns the current deposited amount for the given user The value includes the interest rates earned at the current moment"
      },
      "borrow(uint256)": {
        "notice": "Borrows the specified amount It updates user borrowed balance, total borrowed amount and rates"
      },
      "cleanExpiredLocks()": {
        "notice": "Removes expired locks for the caller"
      },
      "deposit(uint256)": {
        "notice": "Deposits the amount It updates user deposited balance, total deposited and rates*"
      },
      "depositNativeToken()": {
        "notice": "Wraps and deposits the amount of native token attached to the transaction."
      },
      "depositOnBehalf(uint256,address)": {
        "notice": "Deposits the amount on behalf of `_of` user. It updates `_of` user deposited balance, total deposited and rates*"
      },
      "getBorrowed(address)": {
        "notice": "Returns the current borrowed amount for the given user The value includes the interest rates owned at the current moment"
      },
      "getBorrowingRate()": {
        "notice": "Returns the current interest rate for borrowings*"
      },
      "getDepositRate()": {
        "notice": "Returns the current interest rate for deposits*"
      },
      "getFullPoolStatus()": {
        "notice": "Returns full pool status"
      },
      "getFullyVestedLockedBalance(address)": {
        "notice": "Calculates and returns the fully vested locked balance for a given account."
      },
      "getTotalIntentAmount(address)": {
        "notice": "Returns the total amount of the withdrawal intents for the given user"
      },
      "recoverSurplus(uint256,address)": {
        "notice": "Recovers the surplus funds resultant from difference between deposit and borrowing rates*"
      },
      "repay(uint256)": {
        "notice": "Repays the amount It updates user borrowed balance, total borrowed amount and rates"
      },
      "setBorrowersRegistry(address)": {
        "notice": "Sets the new borrowers registry contract. The borrowers registry decides if an account can borrow funds. Only the owner of the Contract can execute this function."
      },
      "setPoolRewarder(address)": {
        "notice": "Sets the new Pool Rewarder. The IPoolRewarder that distributes additional token rewards to people having a stake in this pool proportionally to their stake and time of participance. Only the owner of the Contract can execute this function."
      },
      "setRatesCalculator(address)": {
        "notice": "Sets the new rate calculator. The calculator is an external contract that contains the logic for calculating deposit and borrowing rates. Only the owner of the Contract can execute this function."
      },
      "setTotalSupplyCap(uint256)": {
        "notice": "Sets new totalSupplyCap limiting how much in total can be deposited to the Pool. Only the owner of the Contract can execute this function."
      },
      "withdraw(uint256,uint256[])": {
        "notice": "Withdraws selected amount using multiple intents"
      },
      "withdrawInstant(uint256)": {
        "notice": "Withdraws without withdrawal queue, to be used by DEPOSIT_SWAP contract only"
      },
      "withdrawNativeToken(uint256,uint256[])": {
        "notice": "Unwraps and withdraws the specified amount from the user's deposits, enforcing withdrawal intents."
      }
    },
    "version": 1
  },
  "storageLayout": {
    "storage": [
      {
        "astId": 138,
        "contract": "contracts/deployment/arbitrum/WethPool.sol:WethPool",
        "label": "_initialized",
        "offset": 0,
        "slot": "0",
        "type": "t_uint8"
      },
      {
        "astId": 141,
        "contract": "contracts/deployment/arbitrum/WethPool.sol:WethPool",
        "label": "_initializing",
        "offset": 1,
        "slot": "0",
        "type": "t_bool"
      },
      {
        "astId": 755,
        "contract": "contracts/deployment/arbitrum/WethPool.sol:WethPool",
        "label": "__gap",
        "offset": 0,
        "slot": "1",
        "type": "t_array(t_uint256)50_storage"
      },
      {
        "astId": 10,
        "contract": "contracts/deployment/arbitrum/WethPool.sol:WethPool",
        "label": "_owner",
        "offset": 0,
        "slot": "51",
        "type": "t_address"
      },
      {
        "astId": 130,
        "contract": "contracts/deployment/arbitrum/WethPool.sol:WethPool",
        "label": "__gap",
        "offset": 0,
        "slot": "52",
        "type": "t_array(t_uint256)49_storage"
      },
      {
        "astId": 314,
        "contract": "contracts/deployment/arbitrum/WethPool.sol:WethPool",
        "label": "_status",
        "offset": 0,
        "slot": "101",
        "type": "t_uint256"
      },
      {
        "astId": 383,
        "contract": "contracts/deployment/arbitrum/WethPool.sol:WethPool",
        "label": "__gap",
        "offset": 0,
        "slot": "102",
        "type": "t_array(t_uint256)49_storage"
      },
      {
        "astId": 3504,
        "contract": "contracts/deployment/arbitrum/WethPool.sol:WethPool",
        "label": "totalSupplyCap",
        "offset": 0,
        "slot": "151",
        "type": "t_uint256"
      },
      {
        "astId": 3510,
        "contract": "contracts/deployment/arbitrum/WethPool.sol:WethPool",
        "label": "_allowed",
        "offset": 0,
        "slot": "152",
        "type": "t_mapping(t_address,t_mapping(t_address,t_uint256))"
      },
      {
        "astId": 3514,
        "contract": "contracts/deployment/arbitrum/WethPool.sol:WethPool",
        "label": "_deposited",
        "offset": 0,
        "slot": "153",
        "type": "t_mapping(t_address,t_uint256)"
      },
      {
        "astId": 3518,
        "contract": "contracts/deployment/arbitrum/WethPool.sol:WethPool",
        "label": "borrowed",
        "offset": 0,
        "slot": "154",
        "type": "t_mapping(t_address,t_uint256)"
      },
      {
        "astId": 3521,
        "contract": "contracts/deployment/arbitrum/WethPool.sol:WethPool",
        "label": "ratesCalculator",
        "offset": 0,
        "slot": "155",
        "type": "t_contract(IRatesCalculator)8232"
      },
      {
        "astId": 3524,
        "contract": "contracts/deployment/arbitrum/WethPool.sol:WethPool",
        "label": "borrowersRegistry",
        "offset": 0,
        "slot": "156",
        "type": "t_contract(IBorrowersRegistry)8085"
      },
      {
        "astId": 3527,
        "contract": "contracts/deployment/arbitrum/WethPool.sol:WethPool",
        "label": "poolRewarder",
        "offset": 0,
        "slot": "157",
        "type": "t_contract(IPoolRewarder)8210"
      },
      {
        "astId": 3530,
        "contract": "contracts/deployment/arbitrum/WethPool.sol:WethPool",
        "label": "depositIndex",
        "offset": 0,
        "slot": "158",
        "type": "t_contract(IIndex)8156"
      },
      {
        "astId": 3533,
        "contract": "contracts/deployment/arbitrum/WethPool.sol:WethPool",
        "label": "borrowIndex",
        "offset": 0,
        "slot": "159",
        "type": "t_contract(IIndex)8156"
      },
      {
        "astId": 3535,
        "contract": "contracts/deployment/arbitrum/WethPool.sol:WethPool",
        "label": "tokenAddress",
        "offset": 0,
        "slot": "160",
        "type": "t_address_payable"
      },
      {
        "astId": 3538,
        "contract": "contracts/deployment/arbitrum/WethPool.sol:WethPool",
        "label": "vestingDistributor",
        "offset": 0,
        "slot": "161",
        "type": "t_contract(VestingDistributor)7547"
      },
      {
        "astId": 3540,
        "contract": "contracts/deployment/arbitrum/WethPool.sol:WethPool",
        "label": "_decimals",
        "offset": 20,
        "slot": "161",
        "type": "t_uint8"
      },
      {
        "astId": 3553,
        "contract": "contracts/deployment/arbitrum/WethPool.sol:WethPool",
        "label": "locks",
        "offset": 0,
        "slot": "162",
        "type": "t_mapping(t_address,t_array(t_struct(LockDetails)3547_storage)dyn_storage)"
      },
      {
        "astId": 3561,
        "contract": "contracts/deployment/arbitrum/WethPool.sol:WethPool",
        "label": "tokenManager",
        "offset": 0,
        "slot": "163",
        "type": "t_contract(ITokenManager)8543"
      },
      {
        "astId": 3587,
        "contract": "contracts/deployment/arbitrum/WethPool.sol:WethPool",
        "label": "withdrawalIntents",
        "offset": 0,
        "slot": "164",
        "type": "t_mapping(t_address,t_array(t_struct(WithdrawalIntent)3568_storage)dyn_storage)"
      }
    ],
    "types": {
      "t_address": {
        "encoding": "inplace",
        "label": "address",
        "numberOfBytes": "20"
      },
      "t_address_payable": {
        "encoding": "inplace",
        "label": "address payable",
        "numberOfBytes": "20"
      },
      "t_array(t_struct(LockDetails)3547_storage)dyn_storage": {
        "base": "t_struct(LockDetails)3547_storage",
        "encoding": "dynamic_array",
        "label": "struct Pool.LockDetails[]",
        "numberOfBytes": "32"
      },
      "t_array(t_struct(WithdrawalIntent)3568_storage)dyn_storage": {
        "base": "t_struct(WithdrawalIntent)3568_storage",
        "encoding": "dynamic_array",
        "label": "struct Pool.WithdrawalIntent[]",
        "numberOfBytes": "32"
      },
      "t_array(t_uint256)49_storage": {
        "base": "t_uint256",
        "encoding": "inplace",
        "label": "uint256[49]",
        "numberOfBytes": "1568"
      },
      "t_array(t_uint256)50_storage": {
        "base": "t_uint256",
        "encoding": "inplace",
        "label": "uint256[50]",
        "numberOfBytes": "1600"
      },
      "t_bool": {
        "encoding": "inplace",
        "label": "bool",
        "numberOfBytes": "1"
      },
      "t_contract(IBorrowersRegistry)8085": {
        "encoding": "inplace",
        "label": "contract IBorrowersRegistry",
        "numberOfBytes": "20"
      },
      "t_contract(IIndex)8156": {
        "encoding": "inplace",
        "label": "contract IIndex",
        "numberOfBytes": "20"
      },
      "t_contract(IPoolRewarder)8210": {
        "encoding": "inplace",
        "label": "contract IPoolRewarder",
        "numberOfBytes": "20"
      },
      "t_contract(IRatesCalculator)8232": {
        "encoding": "inplace",
        "label": "contract IRatesCalculator",
        "numberOfBytes": "20"
      },
      "t_contract(ITokenManager)8543": {
        "encoding": "inplace",
        "label": "contract ITokenManager",
        "numberOfBytes": "20"
      },
      "t_contract(VestingDistributor)7547": {
        "encoding": "inplace",
        "label": "contract VestingDistributor",
        "numberOfBytes": "20"
      },
      "t_mapping(t_address,t_array(t_struct(LockDetails)3547_storage)dyn_storage)": {
        "encoding": "mapping",
        "key": "t_address",
        "label": "mapping(address => struct Pool.LockDetails[])",
        "numberOfBytes": "32",
        "value": "t_array(t_struct(LockDetails)3547_storage)dyn_storage"
      },
      "t_mapping(t_address,t_array(t_struct(WithdrawalIntent)3568_storage)dyn_storage)": {
        "encoding": "mapping",
        "key": "t_address",
        "label": "mapping(address => struct Pool.WithdrawalIntent[])",
        "numberOfBytes": "32",
        "value": "t_array(t_struct(WithdrawalIntent)3568_storage)dyn_storage"
      },
      "t_mapping(t_address,t_mapping(t_address,t_uint256))": {
        "encoding": "mapping",
        "key": "t_address",
        "label": "mapping(address => mapping(address => uint256))",
        "numberOfBytes": "32",
        "value": "t_mapping(t_address,t_uint256)"
      },
      "t_mapping(t_address,t_uint256)": {
        "encoding": "mapping",
        "key": "t_address",
        "label": "mapping(address => uint256)",
        "numberOfBytes": "32",
        "value": "t_uint256"
      },
      "t_struct(LockDetails)3547_storage": {
        "encoding": "inplace",
        "label": "struct Pool.LockDetails",
        "members": [
          {
            "astId": 3542,
            "contract": "contracts/deployment/arbitrum/WethPool.sol:WethPool",
            "label": "lockTime",
            "offset": 0,
            "slot": "0",
            "type": "t_uint256"
          },
          {
            "astId": 3544,
            "contract": "contracts/deployment/arbitrum/WethPool.sol:WethPool",
            "label": "amount",
            "offset": 0,
            "slot": "1",
            "type": "t_uint256"
          },
          {
            "astId": 3546,
            "contract": "contracts/deployment/arbitrum/WethPool.sol:WethPool",
            "label": "unlockTime",
            "offset": 0,
            "slot": "2",
            "type": "t_uint256"
          }
        ],
        "numberOfBytes": "96"
      },
      "t_struct(WithdrawalIntent)3568_storage": {
        "encoding": "inplace",
        "label": "struct Pool.WithdrawalIntent",
        "members": [
          {
            "astId": 3563,
            "contract": "contracts/deployment/arbitrum/WethPool.sol:WethPool",
            "label": "amount",
            "offset": 0,
            "slot": "0",
            "type": "t_uint256"
          },
          {
            "astId": 3565,
            "contract": "contracts/deployment/arbitrum/WethPool.sol:WethPool",
            "label": "actionableAt",
            "offset": 0,
            "slot": "1",
            "type": "t_uint256"
          },
          {
            "astId": 3567,
            "contract": "contracts/deployment/arbitrum/WethPool.sol:WethPool",
            "label": "expiresAt",
            "offset": 0,
            "slot": "2",
            "type": "t_uint256"
          }
        ],
        "numberOfBytes": "96"
      },
      "t_uint256": {
        "encoding": "inplace",
        "label": "uint256",
        "numberOfBytes": "32"
      },
      "t_uint8": {
        "encoding": "inplace",
        "label": "uint8",
        "numberOfBytes": "1"
      }
    }
  }
}