{
  "address": "0x85CCd7F149A9b9F400a200017dA752F805De62a5",
  "abi": [
    {
      "inputs": [],
      "name": "CalldataMustHaveValidPayload",
      "type": "error"
    },
    {
      "inputs": [],
      "name": "CalldataOverOrUnderFlow",
      "type": "error"
    },
    {
      "inputs": [],
      "name": "DataPackageTimestampMustNotBeZero",
      "type": "error"
    },
    {
      "inputs": [],
      "name": "DataPackageTimestampsMustBeEqual",
      "type": "error"
    },
    {
      "inputs": [],
      "name": "EachSignerMustProvideTheSameValue",
      "type": "error"
    },
    {
      "inputs": [],
      "name": "EmptyCalldataPointersArr",
      "type": "error"
    },
    {
      "inputs": [],
      "name": "IncorrectUnsignedMetadataSize",
      "type": "error"
    },
    {
      "inputs": [
        {
          "internalType": "uint256",
          "name": "receivedSignersCount",
          "type": "uint256"
        },
        {
          "internalType": "uint256",
          "name": "requiredSignersCount",
          "type": "uint256"
        }
      ],
      "name": "InsufficientNumberOfUniqueSigners",
      "type": "error"
    },
    {
      "inputs": [],
      "name": "InvalidCalldataPointer",
      "type": "error"
    },
    {
      "inputs": [
        {
          "internalType": "bytes",
          "name": "result",
          "type": "bytes"
        }
      ],
      "name": "ProxyCalldataFailedWithCustomError",
      "type": "error"
    },
    {
      "inputs": [
        {
          "internalType": "string",
          "name": "message",
          "type": "string"
        }
      ],
      "name": "ProxyCalldataFailedWithStringMessage",
      "type": "error"
    },
    {
      "inputs": [],
      "name": "ProxyCalldataFailedWithoutErrMsg",
      "type": "error"
    },
    {
      "inputs": [],
      "name": "RedstonePayloadMustHaveAtLeastOneDataPackage",
      "type": "error"
    },
    {
      "inputs": [
        {
          "internalType": "address",
          "name": "receivedSigner",
          "type": "address"
        }
      ],
      "name": "SignerNotAuthorised",
      "type": "error"
    },
    {
      "anonymous": false,
      "inputs": [
        {
          "indexed": true,
          "internalType": "address",
          "name": "user",
          "type": "address"
        },
        {
          "indexed": true,
          "internalType": "bytes32",
          "name": "soldAsset",
          "type": "bytes32"
        },
        {
          "indexed": true,
          "internalType": "bytes32",
          "name": "boughtAsset",
          "type": "bytes32"
        },
        {
          "indexed": false,
          "internalType": "uint256",
          "name": "amountSold",
          "type": "uint256"
        },
        {
          "indexed": false,
          "internalType": "uint256",
          "name": "amountBought",
          "type": "uint256"
        },
        {
          "indexed": false,
          "internalType": "uint256",
          "name": "timestamp",
          "type": "uint256"
        }
      ],
      "name": "Swap",
      "type": "event"
    },
    {
      "inputs": [
        {
          "internalType": "bytes32[]",
          "name": "assetsToRepay",
          "type": "bytes32[]"
        }
      ],
      "name": "_getAllPricesForLiquidation",
      "outputs": [
        {
          "components": [
            {
              "components": [
                {
                  "internalType": "bytes32",
                  "name": "asset",
                  "type": "bytes32"
                },
                {
                  "internalType": "uint256",
                  "name": "price",
                  "type": "uint256"
                }
              ],
              "internalType": "struct SolvencyFacetProd.AssetPrice[]",
              "name": "ownedAssetsPrices",
              "type": "tuple[]"
            },
            {
              "components": [
                {
                  "internalType": "bytes32",
                  "name": "asset",
                  "type": "bytes32"
                },
                {
                  "internalType": "uint256",
                  "name": "price",
                  "type": "uint256"
                }
              ],
              "internalType": "struct SolvencyFacetProd.AssetPrice[]",
              "name": "debtAssetsPrices",
              "type": "tuple[]"
            },
            {
              "components": [
                {
                  "internalType": "bytes32",
                  "name": "asset",
                  "type": "bytes32"
                },
                {
                  "internalType": "uint256",
                  "name": "price",
                  "type": "uint256"
                }
              ],
              "internalType": "struct SolvencyFacetProd.AssetPrice[]",
              "name": "stakedPositionsPrices",
              "type": "tuple[]"
            },
            {
              "components": [
                {
                  "internalType": "bytes32",
                  "name": "asset",
                  "type": "bytes32"
                },
                {
                  "internalType": "uint256",
                  "name": "price",
                  "type": "uint256"
                }
              ],
              "internalType": "struct SolvencyFacetProd.AssetPrice[]",
              "name": "assetsToRepayPrices",
              "type": "tuple[]"
            }
          ],
          "internalType": "struct SolvencyFacetProd.CachedPrices",
          "name": "result",
          "type": "tuple"
        }
      ],
      "stateMutability": "nonpayable",
      "type": "function"
    },
    {
      "inputs": [],
      "name": "_getHealthRatio",
      "outputs": [
        {
          "internalType": "uint256",
          "name": "health",
          "type": "uint256"
        }
      ],
      "stateMutability": "nonpayable",
      "type": "function"
    },
    {
      "inputs": [
        {
          "components": [
            {
              "components": [
                {
                  "internalType": "bytes32",
                  "name": "asset",
                  "type": "bytes32"
                },
                {
                  "internalType": "uint256",
                  "name": "price",
                  "type": "uint256"
                }
              ],
              "internalType": "struct SolvencyFacetProd.AssetPrice[]",
              "name": "ownedAssetsPrices",
              "type": "tuple[]"
            },
            {
              "components": [
                {
                  "internalType": "bytes32",
                  "name": "asset",
                  "type": "bytes32"
                },
                {
                  "internalType": "uint256",
                  "name": "price",
                  "type": "uint256"
                }
              ],
              "internalType": "struct SolvencyFacetProd.AssetPrice[]",
              "name": "debtAssetsPrices",
              "type": "tuple[]"
            },
            {
              "components": [
                {
                  "internalType": "bytes32",
                  "name": "asset",
                  "type": "bytes32"
                },
                {
                  "internalType": "uint256",
                  "name": "price",
                  "type": "uint256"
                }
              ],
              "internalType": "struct SolvencyFacetProd.AssetPrice[]",
              "name": "stakedPositionsPrices",
              "type": "tuple[]"
            },
            {
              "components": [
                {
                  "internalType": "bytes32",
                  "name": "asset",
                  "type": "bytes32"
                },
                {
                  "internalType": "uint256",
                  "name": "price",
                  "type": "uint256"
                }
              ],
              "internalType": "struct SolvencyFacetProd.AssetPrice[]",
              "name": "assetsToRepayPrices",
              "type": "tuple[]"
            }
          ],
          "internalType": "struct SolvencyFacetProd.CachedPrices",
          "name": "cachedPrices",
          "type": "tuple"
        }
      ],
      "name": "_getHealthRatioWithPrices",
      "outputs": [
        {
          "internalType": "uint256",
          "name": "health",
          "type": "uint256"
        }
      ],
      "stateMutability": "nonpayable",
      "type": "function"
    },
    {
      "inputs": [],
      "name": "_getThresholdWeightedValue",
      "outputs": [
        {
          "internalType": "uint256",
          "name": "twv",
          "type": "uint256"
        }
      ],
      "stateMutability": "nonpayable",
      "type": "function"
    },
    {
      "inputs": [],
      "name": "_getThresholdWeightedValuePayable",
      "outputs": [
        {
          "internalType": "uint256",
          "name": "twv",
          "type": "uint256"
        }
      ],
      "stateMutability": "nonpayable",
      "type": "function"
    },
    {
      "inputs": [],
      "name": "extractTimestampsAndAssertAllAreEqual",
      "outputs": [
        {
          "internalType": "uint256",
          "name": "extractedTimestamp",
          "type": "uint256"
        }
      ],
      "stateMutability": "pure",
      "type": "function"
    },
    {
      "inputs": [
        {
          "internalType": "bytes32",
          "name": "symbol",
          "type": "bytes32"
        }
      ],
      "name": "getPrice",
      "outputs": [
        {
          "internalType": "uint256",
          "name": "price",
          "type": "uint256"
        }
      ],
      "stateMutability": "view",
      "type": "function"
    },
    {
      "inputs": [
        {
          "internalType": "address",
          "name": "adapter",
          "type": "address"
        }
      ],
      "name": "isWhitelistedAdapterOptimized",
      "outputs": [
        {
          "internalType": "bool",
          "name": "",
          "type": "bool"
        }
      ],
      "stateMutability": "pure",
      "type": "function"
    },
    {
      "inputs": [
        {
          "internalType": "uint256",
          "name": "_amountIn",
          "type": "uint256"
        },
        {
          "internalType": "uint256",
          "name": "_amountOut",
          "type": "uint256"
        },
        {
          "internalType": "address[]",
          "name": "_path",
          "type": "address[]"
        },
        {
          "internalType": "address[]",
          "name": "_adapters",
          "type": "address[]"
        }
      ],
      "name": "yakSwap",
      "outputs": [],
      "stateMutability": "nonpayable",
      "type": "function"
    }
  ],
  "transactionHash": "0xd829abb062690596af7afab770d9642feccb66c383bfab078fb28349ce52927a",
  "args": [],
  "numDeployments": 9,
  "solcInputHash": "c9d8033d6471b608ba7efae977384e9e",
  "bytecode": "0x608060405234801561001057600080fd5b50612623806100206000396000f3fe608060405234801561001057600080fd5b50600436106100835760003560e01c80631f7f8b271461008857806331d98b3f1461009d57806339e2719e146100c3578063530b3977146100cb57806355a547d5146100d35780636e3bfe9f146100db5780637088e379146100ee578063731dfa4d146100f6578063b2d40e7314610119575b600080fd5b61009b610096366004611dfd565b610139565b005b6100b06100ab366004611e7f565b610833565b6040519081526020015b60405180910390f35b6100b061089e565b6100b06108f9565b6100b061093c565b6100b06100e9366004611fda565b610a54565b6100b0610aba565b6101096101043660046120ca565b610afd565b60405190151581526020016100ba565b61012c6101273660046120e7565b610e1f565b6040516100ba91906121bd565b7f1c85eba10a4cf2d29c83fc15f97931886b9fd3caeb70d8c377aeedc58b919e3b8054600119016101b15760405162461bcd60e51b815260206004820152601f60248201527f5265656e7472616e637947756172643a207265656e7472616e742063616c6c0060448201526064015b60405180910390fd5b600281556101bd610e8a565b7fc8fcad8db84d3cc18b4c41d551ea0ee66dd599cde068d998e57d5e09332c1322547fc8fcad8db84d3cc18b4c41d551ea0ee66dd599cde068d998e57d5e09332c131c9042900361026a5760405162461bcd60e51b815260206004820152603160248201527f426f72726f77696e67206d7573742068617070656e20696e2061207374616e6460448201527030b637b732903a3930b739b0b1ba34b7b760791b60648201526084016101a8565b506000610275610f01565b905060005b8381101561031d576102ac8585838181106102975761029761223b565b905060200201602081019061010491906120ca565b61030b5760405162461bcd60e51b815260206004820152602a60248201527f59616b537761703a2041646170746572206e6f742077686974656c69737465646044820152691034b7103937baba32b960b11b60648201526084016101a8565b8061031581612267565b91505061027a565b506000610381878760008181106103365761033661223b565b905060200201602081019061034b91906120ca565b8888610358600182612280565b8181106103675761036761223b565b905060200201602081019061037c91906120ca565b610f19565b9050610399610393826000015161127a565b8a6112aa565b9850600089116104225760405162461bcd60e51b815260206004820152604860248201527f416d6f756e74206f6620746f6b656e7320746f2073656c6c2068617320746f2060448201527f62652067726561746572207468616e2030202f20496e73756666696369656e746064820152672062616c616e636560c01b608482015260a4016101a8565b61044361042d610f01565b60408301516001600160a01b03169060006112c2565b61046361044e610f01565b60408301516001600160a01b0316908b6112c2565b600060405180608001604052808b81526020018a815260200189898080602002602001604051908101604052809392919081815260200183836020028082843760009201919091525050509082525060408051602089810282810182019093528982529283019290918a918a91829185019084908082843760009201829052509390945250506040516335f96fc360e11b81529293506001600160a01b03861692636bf2df86925061051c9185913091906004016122cc565b600060405180830381600087803b15801561053657600080fd5b505af115801561054a573d6000803e3d6000fd5b5050505060008260a0015183606001516001600160a01b03166370a08231306040518263ffffffff1660e01b81526004016105859190612336565b602060405180830381865afa1580156105a2573d6000803e3d6000fd5b505050506040513d601f19601f820116820180604052508101906105c6919061234a565b6105d09190612280565b90508981101561061f5760405162461bcd60e51b815260206004820152601a602482015279125b9cdd59999a58da595b9d081bdd5d1c1d5d08185b5bdd5b9d60321b60448201526064016101a8565b600083604001516001600160a01b03166370a08231306040518263ffffffff1660e01b81526004016106519190612336565b602060405180830381865afa15801561066e573d6000803e3d6000fd5b505050506040513d601f19601f82011682018060405250810190610692919061234a565b84608001516106a19190612280565b905060006106ad6113f1565b90506106bd818660600151611409565b6106cb818660400151611409565b6106ec6106d6610f01565b60408701516001600160a01b03169060006112c2565b6020858101518651604080518681529384018790524290840152909133907f4cb7ea834525f7e7be14143ffc68be9c6735559e936d23502fff335d39a2e8e29060600160405180910390a450505050505060006107667f5bd9f2a6abfdcb78e37f3bb90d60590fbdd4c016af182813978c914fec39d57a90565b8054909150156107b65760405162461bcd60e51b815260206004820152601b60248201527a1058d8dbdd5b9d081a5cc818995a5b99c81b1a5c5d5a59185d1959602a1b60448201526064016101a8565b506107bf6115d1565b6108275760405162461bcd60e51b815260206004820152603360248201527f54686520616374696f6e206d617920636175736520616e206163636f756e74206044820152721d1bc8189958dbdb59481a5b9cdbdb1d995b9d606a1b60648201526084016101a8565b60019055505050505050565b60006108856108486331d98b3f60e01b611627565b6040805160248082018790528251808303909101815260449091019091526020810180516001600160e01b03166331d98b3f60e01b1790526116b2565b806020019051810190610898919061234a565b92915050565b60006108e16108b3637914334f60e01b611627565b6040805160048152602481019091526020810180516001600160e01b0316637914334f60e01b179052611735565b8060200190518101906108f4919061234a565b905090565b60006108e161090e63fd4344cd60e01b611627565b6040805160048152602481019091526020810180516001600160e01b031663fd4344cd60e01b179052611735565b60008061094761179a565b9050600061095482611841565b61ffff1690508060000361097b57604051632154bfcf60e21b815260040160405180910390fd5b610986600283612363565b915060005b81811015610a4e57600061099e8461187b565b90506000806109ae606887612363565b905060006109bc8236612280565b9050803592508265ffffffffffff166000036109eb57604051630336dc9d60e41b815260040160405180910390fd5b87600003610a03578265ffffffffffff169750610a2b565b878365ffffffffffff1614610a2b5760405163d9d1f46560e01b815260040160405180910390fd5b610a358488612363565b9650505050508080610a4690612267565b91505061098b565b50505090565b6000610885610a6963360398a360e01b611627565b60405163360398a360e01b90610a839086906024016121bd565b60408051601f198184030181529190526020810180516001600160e01b03166001600160e01b031990931692909217909152611735565b60006108e1610acf63caacc76160e01b611627565b6040805160048152602481019091526020810180516001600160e01b031663caacc76160e01b179052611735565b60006001600160a01b038216739b96595298a1ba7b6c389f217d55896960bbb4ae03610b2b57506001919050565b6001600160a01b03821673985d014da6e6c781ec3ff77e8fd48c30174f3d9603610b5757506001919050565b6001600160a01b0382167381544acdbcffdc9c0a265cfb220408e1e85aa43d03610b8357506001919050565b6001600160a01b03821673bf042126c0c0d2c658915c2d21922d3440092f4803610baf57506001919050565b6001600160a01b03821673784e00cd961a994eff675e889af6ca564689bf3903610bdb57506001919050565b6001600160a01b03821673b60ce5bf2a231eda70825f9cdcd0795102218ab003610c0757506001919050565b6001600160a01b038216733b2378a29f9cbdb1f20a72611c0f000af05630cb03610c3357506001919050565b6001600160a01b03821673fae8d5ff29ee5ced2fb213544093c09c1a39124e03610c5f57506001919050565b6001600160a01b038216739d8d45ad3388846e6f0062196e24df4c7654098b03610c8b57506001919050565b6001600160a01b03821673c37c9db4e84163b29996aa96adfec21683aba01703610cb757506001919050565b6001600160a01b038216738d82023ca60b904304033e6f990eabcedcf9630e03610ce357506001919050565b6001600160a01b038216739d609ad3c673e2ddb3047c3f3b3efa2ce14eb43603610d0f57506001919050565b6001600160a01b0382167319eb54ccb443aced9dcbc960ba98064a13262ef303610d3b57506001919050565b6001600160a01b038216734aacd032a541176ceeb39ab06d67637097819a3503610d6757506001919050565b6001600160a01b038216733b9645b2432374d9b3fa766b95d5a793d724119003610d9357506001919050565b6001600160a01b038216738d1a37e346dc5718cb9a8312f68b37a934be13ef03610dbf57506001919050565b6001600160a01b038216739235e645b845c730026f31bcfeb7f90bcc7fa78b03610deb57506001919050565b6001600160a01b038216734001efe66331587b9e18a1e84bb9584011157c5c03610e1757506001919050565b506000919050565b610e4a6040518060800160405280606081526020016060815260200160608152602001606081525090565b610e77610e5d6351d5468f60e11b611627565b6040516351d5468f60e11b90610a83908690602401612376565b8060200190518101906108989190612439565b610e926118b7565b600101546001600160a01b03163314610eff5760405162461bcd60e51b815260206004820152602960248201527f4469616d6f6e6453746f726167654c69623a204d75737420626520636f6e747260448201526830b1ba1037bbb732b960b91b60648201526084016101a8565b565b73b32c79a25291265ef240eb32e9fabbc6dcee3ce390565b6040805160c081018252600080825260208201819052918101829052606081018290526080810182905260a0810182905290610f536113f1565b90506001600160a01b03831673ae64d55a6f09e4263421737397d1fdfa71896a6903610f9157739e295b5b976a184b14ad8cd72413ad846c29966092505b6001600160a01b038416739e295b5b976a184b14ad8cd72413ad846c29966003610fcd5773ae64d55a6f09e4263421737397d1fdfa71896a6993505b6040516307c11f8f60e51b81526000906001600160a01b0383169063f823f1e090610ffc908890600401612336565b602060405180830381865afa158015611019573d6000803e3d6000fd5b505050506040513d601f19601f8201168201806040525081019061103d919061234a565b90506000826001600160a01b031663f823f1e0866040518263ffffffff1660e01b815260040161106d9190612336565b602060405180830381865afa15801561108a573d6000803e3d6000fd5b505050506040513d601f19601f820116820180604052508101906110ae919061234a565b6040516335923e0360e01b81529091506001600160a01b038416906335923e03906110dd908890600401612336565b602060405180830381865afa1580156110fa573d6000803e3d6000fd5b505050506040513d601f19601f8201168201806040525081019061111e9190612502565b6111615760405162461bcd60e51b815260206004820152601460248201527320b9b9b2ba103737ba1039bab83837b93a32b21760611b60448201526064016101a8565b6040805160c081018252838152602081018390526001600160a01b03808916828401819052908816606083015291516370a0823160e01b815288928892916080830191906370a08231906111b9903090600401612336565b602060405180830381865afa1580156111d6573d6000803e3d6000fd5b505050506040513d601f19601f820116820180604052508101906111fa919061234a565b8152602001826001600160a01b03166370a08231306040518263ffffffff1660e01b815260040161122b9190612336565b602060405180830381865afa158015611248573d6000803e3d6000fd5b505050506040513d601f19601f8201168201806040525081019061126c919061234a565b905298975050505050505050565b600061088561128f6311d1d7d160e11b611627565b604051602481018590526311d1d7d160e11b90604401610a83565b60008183106112b957816112bb565b825b9392505050565b604080516001600160a01b038481166024830152604480830185905283518084039091018152606490920183526020820180516001600160e01b031663095ea7b360e01b179052915160009283929087169161131e9190612548565b6000604051808303816000865af19150503d806000811461135b576040519150601f19603f3d011682016040523d82523d6000602084013e611360565b606091505b509150915081801561138a57508051158061138a57508080602001905181019061138a9190612502565b6113ea5760405162461bcd60e51b815260206004820152602b60248201527f5472616e7366657248656c7065723a3a73616665417070726f76653a2061707060448201526a1c9bdd994819985a5b195960aa1b60648201526084016101a8565b5050505050565b734f032cc36b72d934551bc0395df17162ef92d8d990565b60405163b25bfc0160e01b81523060048201526001600160a01b03828116602483015283169063b25bfc0190604401600060405180830381600087803b15801561145257600080fd5b505af1158015611466573d6000803e3d6000fd5b50506040516370a0823160e01b8152600092506001600160a01b03841691506370a0823190611499903090600401612336565b602060405180830381865afa1580156114b6573d6000803e3d6000fd5b505050506040513d601f19601f820116820180604052508101906114da919061234a565b111561155b576040516307c11f8f60e51b8152611557906001600160a01b0384169063f823f1e090611510908590600401612336565b602060405180830381865afa15801561152d573d6000803e3d6000fd5b505050506040513d601f19601f82011682018060405250810190611551919061234a565b826118db565b5050565b6040516307c11f8f60e51b8152611557906001600160a01b0384169063f823f1e09061158b908590600401612336565b602060405180830381865afa1580156115a8573d6000803e3d6000fd5b505050506040513d601f19601f820116820180604052508101906115cc919061234a565b6119ca565b60006116146115e66305ce239560e41b611627565b6040805160048152602481019091526020810180516001600160e01b03166305ce239560e41b179052611735565b8060200190518101906108f49190612502565b600073968f944e9c43fc8ad80f6c1629f10570a46e2651604051630d74157760e01b81526001600160e01b0319841660048201526001600160a01b039190911690630d74157790602401602060405180830381865afa15801561168e573d6000803e3d6000fd5b505050506040513d601f19601f820116820180604052508101906108989190612564565b606060006116bf83611a22565b9050600080856001600160a01b0316836040516116dc9190612548565b600060405180830381855afa9150503d8060008114611717576040519150601f19603f3d011682016040523d82523d6000602084013e61171c565b606091505b509150915061172b8282611ab1565b9695505050505050565b6060600061174283611a22565b9050600080856001600160a01b03168360405161175f9190612548565b600060405180830381855af49150503d8060008114611717576040519150601f19603f3d011682016040523d82523d6000602084013e61171c565b60006602ed57011e0000601f19360135811614806117cb576040516373bb264f60e11b815260040160405180910390fd5b600036602911156117ef57604051632bcb7bc560e11b815260040160405180910390fd5b506028193601356000600961180a600362ffffff8516612363565b6118149190612363565b905036611822600283612363565b11156112bb5760405163c30a7bd760e01b815260040160405180910390fd5b60008061184f602084612363565b90503681111561187257604051632bcb7bc560e11b815260040160405180910390fd5b36033592915050565b600080600061188984611b2e565b9092509050604e61189b826020612363565b6118a59084612581565b6118af9190612363565b949350505050565b7f8d5bb42e0ac1496a2c326edc9c00758985246e6c2bb146d6c2f4a0d509e0960a90565b816000036119245760405162461bcd60e51b815260206004820152601660248201527553796d626f6c2063616e6e6f7420626520656d70747960501b60448201526064016101a8565b6001600160a01b0381166119705760405162461bcd60e51b8152602060048201526013602482015272496e76616c696420416464726573735a65726f60681b60448201526064016101a8565b600061197a6118b7565b905061198a816004018484611b85565b50827f21eab7d98872eb1399cd56d99a43442b9b50720f3222e49563d2be182c6a6a3f426040516119bd91815260200190565b60405180910390a2505050565b60006119d46118b7565b90506119e38160040183611b9b565b50817f82829875fd21462894d9bbb2fdbd4a8c25ceb68425c4835a59ca0e76902def9442604051611a1691815260200190565b60405180910390a25050565b80516060906000611a31611ba7565b90506000611a3f8284612363565b905036821115611a6257604051632bcb7bc560e11b815260040160405180910390fd5b6060604051905081815285602001848101826020015b81831015611a90578251815260209283019201611a78565b50505082833603856020018301379190920181016020016040529392505050565b606082611b28578151600003611ada57604051632b3ff13d60e11b815260040160405180910390fd5b602082015162461bcd60e51b148015611b0d576040516301efd04f60e31b815260448401906101a89082906004016125c4565b8260405163fd36fde360e01b81526004016101a891906125c4565b50919050565b600080808080611b3f604187612363565b90506000611b58611b51602084612363565b3690611c12565b803594509050611b69816003611c12565b62ffffff9490941697933563ffffffff16965092945050505050565b60006118af84846001600160a01b038516611c1e565b60006112bb8383611c3b565b600080611bb261179a565b90506000611bbf82611841565b61ffff169050611bd0600283612363565b915060005b81811015611c0a576000611be88461187b565b9050611bf48185612363565b9350508080611c0290612267565b915050611bd5565b509092915050565b60006112bb8284612280565b600082815260028401602052604081208290556118af8484611c58565b600081815260028301602052604081208190556112bb8383611c64565b60006112bb8383611c70565b60006112bb8383611cbf565b6000818152600183016020526040812054611cb757508154600181810184556000848152602080822090930184905584548482528286019093526040902091909155610898565b506000610898565b60008181526001830160205260408120548015611da8576000611ce3600183612280565b8554909150600090611cf790600190612280565b9050818114611d5c576000866000018281548110611d1757611d1761223b565b9060005260206000200154905080876000018481548110611d3a57611d3a61223b565b6000918252602080832090910192909255918252600188019052604090208390555b8554869080611d6d57611d6d6125d7565b600190038181906000526020600020016000905590558560010160008681526020019081526020016000206000905560019350505050610898565b6000915050610898565b60008083601f840112611dc457600080fd5b5081356001600160401b03811115611ddb57600080fd5b6020830191508360208260051b8501011115611df657600080fd5b9250929050565b60008060008060008060808789031215611e1657600080fd5b863595506020870135945060408701356001600160401b0380821115611e3b57600080fd5b611e478a838b01611db2565b90965094506060890135915080821115611e6057600080fd5b50611e6d89828a01611db2565b979a9699509497509295939492505050565b600060208284031215611e9157600080fd5b5035919050565b634e487b7160e01b600052604160045260246000fd5b604080519081016001600160401b0381118282101715611ed057611ed0611e98565b60405290565b604051608081016001600160401b0381118282101715611ed057611ed0611e98565b604051601f8201601f191681016001600160401b0381118282101715611f2057611f20611e98565b604052919050565b60006001600160401b03821115611f4157611f41611e98565b5060051b60200190565b600082601f830112611f5c57600080fd5b81356020611f71611f6c83611f28565b611ef8565b82815260069290921b84018101918181019086841115611f9057600080fd5b8286015b84811015611fcf5760408189031215611fad5760008081fd5b611fb5611eae565b813581528482013585820152835291830191604001611f94565b509695505050505050565b600060208284031215611fec57600080fd5b81356001600160401b038082111561200357600080fd5b908301906080828603121561201757600080fd5b61201f611ed6565b82358281111561202e57600080fd5b61203a87828601611f4b565b82525060208301358281111561204f57600080fd5b61205b87828601611f4b565b60208301525060408301358281111561207357600080fd5b61207f87828601611f4b565b60408301525060608301358281111561209757600080fd5b6120a387828601611f4b565b60608301525095945050505050565b6001600160a01b03811681146120c757600080fd5b50565b6000602082840312156120dc57600080fd5b81356112bb816120b2565b600060208083850312156120fa57600080fd5b82356001600160401b0381111561211057600080fd5b8301601f8101851361212157600080fd5b803561212f611f6c82611f28565b81815260059190911b8201830190838101908783111561214e57600080fd5b928401925b8284101561216c57833582529284019290840190612153565b979650505050505050565b600081518084526020808501945080840160005b838110156121b257815180518852830151838801526040909601959082019060010161218b565b509495945050505050565b6020815260008251608060208401526121d960a0840182612177565b90506020840151601f19808584030160408601526121f78383612177565b925060408601519150808584030160608601526122148383612177565b92506060860151915080858403016080860152506122328282612177565b95945050505050565b634e487b7160e01b600052603260045260246000fd5b634e487b7160e01b600052601160045260246000fd5b60006001820161227957612279612251565b5060010190565b8181038181111561089857610898612251565b600081518084526020808501945080840160005b838110156121b25781516001600160a01b0316875295820195908201906001016122a7565b60608152835160608201526020840151608082015260006040850151608060a08401526122fc60e0840182612293565b90506060860151605f198483030160c08501526123198282612293565b6001600160a01b0396909616602085015250505060400152919050565b6001600160a01b0391909116815260200190565b60006020828403121561235c57600080fd5b5051919050565b8082018082111561089857610898612251565b6020808252825182820181905260009190848201906040850190845b818110156123ae57835183529284019291840191600101612392565b50909695505050505050565b600082601f8301126123cb57600080fd5b815160206123db611f6c83611f28565b82815260069290921b840181019181810190868411156123fa57600080fd5b8286015b84811015611fcf57604081890312156124175760008081fd5b61241f611eae565b8151815284820151858201528352918301916040016123fe565b60006020828403121561244b57600080fd5b81516001600160401b038082111561246257600080fd5b908301906080828603121561247657600080fd5b61247e611ed6565b82518281111561248d57600080fd5b612499878286016123ba565b8252506020830151828111156124ae57600080fd5b6124ba878286016123ba565b6020830152506040830151828111156124d257600080fd5b6124de878286016123ba565b6040830152506060830151828111156124f657600080fd5b6120a3878286016123ba565b60006020828403121561251457600080fd5b815180151581146112bb57600080fd5b60005b8381101561253f578181015183820152602001612527565b50506000910152565b6000825161255a818460208701612524565b9190910192915050565b60006020828403121561257657600080fd5b81516112bb816120b2565b808202811582820484141761089857610898612251565b600081518084526125b0816020860160208601612524565b601f01601f19169290920160200192915050565b6020815260006112bb6020830184612598565b634e487b7160e01b600052603160045260246000fdfea2646970667358221220e74220ce3ca0ee22482c261dca873d2f62bceb06941fce46de7bd0d50498bc2a64736f6c63430008110033",
  "devdoc": {
    "kind": "dev",
    "methods": {},
    "version": 1
  },
  "userdoc": {
    "kind": "user",
    "methods": {},
    "version": 1
  },
  "storageLayout": {
    "storage": [],
    "types": null
  }
}